:20000000004B0020793E0100FDC90110FDC90110FDC90110FDC90110FDC90110FDC90110B3
:1C002000FDC90110FDC90110FDC90110FDC90110FDC90110FDC901103BCA0110A4
:20003C00FFFFFFFFFFFFFFFF9A100000000000000000000000000000000000000000000002
:20005C000000000000000000000000000000FAFA1400000000000000000000010000010179
:20007C00000000000000000000000000000000000000000000000000000000000000000064
:20009C00000000000000000000000000000000000000000000000000000000000000000044
:2000BC000000007800080230000800000000000000000804FA000000FFFFFF000C1100004A
:2000DC000000000000001D1100000000000000002E010F000000FA0000002F010F0000005F
:2000FC00FA000000300100000000FF000000310100000000FF000000320100000000030053
:20011C0000003301000000000300000034010000000001000000350200000000FFFF000021
:20013C00370200000000FF000000390200000000FF0000003B0200000000FFFF00003D01B8
:20015C0000000000FF0000003E0100000000010000003F01000000000100000040010000C2
:20017C0000000700000041200000000000000000610200000000FFFF00006308000000002F
:20019C00000000006B080000000000000000730800000000000000007B08000000000000D2
:2001BC000000830205000000580200008501000000001000000086010000000032000000F0
:2001DC0087010000000032000000000038C40D00C8000000810000320F01000000C50D00E3
:2001FC00900100004000009605010000952B0D00C8000000220000320F0200003600010045
:20021C000600000000000000000F000000000000000000000000000000000300FFFF0000AC
:20023C000403FFFF0000FFFF0F00F4010005401F0320000100000000FF3F0F0008000E00B0
:20025C0000000000000000000300010F000009010000000000000000000000000000000065
:20027C0000000000000000000000000000000000000000000000000000000000AD000000B5
:20029C000001363601010001020100010301000104010606080400000C0100340D01000F4E
:2002BC0010040101140100FF1608000020020000220100FF23010001240100FE2501000820
:2002DC002602000028010001290100012A0200002C01000F2E020000300100013101000881
:2002FC00320200FF3401000735010240360100003701000138010001390100FF3A01000FCE
:20031C003C0200FF3E01010F3F0100014001041F41010001420100FF4301008044080000FB
:20033C004E0100084F01000F50010001510100FF5201090A53010185540100015804000056
:20035C005C0400006004000064040000680400006C04000070040000740400007804000011
:20037C007C040000800100FF81010001000120181A18182C34041E000C0E020B040B0A0792
:20039C000800110F00000500B900B300AD00B8001C00300038000800340102000304710404
:2003BC0002046004110470040204020401040204000410046104000414046304730472042A
:2003DC0062044304000413040604000400040404120400040004000400045104640000043C
:2003FC0000040004440400040004000400046504000435048104640005040004830400045A
:20041C006604000400040804010171010101010111010101310101010101800100011001ED
:20043C0061013B001400630173017201620143010001130106013D01350004011201000155
:20045C0000010001000104010401330133013C014401320136000001000165010001350082
:20047C008101000105018201830100016601000100010801030271023001600211027002CD
:20049C0001020202020280020002100261023A0041006302730272026202430200021302B3
:2004BC0038000002000204021202000200020002000204020402370037003C0244020002C2
:2004DC00390000020002650200023502810200020502820283020002660200020002080216
:2004FC0000C533010000DD2E010002C7310000003173010001C73100000031730100032576
:20051C00E10000003173010004BD720100003173010001B172010001AB7201000131730176
:20053C000001317301000131730100005D45010001317301000131730100013173010001BD
:20055C003173010002B172010002AB7201000231730100005D4501000231730100023173FD
:20057C000100027533010002317301000447400000003173010003B172010003AB72010094
:20059C0003C731000003C731000003317301000325E100000331730100005D450100033119
:2005BC00730100033173010004B172010004AB72010004C731000004C731000004C73100C5
:2005DC000004474000000431730100043173010004B7720100005D4501000104E9FA010068
:2005FC000300000000040000EDF701008BF90100DFF90100F9F301005DF40100D5F8010088
:20061C0061FA0100C7F90100B1FA0100F9F2010019F501006DF9010001F901006DF5010035
:20063C00BDFA0100D5FA01009DFA010089FA010043FA010035FA0100D5F601006FFA010056
:20065C00ADF9010015FA01009DF60100DFFA0100B51501006D53010001F00100C1F5010024
:20067C0029F10100FDF90100D54501001D69010005690100BDF401008570010077700100AB
:20069C0059F601000000000000000000F7710100696F010015F7010000000000000000009F
:2006BC00000000000000000000010400003333333333333333333333333333333303010FD6
:2006DC0000000000000000000000000000000000FFFFFFFFFFFFFFFFFFFFFFFFFFFFFFFF0E
:2006FC00FF46485465737400000000000000000000000000000000000000000000000000B1
:20071C0000000000D106000001000000C80A000008000000F605000001123456789ABCDEC7
:20073C00F000000000000000000000000000000002040201010101090200A2A6A8A0A5A5BC
:20075C009F95AD96B8B2A4313117191A21241B1D1F31313331313118191A22311C1E20315F
:20077C00313431000000000002000000020000000A000000020000000200010000000000B4
:20079C000000000000000000000000000000000000000000000000000E00000003007100BB
:2007BC0030016000110070003102200350048000070010006100000014006300730072000D
:2007DC006200430000001300060000000000040012000000000000000000040004003700EA
:2007FC0037003C024400000000000000000065000000350081000000050000008300000081
:20081C0066000000000008000103710301030103010301030103220302030103000310037E
:20083C000003000300030003000300030003420300032403060300030003040312032503C5
:20085C002303250323030403040300030003000344030003000323030003650321003503BA
:20087C0081030003050300030003000300032503230308038F0000008F0001008F000200B8
:20089C008F000300900000018F00010190000002900000038F0001048F0000058F000804A0
:2008BC008F0000048A000006510000007F0001003F0004003F0002003F0001007F000200E3
:2008DC007B756E6B6E6F776E2D696E7374616E63652D6E616D657D007B656D7074792D6964
:2008FC006E7374616E63652D6E616D657D00C0467B7374617469632D696E7374616E63651A
:20091C002D6E616D657D00C0000000000800000000000000200000004000000060000000E8
:20093C00000000000600000002000000860000008200000000000000080000001000000073
:20095C001800000020000000C003000080070000000F0000001E0000003C00000078000018
:20097C0000F0000000E0010000C003000080070000000F0000001E0000003C00000078005F
:20099C000000F0000000F00006088080070880800D2007C00E2007C01400C080024000803F
:2009BC000300C0800108C0801E08C08009400080084000800A400080FE00000000010002CD
:2009DC000101000302010002000000000301000704010003050800000D0101FF0E080000AD
:2009FC00160800002002000009050100A5260100AD690100DDA3000095BB0000D572010091
:200A1C00F91D0100EDC20000DB7201009505010000000000FFFFFFFFFFFFFFFF0000000013
:200A3C00000000000101010100C2010003000000000000007BC80110C5BC0110D9B201104E
:200A5C0033C20110BDAD0110C1B101106DBA011065BB01101DC001100010004006000000C9
:200A7C0015000000FF000000000000000302FFFFBC2C002040000000FFFFFFFFC409000032
:200A9C00000000000000000001003A010000000000000000040A000008250020740A000025
:200ABC0000000000000000000000000000000000000000000000000000000000000000001A
:200ADC0000000000C33B3D3A5D3A713AA10A8F3A0F3BB309495E850A2F3B853B001610162D
:200AFC000E18151C0212032418580302100258000100000000000000000000000000010067
:200B1C000000FF7F142B0020400B0000000000000000000000000000F1D90000F9290100A4
:200B3C0001010100004002400B00000027000000FF0000000001050900040810000408109C
:200B5C0041B5011095A6011015B8011000BE040A00BE0208FFFFFFFFFFFFFFFFFFFFFFFFC0
:200B7C00FFFFFFFFFFFFFFFFFFFFFFFFFFFFFFFFFFFFFFFF3545251502030504FF000000AC
:200B9C0000000000956901003130010006000500000001020101FFFF000000400F0000007B
:200BBC00F98D0000D1C0011061AD01100A0000001018002061580100A9730100DDC5000007
:040BDC00857201001D
:201000003C000000000000000000000034100000000000000000000001000000000000004F
:1C10200000000000000000000000000001000000000000000800000000000000AB
:20103C003400000000000000000000006810000000000000000000000100000000000000E7
:14105C00010000000000000000000000080000000000000077
:2010700030000000000000000000000098100000040000000000000001000000FFFFFFFF87
:10109000FF00000001000000080000000000000048
:2010A0002C0000000000000000000000C4100000040000000000000001000000FFFFFFFF2F
:0C10C000FFFFFFFF080000000000000020
:2010CC0038140000E410000095A1011091A70110A1C2011009B2011041B8011000000000EA
:0810EC00000000002D000000CF
:2010F400280000000000000000000000141100000000000000000000FFFFFFFF0000000093
:081114000800000000000000CB
:20111C00341400003011000065C2011069C101101BC2011091BA011000000000000000006D
:04113C002F00000080
:20114000341400005411000071C20110A5B6011099BF011045B601100000000000000000BD
:04116000300000005B
:201164002400000000000000000000008011000000000000000000000000000008000000AE
:041184000000000067
:20118800240000000000000000000000A41100000000000000000000000000000800000066
:0411A8000000000043
:2011AC00240000000000000000000000C8110000000000000100000000000000080000001D
:0411CC00000000001F
:2011D00000000000FC180020040000000000000000000000200000007010000030000000F7
:2011F0001C110000041900200400000000000000000000000C00000030130000180000000A
:20121000401100000C1900200400000000000000000000002400000048130000180000008D
:20123000000000001419002004000000000000000000000010000000A01000002C00000061
:20125000CC1000001C19002004000000000000000000000020000000641100002400000090
:20127000FFFFFFFF241900200400000000000000000000002800000088110000240000001C
:20129000FFFFFFFF2C190020040000000000000000000000580000003C1000003400000001
:2012B000FFFFFFFF3419002004000000000000000000000010000000601300001800000016
:2012D000FFFFFFFF3C1900200400000000000000000000001C000000AC110000240000008C
:2012F000FFFFFFFF4419002004000000000000000000000038000000F410000028000000FD
:20131000FFFFFFFF4C19002004000000000000000000000054000000001000003C00000098
:1813300018000000000000000000000040130000080000000000000032
:1813480018000000000000000000000058130000080000000000000002
:18136000180000000000000000000000701300000800000000000000D2
:0813780002000000A00B0000C0
:041384000100000064
:0413880000000E0053
:04138C0000000F004E
:041390003200000027
:041394000100000054
:0413980068180020B1
:04139C00000200004B
:0413A000C372010013
:0413A400FDC901106E
:0413A8000000000041
:0413AC00000000003D
:0413B0000800000031
:0413B4000000220013
:0413B8009416002067
:0413BC00010000002C
:0413C0008018002071
:0413C400080000001D
:0413C8000000000021
:0413CC00000000001D
:0413D0000000000019
:0413D400080000000D
:0413D8000000000011
:0413DC00000000000D
:0413E0000100000008
:0413E4008C17002042
:0413E80006000000FB
:0413EC0001000000FC
:0413F0003415002090
:0413F40000000000F5
:0413F80000000000F1
:0413FC0000020000EB
:0414000000000000E8
:021406002900BB
:021408000100E1
:02140A002500BB
:02140C002F00AF
:02140E003000AC
:021410002D00AD
:021412000100D7
:0114140001D6
:08141800030000005C0B000062
:081420000000000000000000C4
:0414280000000100BF
:04142C0000000300B9
:0414300083C4011060
:041434003C14000064
:041438003C14000060
:04143C0000000000AC
:041440008000000028
:041444008000000024
:0414480000000000A0
:04144C0080180020E4
:04145000D76E010052
:041454002000000074
:041458000C0B000079
:04145C00500A000032
:0414600009C30110AB
:04146400872F0100CD
:04146800DB40010064
:04146C0095C801100E
:0414700097C8011008
:041474000000000074
:041478000B0B00005A
:04147C00F408000070
:041480000C09000053
:04148400DC08000080
:0214880008005A
:02148A00090057
:02148C0001005D
:02148E0000005C
:01149000015A
:041494000000000054
:041498000000000050
:04149C00000000004C
:0414A0000000000048
:0414A400A17301002F
:0414A800914D010061
:0414AC00F55F0100E7
:0414B000795101006D
:0414B400AB52010036
:0414B800DD4401000E
:0414BC006D180100A6
:0414C000CB700100EC
:0414C4000D2B0100EB
:0414C8000DC801103A
:0414CC001DC8011026
:0414D0000800000010
:0414D40024000000F0
:0414D80018000000F8
:0414DC0028000000E4
:0414E00020000000E8
:0414E4003C000000C8
:0414E8000C000000F4
:0414EC0034000000C8
:2014F0007E482DE9F04F0C4601210170DFF8F491DFF8F481DFF8F4B1DFF8F4A178494FF04C
:20151000000C2027ADF1440D65461F4081F800C0CE490E9391F83C600D9205EA020008BF02
:2015300000287AD10D984FF0E047194662460F4002EA000008BF002843D10E9E0D9B4FF441
:201550008601B9F8B200DFF828C3CDF8289012EA060701EA030108BF002919D1C34912EA78
:20157000060701EA030108BF00296FD0374641460D9E0C8101F130034881002F83E8C000AC
:2015900004BF331CB3F1806F60D102285ED111E0374641460D9E0C8101F130034881002FC2
:2015B00083E8C00004BF331CB3F5803F4ED1B0F5505F4BD1086A6746436938682146984737
:2015D00042E046465946B6F9087091F90000BC42A0F10100087017D1728906F1300003C820
:2015F000002904BFB0F5803FB2F5505F08D0002904BFB0F1806F022A02D010F023FF03E0DE
:2016100012F0D6F815F072FA524692F90000401E10706FF00101318114E041466FF001008A
:2016300001F1080210806EB1BC480078832802D0BB48812202704646316919B16046884779
:201650002146E8E7CDF82890B9F8B2000D9A0E9E02212F461140374008BF002900F09483BA
:20167000B04A43F201418142109200F06783C91C814200F06383594691F900105A464746C6
:20169000491E1170B7F908108C4205D043F60401814240F062835EE36C4890F83CC007F160
:2016B000300090E800034FF482062F4617EA090706EA080008BF00281CD10B48303003C8CC
:2016D0004FF400322F4602400F4008BF002A02D110F0B8FE41E312F06BF83EE378190020AA
:2016F000C41800200410002038140020CB180020CA1800200020BCF1010F4FF08105884CC3
:201710000F9003D0207808B115F016FC2570BD4C0020677860810646E7702069DDF8409090
:20173000417A027A89F8006001F0070302EB0322490996B238BF361F09D304F110010A683A
:20175000167A517A01F0070106EB0126B61E457ADFF8B482B6B235F07F0540F0D782B6F528
:20177000006F80F2D3820A3031460FF045FAE16904F114000522083115F0F4F9F61EB6B213
:201790000520E37DA57D314A6081217ECDF83090C3F3011B92F83C00617105EB0325002868
:2017B00008BFBBF1020F00F0B182BBF1020F00F3AD8260B115F0070F00F0A8825748007836
:2017D000862804D105F00700022840F09F82281300F00209B9F1020F4CDAA37805F00700D1
:2017F000022835D1D8F804A093BBE16909A801220D3115F0B7F906206081D0478146834E20
:201810004648D8F8082037680078CDF82C80862816D127B915F090FB4046376882689DF900
:20183000240015F0ADFD9DF9246078770020B8774846FE77904705F0100010F0F1F801E0C4
:201850004846904714F0D4FF64E2C0464C120020324800780022862808BF0122CDF82C8055
:201870005AB1002011F0F0FFE77805E000000C8C08170020CDF82C80A37887B17BB9012FFA
:2018900000F03F82022F03D115F0070F40F03982032F04D105F00700032840F03282280939
:2018B00008D315F4405F00F02C82C7480778002F00F02782B9F1020F02DAA80A80F0218245
:2018D000C4480078C0F3810A4FEAA018BAF1010F00F01782B8F1010F00F01382BB48BBF114
:2018F000020F0CD010F80A1010F80800B8F1000F0844C7B21CD0E8091AD3BF1E0CE000EBBE
:201910000A014044097900794018C7B2E8090BD25AEA08030CD0BF1CFFB209E0C02D0020E1
:20193000BC2D0020BE2D00205AEA080308BF0227C5F30029A7EB09008642C0F2E281F61BDA
:2019500009EB0600290980B2208124BF25210F910F994018743080B215F0E0F9A678E0609D
:20197000002800F0CE81002174220FF006FC002020711EB90C9905F0200008700C9803785F
:201990000026002B65D0B9F1000F62D19048008805F0070103291BD18108324609D31B490F
:2019B00091F82E3093B90B681BB15B7E33F07F030CD15AB9800807D3D3498B68887813B102
:2019D00018468047267908B9002301D004262671D94890F83C3013B1BBF1020F39DA60793B
:2019F0000DF125010C90E92012F030F8B3469DF82560D04966B901F10800072202700822DA
:201A10000BE0C046242D0020EC1200209C0A002001F108000522027018224A72861C022122
:201A300000233170BBF1000FC37003D0317841F0100131700C990A9A01710521A2F8781082
:201A5000C2F8840014F062FA304603210FF0D4F82679E16801F174004860886523890B8158
:201A70002089A1F85C0028090ED3C9F1030082B2A1F85C20886DD84915F074F8E1688A6DD9
:201A9000B1F85C00801888655248D34B0078C0F3011218788D81B9F1000F00F0780040EACD
:201AB000020046EA00060E744FF0FF038B730CBF6079002081F8308081F83AA081F849001B
:201AD0006089002FA0EB090085B2658100F01181E069E78029183A460831684615F042F814
:201AF0003C48EE19B5B26581E16800780A7C6E46C0F38103C0F3011AC0F38108002B02F0A5
:201B1000400946D0C0F301100023022801D1D0090BD29DF801209DF8000000EB0220A1F8CC
:201B300044000DF10206A1F84200AE4AB1F84400B2F85220824203D04FF6FF72824222D16B
:201B5000B8F1030F12D072783078A64B00EB022082B24A86B3F85010B61C0120914211D092
:201B70004FF6FF71914218BF00200BE0E0683146323015F0BFFBE0689A493230473114F002
:201B900045FE08360346002B00F0B6802046E168C07D831126D0BAF1020F03D0087CC009C8
:201BB00003D309E059EA080206D172783078B61C00EB0220A1F84200032B0DD07078327849
:201BD00002EB00220A850DE0980C0020680B0000801300203B2D0020E0683146283015F0DC
:201BF00089FBE16888890009C0F08380886D3A46694614F0B7FFE068816D79188165E66961
:201C1000B0F85C1001227F18A919A0F85C7008310DF1260014F0A6FF6F1CBDB26581E16891
:201C30009DF82600896D0870E2689DF826609DF82630906D401C9065B2F85C00401CA2F8D1
:201C50005C0006F0070082F82400C3F3C10182F82510208992F824708046002F4CD05F4FD0
:201C70007F183E78361D8642E68045DCE06929183246083105A814F075FF3A789DF817C0E7
:201C9000111D481980B29DF81450608105EB0C60E3689DF8165000EB05409DF815500429A0
:201CB00000EB052098610BDDE06806A9521E1C3014F058FF3878E3686844C07D83F8260090
:201CD000986D05A9324614F04DFFE068816D71188165B0F85C10A8EB06077118A0F85C1093
:201CF000791E89B22181B0F85C2001818918A0F85C1000F081F80DE015F046FA10F0A2FBDD
:201D100008E015F065F805E0D018002015F060F8CDF82C80DDF82C80D8F804008047E16948
:201D30000A68002313710968E161D8F80810884713E0C0462C1700204C12002040468078B8
:201D500041465F46401C887097F900005946401E087010F077FB14F0DBFA23480A99214F25
:201D700000226FF0010690F83C00A1F8B2203E8110B11098007808B914F0B8FE1B481B49BA
:201D900090F90000401E0870194890F9000010B9134800210170154890F9000088B10D9A6E
:201DB0000E9F02214FF0E0401140384008BF00290BD00E4890F90000002806DC15F0BCF8AE
:201DD00003E00020014605F00FF90A49002011B00870BDE8F08FC0463A2D0020500B0000F4
:201DF000C2180020381400204C120020CA180020CB180020781900202DE9F04FB94C0C3C97
:201E1000E0686189E2692589806DADF13C0D0E46891808312A4614F0A5FEA81986B2E0682D
:201E3000816D6D188565E0690122311808310EA814F098FEE069761CB5B204226581291868
:201E5000083104A814F08EFE9DF813109DF8100000EB0160E3689DF812102D1D00EB0140DC
:201E70009DF81110658100EB0120049014F06AFFD863049814F03EFCA3F84000EA2014F0AB
:201E9000EEFC0221B648E2680170117C2079084310749DF9380015F073FA82F846009DF9E1
:201EB0003800118982F84800002082F8470002F174009065B2F85C00401A51680918516056
:201ED0009089830A18D2030957D310F0070F07D000F00700032812BF081C5068401C48E0EC
:201EF0005068C17801F00703491001F0380101EB43014018001D3CE0171C02D115F01CF883
:201F1000E268B889800A2ED379684878C6112AD13E89796600204D780B7805F07F056D0034
:201F300005EBE3157E2D0DD07F2D09D003F07F031818801C5B1880B2991C8642EBDC08E08A
:201F5000002100E00121801C87F8601080B2864201DA002005E07968411879603989091AF1
:201F70003981A7F86800506E10B1B2F86800B0B1506850619089000916D292F86000002819
:201F900000F0FC80104611F047F9E268D06C002800F0F480B2F85000002840F0EF8015F056
:201FB000E1F80020E06024E24FF0000B1546104605A9CDF814B007ABCDF818B095F8247040
:201FD000CDF81CB006AA04F007FF002840F0CB80059A6E6968682B89311A581A1FFA80F8CB
:201FF0000AB914F0A9FFB5F85C0000900196CDF808800698001D03900598A969AB6D3A4650
:2020100015300AF0D7FB002840F0AD80AD4895F860302E89C15D701A288113B1284611F0CD
:20203000FBF8AE8906F00706032E02D168680078E87395F80F90732009A913F05FFD832049
:202050000DF13A0108F07CFCDFF8D082DA4651460AE0C278012A03D1002F08BFDC2027D0DB
:20207000001D491C0990C9B29DF83A00884279DD09988278032E07D00378B3420DD098F84B
:2020900000300BB1022E08D0032EE9D10378032BE6D103465B784B45E2D1BB10B3EBA20F78
:2020B00005DA02F0030207F003039A42D1DD50468146059895F80FC090F814E0514601E069
:2020D000491CC9B28E4549DD07694B00032E03EB070209D1FB5C032BF2D152786245EFD1E1
:2020F0000BE0C046302D00201278B24205D098F80020002AE4D0022EE2D10698077D002F4D
:2021100008BFB9F1DC0F2DD0A869B0F1FF3F23D0712008A913F0F2FC5346089AA969059856
:20213000824206D106989A4600EB8A00C068884210D85B1C2C32022BF1DB0698491CB1F1B4
:20215000FF3F00EB8A00C16002D1079801218170584608E0DB2007E0DB2004E0DC2002E0F1
:20217000BC2D0020DD206870E26850709069577850651FB1F22014F072FBE2689F4DDFF88A
:20219000849295F83C10002900F0AD8090899C4EDFF874B200F00700022858D1A078002870
:2021B00055D15078002852D1E1684FF000080CA88DF83980283115F09DF806F11001E7680A
:2021D00008882B6E401C0880786E0DF139020421984704F10C0A30B94846006818B19DF877
:2021F000391080F8681014F021FC90B1E76897F8300002280ED1DAF8000059460222203137
:20221000283013F0B9FE28B90BF116010CA815F071F8E7680DF12E000090AD6E786E0CA9C5
:2022300042460BABA84779480078862808D1708AE768401C7082B88900F010000FF0F0FBDF
:2022500014F090FF4046E06014F0D2FAD3E0704B1A78002702B101277248026827B16F7860
:2022700017B114F0E3FB28B91878002831D014F0DDFB70BB53782779002B40F0BA809DF86E
:202290003800B18A02F12803002F207002F11C0201F10100B08214BF082600265D490020BB
:2022B000086014F0DBFB0146009658460192263006881A460D20334604F060FA20B913F0AA
:2022D00025FE03E0540B000014F030FA1348E268017841B1D5F884702FB139461046884706
:2022F0000E48E26801780A9251B1907BFF287AD01046C17B042976DC40680078072872D0F9
:20231000938913F0070040D0401E56D0801E6AD1C3F30130022808D102E0C046881200208E
:202330005068007807282ED0FFE7108900285AD0104641684A1C42600F788446C7739CF839
:2023500024607EB9002F4ED00A2F4CDA0189324EF01910F8010C884209D0082F43D10829BF
:2023700005D040E0C07B00283DD00A283BDA60460189491E0181C17B0B3101700A99C87BB9
:20239000401CC8731BE0322018E0244E96F8A1000F280CD014F0F4FC48B9181300F002008B
:2023B000022804DA0A984D462D1D2968884796F8D7000A9A1074152000E0162010700A992B
:2023D0004D4605F1280012F0B5FE154E7068804795F83010491C85F83010B168884720206E
:2023F00014F0FAFD02E00AA812F010F84FF0000828E710F027F80FB0BDE8F08F4C1200205E
:20241000EC1700209C0A0020600C0020C02D0020BE2D0020301700204C070000CC0B00206E
:20243000EC120020302D00202DE9FE4FE54980460122A1F130000260DF480768002FFCD0C2
:20245000DE4ADF4EC027E048E04B17603268920808D2324652F8042C03F14104120C42F0DD
:20247000F00222704FF0000A8346C1F800A0DFF864C3DBF80810D64D0191880E43D2480EBE
:2024900041D3802018744FF6D802A3F8512018702868C0F30464162CA8BF203C1F460F3FD6
:2024B000387800F01F001628A8BF2038844223D0624602F1980EDA4ACEF800A0261A022E5C
:2024D00005DC16F1020FB8BF6FF0010600E002263018166800F01F06844246F4F856A7F846
:2024F00066604FF001061660E8D11068374617601068CEF80060106828460068C0F3042062
:20251000162808DB06E0A5F1D0000068C0F30460162800DB203800EB2170401C162805DA59
:2025300010F10A0FB8BF6FF0090000E01520DE4F00F01F0040F4F850A3F8590038688008A9
:202550003ABFEA48C0F800A041F04061019E6246A5F13804C80E8F0E80F0010000F0010028
:20257000106087F0010000F0010090602068C0F38367C0F38F21B00C23D2304640F3072079
:2025900000280BD542425046490805D17F0806BF0127391C4FF6FF71521EF5D1002810DD19
:2025B0004FF6FF72490041F001018A4207D27F0047F001070F2F92BF01210F27111C401E04
:2025D000F0D141EA0741182012F07CFC2068D24E2768C94CA6F10409C0F3870107F00300E0
:2025F00041EA0021D9F8040040F2FF3253468FB22C21466800972746A7F14000B0470C3D56
:202610002868C0F30D011C2012F05CFCB84955F8080C014000F07C400143142012F052FCAC
:2026300055F80C1C01F47C000904090C0143102012F048FC624955F8042C0968C2F3035027
:20265000C2F30345490813D2DBF800100B0510EB237003D41028A8BF0F2000E0504609048E
:2026700015EB217503D4102DA8BF0F2500E0554645EA001502F47F4002F0FF01B8F1220FC5
:2026900040EA054041EA000124BF02F0804211430C2012F017FC974DB8F1220F32BF012093
:2026B0002868C0F30070B8F1220F4FEA400040F0200084F8090126BF2868C0F34070012035
:2026D0008E4EB8F1200F40F0100084F8090138BF514606D33168C80C00F44070C1F384516F
:2026F0000143282012F0EEFBB8F1200F26BF3068C0F301505046B8F1220F4FEA400040F0E1
:20271000600084F80C0126BF2868C0F3C0605046B8F1220F4FEAC00040F0800084F80101E1
:2027300026BF2868C0F345505046B8F1200F4FEA800040F47C40A4F89C0138BF70490AD3EF
:20275000306801038A15920501F47C1100F00F00114341EA0031082012F0B4FB4FF48000CA
:20277000A5F1D0012060674A886D40F21E236FF31F40834216D90868030E13F00F0F03F03F
:202790000F01C0F3034018BF491E072805D006280EBF0720801C00F00F0041EA0011A2F155
:2027B00008000170DDF804C0CCF381477F1E13D07F1E3BD036E0C0469402224300600C4085
:2027D000B03F005040100940AC3F005015620840881300500000204328460068810C21D273
:2027F0004FF480412160D2F80210430AC0F3033703F0800321F08F010B4347EA0301C2F8DA
:202810000210D2F80130060A66F30303C2F80130116800F0E70721F0E70147EA010004E0DB
:202830002C2009404FF00040224610603B480068C0F3C0070FB94020A0624FF400702064D6
:2028500028684027C0F3C14040F0300084F8C800CCF3815050B3401E03D0401E1FD00221E5
:202870001EE0012012F09CFF0646042031460FF0E1FE042012F094FF8642FAD122480668A3
:2028900026F07F4012F0CAFDD9F81400036807214FF06022300E98474FF48060206003216D
:2028B00004200FF0C7FE08E000000940042001210FF0C0FE154812F0B1FD203D2868144995
:2028D00047F6180600F03F0084F8CB0F144B0E80D9F800201868D1680220884711480D4DCD
:2028F000076001212960BDE8FE8FC04694042A43FCFCFC008C13005040A00C40981300506F
:2029100000803F400A600840A83F0050BD37860070B00C4094046042A4010010B03F0050AB
:202930002C20094000600C402DE9F843CC4C0F460646F80B80F0E881A07AB90F80F0758118
:20295000B80880F06281F80A80F03B81E07910B1380980F03381206C002840F09D80380965
:20297000C0F09D80002501262570BE48667114F0B1FB284613F04CFCBB4904F170002A467A
:2029900014F0DAFC04F1580090E8000314F09EF9E378B0EB08004FEA103071EB09010905FF
:2029B000012B40EA010006D194F86810B0EBC12F01D8A378C3B3E670D24EA6F1150109684C
:2029D000A570090A30D3606640F60900A08294F8210000F0F00040F0010084F8210094F8AE
:2029F000200000F0F00084F82000A56114F09EFC06F6FF7211686FF0020321F002011160B8
:202A100004F11401C6F8FB3FCE4AC6F8EB1F11688908FCD3C6F8FB3FD6F8FF1F41F00201D3
:202A3000C6F8FF1F14F070FD2E4604F1580080E86000666611F03EFE607818B9E068403046
:202A500014F088FCC7480660022012F089FA11200BF000FEE068007C10B90E200BF0FAFDEB
:202A7000607A18B16572052012F07AFABE4965710878A57128B10D7004F1EC00042114F05E
:202A900071FCB4F95000B4F95210884214BF022007200CF097FF8EE0380980F08C80B80B47
:202AB00077D2780B29D2380CC0F0538104F13C0014F04CFCF0B1C16849680978022919D1E9
:202AD00090F82700400915D2206C90F82700400910D3206C806840880028FAD0206C8068FE
:202AF00040880128F5D0206C0026A0641920266414F020FC27F400472BE112F061F838B1C5
:202B1000B56930466FF4807100224FF00073A847964904F17000002214F00EFCB168002548
:202B30004FF0010840F602022572088884F8008082420AD0B0F5C15F07D00A8B4FF61F604D
:202B5000104040F43470088306E00A8A4FF61F60104040F434700882757414F0B7F8D4F85A
:202B70005421E36804F5AA719A4208BFA846266E46B1864226BF301A401E801B01EB8801F0
:202B9000000B88602566192014F0D4FB27F48057DFE004F1400014F0D9FB061C08D070680B
:202BB00030B17568F068B6F9241000222023A84727F40057CDE027F00807CAE00020E07158
:202BD000F9E714F0B3FB054604F13C0014F0BEFB061C15D0E06810B1783014F09DFBF0686E
:202BF000E060284614F090FC14F070F82066604814F070FA4FF4006104F1EC0014F0B2FB49
:202C1000002027F48067E071A3E004F14C05284614F09CFB07F03EFF284614F097FB27F010
:202C3000020708B147F0020793E020B1042012F097F90020A07214F079FBB168804608886F
:202C500040F60202824211D0B0F5C15F0ED00A8B4FF61F60104040F4347008830DE0C046E3
:202C700038200020D9BF00000DFB00000A8A4FF61F60104040F43470088204F1580090E85D
:202C90000C00002B08BF002A18D0042012F088FDA0B1A56D14F01AF8854226BF401B401E8B
:202CB000401B000BF060F168708A401840F6C411F06081422CBFB0F5FA7FF160404614F0A1
:202CD00023FC11F07DFF98B1B56930466FF4807100224FF00073A84704F13C0014F036FBEE
:202CF000002808BF47F0020702D0192014F022FB7569002130464FF080630A46A84727F07C
:202D1000005726E01500044014F010FB014604F1440014F01BFB0646B569A80814D29EB1F5
:202D300025EA0500B061084614F0EEFB706870B16DB12A46F068B6F9241075680023A84772
:202D500005E0C04610100440084614F0DDFB27F4804727B104F1EC00394614F003FBBDE829
:202D7000F883C04600000460B72D0020E1C0000049AD00002DE9F04FADF18C0D1C911E93D9
:202D9000CC491D920A6806460DF156000260496841603046694612F02BF800281F9004BFB5
:202DB0000020229000F0F78102200027B61CDFF84CB32090D34D2297304602A910F0A9FA8B
:202DD0005FEA000900F0E48122990EA816220EF0D4F99DF809707F1E00F082807F1E40F05E
:202DF000CF81B9F10A0F40F3D681B61C316804A80160361D318805AF42F20B0039800DF1F8
:202E1000160110F089FCBDF81600BDF81410884200F3C181B61C16F8010B16F8017B16F8DF
:202E3000014B8DF8380016F8011B8DF839700EAA8DF83A40304605F0FDFEBF490978002853
:202E5000064400F0A8811F9C012904F1020400F091814FF400500DF14E0110F05DFC0DF1E6
:202E70004E000DF15601082213F086F840B11C990DF14E00082213F07FF8002840F07A810B
:202E900042F2010004A906F027FA42F20B0005A906F022FA42F205000EA906F01DFA0DF12F
:202EB000390142F2060006F017FA0DF13A0142F2070006F011FA0DF13B0142F2090006F0A5
:202ED0000BFA9DF83B0028B1022840F0538142F2030001E042F20D000FA906F0FDF949E1DF
:202EF000B9F1040F40F35781B61C16F8010B16F8017B16F8014B8DF8380016F8011B8DF8BE
:202F100039700EAA8DF83A40304605F093FE0028064400F040811C9806A906F039F89DF803
:202F30003600002840F00A819DF83B0000287AD195F83170002F00F0FD8095F833008742D2
:202F500007D095F88C000A2801D10AF01FF9A86B1EE0AF6B4FF400500DF15E0110F0DCFB69
:202F700013F016F94FF0FF08229C2190A24695F83100A04240DCA86BB8F1FF0F08D008EB41
:202F900088040019007912F0B9F9A86B071923D195F831300746002B08BF229C19D05846B6
:202FB000229C40681946D8467F1F7F1DFA782AB1491E04F10104F8D17F1D0AE0804795F893
:202FD0003310491C85F83310D8F80810884795F83130A34200F094801C980CF033F8387167
:202FF0000120F870FC788DF8364038798DF83700229B8DF82330A1E0387910F08BFE0146C5
:2030100008220DF15E0012F0B7FF40B138880104219814F087F982453CBF8246A046641C7F
:203030007F1DA4B2A3E795F83070002F00F0828095F83200874207D095F88C000A2801D13A
:203050000AF0A4F8686B1EE06F6B4FF400500DF1660110F061FB13F09BF84FF0FF08229C31
:203070002190A24695F83000A0424DDC686BB8F1FF0F08D04FEA48140019C07F12F03EF957
:20309000686B071925D195F830300746002B08BF229C1CD0DBF80400229C1946D846203FF0
:2030B0002037BA7F42B1491E04F10104F8D120370DE0C046780B0000804795F83210491C8B
:2030D00085F83210D8F80810884795F83030A34216D02299384620220EF04FF81C980BF043
:2030F000B1FFF8770123FF2039462022BB770446787206A8FC720CF09DFD1FE0EC12002068
:20311000612055E0F80D0020F87F10F003FE014608220DF1660012F02FFF38B179682198C4
:2031300014F000F982453CBF8246A046641C2037A4B297E764203BE04D1200209DF836007E
:203150000EA9162240F004008DF8360008A80CF071FD1F9C9DF83B00A41C40B19DF84D70D9
:203170000FA839460FF026FD3F1A8DF8357006A80EF0A6FF20984844801C80B2209003E06E
:203190001F9C4E44B61CA41C209884423FF714AE2098022803DC229A6720114604E01F9AD2
:2031B000911C121A2298921C1D9B19801E990A8023B0BDE8F08F70472DE9F04F0320ADF168
:2031D000540D12F043F9CA4C0025022004F11C0141F80C5F401E8D60FAD104F14000A946F3
:2031F000062701467F1E21F80C9BFBD14FF0080AC049A0F800A0C04A8160C049121D22F05B
:203210000303CF1A2762A361E361A66904F11C08944618460A46B14200F29581B910E8275B
:2032300000EB810121F8049C4FF6FC761F8006EA0C033746D21A00F1E80607EA0201266140
:20325000EC39A0F8E81028461CF00CF86061C249D8F80000DFF82C8320610A6808F10C0011
:20327000026049684160BD498346524612F084FE28B9BB4801685A46116040685060B948E8
:20329000B94FC0F8B070C0F8B850C0F8C850B74EC0F8CC50B64BC0F8B460B64AC0F8BC3064
:2032B000B54FD0F8B010C0F8C020C0F8C47009B1284688471CF052F8B04ECDF838902946A7
:2032D0000C2206F128000DF058FFAD4F0222ADF820A041F27073F762708DADF82220616A9A
:2032F00033631027099740F01900708508A8884700280CBF0A9F2F1C0120ADF82CA0616A50
:20331000ADF82E000BA888479DF83000444620700D99616077B1D021397087F80190B87008
:2033300087F8039087F804903946BD600220FD6011F066F99449182001221BF049FFE22050
:20335000594613F0E1FD18201CF02EFA60706068B046C8F808000BF0C1F8944F08F17C000F
:20337000A060D8F80850894C49466762F520A56013F0A8FA864D05F1180005F10C010CF049
:203390008DFDA8600D2013F0ABFC00B1CA460E2013F0A6FC08B94AF0100A7E49A86813F031
:2033B000B7FE7D49C82205F1240010F0BBFB7B48BAF1100F686011D1606A78B1C2686AB159
:2033D000FF204FF6FC778DF81000F81CADF8120004AEADF8140096E803009047704F07F12C
:2033F000140007F108010CF059FD7860484613F0ADFE4E46BD1E824605F8029F0220687073
:20341000304613F009FF014678685246C9B211F09FFB761C022EEFDB624907F120004FF4B4
:20343000FA7210F07FFB606A002845D00769DFF878A16FB10094514612A80A688988026045
:2034500012AE818096E8030001234A46B847606A002831D0C26852B1514612A80B68898872
:20347000036012AF818097E803009047606A18B307690FB306208DF80800ADF80A0010AED7
:20349000ADF80C9002AD009695E803004A460223ADF84020B847666ABDF840007769A08098
:2034B00057B1BDF8400002AE401CADF8400096E80300022210ABB84724A013F0BBFC606A67
:2034D000062668B307695FB38DF818600425ADF81A500EA8ADF81C9006AB009093E8030018
:2034F0004A462B46B84758B90E981930814617E0EC1200204DF90100C12D0020004B002020
:203510008DF818604846676AADF81A5006AE0F907C69ADF81C9096E803002A460FABA04715
:20353000CDF8389048460DF0EFFCE0200C2113F0C9F913F06FF808F10200012113F094F870
:2035500000F036F8FCE726F8029B64E654492053656E736F7200C046C8FF0100880B0000BD
:20357000F0120050080200209D420100014701003D470100294B0100A9E50000E4100020FA
:2035900020BF02009818002009610000000F002080150020D94F0100DD6901008D6B0100B3
:2035B00010160020D9080100A80B0000B80200202DE9F041CC4CCD4DDFF834836088ADF1B9
:2035D000600D4108C0F090800CA808A90EF0D8FB01287AD1404624300068D8B10769CFB100
:2035F000062002268DF808000022ADF80A600FABADF80C2002AE009396E803000C23B84732
:2036100040B9BDF83C006085109FE7621198206313F048FB9DF82D00012806D0022084F802
:203630002400BDF82210A1830BE0032009AF84F824003A6804F11C010A6078684860BDF88A
:203650002210BDF8200009AA0FF044F9011C02D0B1A013F034FE022011F0BAFDBDF8300030
:203670009DF82C7028870DA985F83A7005F1480013F0CDFDBDF8320005F13E0609A9A5F802
:203690004600304613F0C3FDBDF82200298FA887502013F00BF9B5F84610532013F006F9EE
:2036B0004A20314613F030FC95F83A10E12013F009F9A98F4B2013F0F9F805F10800102147
:2036D00012F0D2FF0120207008E012F021FDE060012011F07DFD002013F098FBA01C0121DE
:2036F00012F0B4FF2046408880080DD3E06A11F0F5FE12F017FA00B2A082E08202F0D8FB23
:20371000A01C022112F0A2FF2889410805D305F10800012112F09AFF2889810805D305F182
:203730000800022112F092FF288901094CD395F8540005F1080600283ED0401E3AD0401E00
:2037500002D0401E34D03AE095F85010472013F0B9F895F85110542013F0B4F8A98F4B204F
:2037700013F0A4F8298F502013F0A0F8092701238DF8597095F83A008DF85A3016AA8DF81A
:203790005B306C498DF8580018201BF021FDB4F85600B4F85410884211D195F852000128D5
:2037B0000DD1A87858B13046202112F05DFF06E0032002E0022000E001200EF04DFC304612
:2037D000082112F043FF2889410917D35A491820422217AB1BF0FCFC95F8520005F10806A0
:2037F000032818BF042802D1A86D11F05FFE11F0C9F83046102112F029FF2889810907D39D
:203810000DF0F2FF05F10800202112F01FFF2889C10907D30BF004FE05F10800402112F098
:2038300015FF2889400A0DD395F8550013F0EEFA41F2883011F06AFE05F108004FF4807136
:2038500012F004FF4546E988687849081CD300EA60010026090912D2A978020901D30129A6
:203870000BD040090BD3012909D02FA013F0E2FAA01C012112F0F8FE01E010F06DFA6E7089
:20389000A81D012112F0E2FE6088002840D10A2008252A4CADF812004FF0FF37ADF8105030
:2038B000616A059704A88847002831D10720ADF84850616AADF84A0012A88847149E1596E8
:2038D00030BB1F499DF84E200878904215D19DF84C004A7882420DD089684B6C6BB1002121
:2038F0003246984709E0C046E4100020A8110020000F0020304600F0E7F9159840B1ADF8CD
:2039100018500320ADF81A00616A079606A8884718B0BDE8F081C0464175746820457272A9
:203930006F723A20307800C05374617274696E672E2E2E004D7201005D3A0100EC12002088
:20395000981800202DE9F04FDFF8E0C292F808B009AF88460646ADF1240D049338F07F0593
:20397000039206BF604600884FF6FF700590F08A800934BF002008203076F08AC00834BF4D
:20399000102080207076F08A400903D260460E30007800E00020B076F08A41082CBF202455
:2039B0000024000928BF44F010047568002108F07F08307D06916D1E02280EDB0C2808DC24
:2039D0000C2803D1022044F40854069044F0030404E00D280CBF02200120044396F88800C4
:2039F00008B144F00804210900D328B1DFF8C89299F8CC3013B908B1DF2051E121096DD30A
:203A100096F88950DFF8B4A206F1240133891AF8052007910AEB0001097908908918491D44
:203A3000C9B2C918B1F5006F80F23C8100284CD0049A039906F180000AF03EFA07990028E7
:203A500008603FD0806AB0F1FF3F39D070680023401E8DB196F88A10524600F80119515DF6
:203A7000491EC9B241B1721892F87F20491EC9B2002900F80129F6D1079970660968896AE1
:203A9000B162090E00F8011996F82A1000F8011996F82910089A00F8011996F8281005F0CA
:203AB000030500F8011902F0070141EAC501017071683289091AC9B270608918318105E046
:203AD000DB2700E0F3277770EDE00023F08A7370C00828BF44F0100475686D1E336DA3B94B
:203AF000B36D93B999F8E510012903D13089B0F5EE7F06DA200904D202290AD144F400548A
:203B100001E044F48054012002E044F4085402200690DFF8ACA19AF8010001280FD012F098
:203B300085FF60B19AF83C0048B196F86B00042805D1022024F48054069044F4005444EAC0
:203B50008834B8F1020FA4B20AD0B8F1030F10D1ED1F09F1D801284613F0CCFB6D1E08E089
:203B7000B9F8BE00001205F8010999F8BE0005F80109069802280CD0B8F1000F15D0BBF16A
:203B9000000F0CD004990598814208D144F040040BE0BBF1000F08D1B8F1000F05D0059932
:203BB000081205F8010905F8011944EA8B24BBF1020FA4B209D0BBF1030F0ED10399ED1FAF
:203BD000284613F097FB6D1E07E003990888001205F80109087805F80109BBF1000F05D004
:203BF0000498011205F8011905F801093878F8B934480178307D0D2814D068B9306D28B92D
:203C100099F8A800411C89F8A8100AE099F8CD00411C89F8CD1004E099F8B600411C89F8B9
:203C3000B610014605F8011904E0C046860C002044F48074201205F801092C707068318921
:203C5000401B7560C0B240183081200927D3B06D00B130629AF83C0010B1307D0D281ED1C6
:203C7000726A12F1150002D113F066F9726A916A481C9062306A3289B162471B0092D21B95
:203C9000019090B20290706A96F888202B46153008F004F800281CBF7070071C07D10020F7
:203CB000707005E0E5277770F32012F0D8FDF8B209B0BDE8F08FC046CC0B0020500B000073
:203CD0004C120020292D0020B0B50446BC480768ADF1480D002F00F0AC812078401E112850
:203CF00000F2A781DFE810F06E0156013C0127011F010801F100E300C300B2008D005D004C
:203D100053004200A5012A001C001200F86B002800F08F81684621460CF07AFCF96B86E123
:203D3000386C002800F085816846002101220DF024FA60788DF80000396C78E1F86A0028BF
:203D500000F07781684600210E220DF016FAA11C684612F053FEA57BA1890022ADF80A1076
:203D700005B101228DF80C20F96A61E1B86B002800F05F816846002102220DF0FEF9A578E5
:203D90008DF8015060788DF80000B96B4FE1786B002800F04E81684621460CF039FC796B98
:203DB00045E1386B08B36846002114220DF0E5F9A5788DF80150A3680193A289ADF8082005
:203DD000A17B8DF80A1060788DF80000E57B8DF80B50237C8DF80C3094F911208DF80D20AB
:203DF00061690491396B684688476068002800F020810146F22008700020487010F000FC0D
:203E100017E1B86A002800F014816846002124220DF0B3F96078A11C8DF800000DF10200F3
:203E300012F0ECFD04F10C0103A812F0E7FD257EE08A04F119018DF818500B22ADF8160003
:203E50000DF119000BF0F6FEB96AF0E0786A002800F0EF806846002102220DF08EF9A5785C
:203E70008DF8015060788DF80000796ADFE0386A002800F0DE806846002112220DF07DF9CF
:203E9000658862796078ADF8025023798DF80520E11D8DF80000A5798DF804300B220DF1B0
:203EB00007008DF806500BF0C5FE396ABFE0F869002800F0BE806846002101220DF05DF914
:203ED00060788DF80000F969B1E0B86910B120460FF0CCF9A07D002800F0AB80A07820B925
:203EF000A069002800F0A58003E0A069002800F0A08012F0EDF89CE07869002800F09980D3
:203F10006846002113220DF038F96D46A01C0168406829600B22686004F10A0102A80BF0BC
:203F300089FE796983E03869002800F0828020460AF0DCFF7DE0F86800287AD068460021B1
:203F50000E220DF01AF96078A11C8DF800000DF1020012F053FDA089ADF80C00F96866E024
:203F7000B868002865D06846002114220DF005F9A01C01686D46296040686860A07A0B229C
:203F900004F10B018DF808000DF109000BF052FEB9684CE0786800284BD0684600211022C0
:203FB0000DF0EBF860786588211D8DF800000B22ADF8025001A80BF03DFE796837E0C04688
:203FD000A01800203868A0B36846002119220DF0D4F8A01C01686D46296040686860A07A48
:203FF000410824BF01218DF80810810824BF01218DF80910C10824BF01218DF80A10010923
:2040100024BF01218DF80B10C10924BF01218DF80C1030F07F001CBF01208DF80D000B2221
:204030000DF10E0004F10B010BF004FE39686846884712B0B0BD70472DE9F04FC54E4FF0BB
:204050000008ADF1140DCB4DF068CDF8088000288DF80C8043D1D14CBF49843C206881424F
:2040700013D0BE49814210D0BD4981420DD0BD4981420AD0BC49814207D0BC49814204D01F
:20409000BB49814201D012F057FF12F053FA21684FF0FF32012805D1C1F30330083806D0DC
:2040B000C01F01D0012A02D10120F07001E086F8038011F00FFC286A00F1200120B912F054
:2040D0003BFF2846016A2031096806F1140088474FF4FA70F084A84FB7620624F462EA691D
:2040F00092F82670DFB9A54892F8257001788F4215D04046342404FB002C9CF8267037B99A
:204110009CF82530401C9942C0B2F4D103E09CF82500884203D1604610F0BEFFEA69984967
:20413000686A99C881E89900F078012814BF40460520DFF850B2944C08709BF8157127B901
:2041500090690068C4F8A40005E0D0690068C4F8A40012F0DDFA632004A90FF077FC9BF89A
:20417000E720104611F01AFAB4F896C082462CF0070C4CF0010CA4F896C0D4F8980004F130
:204190008807812A40F00F00C4F8980001DB842A06DB9AF80C10052914BF2421292100E0B9
:2041B000212184F89C10797D812A01F03F01797501DB842A19DB9AF80A306BB99DF8102092
:2041D0003F3262F305017975FA8A4FF6C07303EA020141F0180113E09DF8102001F0C00175
:2041F00002F03F020A43114603E021F03F0141F002017975FA8A4FF6E071114041F02001C5
:20421000F9829AF80B209AF80C100A230CF0010C491D514391FBF3F1C9044CEA1141F98139
:204230009AF80B101923890391FBF3F161F31C20EB693861388B93F8242062F30200388368
:2042500093F824104FF6F77909EA000001F0080101439BF9D60039830EF07CFA09F108010C
:20427000814218BFA4F8A200DAF80410DAF80030BAF80800EA69401E414303EB51004FF4FD
:204290007A71B0FBF1F0A4F8A800106A0078A4F88A8084F8AC00C4F88C80787B00F0F000F8
:2042B00040F00100787312F063FFB0B99AF80B00364A9BF8E740B1FBF0F010709AF80B0085
:2042D000022CB1FBF0F0C0B2B1FBF0F0707004D12F4802214170A8240470F0682C6ADFF811
:2042F000B89018B340460FF089FC30799BF8E710884211D171799BF815212C6AF06891423E
:204310000CD1022142468DE80600E46C4346394602AAA047EF6013E02C6AF06861688847D7
:2043300001202B6A1B491C68087000E02468144906F1140348463A46A047F060686AA8625F
:204350009BF8E7009BF81571307105B07771BDE8F08FC046FC16002000F0022000F00120FD
:2043700000F00020008002200080012000F082000080002038140020D55E0100B30C002049
:20439000782D0020CC0B00200410002050180020EC170020791900204028002018130050BD
:2043B0002DE9F04F09AFADF13C0D08900A92388809911E46ADF81800101C08BF002000F047
:2043D0008481002700F101094FF0FF3A4FF0010BB8466CE1252940F063811078521C0A92A4
:2043F0002D2818BFADF8068005D15846551CADF8060010780A9530281CBF4246434605D185
:204410000A9908785A465B46491C0A912A28CDF80080554616D1306804930A99CDF808A0D0
:20443000C01C4B1C20F00300001D306050F8044C0A93002C0878009418D5ADF806B0644206
:20445000009413E044460AE0610001EBC40140180A99A0F1300408780094491C0A91302813
:2044700001DB3A28F0DBCDF808A004932E282BD10A9908782A2801F101010A9111D130684F
:20449000CDF80880C01C20F00300001D306050F8045C002D48BF454608782B46491C0A91CB
:2044B00011E0454643460AE0690001EBC50140180A99A0F1300508782B46491C0A913028D8
:2044D00001DB3A28F0DB02930AB1224604926C2804D04C2818BFADF8048005D10A990878A0
:2044F000ADF804B0491C0A910BA9CDF80C800FAB07916428059300F08B80692800F0888054
:20451000BDF818C0752872D078286ED06F286AD0702850D063283DD073281ED009980A9953
:204530000128A1F101010A9115D96B490C68B5F1FF3F03D0A84288BF6D1C00D8099D029577
:2045500008A80AA932466B46A047C7190A99039801F1010974E040462AE030680A99C01CC3
:2045700020F00300001D306050F8040CBCF1000F01F10109014608B955A00146079112F07D
:204590001DFC0390B5F1FF3F5BD0A842C4BF281C039056E03068C01C20F00300001D3060A2
:2045B00010F8040C5D468DF82C000A990395584601F1010945E0082035680490E81C20F018
:2045D0000300001D306050F8041C082210230FA80DF096FA401E0790402101700A99079809
:2045F00001F1010929E0082302E0102300E00A230A99306801F10109C01C20F00300001D16
:20461000306050F8041CAA42BCBF2A1C049210E00A99306801F10109C01C20F00300001D1C
:20463000306050F8041CAA42BCBF2A1C04926FF009030FA80DF064FA0790059D281A0390A4
:20465000009C241ABDF8065000945DB906E008A8202109AA11F0EDF9009C7F1C641E0094FD
:20467000F5D503980546401E039075B9BDF80600E8B10098401E009019D408A8202109AAF0
:2046900011F0D7F900987F1CF4E70798411C0791017809AA08A811F0CCF903987F1CE1E7F7
:2046B00008A809AA11F0C5F97F1C09F101094A460A9812F8011C401C00290A907FF48AAE06
:2046D000089808B14146017038460FB0BDE8F08F286E756C6C2900C0D80B0000BA482DE951
:2046F000F84F0025B94CB749056094F8E200002800F06381012800F02F81B54E02283CD068
:20471000032840F05A8151F8250CD4F8B8100029A0F5C060C4F8D400B8BF49420028B8BF36
:204730004042814226DA4FF08057D7F8A4014568B4F8BC0030214FF47F42082300903046FF
:20475000A847D7F8A4014568B4F8C00004214FF4F802122300903046A847D7F8A401B4F821
:20477000D070456820214FF440620A2330460097A847012584F8D8501AE151F8258C12F02C
:20479000B5FC2F4600B901273946924F38680028FCD0B146012609F10409D9F82CA03E60AE
:2047B00009B112F0A9FCCAF30720C4F8BC0012F09DFCAA4600B9B2463B68002BFCD0D9F885
:2047D00000B0BAF1000F3E6001D012F095FCCBF38440C4F8C00012F089FCAA4600B9B24637
:2047F0003B68002BFCD0D9F81C90BAF1000F3E6001D012F081FCC9F38120C4F8D000B8F554
:20481000C061C4F8B81000F09C8094F8D80068B9C4F8D410D4F8C000C4F8C800D4F8BC70AA
:20483000C4F8C470D4F8D030C4F8CC30D4F8D410D4F8BC30002954BF02206FF0010004F1D9
:20485000C802176801EB41014018411000EB917107EBA1001060D4F8C810C4F8C4300029BB
:204870001CDD1E293CDDD4F8CC0030B93429B4BF15391E21C4F8C81025E02A29BABFD4F8C0
:20489000C8000B381E20C4F8C800D4F8C4003F28B4BF401C3F20C4F8C4001FE0D4F8CC00FF
:2048B000032812D011F10B0FC6BFD4F8C8000B30301CC4F8C800D4F8C4000028C4BF401E02
:2048D000051CC4F8C450032508E011F1150FC6BFD4F8C8001530301CC4F8C800C4F8CC509B
:2048F0004FF08057D7F8A401B4F8C43030214FF47F424568364800930823A847D7F8A401DD
:2049100004214FF400321123456831480096A847B4F8C860D7F8A40104214FF4F80212232F
:2049300045682B480096A847D7F8A40120214FF440620A23B4F8CC60456825480096A84784
:2049500001E084F8D85040F2FF50404502D8801C40452DD208202EE051F8251C1E4F4BF258
:20497000F5204843060A3868C0F3814001280AD111F0D8F80FF080FE12F0C4FB3111C0103E
:20499000484306EBE03694F8E50030B91348006820F07F408019460801E084F8E5501048B8
:2049B000310C0660012741600E4D8760287808B90B2000E0052084F8E40004F0F5FEBDE8BC
:2049D000F88FC0462D400C402C500C40E40C002000A00C4000800C40B43F00501020094035
:2049F0003C600C403E0B00002DE9F04FA54E37688346ADF12C0D17B912F09EFA3768A248FC
:204A1000DFF89C920578002D3ED00025388979689E4B0795C400097818781034890906D3F9
:204A300040F6485191FBF0F1091901F5AF743B7D60438400352B0CBF2F1C4FF4FA570DF108
:204A50002601E8200FF002F89DF82600032808BF44F620673068007D3C19352807D111F010
:204A700079F9014630686C300EF0A4F8444302204F468DF8200007F10C000068069406A907
:204A900008F0E4F88248057082490120824F08703978012902D0002102F0A6FA3068048939
:204AB000456811F015FCDFF8FC812888000943D3316840463C3890F83C70002F3CD082463A
:204AD0004A6A4F6E906AB0F1FF3F23D017B3431C93628862060E07F8016991F82A0007F852
:204AF000010991F8290007F8010991F828003870086A00940190401B201A80B2029091F80F
:204B10008820486A8B6A153019462B4607F0C6F8064600E0DB26DAF880706EB11FB9E42082
:204B30000BF048FE05E05D4900200870E42039468847002E40F0A280214628460CF05CF80A
:204B5000642009A90EF082FF464649463778DFF85891087837B94846007809F0FFFB012874
:204B700005D088E009F0FAFB012840F084804F4EA01C87B20DF1250106F178000780E920E8
:204B90000EF064FF9DF825104FF000084FF0020A4046012905D13C46C4F3022141F018011C
:204BB00005E0241DA4B2C4F3022141F0080105F8011D05F8014DA6F86A009DF82470C6F800
:204BD0008450002F0CBF3A493A497086CDF81080394C8DF814A096F83D00C6F8C01000F09F
:204BF000F00040F0030086F83D006068C6F88010804706F130052746304B254C0A90BBF11F
:204C1000010F1CD0BBF1040F19D0BBF1000F13D0BBF1050F2A460DD0BBF1030F07D1484611
:204C30001030007810F0BAFC407B022808D006F1680205E0224B03E006F14C0200E02A460E
:204C5000206A1749C56CC3468DE8000CC868114604AAA8471B490880B968002809D41A4A05
:204C700092F900006836401C10700A98E660884704E00A9888471A200BF09CFD0BB0BDE8E5
:204C9000F08FC0469C0A0020EF1700205018002038140020C318002078190020C02D0020E6
:204CB000FC16002088120020A30C0020041000204E9055550E7A5555EC1200209DA60000DA
:204CD00025D400002C170020CA1800202DE9F04FAC4C04F128000068ADF1240D0FF056FA76
:204CF00008B111F00BFCA248DFF89CA2DFF888B20068A24E089011F019F811F0F9F9E56990
:204D1000A769B5F57A7F13D0C01B4FF47A720023A5FB000102F06CFF80464FF47A720023AA
:204D300011F044FF2A46002302F062FFC01901E0A0EB0708A0618D488C49006820F00200C0
:204D5000086070688047DBF80010DBF8043045466918B1F57A7F0DD34FF47A72B1FBF2F208
:204D7000D2184FF47A73CBF804201F46B1FBF7F25A43891ACBF80010B1688847706880478E
:204D9000DAF8041002466818B168CAF8040010468847DAF8000000285FD007464FF0000993
:204DB000706880474FF000081FFAA5F3079083B95FFA95F36BB93979E8B2884204DD79689C
:204DD0002846884209D20AE03879E9B2401A387108E079682846884201D3414601E0796859
:204DF000091A7960B88878B9FB8853B9FB6843B13B8933B1B87A19460AF0C0FAF86878602B
:204E1000B88808B9FB880BB13B896BB9B9F1000F04BF3868CAF8000003D03868C9F8000048
:204E30003868B846074601E0B9463F68B16807988847B8F1000F0ED0B8F8043043B9B8F843
:204E500006302BB998F80A00B8F808100AF096FA404611F02DF9002FA2D14448434900686D
:204E700040F002000860E06828B3804723E015F8060C2169A5F10C07032819D0E16A9DF855
:204E900016000978884210D115F8080C10F0B6FBB979012903D0022908BFA87000E028703D
:204EB000002029460DF0E6FC05E011F027FB02E009B12846884708200727ADF81000716AAD
:204ED000ADF8127004A88847069D0028CFD0294800680088C8B1706880472649096800223B
:204EF0000D880A80B1688847089A00202946207090470546FF202070706880471D49096893
:204F10000A8815430D80B168884710F00FFF0746B7F1FF3F1CD0706807B9194F216AB9426F
:204F300038BF0F1C80471C230546626AADF802300820ADF80000716A019268468847A16A88
:204F50003846491CA1620FF079FBB1682846884708200A27ADF808004FF0FF35ADF80A70FA
:204F7000716A039502A88847C5E6C04610E000E0BC0B0000B02D0020DC180020EC120020BE
:204F90008EC2F528CC160020902D00202DE9F04FA54C064600200F46ADF13C0DDFF89092CE
:204FB000ADF80C002068A44D017D252900F010816C3005A903F0ECFF002818BFC0B240F0A1
:204FD000308120460068C18AC9080DD3007D03280AD09DF81F0038B99DF820004C46387030
:204FF000B534207000201CE101A804A90AF0BAFAA5F12F018B4691F82F30019A3468DBF87E
:2050100008104FF47A7A504641F208155843891A0AFB12000AFB01F1001B091B8D42C8BF6A
:20503000002965DC854205DD002803DD346804F5915434609DF81F00002857D042F20400FC
:205050000DF135010EF068FB11F0B2F8044606980DA9241A42F206000EF05EFB9DF83410BA
:205070009DF81D00FF2904BF0A218DF83410FF2808BF0A209DF834206C499DF81C30D046E2
:20509000B4FBF1F1801880B24843991008FB01F1814298BF081C2D1805A810F06EFE9DF84B
:2050B0001C203468B0FBF2F15143411A8BB251464B4308FB02F1CA1AC91A121B091B8D424C
:2050D00001D9002908D56942914216D2002A14D5B5FBF8F109B203E06900B1FBF8F189B2F7
:2050F00032684FF4916303FB012405E0002004E0306841F630342418346005460DF1120164
:2051100002A80AF02FFA0298DBF80810B4FBFAF210180290814203D99BF82F30834204D9A5
:205130004B4603F15804267836BB9DF81C0055190004A84298BF2D1A9DF81F00002808BFA1
:205150009DF8200016D09DF81C00B5FBF0F084B29DF833000EF0DEFD9DF8312001462046F9
:205170000EF070FD044610F0F5FD024608A920460EF0B6FB4C460DE0814204D8BDF8120085
:20519000401CADF812004C46BDF8120094F85B100CF09EFB3870244E84F8B5003068007DA7
:2051B00005287FF41FAF2348007820B111F03EFC00283FF417AF387803A9ADF80C0042F220
:2051D0000C0004F089F8BDF80C00A4F8B00009E768460DF10E010AF0C5F93068009A2B78F9
:2051F00041F208144FF47A7101FB0202009259438A1A944210DCA1F5FA619142BCBF00F55A
:20521000FA6030604C4694F85B10208F0CF060FB01460020397002E039784C46652084F8CF
:20523000B5100FB0BDE8F08F9C0A0020A0860100D0290020890C0020BB2A00202DE9F04FA1
:20525000002898461446ADF12C0D00F0EC8011F47C1F40F0E58011F00F0F00F0E4800746B6
:205270000591002006900A904FF0000A0990554608954FF0010BCDF810B0054650460790D6
:20529000059805990BEA000021EA0B014FEA4B0B401E059100F0A480401E69D0801E56D0C5
:2052B000001F40F0B7801CB1276694F86B0006900720152607F8010B022301A907F8016BCA
:2052D00042F2010007F8013B0EF026FA684603A90AF048F906980EF0ADF90099019A3E46A1
:2052F00040180090824206D8801ABDF80C300090581CADF80C00009B500851468146090476
:205310001804030C19430004534610EB090041EB0A0102F06DFCBF1D0090BDF80C309DF8D1
:205330000C009DF8002006F8010B181206F8010B9DF8011006F8012B9DF8023006F8011BAD
:205350009DF8032006F8013B0935327061E00220152607F8010B042307F8016BB8F1000F78
:2053700007F8013B0CBF099898F800002D1D4EE01CB1E76594F86B00069005201526049BC9
:2053900007F8010B0DF10E0107F8016B42F2040007F8013B0EF0C0F902A80FF0F5F806981C
:2053B0000EF048F902999DF80E209DF80E60069B0918080200EB6200B0FBF6F002903E467D
:2053D0009DF808109DF8092006F8013B3F1D06F8011B9DF80A3006F8012BED1D337018E004
:2053F0000320152607F8010BB8F1000F07F8016B034607F8013B04BF0A9807F8010B05D048
:2054100098F8000007F8010B98F801006D1D07F8010BADB2059800287FF432AF2E4661E08E
:2054300011F00F0F01D000205DE080468A4602264FF4803908F1020509EA0A002AEA090A31
:205450004FEA4909B0F580301AD0B0F5803014D0B0F500300ED0B0F5802009D0B0F50020A3
:2054700004D0B0F580102AD1072404E0062402E0052400E00424002704E00224012701E092
:2054900001242746A81C214600F030F847B104F00F04C0F30A0141EAC42141F4004105E0FF
:2054B00004F07F0400F0FF0141EA042105F8011B36180912B61C2970B6B245196D1CBAF13E
:2054D000000FB9D1022ED8BF00260BDDB01E4FF6FE7708F8010BB819C0F3022040F0A00044
:2054F00088F8000030460BB0BDE8F08FF0B504460846ADF16C0D401E6BD0401E0DD0801E01
:2055100000F00381401E00F0E980401E00F0DB80401E00F0A88000203CE142F2010007A90F
:205530000EF0FAF842F20B0008A90EF0F5F842F206000DF165010EF0EFF842F207000DF1D4
:2055500066010EF0E9F842F2050019A90EF0E4F804A809F0CBFD05460DF1670142F20900C5
:205570000EF0DAF89DF86700002808BF002303D0022010F0E9F8034607A8006808A92060D6
:205590000988271D3C46B81C218005F007079DF865609DF864109DF8662000F8011B9DF805
:2055B000674000F8016B03F0030600F8012B620747EA926104AC41EA8611012700F8011B75
:2055D0009DF8672000942946019706F083FF0A3099E042F206000DF165010EF09DF842F274
:2055F00007000DF166010EF097F842F2040019A90EF092F804A809F079FD05460DF1670154
:2056100042F208000EF088F89DF86700002808BF002303D0012010F097F803469DF86400ED
:205630009DF8657004F8010B9DF8666004F8017B9DF867209DF86770790704F8016B03F0B2
:20565000030705F0070646EA916004AE40EA8710294604F8010B002700962046019706F072
:2056700039FF001D4FE042F2150011A90EF054F813AD42F2160029460EF04EF815AE42F295
:20569000170031460EF048F817AF42F2180039460EF042F811A801682160406860606A6888
:2056B00004F108035A6028681860306803F10801086074684C60386801F1080528607A688A
:2056D0006A60202066E042F214000DF122010EF023F8BDF8221002200A1258E009A80021B9
:2056F00020220BF04AFD42F2130009A90EF014F809A811F063FB024609A920460AF09AFA15
:2057100009A811F05BFB80B244E042F20E0002A90EF002F80DF10A0142F20F000DF0FCFFF2
:205730000DF10B0142F20A000DF0F6FF03A942F210000DF0F1FF0DF10D0142F211000DF0F4
:20575000EBFF0DF10E0142F212000DF0E5FFBDF808009DF80B209DF80C709DF80D609DF8F6
:205770000E509DF80A1004F8010B02F00102001204F8010B07F0010042EA400206F0010098
:2057900042EA800205F0070042EA4012042004F8011B22701BB0F0BD2DE9F04F06469E4804
:2057B000001D0068ADF1340D80470B900AA9822005F0C6F89DF8280018BB00248DF828406A
:2057D0004FF6FF75ADF804509DF82800ADF80650FF2108228DF8000002A811F0D5FD8DF87E
:2057F0001840D420694602F0EBFB9DF82800401CC0B28DF828000328E4DB82200AA902F05D
:20581000DFFB0020DFF808A2DFF808828DF8280081469DF828008DF8019069468DF8000021
:20583000D02005F08DF801274D46E8B99DF80B30012B07D19DF80A0020B90DF1020011F045
:2058500085F988B9747B002C0CBF052209224F469C4209D10DF1020006F10E0110F068FD89
:20587000002818BF012507D1002F40F0BF801DB9707F002800F0BA804C469DF828008DF892
:20589000214008A98DF82000D12005F059F8002832D19DF82200FF282ED08DF800006946CF
:2058B000D42005F04DF8002833D102A8311D082210F03EFD00B330887788ADF80400ADF869
:2058D000067045B1307B9DF82810B7698DF818000DEB81010F61D420694602F071FB75B106
:2058F000307F9DF82310884209D08DF8230008A9D12002F065FB02E0641C032CBDDB032C8A
:2059100074D14F468DF80070D420694605F018F828B1DAF808100B988847192074E002AB91
:20593000184611F013F94C4600B101242046341D30B918462146082210F0FAFC00284AD0BD
:2059500030887388327BADF804009DF82810ADF80630002D8DF818200DEB810000F1100022
:205970000CBF4946B1690822016002A8214611F0F9F898F83C0030B1D8F88C201AB19DF88C
:205990000010204690474C469DF828008DF8214008A98DF82000D12004F0D2FFE82807D082
:2059B0009DF82200FF2803D0641C032CECDB10E09DF800008DF82490337F8DF822006946EA
:2059D0008DF82330D42002F0FBFA08A9D12002F0F7FA032C02DB7F1C032F93DB032F05D130
:2059F000DAF808100B9888471A200DE09DF82800401CC0B202288DF82800FFF60AAFDAF832
:205A100008100B98884748460DB0BDE8F08FC046EC1200204C120020EC1200202DE9FE4F5A
:205A30009B4692468946054611F080FC02908C48353801680CAFA94208BF416801A84A467B
:205A500053460090284604F0C7F9834C061C13D194F8880140F0040084F888010298C4F872
:205A70007C5111F051FD9DF8040002280CBF6FF002086FF00108ECE005F1780011F04CFC18
:205A9000B08CA4F85000B6F92480C6F808909AF80400C6F804B086F82600A6F824806F4880
:205AB000F56097E80C00202106F110071940104087E80300002786F82770F06840680078D8
:205AD000022809D19AF80500012805D196F8270040F0100086F82700029811F015FD94F849
:205AF0008901042807D1D4F88001B4F9841194F8862111F0A7FB11F019FC814694F88901B0
:205B100030F004033ED104F13C000368D3B931460FF040FA38B3A5F8C08096F8270040F0BA
:205B3000800086F8270085F8C270A07920B1207810B10120E071A771484611F0E5FC4848B4
:205B500000781FE004F13C0031460FF023FA50B1A5F8C08096F8270040F0800086F8270012
:205B700085F8C27048E0B4F9500000F6FF706FF31F30A4F85000484611F0C6FC6FF001008E
:205B9000BDE8FE8F02280ED196F8270040F0800086F8270085F8C270484611F0B5FCB6F912
:205BB0002400BDE8FE8F012811D104F1C80011F0B3FB96F8270040F0800086F8270085F881
:205BD000C270206C0028E7D1484611F09DFC206C00282AD12078A76400BB2079012838D018
:205BF00011F0A4FB81466079A0B9B0680CF0FEFA58B9207A012803D1484611F085FC28E030
:205C1000484611F081FC04211FE004F1C80011F081FBF1E7134901200870EDE7012010F048
:205C3000EBFC192011F086FB13E0206CC0684068007802280DD1F06840680078022808D168
:205C50009AF8050028B94FF4004104F1EC0011F089FB4046BDE8FE8F38200020FDEFFF9F18
:205C7000C1210020B72D00202DE9FE4F0646307D01280AD196F917000CF06CFD4FF6FF71EE
:205C9000814208BFE82000F00681F07B834A20B91146491C0978022908DB012803D110463C
:205CB0000078022802DBF120BDE8FE8F346AB6F8289096F8347096F835B0B58B4FF00008E2
:205CD0005FEA040A17D0764890F83C30002B2ED0416D00292BD004F0FF0088477049496D98
:205CF00004B20AF47F008847001900B2001D00B2C43084B200E0C4240DB12D1DADB26948EE
:205D10000078012809D147B16748C11991F8048010F80B002418641DA4B205EB0900201813
:205D30004044801C80B210F015F9071C02D11A20BDE8FE8F08EB09002B193881002D07EB79
:205D5000030078600EBF0020E019801C00217422C7F8A00007F10C0011F016FB4C442D19D4
:205D700007F13C00FF211022A7F84C5011F00CFB07F12C000F21102211F006FB00243C70F2
:205D90007C707868716A328D09F054FF07F1800006F12C010B2209F04DFF07F18C00314638
:205DB00010F050FD7089A7F89600307B87F89800707B06F10E0587F899002A6869460A60DE
:205DD000686848609DF800102046012908BF01209DF80110012908BF40F004009DF80210AC
:205DF000012908BF40F008009DF80310012908BF40F010009DF80410012908BF40F02000A7
:205E10009DF80510012908BF40F040009DF80610012908BF40F080009DF80710012908BF7E
:205E300040F48070A7F89A00B07D87F89C00F07D87F89D00B28BA7F8A42022B1D7F8A00042
:205E5000B16909F0F7FEB07F87F8A600306AC7F8A800B7F8A400C0B1D7F8A000A8B1786869
:205E7000401E7860F82101707868401E78600470B7F8A410B7F8A4607868401A78603989DE
:205E90007018801C38817868B8650848007839460CF0F0FC2046BDE8FE8FC046CA0A002057
:205EB0004C120020980C0020500B000074130020F0B500214822ADF1540D02A80BF05DF964
:205ED000F22014A911F018F8874DBDF8500014A9A5F87000F32011F00FF8BDF850000DF111
:205EF0000901A5F87200E22010F0F6FF688DADF81200410806D305F11401096805A801602A
:205F1000BDF81200810805D3291D098806A80180BDF81200C10807D305F1180109680DF15B
:205F30001A000160BDF81200010908D30DF11E0005F15401282209F07DFEBDF812004009F5
:205F500003D3286B1390EF6A12976848007800280CBF0121002101200BF076FEBDF812006E
:205F700041082CBF0F240B24810824BFA41CA4B2C10824BF241DA4B2010924BF2834A4B217
:205F9000400924BF0834A4B220460FF08FFD071C00F0A78005260DF1090100F8016B0A68FF
:205FB000026049684160BDF81210083011F0C8F8BDF81210844648080BD3BDF814106046FF
:205FD00011F0BEF8BDF8161011F0BAF8BDF812108446880807D3BDF81810604611F0B0F835
:205FF000BDF812108446C8080BD3BDF81A10604611F0A6F8BDF81C1011F0A2F88446BDF823
:2060100012103B4A9388080951D3BDF81E10604611F096F8BDF8201011F092F8BDF822100A
:2060300011F08EF8BDF8241011F08AF8BDF8261011F086F8BDF8281011F082F8BDF82A109C
:2060500011F07EF8BDF82C1011F07AF8BDF82E1011F076F8BDF8301011F072F8BDF832109C
:2060700011F06EF8BDF8341011F06AF8BDF8361011F066F8BDF8381011F062F8BDF83A109C
:2060900011F05EF8BDF83C1011F05AF8194611F057F8117811F054F8BDF8421011F050F870
:2060B000BDF8441011F04CF8BDF812108446480906D3129960460EF0BEFC13990EF0BBFC4D
:2060D00005F11C01224630463B4605F085FA0820ADF80260074D01972968ADF800006846CB
:2060F000884715B0F0BDC046E410002012160020000F0020101300202DE9FE4FDFF8289287
:20611000074609F1040000688047DFF8C8A100248346002F0AF1020004703DD00FF0DAFB47
:206130006B4D2146FC22284611F02EF9FF210822681D11F029F9FF21082205F10E00697360
:2061500011F022F90227A84603224FF6FF710120AA77042329849E3505F8040F6B70AA7034
:206170007F1EEB70F8D145464FF0050C022705F1F00606F8040F737086F802C07F1EF0702D
:20619000F7D1284685F8F820AE3020F8181B20F8181B01800227AF70554695F83C0010B1C2
:2061B000286C00B180470CF07FF9DFF8348108F1D60090F9000010F0D9FD0FF0A1FB10F0FA
:2061D000CBFD10F07BFC10F06DFCDFF80CA107270AF1240656F8040B00B180477F1EF9D1F4
:2061F0003E480460446004614FF470018160C1600AF1040007680FB10EF008F94B480068BE
:206210008AF80E404646C0B112E040460EF080FD029002A80EF0FAF821E040460EF078FD88
:20623000019001A80EF0F2F814E068460EF0EEF80AF05AFC00280090F7D12A4800780128C3
:2062500003D02046014600F0CFFE2748274F047007F12408786A0028DFD108F10408B86A93
:206270000028D2D17C62BC622148A86187F82E40204BEB6187F82F401F4A2A621F4969621B
:2062900087F830401E4BAB621E4AEA62214A6A601D49296320491D4FA9601D4B6F63214A2B
:2062B0006C701E4FAB631E4BEF6058462B61D9F808106A61884706F1BD01522000F098FF64
:2062D00096F8D7000DF03EF92046BDE8FE8FC046442700204C12002074130020AC180020E3
:2062F000CC0B002078190020BB2D00209C0A0020CFBE0000ED7201008D5E0100A581000019
:206310004DD30000A1620100C96F010079BA0000D59A00003B85000091AE00002D31010010
:20633000F5F70000F1230100EC120020B02D00202DE9F047DFF80CA20746AAF13500DFF86B
:20635000F8810068800880F0E7800FF0EBFB814908310B6800261C17641C990D0AD2C0F186
:206370003E0110F10A0F4FEAE101D8BF08218C42B8BF0C1CDFF8C4C1990E0FD2590E0DD341
:206390006246143A1168C1F304211629A8BF20391268C2F30462162A0EDB0CE0634AD2F885
:2063B0007C11C1F304611629A8BF20391268C2F30442162A00DB203A61189146162905DAD0
:2063D00011F10A0FB8BF6FF0090100E01521584C584D01F01F0242F4F85222802A6812F08B
:2063F000030F18BF0126D20828BF46F002060FB146F00406424692F90740041B052C04DAF6
:206410009479B44208BF918866D00F28A0F10F0827DB08EB0014A4F1F0084FEA282EBEF1A0
:20643000070F88BF4FF0070E7546062D88BF06255CF82570042404EB850465462C59E41B83
:2064500004F0FF05F70824BFC4F307273D44B70824BFC4F307473D44770828BF05EB1465F5
:2064700001E00025AE465CF82EC0F7080CF0FF0424BFCCF307273C44B70824BFCCF30747D3
:206490003C44770828BF04EB1C64ADB2A9EB0101A8EB0E277D43002905F1800504EB15244E
:2064B000D8BF012103F0FF0334254D43A9B259434FF6FF73B1FBF4F18B4238BF191C802855
:2064D00089B2918005DA10F1800FB8BF6FF07F0000E07F20D0719671194800681F29106054
:2064F0004FF0000008D340F2FF128A4206D24908401C8A42FBD301E01F219180124F0F3969
:20651000090940EAC10047EA0001CAF8FB1F0026CAF8FF6FBDE8F0870C490D4F424608208D
:206530000F60921D1070BDE8F087C0463C1100506E62084024220840A02D00209C1300505C
:20655000082009403500094000E7A48030100940FDFDA400AC3F0050804A2DE9F04F136835
:206570000546ADF13C0D0DF12A000360526842607B4C94F8B30005F1280105F12807002880
:2065900000F0E8806878002840F0E48010F04EFADFF8D091DFF8D48100B3042046466A6816
:2065B000A873301D12780068042A00F0958095F83000022812D14846007801280ED06A49B4
:2065D00005F1280002220E4620310FF0D5FC28B906F1160105A810F08DFE05AF686E00281B
:2065F00000F0B880012102AA09F0F8FE002840F0B1809DF80800A873E86C40B139460DF1A3
:206610001E0208ABFCF7B6FB002840F0A38008A80090686E39460DF11E0306F0A5FA002807
:2066300040F0988048460078012851D04FF400500DF122010DF070F80DF122000DF12A0150
:2066500008220FF099FC38B10DF12200394608220FF092FC00283BD194F85900002837D0E5
:20667000A66CB4F8445042F2010004A90DF054F8049A4FF000410020E2FB0610061C206DAD
:2066900010F0E2FB86190498B04202D86D1C361AADB24746786880475FFA80F8206CB0424B
:2066B00004D1208FA84208BF002608D026642587002084F835000FF07BFD0126E064B9688D
:2066D000404688470EB10AF0F9FE012084F85800002084F859003DE08B468047264C0D90F7
:2066F00095F8307022480A264FF00009804610F807A0207AB84206D15246204659460FF0FF
:2067100017FE012804D0761E04F10C04F1D100E0A1465FEA09070FD198F80601164F461C9E
:20673000810088F8066101EBC001F0B27F180A2804BF002088F80601384659460A2210F016
:2067500011FA0C48094900788968B8720D9888470420A8730FB0BDE8F08FC046700B0000CE
:20677000D02900204D120020600C0020EC120020F80D0020FC160020860E00202DE9FE4F59
:206790000CAF89469A4604467D680292294604F0F5FD061C00F0EE803888F082DFF8F48169
:2067B000347598F83C0018B1012C04BF1520307506F1800029460B2210F0D4F9012C04D0E0
:2067D0000D2C1CBF7068401C00D170683062002598F83C0035650028B5654CD0052C18BF35
:2067F000012C43D14FF0040B86F86BB0F08A86F86950C00932BF6148674816300078029945
:2068100086F86A000A6806F16C073A604B687B600889388110F00AF940BB06F16C0010F0D1
:2068300069FD574F07EB8407386810F47F0F0CD086F82CB0386806F12C01012200F47F00FD
:206850003063304603F004FA386810F0FF0F4FF003090BD02A2086F83C00386806F13C0182
:2068700000F0FF003064304607F08CFB98F83C0008B10D2C13D00095029A53463046494621
:20689000FDF760F8071C76D1E41F012C03D8707E40F020007076304607F09EFC6BE010F0B1
:2068B000C5F8294600B101213548343009B94FF00309052186F86B10016811F0F70F12D06A
:2068D0002A2186F83C1098F80120006806F13C01012A00F0FF0030641CBF20F00800306411
:2068F000304607F04FFB0095029A534630464946FDF728F85FEA00083AD122480660348905
:20691000756801A964200DF0A1F81F4EA01C0DF1050187B206F178000780E9200DF096F8D6
:206930009DF80500012806D13C46C4F30220022140F0180006E0241D0421A4B2C4F302206C
:2069500040F0080005F8010D671A05F8014DB9B2C6F88450AD1C28460AF04EF99DF804000A
:2069700000280CBF09480A48C6F8C000C6F88000474600E01A27F8B2BDE8FE8F850C00207A
:206990008007000030170020041000204E9055550E7A55554C120020980C00202DE9F04380
:2069B000002B08BF002A10D10029BCBF00204FF0004106DB50EA01071CBF6FF000006FF0CA
:2069D000004108F03EFBBDE8F0835FEA530898EA610803D50026404266EB01015FF0000963
:2069F00013F0004E03D00026524266EB03031C461546002C08BF8D429CBF2C1C0025070CF8
:206A100047EA01470E0CB44208BFBD429EBF240444EA15442D04070A47EA01670E0AB44222
:206A300008BFBD429EBF240244EA15642D02470847EAC1774E08B44208BFBD4200F2928059
:206A5000870847EA81778E08B44208BFBD427BD8C70847EA4177CE08B44208BFBD4265D842
:206A7000070947EA01770E09B44208BFBD424FD8470947EAC1674E09B44208BFBD4239D886
:206A9000870947EA81678E09B44208BFBD4223D8C70947EA4167CE09B44208BFBD420DD8CE
:206AB000E60146EA5566EF01B14208BFB84201D3C01BB14159EB09094EEB0E0EA60146EA2D
:206AD0009566AF01B14208BFB84201D3C01BB14159EB09094EEB0E0E660146EAD5666F01B9
:206AF000B14208BFB84201D3C01BB14159EB09094EEB0E0E260146EA15762F01B14208BFBA
:206B1000B84201D3C01BB14159EB09094EEB0E0EE60046EA5576EF00B14208BFB84201D3C7
:206B3000C01BB14159EB09094EEB0E0EA60046EA9576AF00B14208BFB84201D3C01BB141E8
:206B500059EB09094EEB0E0E660046EAD5766F00B14208BFB84201D3C01BB14159EB09097F
:206B70004EEB0E0EA14208BFA84201D3401BA14159EB09094EEB0E0EA34208BFAA423EBFCB
