:20000000004B0020994C0100FDC90110FDC90110FDC90110FDC90110FDC90110FDC9011085
:1C002000FDC90110FDC90110FDC90110FDC90110FDC90110FDC901103BCA0110A4
:20003C00000105090004081000040810020402010101010902000120181A18182C34041E41
:20005C00000C0E020B040B0A070800110F00A6AAACA4A9A9A399B19ABCB6A8313117191AD6
:20007C0021241B1D1F31313331313118191A22311C1E20313134310000000500BD00B70068
:20009C00B100BC001C003000380008003801020000010002020200030401000200000000FF
:2000BC000501000706010003070800000F0101FF10080000180800002202000038C40D0089
:2000DC00C80000008100000032000F0100C50D00900100004000000096000501952B0D006D
:2000FC00C80000002200000032000F020000000002000000020000000A00000002000000A7
:20011C000200010000000000000000000000000000000000000000000000000000000000C0
:20013C000E000000C003000080070000000F0000001E0000003C00000078000000F000007A
:20015C0000E0010000C003000080070000000F0000001E0000003C00000078000000F00087
:20017C000000F00001017101010101011101010131010101010180010001100161013B0081
:20019C001400630173017201620143010001130106013D0135000401120100010001000193
:2001BC00000104010401330133013C014401320136000001000165010001350081010001A4
:2001DC000501820183010001660100010001080109010302710230016002110270020102E6
:2001FC000202020280020002100261023A0041006302730272026202430200021302380021
:20021C000002000204021202000200020002000204020402370037003C0244020002390063
:20023C000002000265020002350281020002050282028302000266020002000208020902E6
:20025C000304710402046004110470040204020401040204000410046104000414046304FC
:20027C00730472046204430400041304060400040004040412040004000400040004510418
:20029C006400000400040004440400040004000400046504000435048104640005040004DE
:2002BC0083040004660400040004080409040000360001000600000000000000000F0000C0
:2002DC0000000000000000000000000000000300FFFF00000403FFFF0000FFFF0F00E80304
:2002FC000005401F0330000100000000FF3F0F0008000E0000000000000000000300010FD4
:20031C000000090100000000000000000000000000000000000000000000000000000000B7
:20033C0000000000000000000000000000000000AD0000010001363601010001020100017F
:20035C000301000104010606080400000C0100340D01000F10040101140100FF16080000B9
:20037C0020020000220100FF23010001240100FE250100082602000028010001290100012A
:20039C002A0200002C01000F2E0200003001000131010008320200FF340100073501024056
:2003BC00360100003701000138010001390100FF3A01000F3C0200FF3E01010F3F01000127
:2003DC004001041F41010001420100FF43010080440800004E0100084F01000F5001000100
:2003FC00510100FF5201000A5301008754010001580400005C04000060040000640400007A
:20041C00680400006C0400007004000074040000780400007C040000800100FF81010001F9
:20043C0082010001830101023545251502030504FFFFFFFFFFFFFFFF9A1000000000000031
:20045C00000000000000000000000000000000000000000000000000000000000000FAFA8C
:20047C00140000000000000000000001000001010000000000000000000000000000000049
:20049C00000000000000000000000000000000000000000000000000000000000000000040
:2004BC0000000000000000000000000000000000000000780008020030000A00000800005C
:2004DC000000000000000804FA000000FFFFFF000C1100000000000000001D1100000000B2
:2004FC00000000002E010F000000FA0000002F0100000000FA000000300100000000FF004E
:20051C000000310100000000FF000000320100000000030000003301000000000300000021
:20053C0034010000000001000000350200000000FFFF0000370200000000FF0000003902C1
:20055C0000000000FF0000003B0200000000FFFF00003D0100000000FF0000003E010000C9
:20057C000000010000003F0100000000010000004001000000000700000041200000000074
:20059C0000000000610200000000FFFF0000630800000000000000006B0800000000000000
:2005BC000000730800000000000000007B080000000000000000830205000000580200003D
:2005DC008501000000001000000086020000000032000000880200000000320000008A0267
:2005FC00000000000A00000000BD37010000910A010002BF560000007384010001BF56001F
:20061C00000073840100039DED0000007384010004E1830100007384010001F38301000167
:20063C00ED83010001738401000173840100017384010000055501000173840100017384F6
:20065C0001000173840100017384010002F383010002ED830100027384010000055501004A
:20067C000273840100027384010002FD3A01000273840100041B480000007384010003F3E1
:20069C0083010003ED83010003BF56000003BF5600000373840100039DED00000373840193
:2006BC000000055501000373840100037384010004F383010004ED83010004BF56000004C0
:2006DC00BF56000004BF560000041B4800000473840100047384010004DB830100000555B4
:2006FC0001000104052900000300000000040000E5F7010083F90100D7F90100F1F3010093
:20071C0055F40100CDF8010059FA0100BFF90100A9FA0100F1F2010011F5010065F90100B2
:20073C00F9F8010065F50100B5FA0100CDFA010095FA010081FA01003BFA01002DFA01006E
:20075C00CDF6010067FA0100A5F901000DFA010095F60100D7FA010041240100396301004F
:20077C0001F00100B9F5010029F10100F5F90100415501007179010059790100B5F40100B3
:20079C00898101007B81010051F6010000000000000000001F8301002D8001000DF7010097
:2007BC000000000000000000000000000000000000010400003333333333333333333333E7
:2007DC00333333333303010F00000000000000000000000000000000FFFFFFFFFFFFFFFFF3
:2007FC00FFFFFFFFFFFFFFFFFF4648546573740000000000000000000000000000000000B8
:20081C00000000000000000000000000D9070000010000001C0B000008000000FE060000A8
:20083C0001123456789ABCDEF000000000000000000000000000000003007100300160005E
:20085C00110070003102200350048000070010006100000014006300730072006200430058
:20087C000000130006000000000004001200000000000000000004000400370037003C0279
:20089C004400000000000000000065000000350081000000050000008300000066000000EF
:2008BC00000008000900010371030103010301030103010322030203010300031003000338
:2008DC00000300030003000300030003420300032403060300030003040312032503230302
:2008FC002503230304030403000300030003440300030003230300036503210035038103BC
:20091C0000030503000300030003000325032303080309038F0000008F0001008F0002008F
:20093C008F000300900000018F00010190000002900000038F0001048F0000058F000804FF
:20095C008F0000048A000006510000007F0001003F0004003F0002003F0001007F00020042
:20097C007B756E6B6E6F776E2D696E7374616E63652D6E616D657D007B656D7074792D69C3
:20099C006E7374616E63652D6E616D657D00C0467B7374617469632D696E7374616E636579
:2009BC002D6E616D657D00C000000102030410000810182004040810181C10040810181CF2
:2009DC0000000000080000000000000020000000400000006000000000000000060000002D
:2009FC0002000000860000008200000006088080070880800D2007C00E2007C01400C08077
:200A1C00024000800300C0800108C0801E08C08009400080084000800A400080FE000000AD
:200A3C00B9120100BD340100197A010089A80000ADBD000017840100DD30010065C70000D7
:200A5C001D8401000D17010000000000FFFFFFFFFFFFFFFF000000000000000001010101B7
:200A7C0000C201000300000000000000001000400600000015000000FF000000000000002A
:200A9C000302FFFF482D002040000000000000007BC80110C5BC0110D9B2011033C20110DA
:200ABC00BDAD0110C1B101106DBA011065BB01101DC00110FFFFFFFFC409000000000000FC
:200ADC000000000001003A0100000000000000000000000065D60000D53801000000000075
:200AFC0000000001010100003C0A000010290020880A0000000000000000000000000000A6
:200B1C00000000000000000000000000000000000000000000000000C33B3D3A5D3A713A02
:200B3C00A10A8F3A0F3BB309495E850A2F3B853B001610160E18151C02120324185803027C
:200B5C0010025800010000000000000000000000000001000000FF7FC82C0020840B0000EC
:200B7C000000000000000000004002400B00000027000000FF00000041B5011095A6011053
:200B9C0015B8011000BE040A00BE0208FFFFFFFFFFFFFFFFFF00000000000000E97901006D
:200BBC00693F010006000500000001020101FFFF000000400F000000B18B000000000000D7
:200BDC0000000000D1C0011061AD01100A000000D01B00202D680100F784010051CA0000F6
:040BFC00B5830100BC
:201000003C000000000000000000000034100000000000000000000001000000000000004F
:1C10200000000000000000000000000001000000000000000800000000000000AB
:20103C003400000000000000000000006810000000000000000000000100000000000000E7
:14105C00010000000000000000000000080000000000000077
:2010700030000000000000000000000098100000040000000000000001000000FFFFFFFF87
:10109000FF00000001000000080000000000000048
:2010A0002C0000000000000000000000C4100000040000000000000001000000FFFFFFFF2F
:0C10C000FFFFFFFF080000000000000020
:2010CC0038140000E410000095A1011091A70110A1C2011009B2011041B80110A5BC011078
:0810EC0085BC01102E0000007C
:2010F400280000000000000000000000141100000000000000000000FFFFFFFF0000000093
:081114000800000000000000CB
:20111C00341400003011000065C2011069C101101BC2011091BA011005BC0110E5BB0110EA
:04113C00300000007F
:20114000341400005411000071C20110A5B6011099BF011045B60110B5BA011025BC01104B
:04116000310000005A
:201164002400000000000000000000008011000000000000000000000000000008000000AE
:041184000000000067
:20118800240000000000000000000000A41100000000000000000000000000000800000066
:0411A8000000000043
:2011AC00240000000000000000000000C8110000000000000100000000000000080000001D
:0411CC00000000001F
:2011D00000000000B81C002004000000000000000000000020000000701000003000000037
:2011F0001C110000C01C00200400000000000000000000000C00000030130000180000004B
:2012100040110000C81C0020040000000000000000000000240000004813000018000000CE
:2012300000000000D01C002004000000000000000000000010000000A01000002C000000A2
:20125000CC100000D81C0020040000000000000000000000200000006411000024000000D1
:20127000FFFFFFFFE01C00200400000000000000000000002800000088110000240000005D
:20129000FFFFFFFFE81C0020040000000000000000000000580000003C1000003400000042
:2012B000FFFFFFFFF01C002004000000000000000000000010000000601300001800000057
:2012D000FFFFFFFFF81C00200400000000000000000000001C000000AC11000024000000CD
:2012F000FFFFFFFF001D002004000000000000000000000038000000F4100000280000003D
:20131000FFFFFFFF081D002004000000000000000000000054000000001000003C000000D8
:1813300018000000000000000000000040130000080000000000000032
:1813480018000000000000000000000058130000080000000000000002
:18136000180000000000000000000000701300000800000000000000D2
:0813780002000000B80B0000A8
:041384000100000064
:0413880000000E0053
:04138C0000000F004E
:041390003200000027
:041394000100000054
:041398002C1C0020E9
:04139C00000200004B
:0413A000F9830100CC
:0413A400FDC901106E
:0413A8000000000041
:0413AC00000000003D
:0413B0000800000031
:0413B4000000220013
:0413B800341A0020C3
:0413BC00010000002C
:0413C000441C0020A9
:0413C400080000001D
:0413C8000000000021
:0413CC00000000001D
:0413D0000000000019
:0413D400080000000D
:0413D8000000000011
:0413DC00000000000D
:0413E0000100000008
:0413E4002C1B00209E
:0413E80006000000FB
:0413EC0001000000FC
:0413F00014190020AC
:0413F40000000000F5
:0413F80000000000F1
:0413FC0000020000EB
:0414000000000000E8
:021406002900BB
:021408000100E1
:02140A002500BB
:02140C003000AE
:02140E003100AB
:021410002E00AC
:021412000100D7
:0114140001D6
:0814180003000000940B00002A
:081420000000000000000000C4
:0414280000000100BF
:04142C0000000300B9
:0414300083C4011060
:041434003C14000064
:041438003C14000060
:04143C0000000000AC
:041440009000000018
:041444009000000014
:0414480000000000A0
:04144C00441C00201C
:04145000997F01007F
:041454002000000074
:04145800600B000025
:04145C00AC0A0000D6
:0414600009C30110AB
:0414640073480100C8
:04146800C74F010069
:04146C0095C801100E
:0414700097C8011008
:041474000000000074
:041478005F0B000006
:04147C0094090000CF
:04148000AC090000B3
:041484007C090000DF
:0214880008005A
:02148A00090057
:02148C0001005D
:02148E0000005C
:01149000015A
:041494000000000054
:041498000000000050
:04149C00000000004C
:0414A0000000000048
:0414A400EF840100D0
:0414A800295D0100B9
:0414AC00E96F0100E3
:0414B000796101005D
:0414B400776201005A
:0414B8004954010092
:0414BC0029120100F0
:0414C000CF810100D7
:0414C400453A0100A4
:0414C8000DC801103A
:0414CC001DC8011026
:0414D0000800000010
:0414D40024000000F0
:0414D80018000000F8
:0414DC0028000000E4
:0414E00020000000E8
:0414E4003C000000C8
:0414E8000C000000F4
:0414EC0034000000C8
:2014F00083482DE9F04F0C4601210170DFF80892DFF80882DFF808B2DFF808A27D494FF0EE
:20151000000C2027ADF1540D65461F4081F800C0C949119391F8FC62C849109205EA0200E5
:20153000139108BF00287AD110984FF0E047194662460F4002EA000008BF002843D1119EBB
:20155000109B4FF48601B9F8BA00DFF828C3CDF82C9012EA060701EA030108BF002919D186
:20157000C34912EA060701EA030108BF00296FD037464346109E1C8103F138015881002FA2
:2015900081E8C00004BF311CB1F1806F60D102285ED111E037464346109E1C8103F1380178
:2015B0005881002F81E8C00004BF311CB1F5803F4ED1B0F5505F4BD1186A6746436938686B
:2015D0002146984742E046465946B6F9087091F90000BC42A0F10100087017D1728906F1D5
:2015F000380003C8002904BFB0F5803FB2F5505F08D0002904BFB0F1806F022A02D012F0DE
:2016100045F803E013F096F816F08EFA139890F90020521E02706FF00101318114E04346B5
:201630006FF0010003F1080108806EB1BD480078832802D08120514608704646316919B1FC
:20165000604688472146E8E7CDF82C90B9F8BA00109A119E02212F461140374008BF00293A
:2016700000F0CD83B14A43F201418142149200F09F83C91C814200F09B83594691F900103E
:201690005A464746491E1170B7F908108C4209D0139943F6040787420A9140F09A8316F00F
:2016B00063F896E3644890F8FCC207F1380090E800034FF482062F4617EA090706EA080060
:2016D00008BF002820D113980C4F0A9007F1380003C84FF400322F460F4002EA000208BF91
:2016F000002A02D111F0D2FF73E313F023F870E33D1D0020741C00207015002058180020E5
:201710007B1C0020532E00202846BCF1010F51460E9002D00F78002F79D1834C8120149E0D
:20173000277808702B46A5816069A770427A017A337002F0070301EB032152098DB234BF98
:20175000291F891EDFF8EC81437A8DB233F07F0340F0198376490988A942C0F214830A301B
:20177000294610F00FF8216A04F118000522083116F02EFAED1EADB20D960520E17E227F8B
:20179000A37E2D4EA081C1F3011B227103EB012096F8FC326081002B08BFBBF1020F00F0CE
:2017B000F282BBF1020F00F3EE8263B110F0070F00F0E9825B490978862904D100F007015F
:2017D000022940F0E082011301F00201022953DA6378DFF8509100F00700022837D1464694
:2017F000D6F804A0002B32D1216A09A801220D3116F0EEF90620A081D047804699F80030CA
:201810000D48B56847680C96862B19D10FB916F003FE9DF9240016F056FE9DF9246078776E
:201830000020B8774046FE77A847608900F0100010F08AFF06E0C046080200207A1C002021
:201850004046A84713980A9015F0F0FFA1E299F800000026862808BF01261398CDF83080D4
:201870000A9076B1002012F08BFFA77808E0C04600000C8CA81A0020CDF8308013980A90AA
:2018900063788FB183B9012F00F07A826089022F03D110F0070F40F07382032F05D100F0A4
:2018B0000701032901D06BE26089010909D310F4405F00F06582B84991F82074002F00F040
:2018D0005F82011301F00201022902DA810A80F05782B0490978C1F381098E11B9F1010F23
:2018F00000F04E82012E00F04B82C249BBF1020F09D08A5D11F809108918CFB206B3C109DD
:201910001ED3BF1E0BE072184944127909798918CFB2C10910D259EA060311D0BF1CFFB253
:201930000EE0C046572E0020882D0020552E0020941C0020D017002059EA060308BF022773
:20195000C0F300217A1A61719542C0F21982ED1B00090D44A9B2218124BF25200E900E984E
:201970004018743080B215F0BDFC65782061002800F006820021742210F0CAFA0020E07082
:20199000B4F80A801DB90D9908F0200008700D9B002094F805A01D780F90002D3CD0BAF1E4
:2019B000000F39D108F00708B8F1030F06D0B8F1010F22D1784890F86A04F0B17648B0F8FD
:2019D00054000023810809D3734991F8825095B94D681DB16D7E35F07F050CD15BB9800826
:2019F000984605D384498D68887805B1A84710B9B8F1000F01D00420E070674890F8FC02BF
:201A100010B1BBF1020F01DA15F056FAB4F80A80E07894F805A00F90216901F17400486012
:201A3000886525890D812089A1F85C005FEA18100ED3CAF1030082B2A1F85C20886DCF4969
:201A500016F0C6F82169B1F85C20886D801888655048CA4D00780F9BC0F301122878A1F8B9
:201A70000C8000F07800104318430874FF258D732079BAF1000F0E9018BF002081F8306023
:201A900081F83A9081F84900A089002FA0EB0A0085B2A58100F06A81B946216AE78068466D
:201AB0004A464919083116F093F83A487F19BDB2A5810078C0F30111129121690A7C6E4607
:201AD000801010F0030F00F0030702F0400B43D012980023022801D1D0090BD29DF80120D5
:201AF0009DF8000000EB0220A1F844000DF10206A1F84200C84AB1F84400B2F85A2082428F
:201B100003D04FF6FF72824223D1032F12D072783078C14B00EB022082B24A86B3F858109E
:201B3000B61C0120914213D04FF6FF71914218BF00200DE0C84800683146323016F07BFCB2
:201B5000C548B54900684F31323015F07DFE08360346002B00F00D810E480078831123D01B
:201B700012982169022803D0087CC00903D309E05BEA070706D172783078B61C00EB02207D
:201B9000A1F84200032B09D07078327802EB00220A8509E0A32D002008020020AE480068C2
:201BB0003146283016F047FC08F00708B8F1030F07D0B8F1010F3BD1A94890F86A74002F19
:201BD00036D0A7482669876F4FF00008FFB17B7E33F07F0317D096F8300002280ED003280E
:201BF00011D107F1700006F1280115F02DFE50B11EE0C046A00B0000801C0020B7F87000B0
:201C1000318D884214D057F80C7C002FDFD1B8F1000F0DD1914F594B4046E070387842466A
:201C3000C0F3011118780F9200F07800084330748B4890F8FC7217B1129802280CDA0D9857
:201C500007784FB1BAF1000F06D10E980F9911F0D5F8A589B4F80690206981890909C0F083
:201C70008580806D69464A4615F0B2FF2169886D48448865276AB1F85C0001224844A1F897
:201C90005C000DF125007919083115F0A1FF6E1CB5B2A58121699DF82500896D08702169F2
:201CB0009DF825709DF82530886D401C8865B1F85C00401CA1F85C0007F0070081F82400D1
:201CD000C3F3C10781F8257091F8246020898046002E4ED05E497F183E78361D8642E6802B
:201CF00047DC216A324605A84919083115F070FF38789DF817209DF814109DF81630401989
:201D10003D78001D01EB026180B201EB0341A0819DF81530206901EB032181616DB14E4806
:201D300000686D1E06A92A461C3015F051FF397820696944C97D80F82610806D05A93246F2
:201D500015F046FF2169886D80198865B1F85C00A8EB06078019A1F85C00781E82B2228184
:201D7000B1F85C000A818018A1F85C0000F07EF80FE016F097FA11F089FC0AE0A22D0020EB
:201D900016F07EF805E016F07BF8CDF8308013980A90DDF83080D8F804008047216A0A6882
:201DB0000023137109682162D8F80810884710E04046807841465F46401C887097F9000043
:201DD0005946401E087011F061FC15F0CDFC13980A9023480B99104F00226FF0010690F88F
:201DF000FC02A1F8BA203E8110B11498007808B915F09AFE0A9991F90000401E08701948FC
:201E100090F9000010B9134800210170139A92F9000098B102E0C04658180020109B119F1F
:201E300002214FF0E0401940384008BF002908D092F90000002804DC16F0EEFA002003F0E3
:201E500037FC0949002015B00870BDE8F08FC0463C000000721C0020982D0020A32D0020A7
:201E7000080200207B1C00203D1D00202DE9F04FB64C20692589216AA689806DADF1440DD3
:201E90002A468919083115F0A3FE2169886D40198865216A7619B6B201220DF13E008919F9
:201EB000083115F095FE216A761CB5B2042204A8A5814919083115F08BFE9DF813109DF84F
:201ED000100000EB016023699DF812102D1D00EB01409DF81110A58100EB0120049015F05C
:201EF0007FFFD863049815F007FCA3F84000EA2015F0D3FC0221B54827690170397CE0788E
:201F1000084338749DF93E0016F0DDFA87F846009DF93E00398987F8480007F17400B8655E
:201F3000B7F85C00401A79684FF0000B401801467860B88987F847B0820A18D2020955D32A
:201F500010F0070F07D000F00700032812BF081C7868401C46E07968C87800F007024010A1
:201F700000F0380000EB42004018001D3AE00FB916F052FAB889800A2ED379684878C6110F
:201F90002AD13D89796658464B780A7803F07F035B0003EBE2137E2B0DD07F2B09D002F000
:201FB0007F0280188918801C891C80B28542EBDC08E0594600E00121801C87F8601080B210
:201FD000854201DA584605E07968091879603989091A3981A7F86800786E10B1B7F868008D
:201FF000B0B178687861B889000916D297F86000002800F0F980384612F0AAF82769F86CEF
:20201000002800F0F180B7F85000002840F0EC8016F036F9584620610CE258465D4605904C
:2020300097F82460069005A906AA07AB0795384605F0D0FE002840F0CC80059A7D697868F1
:202050003B89291A581A1FFA80F80AB916F0E4F9B7F85C0000900195CDF808800698001D87
:2020700003900598B969BB6D324615300AF0BEFF002840F0AE80B64897F860303D89815D1B
:20209000681A388113B1384612F062F8BD8905F00705032D02D178680078F87397F80F901C
:2020B000732009A914F012FD832010A908F0ECFDDFF8A082DA4659460AE0C278012A03D1A0
:2020D000002E08BFDC2027D0001D491C0990C9B29DF8400088427BDD09988278032D07D0D9
:2020F0000378AB420DD098F800300BB1022D08D0032DE9D10378032BE6D103465B784B4512
:20211000E2D1B310B3EBA20F05DA02F0030206F003039A42D1DD58468146059897F80FC02E
:2021300090F814E0594601E0491CC9B28E454BDD06694B00032D06EB030209D1F35C032B81
:20215000F2D152786245EFD10BE0C046882D00201278AA4205D098F80020002AE4D0022DAD
:20217000E2D10698067D002E08BFB9F1DC0F2FD0B869B0F1FF3F25D0712008A914F0A6FC15
:20219000089B5846BA6905998B4206D10699824601EB8A01C968914212D8401C2C330228D8
:2021B000F1DB0698521CB2F1FF3F00EB8A00C26002D107980121817087F801B0584609E083
:2021D000DB2007E0DB2004E0DC2002E0532E0020DD20787027697870B8697E7878651EB18F
:2021F000F22015F05AFB2769954D95F8FC02002800F09D80B989DFF84C8201F00702022A24
:202210005CD16678002E59D17E78002E56D121698DF83FB00DF13600283116F00CF92169E0
:202230000BA80A22283115F0D3FC464606F1100127690888D5F82033401C0880786E0DF1E6
:202250003F020421984704F1100928B9686818B19DF83F1080F86810276997F83000022854
:2022700011D1D9F8000005F57A71884602222830203114F07BFE30B908F116010DF1360071
:2022900016F0D9F8276970480078862807D1708A401C7082B88900F0100010F055FA95F8AC
:2022B000FC0220B1D5F8441309B12069884715F0E7FF5846206115F0B9FABDE0634A16786F
:2022D0005EB3C1F30131022927D17878002840F0B1809DF83E005E4946460870B38AE17847
:2022F00007F128021C37581C0029B0820CBF5846082058495B460B6000900197B5F80E3435
:20231000117A0D2005F05AFC10B914F0D5FD01E015F01CFA0F482769007840B1D5F844139B
:2023300029B1384688472846276990F8FC02BE890A9706F0070688B1B87BFF2876D0032EED
:202350000AD1384640680078042807DD6EE0C0464000000004050020012E67D1301C3AD06A
:20237000401E4ED0801E61D1B889C0F30130022803D17868007807282BD03889002855D04E
:20239000384641684A1C42600F788446C7739CF824606EB9002F49D00A2F47DA2E49008992
:2023B000C95D814209D0082F40D1082805D03DE0C07B00283AD00A2838DA60460189491E99
:2023D0000181C17B0B3101700A99C87B401CC87319E0322016E095F8F5030F280BD015F028
:2023F0001DFD40B90A988189091301F00201022901DA2969884795F82B040A9F3874152051
:2024100000E0162038700A9905F17C0013F078FE124E7068804795F88410491C85F88410CA
:20243000B1688847202015F051FE42E70AA812F019FD3EE711F02AF911B0BDE8F08FC046E9
:20245000080200208C1B0020572E0020552E00201A1D0020D01A002047000000D017002084
:202470002DE9FE4FDD4981460122A1F130000260D8480768002FFCD0D74AE34EC027D848D2
:20249000D84B17603268920808D2324652F8042C03F14104120C42F0F00222704FF0000A3C
:2024B0008346C1F800A0DFF88CC3DBF80810E04F0191880E43D2480E41D3802018744FF692
:2024D000D802A3F8512018703868C0F30464162CA8BF203C1E460F3E307800F01F00162818
:2024F000A8BF2038844223D0624602F1980EE44ACEF800A0251A022D05DC15F1020FB8BFA2
:202510006FF0010500E002254019156800F01F05844245F4F855A6F866504FF001051560FB
:20253000E8D110682E4616601068CEF80050106838460068C0F30420162808DB06E0A7F10E
:20255000D0000068C0F30460162800DB203800EB2170401C162805DA10F10A0FB8BF6FF0C6
:20257000090000E01520D54E00F01F0040F4F850A3F85900306880083ABFD148C0F800A001
:2025900041F040616246C80E8E0E80F0010000F00100106086F0010000F00100906001987C
:2025B00010F062FD0146182013F03EFCA7F13806CD4C30683568A4F10408C0F3870105F0FB
:2025D000030041EA0021D8F80400C04D446840F2FF32534688B22C21009028464038A0472F
:2025F000F06AC0F30D011C2013F01EFCB549706A014000F07C400143142013F015FC316A6B
:2026100001F47C000904090C0143102013F00CFC7D4AB06A1268C0F30351C0F303445208E2
:2026300013D2DBF80020130511EB237103D41029A8BF0F2100E05146120414EB227403D46A
:20265000102CA8BF0F2400E0544644EA011400F47F4200F0FF01B9F1220F42EA044241EABA
:20267000020124BF00F0804001430C2013F0DCFB954CB9F1220F32BF01202068C0F30070F1
:20269000B9F1220F4FEA400040F0200085F8090126BF2068C0F3407001208D4EB9F1200F5A
:2026B00040F0100085F8090138BF514606D33168C80C00F44070C1F384510143282013F0B3
:2026D000B3FBB9F1200F26BF3068C0F301505046B9F1220F4FEA400040F0600085F80C01DE
:2026F00026BF2068C0F3C0605046B9F1220F4FEAC00040F0800085F8010126BF2068C0F3D1
:2027100045505046B9F1200F4FEA800040F47C40A5F89C0138BF6F490AD3306801038A15FB
:20273000920501F47C1100F00F00114341EA0031082013F079FBCC3F4FF480002860664A1C
:20275000B86D40F21E216FF31F40814216D93868030E03F00F0113F00F0FC0F3034018BFBE
:20277000491E072805D006280EBF0720801C00F00F0041EA0011A2F108000170DDF804C040
:20279000CCF381477F1E02D07F1E31D02CE02068810C29D24FF480412960D2F80210430AC3
:2027B000C0F3033703F0800321F08F010B4347EA0301C2F80210D2F80130060A66F303034C
:2027D000C2F80130116800F0E70721F0E70147EA01000CE09402224300600C404010094050
:2027F000AC3F0050156208404FF000402A46106005480068C0F3C0070FB94020A8624FF4CC
:202810000070286402E0C046B03F005020684027C0F3C14040F0300085F8C800CCF38150AD
:2028300080B3401E08D0FFE7401E23D0022122E08813005000002043012013F081FF064685
:202850000420314610F0D2FD042013F079FF8642FAD12248066826F07F4013F0DDFDD8F872
:202870001400036807214FF06022300E98474FF4806028600321042010F0B8FD09E0C0462C
:202890002C2009400420012110F0B0FD144813F0C3FD203C206800F03F0085F8CB0FD8F847
:2028B0000030124ED96830680220884710480D4C076001212160BDE8FE8FC0460000094072
:2028D00094042A43FCFCFC008C13005040A00C409813005000803F400A600840A83F0050F1
:2028F000BD37860094046042A40100102C20094000600C402DE9F04F0D46C84C0168616236
:20291000416880686160ADF14C0DA060284613F05BF94FF008094FF0010B06A8ADF8189003
:20293000616AADF81AB08847BD4E9DF81C1071700899716108B114F01BFE28688047A0464B
:20295000D8F80400804712904FF40057ADF800901E200197D8F82410ADF80200684688475D
:2029700012F0FEFFC94C206C40688047206CC16810A88847206C836810AA00200146984785
:20299000E06308B914F0F4FD14F0D2FFC14FC4F8D470C24AC4F8DC20C149C4F8E010BC48CB
:2029B00030610025A4F85450BB4BC4F8D830BD4FC4F8E47004F5C472C4F8642104F1C00105
:2029D000C4F8681104F1D400C4F86C01B64BC4F8E83013F091FF04F1980704F51C70C4F883
:2029F0007471B34AC4F87001B04BC4F80821B14FC4F8B03003F16E00A765B04AC4F8B40064
:202A1000AD4B2266AF4FE365B4F85410C4F8107241F00100A4F85400AC4AC4F83022A8497B
:202A30006166A94BC4F8203204F15807C4F88471AB486062A6492161A74AE261A54BA3616A
:202A5000A649216214F014FAA64FC4F80073A849C4F80C13A44BC4F80433A44AC4F808233B
:202A7000A44FC4F81073A649C4F81C13A24BC4F81433A24AC4F81823A24FC4F82073A4493A
:202A9000C4F82C13A04BC4F82433A04AC4F8282384F8FC52B4F85400B56040F01000A4F881
:202AB00054009C4FC4F830739D49C4F83C139A4BC4F83433994AC4F838239A4FC4F840731D
:202AD0009B49C4F84C13984BC4F84433974AC4F84823984FC4F850739949C4F85C13964B75
:202AF000C4F85433954AC4F85823964FC4F86073974981F800B0944BC4F86433934A15606C
:202B100002204D8014F0E6F8FF210222F06215F0E0FCF01CFF21022215F0DBFC022014F00B
:202B3000D9F88C4F386008B914F022FD38682946022215F0CEFC11A80FA912F02DFFF06A62
:202B50009DF84410421C01709DF84400107025709DF84400B07014F0C5FAB061D8F82410EE
:202B7000ADF808901420ADF80A0002A888471527ADF810900398ADF81270D8F82410F06114
:202B900004A88847754F0598DFF8DCA1744B3D70801E3062704E1D700AF1080235701088CC
:202BB00075700E30356180B214F09CFB074677610FB915F031FC09978DF828509DF8290005
:202BD000684965F301008DF829009DF82900534665F383008DF8290018899DF82920088046
:202BF00065F307128DF82920ADF82A00706909A94A4614F0EDFF3762756212F0EFF85B4EAA
:202C10003078012802D0284602F052FD58480570584F3D703078012807D003E0D017002057
:202C30006C1A0020284602F043FDD8F808101298884700F0DBFE14F075FB94F82B0411F0E4
:202C500031FF584602F034FD12F056FB4A4805703078012802D0284602F02AFD10F030FBC4
:202C70001820ADF83090454FADF83200444E0D97D8F824100E960CA8884708B115F0CCFB56
:202C900002F0D2FF13B0BDE8F08FC0460802002029480100518F0000FD360100EF74010060
:202CB000C9D20000DDE40000A51D010080010000DDD100008DBC000059B400006D4A0100A8
:202CD000416001000D4101007521010035840100D592000039DE00001D6C0100951F0100E5
:202CF0009957010089070100DD6B00002925010039590100F1850000E5EF00000154000079
:202D1000952D0000E9140100858D0000B5D300003D7D0100ED970000C9450100F16D01009C
:202D30009DD4000041AB0000BD7000002B750100A5F00000553B0100CD6D0100894B010022
:202D50005570010029790100E7830100382E00201C1D0020482E0020882D0020532E0020A4
:202D7000552E0020401600208C1C00203D1D0020572E00204E2E0020542E0020731501007C
:202D9000C41B00202DE9F04FADF18C0D1C9104461D920DF15700D1491E93082214F018FF8D
:202DB0002046694612F0F0FF1F90002804BF0020229000F0098202200027A41CDFF824B35F
:202DD0002090C74E2297204602A911F03EFA5FEA000900F0F68122990DF13900162215F033
:202DF00078FB9DF809707F1E00F088807F1E40F0E081B9F10A0F40F3E781A41C04A804228F
:202E1000214614F0E5FE241D05A80222214614F0DFFE42F20B000DF1160111F0CDFBBDF828
:202E30001600BDF81410884200F3CE81A41C14F8010B14F8017B14F8015B8DF8390014F8F5
:202E5000011B8DF83A700DF139028DF83B50204606F0EEFBC34909780028044400F0B48167
:202E70001F9D012905F1020500F09C814FF400500DF14F0111F0A0FB0DF14F000DF1570132
:202E9000082214F073F840B11C990DF14F00082214F06CF8002840F0858142F2010004A9C4
:202EB00006F09CFC42F20B0005A906F097FC42F205000DF1390106F091FC0DF13A0142F29D
:202ED000060006F08BFC0DF13B0142F2070006F085FC0FA942F2090006F080FC9DF83C003B
:202EF00028B1022840F05E8142F2030001E042F20D000DF13D0106F071FC53E1B9F1040FC7
:202F100040F36281A41C14F8010B14F8017B14F8015B8DF8390014F8011B8DF83A700DF1B0
:202F300039028DF83B50204606F082FB0028044400F04A811C9806A906F01EFD9DF83600F3
:202F5000002840F011819DF83C0000287DD1B6F84E70002F00F00481B6F85200874207D080
:202F7000308B718B884201D109F074FBB06D21E0B76D4FF400500DF15F0111F01DFB14F036
:202F900011F94FF6FF78229D2190AA46B6F84E00A84243DCB06D4FF6FF7141450AD04FEA8B
:202FB000480707EB88073818808812F025F8B06D3F1823D1B6F84E300746002B08BF229D28
:202FD00019D05846229D40681946D846BF1FBF1DFA782AB1491E05F10105F8D1BF1D0AE07D
:202FF0008047B6F85210491CA6F85210D8F808108847B6F84E30AB4200F099801C980AF0FE
:20301000B7FAB8800120F870FD788DF83650B888ADF83700229B8DF82330A5E0B88811F037
:203030008DF9014608220DF15F0013F09FFF40B138880104219815F016FA82453CBF82467D
:20305000A8466D1CBF1DADB2A0E7B6F84C70002F00F08680B6F85000874207D0308B718B43
:20307000884201D109F0F6FA706D20E0776D4FF400500DF1670111F09FFA14F093F84FF693
:20309000FF78229D2190AA46B6F84C00A84250DC706D4FF6FF71414509D008EB48173818A6
:2030B000B0F81F0011F0A8FF706D3F1829D1B6F84C300746002B08BF229D20D0DBF8040074
:2030D000229D1946D846213F2137BA7F62B1491E05F10105F8D1213711E0C0464C040000D5
:2030F000BC0F0020D01700208047B6F85010491CA6F85010D8F808108847B6F84C30AB42C8
:2031100015D022993846212215F0E3F91C980AF02FFAA7F81F000123FF2039462122BB7791
:203130000546787206A8FD7214F052FD1CE0612057E0B7F81F0011F001F9014608220DF1EE
:20315000670013F013FF38B17968219815F08BF982453CBF8246A8466D1C2137ADB293E7A5
:2031700064203EE00A0200209DF836000DF13901162240F004008DF8360008A814F028FD6E
:203190001F9D9DF83C00AD1C48B19DF84E700DF13D00394610F002FD3F1A8DF8357006A893
:2031B0000FF07AFB209809EB0007BF1CB8B2209003E01F9D4C44A41CAD1C209885423FF776
:2031D00002AE2098022803DC229A6720114604E01F9A911C121A2298921C1D9B19801E99EE
:2031F0000A8023B0BDE8F08F2DE9F04F0320ADF1540D13F029F9C74C0025022004F11C0136
:2032100041F80C5F401E8D60FAD104F14000A846062701467F1E21F80C8BFBD14FF00809E4
:20323000C84BC749C84EA0F800901B1D816004F11C07AB4623F003031A46F11A216210469E
:20325000A3611E46E3615B18834200F2BB81881021F00301E82302EB800040F804BCEC390A
:2032700033604046C2F8E810E83222611BF0FAFF6061B6493868DFF8D8A220610A680AF133
:203290000C06326049687160CC48CD494A4613F06DFE28B9C948D0490A680260496841609F
:2032B000CE48CF4FC0F8B470C0F8BC50C0F8CC50CC4EC0F8D050CC4BC0F8B860CB4AC0F8B0
:2032D000C030CB4FD0F8B410C0F8C420C0F8C87009B1404688471CF03DF8C64ECDF838B0AB
:2032F00041460C2206F128000EF012FEC24F0222ADF8209041F27073F762708DADF82220FF
:20331000616A33631027099740F01900708508A8884700280CBF0A9F47460120ADF82C90FD
:20333000616AADF82E000BA888479DF83000544620700D99616077B1D021397087F8018045
:20335000B87087F8038087F804803946BD600220FD6012F00BF9A949182001221BF038FF80
:203370009649E22014F032FE18201CF019FA60706068B246CAF808000BF06AFDA94F0AF122
:203390008400A060DAF808509D4C41466762F520A56014F0B5FA9B4D0D200E26687005F152
:2033B0000C01AE7005F118000DF002FCA860687814F0E4FC00B1C146A87814F0DFFC08B985
:2033D00049F010099049A86814F024FF8F49C82205F1240011F0FAFA8D48B9F1100F686044
:2033F00010D1606A70B1C26862B1FF208DF810004FF6FF77ADF8127004AEADF8147096E8C5
:2034100003009047834D05F1140005F108010DF0CFFB6860404614F027FF4746AE1E81468A
:2034300006F8028F02207070384614F089FF014668684A46C9B212F003FB7F1C022FEFDB29
:20345000754905F120004FF4FA7211F0BFFA734D05F11000291D0DF0ABFB2860606A0028F6
:2034700045D00769DFF8B8916FB10094494612A80A688988026012AE818096E8030001234F
:203490004246B847606A002831D0C26852B1494612A80B688988036012AF818097E8030001
:2034B0009047606A18B307690FB306208DF80800ADF80A0010AEADF80C8002AD009695E84B
:2034D000030042460223ADF84020B847666ABDF840007769A08057B1BDF8400002AE401C5A
:2034F000ADF8400096E80300022210ABB84737A014F0F8FCE820012114F002FAE72009214E
:2035100014F0FEF9606A0626002833D00769002F30D001E0D01700208DF818600425ADF82D
:203530001A500EA8ADF81C8006AB009093E8030042462B46B84768B90E981930834619E091
:2035500045F90100582E0020004B0020C8FF01005C1C0020606A8DF8186006AFADF81A5020
:203570004469ADF81C8097E80300CDF83CB02A460FABA047CDF838B058460EF013FBE020B2
:203590000C2114F0BDF94F20032114F0B9F95720052114F0B5F94E20042114F0B1F95920E2
:2035B000032114F0ADF914F045F80AF10200012114F06AF800F0B4FDFCE7C046681C002039
:2035D000A80B000040F804BB3EE6C04654492053656E736F7200C046F01200502007002031
:2035F000C95101006D560100290B0100195A010019E800005816002020BF0200DD66000080
:203610006C14002060190020F95A0100497A0100F97B0100F019002051F90000101C002015
:20363000C00B0000D40700202DE9FC47DFF848930F460646F80B80F0A181DFF83883B80F1A
:2036500080F04281B80880F03581F80A80F00F81B80B80F0FB80780B80F0BA80380C80F0B0
:20367000A9803809C0F0AB81082014F027FE002840F09B80802014F021FE002840F0958000
:2036900068460DF039FD012803D10098002800F08C8000240125E0B214F0B2FA48B1867AFB
:2036B0003EB1857290F9090005FA00F0C0B212F017FB641C032CEED344460320A070A068D8
:2036D000783014F0CAFEC248002601680660C14950F8082CB046324640F8088C04F14C0066
:2036F00014F0CBFE304613F09DFD14F03DFBE6786EB126795EB9E1686669A369401A06EBFC
:203710001030B0EBC32F9CBF6061454623D913F069FE414600B12946081C18D0AE4840F6E0
:203730000901018000F10D03414641801A7800F10C0665F303021A70327861F30302327084
:20375000416014F0CBFC418811F4406FFBD0E57045466561257111F063FF26789F4805601C
:203770001EB9A068403014F098FE022012F0AAFB11200BF04BFDA068007C10B90E200BF09D
:2037900045FD607818B16570052012F09BFB944814F022FDB4F94800B4F94A10A5708842CA
:2037B00014BF022007200DF035F827F008070FF0ADFE04E14446A06B80684688002EFAD0BB
:2037D000A06B806840880128F5D027F40047EEE712F052F938B1B56930466FF480710022B9
:2037F0004FF00073A84780494446002204F14C0014F043FE0220A070B0680188A1F60205AC
:203810002DB141F21E016D1A18BF183000D11030018821F47C7141F43471018000257574BD
:20383000266914F0A1FAD4F81011A26804F58873914214BF0121291C26B1801B03EB81066B
:20385000020BB260256127F48057B0E7484614F020FE061C08D0706830B17468F068B6F9E4
:203870002C1000222023A04727F40057A7E014F0FEFD4446054604F1340014F00AFE061C8C
:2038900012D0A06810B1783014F0E7FDF068A06014F06AFA2061534814F09EFC4FF40061BF
:2038B00004F1A80014F001FE284614F0D5FE27F4806784E007F086FC4046443014F0E9FD50
:2038D00008B927F002077AE014F0D1FD8246B0680188A1F602052DB141F21E016D1A18BF36
:2038F000183000D110300188444621F47C7141F434710180E068D0B1042012F021FFB0B17F
:20391000E56814F031FAF168401B738AF060020BF26098188842F06002D240184008F0602D
:2039300040F6C41181422CBFB0F5FA7FF160504614F092FE12F0A0F890B1B56930466FF453
:20395000807100224FF00073A84704F1340014F0A0FD002808BF47F0020701D00FF0D6FD07
:203970007469002130464FF080630A46A04727F0005724E0F82300203424002014F077FDCD
:203990000146484614F085FD061C13D0356AA80810D225EA05003062084614F05DFE70685B
:2039B00058B155B17468F068B6F92C102A460023A04702E0084614F04FFE27F4804727B114
:2039D000484639466C3014F070FDBDE8FC87C0461410044031390100082E00200000046002
:2039F0000DD90000BDB60000BDA500002DE9F04FD64F4FF00008ADF1140DD24DCDF8088010
:203A1000F8688DF80C8000288DF80D8037D1CE48CF4984380068814217D0CE49814214D029
:203A3000CD49814211D0CD4981420ED0CC4981420BD0CC49814208D0CB49814205D0CB49E2
:203A5000814202D0CA4981420CD112F0CDFC012814BF40460120787005F12000006800F149
:203A7000200408B914F0D8FC216807F1140088474FF4FA70F884BF4EBE620624FC62DFF860
:203A9000F892EB6999F83B244FF0010A41468801A0EBC100C01890F8266036B990F82540E0
:203AB000491CA242C9B2F2D103E090F82510914204D1834202D012F087F8EB69DFF8BCB276
:203AD000686A17C88BE817007878012814BF40460520AB4C8BF8000099F8696426B998694C
:203AF0000068C4F8AC0005E0D8690068C4F8AC0013F01EFE632004A911F060F899F83B0478
:203B100012F07CFA064604F19E0108786AF30200087099F83B24812A03DB842A23DB862A11
:203B300011DB94F8A00004F1A70140F00F0084F8A000087868F303000870B07B052814BFE4
:203B50002420292016E094F8A000292340F00F0084F8A00004F1A70184F8A430087868F337
:203B70000300087008E094F8A00040F00F0084F8A000212084F8A40004F1A5010878812A24
:203B900068F38710087001DB842A1ADBB37A83B904F1A5029DF810001178401E60F3050142
:203BB00004F1A6001170017821F03F0141F0180116E004F1A5019DF81020087862F3050095
:203BD00006E004F1A501087820F03F0040F00200087004F1A600017821F03F0141F0200124
:203BF0000170B07BB1890A2304F19E02401D484390FBF3F1138861F3CF031380B0891921FF
:203C100004F1A003800390FBF1F2196862F31C2104F1A8021960E869117890F8243063F3D4
:203C30000201117004F1A80290F824001378C11061F3C303137099F92A040FF0C7FC4FF6E5
:203C5000FF71814218BFA4F8AA007168308933684FF47A72401E414303EB5100B0FBF2F0FA
:203C7000EB69A4F8B000186A0078A4F89280C4F8948004F19D0384F8B40018786AF3030067
:203C9000187014F003FBC8B9B0893E49B2FBF0F0C0B20870B2FBF0F03B4A507099F83B0430
:203CB000022806D0842809DB862807DA05215C2001E00221A820354B19701070FB682E6AE3
:203CD0005BB3404611F0ACF8B87899F83B14884212D1F97899F869242E6AF86891420DD1A6
:203CF000022142468DE80600366D9034434602AA2146B047EC601BE02E6AF86871688847AD
:203D100023482B6A80F800A01E68224890345946224607F11403B04707E0903422461D4842
:203D3000346807F114035946A047F860686AA86299F83B0499F86964B87005B0FE70BDE8F0
:203D5000F08FC04658180020181300509C1A002000F0022000F0012000F000200080022018
:203D70000080012000F0820000F082200080822000800020A56E0100080200201C2E002024
:203D900070150020B01B0020181D00208C1B00203E1D0020382B00202DE9F04F064692F83E
:203DB00008B0307D09AF8946ADF1240D04933528039205D0114606F170000A2213F008FFE6
:203DD000DFF8C4C239F07F0506BF604600884FF6FF700590F08A800934BF002008203076A9
:203DF000F08AC00834BF102080207076F08A400903D260460E30007800E00020B076F08A34
:203E100041082CBF20240024000928BF44F010047568002109F07F09307D06916D1E022846
:203E30000EDB0C2808DC0C2803D1022044F40854069044F0030404E00D280CBF02200120BB
:203E5000044396F88C0008B144F00804210900D328B1DFF8C88298F8203413B908B1DF2099
:203E70004BE121096ED306F12401DFF8A4A296F88D50079100EB0A011AF805300A799918EE
:203E90003389491DCAB29918A24B1A8808908A42C0F2358100284CD0049A039906F184006F
:203EB0000AF018FD0799002808603FD0806AB0F1FF3F39D070680023401E8DB196F88E100F
:203ED000524600F80119515D491EC9B241B18A1992F88320491EC9B2002900F80129F6D1E2
:203EF000079970660968896AB162090E00F8011996F82A1000F8011996F82910089A00F861
:203F1000011996F8281005F0030500F8011902F0070141EAC501017071683589091ACAB210
:203F30007060A918318105E0DB2700E0F3277770E6E00023F08A7370C00828BF44F0100429
:203F500075686D1E336DA3B9B36D93B998F83914012903D13089B0F5EE7F06DA200904D2FC
:203F700002290AD144F4005401E044F48054012002E044F408540220069098F802000128A8
:203F90000CD098F8FC0248B196F86B00042805D1022024F48054069044F4005444EA893498
:203FB000B9F1020FA4B20AD0B9F1030F10D1ED1F08F22C41284614F03EFA6D1E08E0B8F829
:203FD0001204001205F8010998F8120405F80109069802280CD0B9F1000F15D0BBF1000FF8
:203FF0000CD004990598814208D144F040040BE0BBF1000F08D1B9F1000F05D005990812C2
:2040100005F8010905F8011944EA8B24BBF1020FA4B209D0BBF1030F0ED10399ED1F2846F6
:2040300014F009FA6D1E07E003990888001205F80109087805F80109BBF1000F05D00498FF
:20405000011205F8011905F801093878F0B932480178307D0D2814D068B9306D28B998F8DE
:20407000FC03411C88F8FC130AE098F82104411C88F8211404E098F80A04411C88F80A1417
:20409000014605F8011903E01606002044F48074201205F801092C7070683789401BC1B22C
:2040B000756078183081200926D3B06D00B1306298F8FC0210B1307D0D281DD1746A14F156
:2040D000150001D114F0A8F9A16A481CA0623289306AB162471B0092D21B019090B2029025
:2040F000706A96F88C202B46153008F08FF800281CBF7070071C07D10020707005E0E52798
:204110007770F32013F0C9FBF8B209B0BDE8F08F3C000000941C00208C2D00200802002038
:204130002DE9F041C84CC94DDFF824836088ADF1600D4108C0F083800CA808A90EF0C2FD6F
:2041500001286DD1404624300068D8B10769CFB1062002268DF808000022ADF80A600FAB67
:20417000ADF80C2002AE009396E803000C23B84740B9BDF83C006085109FE7621198206379
:2041900013F0DEFD0226BDF82210BDF8200084F8246009AAA1830FF039FB011C02D0B6A0FE
:2041B00014F02EF930460EF0F9FEBDF830009DF82C70A5F840000DA985F8427005F150003B
:2041D00014F0B9F8BDF8320005F1460609A9A5F84E00304614F0AFF8BDF82200B5F840105F
:2041F000A5F84400502013F07FFBB5F84E10532013F07AFB4A20314613F0E8FE95F8421042
:20421000E12013F07DFBB5F844104B2013F06CFB05F10A00102113F037FA0120207008E03E
:2042300012F070FFE06001200EF0B8FE002013F045FEA01C012113F019FA204640888008D8
:204250000DD3E06A12F030F912F054FC00B2A082E08202F0F7FDA01C022113F007FA6F89B0
:20427000780805D305F10A00012113F0FFF96F89B80805D305F10A00022113F0F7F96F891B
:20429000780917D383491820422217AB1AF0A0FF95F85A0005F10A06032818BF042802D1E2
:2042B000286E12F0E9F811F0A7F83046102113F0DDF96F89B80907D30DF0CCFF05F10A00FA
:2042D000202113F0D3F96F89F80907D30BF0E8FC05F10A00402113F0C9F96F89780A0AD38F
:2042F00095F85D0013F0EAFD05F10A004FF4807113F0BCF96F89380950D395F85C0005F1B3
:204310000A0600283ED0401E36D0401E02D0401E30D03EE095F85810472013F0F1FA95F860
:204330005910542013F0ECFAB5F844104B2013F0DBFAB5F84010502013F0D6FA09270123CF
:204350008DF8597095F842008DF85A3016AA8DF85B3051498DF8580018201AF039FF95F8D3
:204370005A00012815D1E87898B13046202113F08BF90EE003200AE05220012113F0A8FAA9
:20439000022004E05220012113F0A2FA01200EF09DFD3046082113F069F96F89454617B1CC
:2043B000A86814F055F9E988687849081CD3A97802094FF0000601D301290ED040090ED383
:2043D00001290CD030A013F08DFDA01C012113F05BF9A86814F03CF901E010F08BFA6E70A8
:2043F000A81D012113F042F96088002840D10A2008252A4CADF812004FF0FF37ADF8105069
:20441000616A059704A88847002831D10720ADF84850616AADF84A0012A88847149E15967C
:2044300030BB1F499DF84E200878904215D19DF84C004A7882420DD089684B6C6BB10021B5
:204450003246984709E0C04658160020241700206C140020304600F025F8159840B1ADF8B7
:2044700018500320ADF81A00616A079606A8884718B0BDE8F081C04641757468204572723E
:204490006F723A20307800C05374617274696E672E2E2E00CD4B010075830100D01700207A
:2044B0005C1C0020B0B50446BA480768ADF1480D002F00F0A8812078401E112800F2A381B4
:2044D000DFE810F06A015201380123011B010401F100E300C300B2008D005D005300420001
:2044F000A1012A001C001200F86B002800F08B81684621460CF01EFFF96B82E1386C00286A
:2045100000F081816846002101220DF001FD60788DF80000396C74E1F86A002800F07381E7
:20453000684600210E220DF0F3FCA11C684613F08FFAA57BA1890022ADF80A1005B1012285
:204550008DF80C20F96A5DE1B86B002800F05B816846002102220DF0DBFCA5788DF8015028
:2045700060788DF80000B96B4BE1786B002800F04A81684621460CF0DDFE796B41E1386B23
:2045900008B36846002114220DF0C2FCA5788DF80150A3680193A289ADF80820A17B8DF865
:2045B0000A1060788DF80000E57B8DF80B50237C8DF80C3094F911208DF80D206169049105
:2045D000396B684688476068002800F01C810146F22008700020487010F0C8FF13E1B86AA7
:2045F000002800F010816846002124220DF090FC6078A11C8DF800000DF1020013F028FA25
:2046100004F10C0103A813F023FA257EE08A04F119018DF818500B22ADF816000DF11900B5
:204630000CF094F9B96AECE0786A002800F0EB806846002102220DF06BFCA5788DF8015043
:2046500060788DF80000796ADBE0386A002800F0DA806846002112220DF05AFC658862791D
:204670006078ADF8025023798DF80520E11D8DF80000A5798DF804300B220DF107008DF804
:2046900006500CF063F9396ABBE0F869002800F0BA806846002101220DF03AFC60788DF8E9
:2046B0000000F969ADE0B86910B120460FF07AFDA07820B9A069002800F0A58003E0A0691A
:2046D000002800F0A08012F0FDFC9CE07869002800F099806846002113220DF019FC6D4640
:2046F000A01C0168406829600B22686004F10A0102A80CF02BF9796983E03869002800F097
:20471000828020460BF076FA7DE0F86800287AD0684600210E220DF0FBFB6078A11C8DF87B
:2047300000000DF1020013F093F9A089ADF80C00F96866E0B868002865D0684600211422D7
:204750000DF0E6FBA01C01686D46296040686860A07A0B2204F10B018DF808000DF10900BE
:204770000CF0F4F8B9684CE0786800284BD06846002110220DF0CCFB60786588211D8DF884
:2047900000000B22ADF8025001A80CF0DFF8796837E0C046641C00203868A0B36846002109
:2047B00019220DF0B5FBA01C01686D46296040686860A07A410824BF01218DF808108108A2
:2047D00024BF01218DF80910C10824BF01218DF80A10010924BF01218DF80B10C10924BF5D
:2047F00001218DF80C1030F07F001CBF01208DF80D000B220DF10E0004F10B010CF0A6F8E5
:2048100039686846884712B0B0BD70472DE9F04F09AFADF13C0D08900A92388809911E469E
:20483000ADF81800101C08BF002000F08481002700F101094FF0FF3A4FF0010BB8466CE173
:20485000252940F063811078521C0A922D2818BFADF8068005D15846551CADF806001078E5
:204870000A9530281CBF4246434605D10A9908785A465B46491C0A912A28CDF800805546D9
:2048900016D1306804930A99CDF808A0C01C4B1C20F00300001D306050F8044C0A93002C7E
:2048B0000878009418D5ADF806B06442009413E044460AE0610001EBC4010918A1F13004F2
:2048D0000A9908780094491C0A91302801DB3A28F0DBCDF808A004932E282BD10A99087837
:2048F0002A2801F101010A9111D13068CDF80880C01C20F00300001D306050F8045C002D8F
:2049100048BF454608782B46491C0A9111E0454643460AE0690001EBC5010918A1F1300512
:204930000A9908782B46491C0A91302801DB3A28F0DB02930AB1224604926C2804D04C2848
:2049500018BFADF8048005D10A990878ADF804B0491C0A910BA9CDF80C800FAB0791642812
:20497000059300F08B80692800F08880BDF818C0752872D078286ED06F286AD0702850D038
:2049900063283DD073281ED009980A990128A1F101010A9115D96B490C68B5F1FF3F03D07D
:2049B000A84288BF6D1C00D8099D029508A80AA932466B46A0473F180A99039801F1010914
:2049D00074E040462AE030680A99C01C20F00300001D306050F8040CBCF1000F01F10109FC
:2049F000014608B955A00146079113F03FFA0390B5F1FF3F5BD0A842C4BF281C039056E073
:204A10003068C01C20F00300001D306010F8040C5D468DF82C000A990395584601F1010911
:204A300045E0082035680490E81C20F00300001D306050F8041C082210230FA80DF0F4FEB9
:204A5000401E0790402101700A99079801F1010929E0082302E0102300E00A230A993068B0
:204A700001F10109C01C20F00300001D306050F8041CAA42BCBF2A1C049210E00A993068B8
:204A900001F10109C01C20F00300001D306050F8041CAA42BCBF2A1C04926FF009030FA8A1
:204AB0000DF0C2FE0790059D281A0390009C241ABDF8065000945DB906E008A8202109AA02
:204AD00011F0B3FF009C7F1C641E0094F5D503980546401E039075B9BDF80600E8B100980B
:204AF000401E009019D408A8202109AA11F09DFF00987F1CF4E70798411C0791017809AABC
:204B100008A811F092FF03987F1CE1E708A809AA11F08BFF7F1C09F101094A460A9812F87C
:204B3000011C401C00290A907FF48AAE089808B14146017038460FB0BDE8F08F286E756C55
:204B50006C2900C0F80B0000BA482DE9F84F0025B94CB749056094F8E200002800F0638195
:204B7000012800F02F81B54E02283CD0032840F05A8151F8250CD4F8B8100029A0F5C06001
:204B9000C4F8D400B8BF49420028B8BF4042814226DA4FF08057D7F8A4014568B4F8BC00F0
:204BB00030214FF47F42082300903046A847D7F8A4014568B4F8C00004214FF4F80212234C
:204BD00000903046A847D7F8A401B4F8D070456820214FF440620A2330460097A84701254E
:204BF00084F8D8501AE151F8258C13F001FB2F4600B901273946924F38680028FCD0B146CC
:204C1000012609F10409D9F82CA03E6009B113F0F5FACAF30720C4F8BC0013F0E9FAAA463D
:204C300000B9B2463B68002BFCD0D9F800B0BAF1000F3E6001D013F0E1FACBF38440C4F853
:204C5000C00013F0D5FAAA4600B9B2463B68002BFCD0D9F81C90BAF1000F3E6001D013F0CE
:204C7000CDFAC9F38120C4F8D000B8F5C061C4F8B81000F09C8094F8D80068B9C4F8D410F1
:204C9000D4F8C000C4F8C800D4F8BC70C4F8C470D4F8D030C4F8CC30D4F8D400D4F8BC3030
:204CB000002854BF02226FF0010204F1C8010F6800EB40008018421000EB927207EBA20056
:204CD0000860D4F8C810C4F8C43000291CDD1E293CDDD4F8CC0030B93429B4BF15391E21A8
:204CF000C4F8C81025E02A29BABFD4F8C8000B381E20C4F8C800D4F8C4003F28B4BF401CE0
:204D10003F20C4F8C4001FE0D4F8CC00032812D011F10B0FC6BFD4F8C8000B30301CC4F888
:204D3000C800D4F8C4000028C4BF401E051CC4F8C450032508E011F1150FC6BFD4F8C800C2
:204D50001530301CC4F8C800C4F8CC504FF08057D7F8A401B4F8C43030214FF47F4245682A
:204D7000364800930823A847D7F8A40104214FF400321123456831480096A847B4F8C86037
:204D9000D7F8A40104214FF4F802122345682B480096A847D7F8A40120214FF440620A238C
:204DB000B4F8CC60456825480096A84701E084F8D85040F2FF50404502D8801C40452DD2E7
:204DD00008202EE051F8251C1E4F4BF2F5204843060A3868C0F3814001280AD111F08AFE08
:204DF00010F000FC13F010FA3111C010484306EBE03694F8E50030B91348006820F07F400A
:204E10003618760801E084F8E5501048310C0660012741600E4D8760287808B90B2000E0B2
:204E3000052084F8E40004F073FEBDE8F88FC0462D400C402C500C405813002000A00C404E
:204E500000800C40B43F0050102009403C600C40010B00002DE9F04FB34C8146201D0768FF
:204E7000ADF12C0D002F00F03C814FF00008388979689E4ECDF81C80C50009783078103506
:204E9000890906D340F6485191FBF0F16D1805F5AF753E7D68438500352E0CBF46464FF4D0
:204EB000FA560DF12601E8200FF088FE9DF82600032808BF44F620666068007DAD1935280B
:204ED00003D1D4F86003804745430220DFF82CA28DF820000AF10C000068069506A908F053
:204EF000CBFE0120844E8349814F0870317887F80080012901D000F0DBFB60680589466865
:204F100012F020FA3088000942D394F8FC0200283ED061684B6A4F6E986AB0F1FF3F26D0BD
:204F30002FB3421C9A628862030E07F80139606890F82A0007F80109606890F8290007F8F6
:204F50000109606890F8280038706268106A00950190801B281A80B20290916A506A92F8CD
:204F70008C203346153007F051F9074600E0DB27D4F8401367B119B9E4200CF0D3FD04E08A
:204F90005F4880F80080E4208847002F40F0AB80294630460CF0F6FB642009A90FF00EFEF2
:204FB000584894F8FC12007831B994F82B0409F0B1FF012805D090E009F0ACFF012840F076
:204FD0008C80DFF844A1A81C87B20DF125010AF180000780E9200FF0F1FD9DF825000128FD
:204FF00005D13D46C5F3022040F0180005E02D1DADB2C5F3022040F0080006F8010D06F87C
:20501000015D55469DF82400A5F872800028C5F88C600CBF3D483E48CDF8108002238DF899
:20503000158005F138068DF8143005F1700AA6F8028005F14501C5F8C800364FCAF818001E
:20505000087820F00F0040F00300087078688047DFF8C4B00A90B9F1010F1DD0B9F1040F06
:205070001AD0B9F1000F14D0B9F1050F0ED0B9F1030F08D194F83B0410F0C0FFC07B022879
:2050900018BF56460AE005F1700607E0DFF88CB004E005F1540601E005F138061448006A2E
:2050B000164B046D02278DE88001D868314604AA5B46A0471A49174F0880B96800280AD48A
:2050D000184A92F900000A4F7035401C10700A98FD60884707E00A9888471A200CF022FD7E
:2050F00001E013F099F90BB0BDE8F08FB01B002058180020731C00203D1D00209C1A0020D1
:20511000572E00201B1D0020701500204E9055550E7A5555D0170020F1AD000069E2000033
:20513000CC1A00207A1C0020080200202DE9F04FAC4C07460020ADF13C0DDFF8A482ADF836
:205150000C00201D00688946017D252900F00281703005A904F010FC002818BFC0B240F091
:205170003B8101A804A90DF029F912F089FC00280CBF41F2081543F2C82504A901A80DF0AF
:205190001DF998F82B2201993B684FF47A7A504650430AFB1100C01A8542C0F2D880D8F8DE
:2051B0000422521A0AFB02F1C91A8D4200F3CF808542A34609DD002807DD95FBFAF04FF402
:2051D000916100B201FB003038609DF81F00002857D042F204000DF136010FF0EDF911F001
:2051F000C1FF0699441A42F206000DF135010FF0E3F99DF835009DF81D10FF2804BF0A20F9
:205210008DF83500FF2908BF0A219DF835609DF81C507548B4FBF0F2701884B25646A8101F
:2052300054437043A04298BF041C41F20810241805A811F08AFD9DF81C103D68B0FBF1F20B
:205250004A43821A714392B272438B1A891A5B1B491B8C4201D9002908D56142994212D236
:20527000002B10D5B4FBF6F109B203E06100B1FBF6F189B23A684FF4916303FB01253D6011
:2052900001E03D68002006460DF1120102A80DF095F80298D8F804120024B5FBFAF28018EF
:2052B0000290814203D998F82B32834202D998F898712FBB9DF81C00B6180004B04298BFD1
:2052D000361A9DF81F00002808BF9DF8200024D09DF81C00B6FBF0F085B2BDF833000FF0C2
:2052F0002DF89DF83120014628460FF0FFFB054611F018FD024608A928460FF00FF90CE02A
:20531000814204D8BDF81200401CADF81200BDF8120098F89B110DF037F989F8000088F8D3
:20533000F501DBF80400007D052811D19BF8110470B999F8000003A9ADF80C0042F20C0005
:2053500004F04CFABDF80C00A8F8F00100E06524204641E012F094FB00280CBF41F20815ED
:2053700043F2C825214800784FF47A7404FB00F13868491BA1F5FA62824206D2A1F57A61F6
:20539000B0FBF1F24A43801A386068460DF10E010DF014F83868009998F82B2204FB0101D5
:2053B00054430091611A8D4211DCA4F5FA648C42BCBF00F5FA60386098F89B11B8F87801F2
:2053D0000DF0E2F80146002089F8001002E099F80010652088F8F5110FB0BDE8F08FC04677
:2053F000BC0F002008020020A0860100E71100202DE9F04F002898461446ADF12C0D00F0CD
:20541000F38011F47C1F40F0EC8011F00F0F00F0EB8007460591002006900A904FF0000AD7
:205430000990554608954FF0010BCDF810B0054650460790059805990BEA000021EA0B01FC
:205450004FEA4B0B401E059100F0AB80401E70D0801E5DD0001F40F0BE8042F205000DF171
:205470000E010FF0A9F89DF80E00002800F0B3801CB1276694F86B0006900720152607F837
:20549000010B022301A907F8016B42F2010007F8013B0FF091F8684603A90CF08FFF06983C
:2054B0000FF064F80146019A00983E4640180090824206D8801ABDF80C300090581CADF8C5
:2054D0000C00009B50085146814609041804030C19430004534610EB090041EB0A0102F001
:2054F00085FF0090BDF80C309DF80C009DF800209DF8011006F8010B181206F8010B9DF8C8
:20551000023006F8012B9DF803200935BF1D42E00220152607F8010B042307F8016BB8F188
:20553000000F07F8013B0CBF099898F800002D1D4EE01CB1E76594F86B0006900520152697
:20555000049B07F8010B0DF10F0107F8016B42F2040007F8013B0FF02FF802A80FF06CFD6D
:2055700006980FF003F802999DF80F609DF80F30069AED1D4018000200EB6600B0FBF3F02D
:205590003E4602903F1D06F8012B9DF808109DF809309DF80A2006F8011B06F8013B32702F
:2055B00018E00320152607F8010BB8F1000F07F8016B034607F8013B04BF0A9807F8010B63
:2055D00005D098F8000007F8010B98F801006D1D07F8010BADB2059800287FF42BAF2E4640
:2055F00061E011F00F0F01D000205DE080468A4602264FF4803908F1020509EA0A002AEA42
:20561000090A4FEA4909B0F580301AD0B0F5803014D0B0F500300ED0B0F5802009D0B0F5EE
:20563000002004D0B0F580102AD1072404E0062402E0052400E00424002704E00224012791
:2056500001E001242746A81C214600F04BFC47B104F00F04C0F30A0141EAC42141F4004122
:2056700005E004F07F0400F0FF0141EA042105F8011B0912871929702D18B81C6D1C86B237
:20569000BAF1000FB9D1022ED8BF00260BDDB01E4FF6FE7708F8010BF019C0F3022040F03F
:2056B000A00088F8000030460BB0BDE8F08F70472DE9F047AC4C06466068ADF1280D8047BB
:2056D000994DDFF88882A24F934C8246012E00F0BF802078DFF854920F284FD08F4890F9F2
:2056F000000010F1020F05D18D4890F9000010F1020F43D08B4C20782E68079006F13C0060
:2057100000688047079D6168E668401A0896A900B0FBF1F2089DA068002304F1180686E80F
:205730000C00AA421E463146B14102DA2946884205D805463146AA42B1411FDA08900898D1
:20575000194604F11805801A994185E80300079B04F1180696E803001A46DB1712F068FAF8
:2057700004F1180540F6B832D317801A9941002985E8030002DA01214846017012F0ECF90C
:20579000002860D06A48007800285CD169480078002858D168480078002854D1674800780C
:2057B000002850D14846007800284CD164480078002848D163480078002844D1624800785E
:2057D000002840D100200CF009FD00283BD144462078002837D15F4D286A436CF868022168
:2057F00004AA98479DF8100068B3DFF830812A6AF86898F90010002611F1020F18BF0126F8
:205810004FF001092EB1926B98F9001090472A6AF868434E96F9001011F1020F03D0926BD4
:2058300096F9001090476FF00100307088F8000084F80090002012F031FC286AC169F868EB
:2058500088470020687048498968504688475FE001200CF0C3FC44498968504688472078F4
:205870000F280DD008F0B8FB28680C37436C3868022105AA98479DF81400002846D047E078
:2058900044462078012841D1012012F007FC324E96F8C2000028FBD12E4D286A436CF86895
:2058B000022106AA98479DF8180050B196F8C20038B92078012829D10020207012F058F979
:2058D00024E02948406880470021029180468DF80D1002202070214E71802A6A8DF80C0081
:2058F0001F4B146D8DE80300F86802AA3146A0471D498C68002801D512F08EFD194991F9FA
:205910000000EE60401C08704046A04711F00AF80AB0BDE8F087C046FD050020701C00203B
:20593000711C0020B01B002078180020562E0020532E0020552E0020572E0020542E0020E0
:20595000721C0020731C0020741C00203E1D00209C1A002058180020382B00208015002011
:20597000F94601007A1C0020D01700202DE9F04FAA4C07466068ADF1340D80470B900AA9C6
:20599000822005F081F9A64EBDF8280038BB00244FF6FF75ADF8284017E0ADF80450BDF893
:2059B0002800ADF80650FF210822ADF8000002A812F08FFD8DF81840D420694602F008FF14
:2059D000BDF82800401CADF82800301DBDF8281000888842E1DC82200AA902F0F9FEDFF853
:2059F00044920020B246ADF828009DF8280000268DF8000069468DF80160D02005F044F9BD
:205A10004FF000080126F0B99DF80B30012B07D19DF80A0020B90DF1020012F0CDF890B903
:205A30007D7B002D0CBF0522092246469D420AD10DF1020007F10E0111F0A4FC002818BF27
:205A50004FF0010809D1002E40F0D780B8F1000F03D1787F002800F0D080564600240CE0C8
:205A70006E490B98896888471A20D4E0BAF804006D1CADB24BE0641CA4B2B088A04242DD36
:205A90009DF82800ADF8224008A98DF82000D12005F0FAF80028EED19DF82400FF28EAD083
:205AB000ADF800006946D42005F0EEF8002837D102A8391D082211F065FC0028DBD0388864
:205AD0007D88ADF80400B8F1000FADF8065008D0387BBDF82810BD698DF818000DEB8101A0
:205AF0000D61D420694602F073FEB8F1000F0AD0387F9DF82510884205D08DF8250008A915
:205B1000D12002F065FEB088A04276D10025A84270DDADF80050D420694605F0B5F828B15F
:205B30003E490B9889688847192074E00DF1080B584612F041F8002300B101233C1D181C6F
:205B500006D158462146082211F01CFC00288DD07B8838883A7BADF80630B8F1000FADF8E1
:205B70000400BDF828308DF818200DEB830101F110010CBF0020B86908220860214602A819
:205B900012F026F899F8FC0230B1D9F84C231AB1BDF8001020469047002401E0641CA4B27D
:205BB000B088A0427FF762AF9DF82800ADF8224008A98DF82000D12005F066F8E82803D0F3
:205BD0009DF82400FF28E9D19DF8000000228DF824003B7F8DF8262069468DF82530D420B9
:205BF00002F0F6FD08A9D12002F0F2FDB088A0427FF73CAFA8423FF433AFBDF82800401C7A
:205C100080B20228ADF82800FFF6EFAE03490B988968884700200DB0BDE8F08FD017002002
:205C30008C1C0020080200202DE9F04FAB4C04F128000068ADF1240D0FF03EFA08B111F0D1
:205C500089FCA148DFF898A2DFF884B20068A14E089011F053F811F045FAE569A769B5F525
:205C70007A7F13D0C01B4FF47A720023A5FB000102F0BCFB80464FF47A72002311F0D8FFD1
:205C90002A46002302F0B2FB381801E0A0EB0708A0618C488B49006820F002000860706894
:205CB0008047DBF80010DBF8042045464919B1F57A7F0DD34FF47A73B1FBF3F3D218CBF858
:205CD00004204FF47A731F46B1FBF7F25A43891ACBF80010B168884770688047DAF80410E6
:205CF0004919CAF80410B1688847DAF8000000285FD007464FF00009706880474FF00008D0
:205D10001FFAA5F3079083B95FFA95F36BB93979E8B2884204DD79682846884209D20AE015
:205D30003879E9B2401A387108E079682846884201D3414601E07968091A7960B88878B979
:205D5000FB8853B9FB6843B13B8933B1B87A19460AF0EEF9F8687860B88808B9FB880BB1BB
:205D70003B896BB9B9F1000F04BF3868CAF8000003D03868C9F800003868B846074601E04D
:205D9000B9463F68B16807988847B8F1000F0ED0B8F8043043B9B8F806302BB998F80A00EC
:205DB000B8F808100AF0C4F9404611F07BF9002FA2D144484349006840F002000860E06855
:205DD00028B3804723E015F8060C2169A5F10C07032819D0E16A9DF816000978884210D186
:205DF00015F8080C10F0D8FBB979012903D0022908BFA87000E02870002029460DF0A6FCC0
:205E100005E011F0A7FB02E009B12846884708200727ADF81000716AADF8127004A8884789
:205E3000069D0028CFD0294800680088C8B1706880472649096800220D880A80B168884766
:205E5000089A00202946207090470546FF202070706880471D4909680A8815430D80B1689A
:205E7000884710F04BFF0746B7F1FF3F1CD0706807B9194F216AB94238BF0F1C80471C232C
:205E90000546626AADF802300820ADF80000716A019268468847A16A3846491CA1620FF05C
:205EB00083FBB1682846884708200A27ADF808004FF0FF35ADF80A70716A039502A888477A
:205ED000C7E6C04610E000E0D40B0000482E0020981C0020D01700208EC2F5286C1A0020CC
:205EF000342E0020F0B504460846ADF16C0D401E70D0401E0DD0801E00F00981401E00F07D
:205F1000EF80401E00F0E180401E00F0AD80002042E142F2010007A90EF04EFB42F20B002A
:205F300008A90EF049FB42F206000DF165010EF043FB42F207000DF166010EF03DFB42F27A
:205F5000050019A90EF038FB04A80AF095F906460DF1670142F209000EF02EFB9DF86700F3
:205F7000002808BF002503D0022010F0D2FB0546204607A9042211F02BFE241D08A9022274
:205F9000204611F025FEA71C9DF864009DF865309DF866109DF8674007F8010B9DF8672013
:205FB00007F8013B2B4607F8011B610706F0070444EA916005F0030404AD40EA84103146A0
:205FD00007F8010B012400953846019406F040FC0A309AE042F206000DF165010EF0ECFA71
:205FF00042F207000DF166010EF0E6FA42F2040019A90EF0E1FA04A80AF03EF905460DF11A
:20601000670142F208000EF0D7FA9DF86700002808BF002303D0012010F07BFB03469DF8A7
:2060300064009DF8657004F8010B9DF8666004F8017B9DF867209DF86770790704F8016B37
:2060500003F0030705F0070646EA916004AE40EA8710294604F8010B00270096204601976B
:2060700006F0F6FB001D50E042F2150011A90EF0A3FA13AF42F2160039460EF09DFA15AD5C
:2060900042F2170029460EF097FA17AE42F2180031460EF091FA204611A9082211F098FDB6
:2060B000083408222046394611F092FD04F1080708223846294611F08BFD082207F1080027
:2060D000314611F085FD202066E042F214000DF122010EF071FABDF8221002200A1258E001
:2060F00009A80021202212F0F4F942F2130009A90EF062FA09A812F0EEF9024609A9204640
:2061100011F066FD09A812F0E6F980B244E042F20E0002A90EF050FA0DF10A0142F20F00A2
:206130000EF04AFA0DF10B0142F20A000EF044FA03A942F210000EF03FFA0DF10D0142F222
:2061500011000EF039FA0DF10E0142F212000EF033FABDF808009DF80B209DF80C709DF84C
:206170000D609DF80E509DF80A1004F8010B02F00102001204F8010B07F0010042EA400283
:2061900006F0010042EA800205F0070042EA4012042004F8011B22701BB0F0BD2DE9F04F35
:2061B00009AF8B46ADF1140D03938046029212F05EF9A549019035390868404508BF4868E5
:2061D0009F4C04904FF0000984F8459110F02CFE061C00F01C81D4F83851B4F94800A84586
:2061F00000F101006FF31F30B08507D194F84401410824BF00F0FE0084F844010298006831
:2062100000B94846B0629BF80C0000F00F00022814BF4846DBF8080070620498002867D044
:206230009C3011F0E3FE002840F0EE8040460FF063FE051C0DD1636B5BB1A16B626B3046CC
:2062500009F0D6FB28B1012384F84531606B3060666394F845A1BAF1000F49D10DB9656B75
:206270008DB12A683046294609F0C2FB18B92D68002DF6D107E0022384F84531286830602B
:2062900094F845A12E60BAF1000F31D102980179049807F05DFD0146012926D094F84501F8
:2062B000002825D1012923D0616B09B10D68D5B99BF80C0000F00F00022819D19BF80C00B9
:2062D000C011400814D241B9A56B8DB1A16B30464A4609F08DFB58B996E030464A4609F04E
:2062F00087FB28B990E00968E0E7042084F84501002E00F08E8008F1780012F0AEF8C6F89A
:2063100008B0B08D029DA4F84800287986F82E00039B73604B48C6F80C8097E80C0020218E
:2063300006F110071940104006F1180387E80300484686F82F90494683E803006879012840
:2063500005D196F82F0040F0100086F82F00019812F082F994F84501042807D1D4F83C01B8
:20637000B4F9401194F8422112F000F812F07FF8054694F8450102280DD196F82F0040F09B
:20639000800086F82F0088F8C290284612F064F9B6F92C0050E0012813D104F1840012F08E
:2063B0005CF896F82F0040F0800086F82F0088F8C290A06B0028E8D1284612F04DF9224881
:2063D000007830F004001CD104F1340031466A460EF016FC18B9284612F03EF92AE0B08D05
:2063F000A8F8C0009DF8007096F82F0040F0800086F82F00012F88F8C290C6D1284612F005
:206410002BF911F051FCC3E74FF0020901E04FF0010994F8440140F0040084F8440101987D
:20643000C4F8388112F018F9B9F1020F08BF6FF0020001D06FF0010005B0BDE8F08FC046D1
:20645000F8230020FDEFFF9F3D2500202DE9FE4F0546287D012808D195F917000DF0B6F840
:206470004FF6FF71814200F016819548EF7B017894481FB990F883208A4208DB012F03D1BB
:2064900090F882208A4202DBF120BDE8FE8F80462E6A95F83500B5F8289095F83470AC8BE9
:2064B0004FF0000A5FEA060B029017D098F8FC32002B2FD0D8F8141300292BD006F0FF00B8
:2064D0008847D8F8141306B20BF47F008847361830B2001D00B2C83086B200E0C8260CB127
:2064F000241DA4B298F82004012809D147B1764802993F1897F804A0405C8019401D86B299
:2065100009EB040080195044801C80B210F01CFD071C02D11A20BDE8FE8F09EB0A003319B3
:206530003881002C03EB070078600EBF0020B819801C00217822C7F8A40007F10C0011F01C
:20655000C8FF09EB0600FF2110220019A7F84C0007F13C0011F0BDFF07F12C000F2110229D
:2065700011F0B7FF00243C707C707868696A2A8D11F02EFB07F1840005F12C010B2211F037
:2065900027FB07F19000294611F07AF96889A7F89A00287B87F89C00687B05F10E0687F80A
:2065B0009D00326869460A60706848609DF800102046012908BF01209DF80110012908BF47
:2065D00040F004009DF80210012908BF40F008009DF80310012908BF40F010009DF8041025
:2065F000012908BF40F020009DF80510012908BF40F040009DF80610012908BF40F08000F3
:206610009DF80710012908BF40F48070A7F89E00A87D87F8A000E87D87F8A10095F83800DE
:2066300087F86C00AA8BA7F8A82022B1D7F8A400A96911F0CDFAA87F87F8AA00286AC7F802
:20665000AC00B7F8A800C0B1D7F8A400A8B17868401E7860F82101707868401E78600470C0
:20667000B7F8A810B7F8A8607868401A786038898019801C38817868B865B7F89E00410A96
:2066900016D395F83710052905DB00F0040100F00100084302D0E820BDE8FE8F08F188065B
:2066B00030460BF0BFF995F83710304611F078F898F8000039460DF049F82046BDE8FE8F01
:2066D0008C1C0020080200203C0000002DE9FE4FDFF82892074609F1040000688047DFF837
:2066F000148200248346002F88F8034064D010F003F908F26C402146AC22054611F0E9FED7
:20671000DFF8F4A10AF104000188C80000EB011080B210F0DFFAC8F80C0560B105F18C073B
:206730000226BAF8040000EB400080B210F0D2FA47F8040F08B911F06FFE761EF1D1E81D66
:20675000FF21082211F0C5FEFF2105F11000082288F87B1411F0BDFE022703234FF6FF7CF1
:20677000012288F88C3405F19400A8F88EC4042100F8042F417083707F1EC170F8D105F1A9
:20679000A0000526022700F8042F417086707F1EC270F8D1BAF8047085F8A8304FB12146A9
:2067B000D8F80C057F1E084401F11801A0F802C0F6D1022088F8700498F8FC024D4618B1D3
:2067D000D8F8000300B180470CF07AFD98F92A0411F01AFB10F0BCF811F00CFB11F098F9C8
:2067F00011F08AF9464F072657F8040B00B18047761EF9D111F0C8F9464606F14C00016815
:2068100009B10EF02FFB3F48006886F85640C0B112E038460FF02CFA029002A80EF022FB26
:206830001EE038460FF024FA019001A80EF01AFB12E068460EF016FB0AF0E8FF002800901A
:20685000F7D131480078012802D02046FEF730FF2E4806F178070470B06F0028E1D13F1D35
:20687000F06F0028D5D1B467F4672948C6F8880186F88240274FC6F88C71274BC6F890314B
:2068900086F88340254AC6F89421B4702449C6F8981186F88440234FC6F89C71224BC6F823
:2068B000A031254B214AC6F8C0302149C6F8A421224A204FC6F8C420234BC6F8A8112049B6
:2068D000C6F8AC711F4FC6F8C8105846C6F8CC70A968C6F8D030884706F21141522000F0E7
:2068F00035F896F82B040DF0C9FD0CF0E9FC2046BDE8FE8F080200208C1C0020D017002069
:2069100010030020482E00203D1D0020522E0020870701002F840100F56B010091940000BB
:2069300011DF000015730100D95F010069BB000029A70000A15B010007FE000049AF0000A7
:20695000592A0100F10C01006D3201002DE9FE43994E80460F46B8F1450F08D106F50F7458
:206970003422204611F034F9C6F8F04321E110F0A7FDFF2808BFF42000F01C818F4C04EB2D
:206990008004A07810B9E178002937D0E178814208BFFB2000F00E81B8F1580F24D0B8F1CF
:2069B000600F1AD0B8F1E00F0ED0B8F1E80F05D03A7890421FDC91421DDB1FE080493878C1
:2069D000097888421AD1F4E097F900000CF0FEFD4FF6FF7181420ED010E038880A280ADBF9
:2069F000B0F5804F07DA09E038888F2803DB47F60251814202DCE820BDE8FE83724D686806
:206A100080478146207862783946301800F57A7011F0DEF8A968484688474046503800F07D
:206A3000C680801E00F0AD80401E00F0BD808D3800F0B580401E00F09B80401E00F0AC80ED
:206A5000801F1ED00D3840F0B4800E2096F869748DF8020017B11B208DF8020096F92A1479
:206A70009DF90200884204D0E0200DF10201FFF76DFF10F05DFE96F86904002800F09980E6
:206A900073E0012103208DF8051030278DF8030000248DF808704FF4FA558DF8064096F8C9
:206AB0003B14ADF80050052081298DF8040009DB842907DA8DF8030014278DF808700820D0
:206AD0008DF804009DF8030096F80D14884204D04F200DF10301FFF739FF9DF8040096F872
:206AF0001914884203D0572001A9FFF72FFF96F83B04842808DB862806DAC0208DF8080020
:206B10004FF4FA47ADF800709DF8080096F81D14884203D05A2002A9FFF718FFBDF80000EC
:206B3000B6F81A14884203D058206946FFF70EFF96F83B0478B902208DF805000B278DF841
:206B5000074020498DF806707D260E80E7200DF10701FFF7FBFEF7200DF10501FFF7F6FE48
