:20000000004B00204D3E0100FDC90110FDC90110FDC90110FDC90110FDC90110FDC90110DF
:1C002000FDC90110FDC90110FDC90110FDC90110FDC90110FDC901103BCA0110A4
:20003C00FFFFFFFFFFFFFFFF9A100000000000000000000000000000000000000000000002
:20005C000000000000000000000000000000FAFA1400000000000000000000010000010179
:20007C00000000000000000000000000000000000000000000000000000000000000000064
:20009C00000000000000000000000000000000000000000000000000000000000000000044
:2000BC000000007800080230000800000000000000000804FA000000FFFFFF000C1100004A
:2000DC000000000000001D1100000000000000002E010F000000FA0000002F010F0000005F
:2000FC00FA000000300100000000FF000000310100000000FF000000320100000000030053
:20011C0000003301000000000300000034010000000001000000350200000000FFFF000021
:20013C00370200000000FF000000390200000000FF0000003B0200000000FFFF00003D01B8
:20015C0000000000FF0000003E0100000000010000003F01000000000100000040010000C2
:20017C0000000700000041200000000000000000610200000000FFFF00006308000000002F
:20019C00000000006B080000000000000000730800000000000000007B08000000000000D2
:2001BC000000830205000000580200008501000000001000000086010000000032000000F0
:2001DC0087010000000032000000000038C40D00C8000000810000320F01000000C50D00E3
:2001FC00900100004000009605010000952B0D00C8000000220000320F0200003600010045
:20021C000600000000000000000F000000000000000000000000000000000300FFFF0000AC
:20023C000403FFFF0000FFFF0F00F4010005401F0320000100000000FF3F0F0008000E00B0
:20025C0000000000000000000300010F000009010000000000000000000000000000000065
:20027C0000000000000000000000000000000000000000000000000000000000AD000000B5
:20029C000001363601010001020100010301000104010606080400000C0100340D01000F4E
:2002BC0010040101140100FF1608000020020000220100FF23010001240100FE2501000820
:2002DC002602000028010001290100012A0200002C01000F2E020000300100013101000881
:2002FC00320200FF3401000735010240360100003701000138010001390100FF3A01000FCE
:20031C003C0200FF3E01010F3F0100014001041F41010001420100FF4301008044080000FB
:20033C004E0100084F01000F50010001510100FF5201090A53010185540100015804000056
:20035C005C0400006004000064040000680400006C04000070040000740400007804000011
:20037C007C040000800100FF81010001000120181A18182C34041E000C0E020B040B0A0792
:20039C000800110F00000500B900B300AD00B8001C00300038000800340102000304710404
:2003BC0002046004110470040204020401040204000410046104000414046304730472042A
:2003DC0062044304000413040604000400040404120400040004000400045104640000043C
:2003FC0000040004440400040004000400046504000435048104640005040004830400045A
:20041C00660400040004010171010101010111010101310101010101800100011001610197
:20043C003B001400630173017201620143010001130106013D0135000401120100010001B6
:20045C000001000104010401330133013C0144013201360000010001650100013500810101
:20047C00000105018201830100016601000100010302710230016002110270020102020251
:20049C00020280020002100261023A00410063027302720262024302000213023800000280
:2004BC00000204021202000200020002000204020402370037003C024402000239000002C1
:2004DC00000265020002350281020002050282028302000266020002000200000001000258
:2004FC000101000302010002000000000301000704010003050800000D0101FF0E08000092
:20051C0016080000200200000000000000FFFFFFFFFFFFFFFFFFFFFFFFFFFFFFFFFF000090
:20053C000000000000000300FFFF000000000000000000000000000000000000000000009E
:20055C0000000000000000000000000000000000000000000000000000000000000000007F
:20057C0000000000000000000000000000000000000000000000000000000000000000005F
:20059C0000000000000000000000000000000000000000000000000000000000000000003F
:2005BC0000000000000000000000010403040104030400000000FFFF000000000000000009
:2005DC000000000000000000000000000000FFFF0000000000000000000000000000000001
:2005FC00000000000000FFFF000000000000000000000000000000000000000001040501D6
:20061C0003040501009133010000A92E0100024B2D0000004F700100014B2D0000004F70A2
:20063C0001000355E10000004F70010004ED6F0100004F70010001E16F010001DB6F0100E5
:20065C00014F700100014F700100014F70010000A9440100014F700100014F700100014F7B
:20067C00700100014F70010002E16F010002DB6F0100024F70010000A9440100024F70011A
:20069C0000024F7001000241330100024F700100046B3C0000004F70010003E16F01000381
:2006BC00DB6F0100034B2D0000034B2D0000034F7001000355E10000034F70010000A94431
:2006DC000100034F700100034F70010004E16F010004DB6F0100044B2D0000044B2D0000DB
:2006FC00044B2D0000046B3C0000044F700100044F70010004E76F010000A94401000104E1
:20071C00E9FA01000300000000040000EDF701008BF90100DFF90100F9F301005DF4010050
:20073C00D5F8010061FA0100C7F90100B1FA0100F9F2010019F501006DF9010001F90100A9
:20075C006DF50100BDFA0100D5FA01009DFA010089FA010043FA010035FA0100D5F601003C
:20077C006FFA0100ADF9010015FA01009DF60100DFFA010011150100A151010001F00100C2
:20079C00C1F5010029F10100FDF9010021450100A966010091660100BDF40100B16D010034
:2007BC00A36D010059F601000000000000000000236F0100C56C010015F7010000000000EA
:2007DC000000000000000000000000000001040000333333333333333333333333333333FB
:2007FC003303010F00000000000000000000000000000000FFFFFFFFFFFFFFFFFFFFFFFFA3
:20081C00FFFFFFFFFF46485465737400000000000000000000000000000000000000000093
:20083C000000000000000000F507000001000000BC0B0000080000001A0700000112345612
:20085C00789ABCDEF000000000000000000000000000000002040201010101090200A2A681
:20087C00A8A0A5A59F95AD96B8B2A4313117191A21241B1D1F31313331313118191A223137
:20089C001C1E2031313431000000000002000000020000000A000000020000000200010008
:2008BC00000000000000000000000000000000000000000000000000000000000E0000000E
:2008DC0003007100300160001100700031022003500480000700100061000000140063005D
:2008FC0073007200620043000000130006000000000004001200000000000000000004001F
:20091C000400370037003C02440000000000000000006500000035008100000005000000A7
:20093C008300000066000000000001037103010301030103010301032203020301030003F5
:20095C001003000300030003000300030003000342030003240306030003000304031203B9
:20097C002503230325032303040304030003000300034403000300032303000365032100A9
:20099C0035038103000305030003000300030003250323038F0000008F0001008F0002006A
:2009BC008F000300900000018F00010190000002900000038F0001048F0000058F0008047F
:2009DC008F0000048F000006510000007F0001003F0004003F0002003F0001007F000200BD
:2009FC007B756E6B6E6F776E2D696E7374616E63652D6E616D657D007B656D7074792D6943
:200A1C006E7374616E63652D6E616D657D00C0467B7374617469632D696E7374616E6365F8
:200A3C002D6E616D657D00C0000000000800000000000000200000004000000060000000C7
:200A5C00000000000600000002000000860000008200000000000000080000001000000052
:200A7C001800000020000000C003000080070000000F0000001E0000003C000000780000F7
:200A9C0000F0000000E0010000C003000080070000000F0000001E0000003C00000078003E
:200ABC000000F0000000F00006088080070880800D2007C00E2007C01400C080024000801E
:200ADC000300C0800108C0801E08C08009400080084000800A400080FE00000009050100A0
:200AFC006D260100396701007D93000059BB000005700100B51D0100D5C400000B70010023
:200B1C009505010000000000FFFFFFFFFFFFFFFF00000000000000000101010100C201005F
:200B3C0003000000000000007BC80110C5BC0110D9B2011033C20110BDAD0110C1B1011010
:200B5C006DBA011065BB01101DC00110001000400600000015000000FF00000000000000B8
:200B7C000302FFFF082D002020000000FFFFFFFFC409000000000000C782000001003A0193
:200B9C000000000000000000F80A000008250020680B000000000000000000000000000077
:200BBC00000000000000000000000000000000000000000000000000C33B3D3A5D3A713A62
:200BDC00A10A8F3A0F3BB309495E850A2F3B853B001610160E18151C0212032418580302DC
:200BFC0010025800010000000000000000000000000001000000FF7F142B0020340C000050
:200C1C0000000000000000000000000055D90000691A010001010100004002400B00000076
:200C3C0027000000FF00000000010509000408100004081041B5011095A6011015B80110FA
:200C5C0000BE040A00BE0208FFFFFFFFFFFFFFFFFFFFFFFFFFFFFFFFFFFFFFFFFFFFFFFFFC
:200C7C00FFFFFFFFFFFFFFFF3545251502030504FF0000000000000021670100FD2F0100E9
:200C9C00060005000000FFFF000000400F000000AD9600000A000000041B00209556010068
:0F0CBC0097700100C1C70000BB6F01000102016A
:201000003C000000000000000000000034100000000000000000000001000000000000004F
:1C10200000000000000000000000000001000000000000000800000000000000AB
:20103C003400000000000000000000006810000000000000000000000100000000000000E7
:14105C00010000000000000000000000080000000000000077
:2010700030000000000000000000000098100000040000000000000001000000FFFFFFFF87
:10109000FF00000001000000080000000000000048
:2010A0002C0000000000000000000000C4100000040000000000000001000000FFFFFFFF2F
:0C10C000FFFFFFFF080000000000000020
:2010CC0038140000E410000095A1011091A70110A1C2011009B2011041B8011000000000EA
:0810EC00000000002D000000CF
:2010F400280000000000000000000000141100000000000000000000FFFFFFFF0000000093
:081114000800000000000000CB
:20111C00341400003011000065C2011069C101101BC2011091BA011000000000000000006D
:04113C002F00000080
:20114000341400005411000071C20110A5B6011099BF011045B601100000000000000000BD
:04116000300000005B
:201164002400000000000000000000008011000000000000000000000000000008000000AE
:041184000000000067
:20118800240000000000000000000000A41100000000000000000000000000000800000066
:0411A8000000000043
:2011AC00240000000000000000000000C8110000000000000100000000000000080000001D
:0411CC00000000001F
:2011D00000000000C81B002004000000000000000000000020000000701000003000000028
:2011F0001C110000D01B00200400000000000000000000000C00000030130000180000003C
:2012100040110000D81B0020040000000000000000000000240000004813000018000000BF
:2012300000000000E01B002004000000000000000000000010000000A01000002C00000093
:20125000CC100000E81B0020040000000000000000000000200000006411000024000000C2
:20127000FFFFFFFFF01B00200400000000000000000000002800000088110000240000004E
:20129000FFFFFFFFF81B0020040000000000000000000000580000003C1000003400000033
:2012B000FFFFFFFF001C002004000000000000000000000010000000601300001800000047
:2012D000FFFFFFFF081C00200400000000000000000000001C000000AC11000024000000BD
:2012F000FFFFFFFF101C002004000000000000000000000038000000F4100000280000002E
:20131000FFFFFFFF181C002004000000000000000000000054000000001000003C000000C9
:1813300018000000000000000000000040130000080000000000000032
:1813480018000000000000000000000058130000080000000000000002
:18136000180000000000000000000000701300000800000000000000D2
:0813780002000000940C0000CB
:041384000100000064
:0413880000000E0053
:04138C0000000F004E
:041390003200000027
:041394000100000054
:041398003C1B0020DA
:04139C00000200004B
:0413A000F36F0100E6
:0413A400FDC901106E
:0413A8000000000041
:0413AC00000000003D
:0413B0000800000031
:0413B4000000220013
:0413B8005C1900209C
:0413BC00010000002C
:0413C000541B00209A
:0413C400080000001D
:0413C8000000000021
:0413CC00000000001D
:0413D0000000000019
:0413D400080000000D
:0413D8000000000011
:0413DC00000000000D
:0413E0000100000008
:0413E400841A002047
:0413E80006000000FB
:0413EC0001000000FC
:0413F000FC170020C6
:0413F40000000000F5
:0413F80000000000F1
:0413FC0000020000EB
:0414000000000000E8
:021406002900BB
:021408000100E1
:02140A002500BB
:02140C002F00AF
:02140E003000AC
:021410002D00AD
:021412000100D7
:0114140001D6
:0814180003000000500C00006D
:081420000000000000000000C4
:0414280000000100BF
:04142C0000000300B9
:0414300083C4011060
:041434003C14000064
:041438003C14000060
:04143C0000000000AC
:041440008000000028
:041444008000000024
:0414480000000000A0
:04144C00541B00200D
:04145000516C0100DA
:041454002000000074
:04145800000C000084
:04145C00440B00003D
:0414600009C30110AB
:041464006B400100D8
:041468006B440100D0
:04146C0095C801100E
:0414700097C8011008
:041474000000000074
:04147800FF0B000066
:04147C00140A00004E
:041480002C0A000032
:04148400FC0900005F
:0214880008005A
:02148A00090057
:02148C0001005D
:02148E0000005C
:01149000015A
:041494000000000054
:041498000000000050
:04149C00000000004C
:0414A0000000000048
:0414A4008B70010048
:0414A8002D4C0100C6
:0414AC001D5E0100C0
:0414B000E14F010007
:0414B400DF50010004
:0414B800A15401003A
:0414BC0055170100BF
:0414C000F76D0100C3
:0414C400D92A010020
:0414C8000DC801103A
:0414CC001DC8011026
:0414D0000800000010
:0414D40024000000F0
:0414D80018000000F8
:0414DC0028000000E4
:0414E00020000000E8
:0414E4003C000000C8
:0414E8000C000000F4
:0414EC0034000000C8
:2014F000CA482DE9F04F0C4601210170DFF82493DFF82483DFF824A3DFF824B3C4494FF0EC
:20151000000C2027ADF14C0D65461F4081F800C0C7490E9391F838600D9205EA020008BF05
:2015300000287AD10D984FF0E047194662460F4002EA000008BF002843D10E9E0D9B4FF441
:201550008601B9F8B200DFF80CC3CDF8289012EA060701EA030108BF002919D1BC4912EA9B
:20157000060701EA030108BF00296FD0374643460D9E1C8103F130015881002F81E8C0008C
:2015900004BF311CB1F1806F60D102285ED111E0374643460D9E1C8103F130015881002FA4
:2015B00081E8C00004BF311CB1F5803F4ED1B0F5505F4BD1186A674643693868214698472D
:2015D00042E04646C449B6F9087091F90000BC42A0F10100087017D1728906F1300003C8B2
:2015F000002904BFB0F5803FB2F5505F08D0002904BFB0F1806F022A02D010F037FF03E0CA
:2016100012F0BCF815F02CF9524692F90000401E10706FF00101318114E043466FF00100E9
:2016300003F1080108806EB1B4480078832802D08120594608704646316919B160468847E8
:201650002146E8E7CDF82890B9F8B2000D9A0E9E02212F461140374008BF002900F07C83D2
:20167000A84A43F201418142119200F04F83C91C814200F04B8398490A4691F9001047460B
:20169000491E1170B7F908108C4205D043F60401814240F04A8346E3654890F838C007F19B
:2016B000300090E800034FF482062F4617EA090706EA080008BF002810D15748303003C88C
:2016D0004FF400322F4602400F4008BF002A02D110F0CCFE29E312F051F826E30020BCF1C4
:2016F000010F4FF081045D460F9003D0287808B115F0D8FA2C70824C002067786081119EC8
:20171000E770054635702069DFF8FC91017A457A05F0070201EB022135F07F05A1F10401FE
:201730001FFA81F840F0D982B8F5006F80F2D5820A3041460FF08EF9E16904F114000522D6
:20175000083115F0C9F8A8F1030305201FFA83F8E27DA57D6081217E354B0C96C2F3011039
:20177000109093F83800617105EB022518B91099022900F0B2821099022900F3AE8260B13C
:2017900015F0070F00F0A9825C480078862804D105F00700022840F0A082281300F0020AB5
:2017B000BAF1020F58DAA37805F00700022841D14E46D6F804B0002B3CD1E16909A801226C
:2017D0000D3115F089F806206081D84780460B96C24F4A48B6683A680078862822D122B951
:2017F00015F060FA48463A6886689DF9240015F03CFC9DF924705077002090774046D77779
:20181000B04705F0100010F07FF80DE0A21B0020981B0020D8120020001700209E1B00208E
:20183000902D00204046B04714F0B6FE59E2C04614150020314800780026862808BF012649
:20185000CDF82C905EB1002012F00AF8E77805E000000C8CD0190020CDF82C90A37887B10B
:201870007BB9012F00F03682022F03D115F0070F40F03082032F04D105F00700032840F0EC
:201890002982280908D315F4405F00F02382C2480778002F00F01E82BAF1020F02DAA80AB2
:2018B00080F01882BE480078C0F3810B8611BBF1010F00F00F82012E00F00C821099B74828
:2018D00002290BD010F80B10805D4018C7B20EB3E8091FD3BF1E0EE09F1B002000EB0B01E1
:2018F0008019097900794018C7B2E8090ED25BEA06030FD0BF1CFFB20CE0C046942D002016
:20191000E42C0020922D0020B41500205BEA060308BF0227C5F30029A7EB09008045C0F28E
:20193000D981A8EB07002909484480B2208124BF25210F910F994018743080B215F0AAF8CC
:2019500094F80280E060002800F0C481002174220FF0C1FB0020B8F1000F207103D10C9978
:2019700005F0200008700C9803784FF00008002B53D0B9F1000F50D1D548008805F007019A
:2019900003291ED18108424609D3544991F82E30A3B90B681BB15B7E33F07F030ED16AB990
:2019B0008008C24607D3D6498B68887813B1984794F8048010B9BAF1000F02D004202071DE
:2019D0008046D14890F8383013B11098022824DACC490220002301F10A0AB8F1000F8AF8FA
:2019F00000006279CB72AAF1020007D000F1020A9AF8001041F010018AF8001002710A9AC1
:201A10000521A2F87810C2F8840014F081F9504603210FF01FF894F80480E16801F1740023
:201A30004860886523890B812089A1F85C0028090ED3C9F1030082B2A1F85C20886DD54900
:201A500014F04AFFE1688A6DB1F85C00801888655348D04B0078C0F3011218788D81B9F123
:201A7000000F00F0780040EA020048EA00050D744FF0FF038B730CBF6079002081F83060EF
:201A900081F83AB081F849006089002FA0EB090085B2658100F01381E0693A46E780291853
:201AB0000831684614F018FF3D48EE19B5B26581E16800780A7C6E46C0F38103C0F3011A3B
:201AD000C0F38108002B02F0400949D0C0F301100023022804D1D0090ED201E0700D00201E
:201AF0009DF801209DF8000000EB0220A1F844000DF10206A1F84200AE4AB1F84400B2F831
:201B10005220824203D04FF6FF72824222D1B8F1030F12D072783078A64B00EB022082B2DE
:201B30004A86B3F85010B61C0120914211D04FF6FF71914218BF00200BE0E0683146323088
:201B500015F073FAE0689B493230473114F032FD08360346002B00F0B5802046E168C07D07
:201B7000831125D0BAF1020F03D0087CC00903D309E059EA080206D172783078B61C00EBBE
:201B90000220A1F84200032B0CD07078327802EB00220A850CE0C0466C0F00205C0C000009
:201BB000FB2C0020E0683146283015F03EFAE16888890009C0F08380886D3A46694614F03C
:201BD0008BFEE068816D79188165E669B0F85C1001227F18A919A0F85C7008310DF1250020
:201BF00014F07AFE6F1CBDB26581E1689DF82500896D0870E2689DF825609DF82530906DBD
:201C1000401C9065B2F85C00401CA2F85C0006F0070082F82400C3F3C10182F825102089A0
:201C300092F824708046002F4CD0604F7F183E78361D8642E68045DCE0692918324608318C
:201C500005A814F049FE3A789DF817C0111D481980B29DF81450608105EB0C60E3689DF887
:201C7000165000EB05409DF81550042900EB052098610BDDE06806A9521E1C3014F02CFEC5
:201C90003878E3686844C07D83F82600986D05A9324614F021FEE068816D71188165B0F814
:201CB0005C10A8EB06077118A0F85C10791E89B22181B0F85C2001818918A0F85C1000F0CC
:201CD00083F80EE015F0F6F810F0D0FB09E0C0464816002014F042FF03E014F03FFFCDF831
:201CF0002C90DDF82C80D8F804008047E1690A68002313710968E161D8F80810884714E03B
:201D1000A41B0020F41900201415002040462A4F80784146401C887097F900003946401E1F
:201D3000087010F0A3FB14F0B7F926480A99214F00226FF0010690F83800A1F8B2203E81D6
:201D500010B11198007808B914F08AFD1B481B4990F90000401E0870174890F9000010B96E
:201D7000134800210170154890F90000A0B10D9A0E9F02214FF0E0401140384008BF0029A0
:201D90000ED00E4890F90000002809DC14F08AFF06E0C046FA2C00200020014604F008FF48
:201DB0000749002013B00870BDE8F08F440C0000961B0020001700209F1B00209E1B002039
:201DD000A21B0020141500202DE9F04FB94C0C3CE0686189E2692589806DADF13C0D0E46D8
:201DF000891808312A4614F077FDA81986B2E068816D6D188565E0690122311808310EA8CF
:201E100014F06AFDE069761CB5B2042265812918083104A814F060FD9DF813109DF8100015
:201E300000EB0160E3689DF812102D1D00EB01409DF81110658100EB0120049014F048FE48
:201E5000D863049814F02AFBA3F84000EA2014F0CCFB0221B648E2680170117C2079084375
:201E700010749DF9380015F000F982F846009DF93800118982F84800002082F8470002F144
:201E900074009065B2F85C00401A5168091851609089830A18D2030957D310F0070F07D02B
:201EB00000F00700032812BF081C5068401C48E05068C17801F00703491001F0380101EB64
:201ED00043014018001D3CE0171C02D114F0EAFEE268B889800A2ED379684878C6112AD1A2
:201EF0003E89796600204D780B7805F07F056D0005EBE3157E2D0DD07F2D09D003F07F0374
:201F10001818801C5B1880B2991C8642EBDC08E0002100E00121801C87F8601080B286426C
:201F300001DA002005E07968411879603989091A3981A7F86800506E10B1B2F86800B0B106
:201F5000506850619089000916D292F86000002800F0FC80104611F045F9E268D06C00283D
:201F700000F0F480B2F85000002840F0EF8014F08FFF0020E06024E24FF0000B1546104639
:201F900005A9CDF814B007ABCDF818B095F82470CDF81CB006AA04F004FD002840F0CB80C1
:201FB000059A6E6968682B89311A581A1FFA80F80AB914F077FEB5F85C0000900196CDF898
:201FD00008800698001D03900598A969AB6D3A4615300AF0E1FC002840F0AD80AD4895F8B1
:201FF00060302E89C15D701A288113B1284611F0F9F8AE8906F00706032E02D1686800788F
:20201000E87395F80F90732009A913F08FFC83200DF13A0108F08CFADFF8D082DA4651461C
:202030000AE0C278012A03D1002F08BFDC2027D0001D491C0990C9B29DF83A00884279DDFF
:2020500009988278032E07D00378B3420DD098F800300BB1022E08D0032EE9D10378032B68
:20207000E6D103465B784B45E2D1BB10B3EBA20F05DA02F0030207F003039A42D1DD50462D
:202090008146059895F80FC090F814E0514601E0491CC9B28E4549DD07694B00032E03EBC9
:2020B000070209D1FB5C032BF2D152786245EFD10BE0C046F02C00201278B24205D098F8A4
:2020D0000020002AE4D0022EE2D10698077D002F08BFB9F1DC0F2DD0A869B0F1FF3F23D082
:2020F000712008A913F022FC5346089AA9690598824206D106989A4600EB8A00C068884203
:2021100010D85B1C2C32022BF1DB0698491CB1F1FF3F00EB8A00C16002D1079801218170FB
:20213000584608E0DB2007E0DB2004E0DC2002E0902D0020DD206870E268507090695778E6
:2021500050651FB1F22014F050FAE2689F4DDFF8849295F83810002900F0AD8090899C4E49
:20217000DFF874B200F00700022858D1A078002855D15078002852D1E1684FF000080CA84B
:202190008DF83980283114F050FF06F11C01E7680888EB6D401C0880786E0DF139020421D2
:2021B000984704F10C0A30B94846006818B19DF8391080F8681014F0FFFA90B1E76897F893
:2021D000300002280ED1DAF80000594602222031283013F0E5FD28B90BF116010CA814F0E7
:2021F00024FFE7680DF12E0000906D6E786E0CA942460BABA84779480078862808D1F08BC3
:20221000E768401CF083B88900F010000FF07CFB14F03EFE4046E06014F0BEF9D3E0704BAA
:202230001A78002702B101277248026827B16F7817B114F0C1FA28B91878002831D014F0F2
:20225000BBFA70BB53782779002B40F0BA809DF83800318C02F12803002F207002F11C0216
:2022700001F10100308414BF082600265D490020086014F0ADFA0146009658460192263043
:2022900006881A460D20334605F094F920B913F03FFD03E0480C000014F01CF91348E2680B
:2022B000017841B1D5F880702FB13946104688470E48E26801780A9251B1907BFF287AD02F
:2022D0001046C17B042976DC40680078072872D0938913F0070040D0401E56D0801E6AD1B9
:2022F000C3F30130022808D102E0C0464C1500205068007807282ED0FFE7108900285AD04D
:20231000104641684A1C42600F788446C7739CF824607EB9002F4ED00A2F4CDA0189324E16
:20233000F01910F8010C884209D0082F43D1082905D040E0C07B00283DD00A283BDA6046FE
:202350000189491E0181C17B0B3101700A99C87B401CC8731BE0322018E0244E96F8A100AE
:202370000F280CD014F0D2FB48B9181300F00200022804DA0A984D462D1D2968884796F8D6
:20239000D7000A9A1074152000E0162010700A994D4605F1280012F001FE154E706880470C
:2023B00095F83010491C85F83010B1688847202014F0B0FC02E00AA811F0D0FF4FF000089B
:2023D00028E710F053F80FB0BDE8F08F14150020241A0020700D0020340F0020942D002028
:2023F000922D0020F819002070080000A00E0020B4150020F02C00202DE9FE4FE5498046FB
:202410000122A1F130000260DF480768002FFCD0DE4ADF4EC027E048E04B1760326892089A
:2024300008D2324652F8042C03F14104120C42F0F00222704FF0000A8346C1F800A0DFF871
:2024500064C3DBF80810D64D0191880E43D2480E41D3802018744FF6D802A3F851201870B1
:202470002868C0F30464162CA8BF203C1F460F3F387800F01F001628A8BF2038844223D074
:20249000624602F1980EDA4ACEF800A0261A022E05DC16F1020FB8BF6FF0010600E0022613
:2024B0003018166800F01F06844246F4F856A7F866604FF001061660E8D11068374617609D
:2024D0001068CEF80060106828460068C0F30420162808DB06E0A5F1D0000068C0F304603D
:2024F000162800DB203800EB2170401C162805DA10F10A0FB8BF6FF0090000E01520DE4F2B
:2025100000F01F0040F4F850A3F85900386880083ABFEA48C0F800A041F04061019E624668
:20253000A5F13804C80E8F0E80F0010000F00100106087F0010000F0010090602068C0F3E0
:202550008367C0F38F21B00C23D2304640F3072000280BD542425046490805D17F0806BF08
:202570000127391C4FF6FF71521EF5D1002810DD4FF6FF72490041F001018A4207D27F0078
:2025900047F001070F2F92BF01210F27111C401EF0D141EA0741182012F0E2FB2068D24E87
:2025B0002768C94CA6F10409C0F3870107F0030041EA0021D9F8040040F2FF3253468FB230
:2025D0002C21466800972746A7F14000B0470C3D2868C0F30D011C2012F0C2FBB84955F83A
:2025F000080C014000F07C400143142012F0B8FB55F80C1C01F47C000904090C0143102021
:2026100012F0AEFB624955F8042C0968C2F30350C2F30345490813D2DBF800100B0510EB3D
:20263000237003D41028A8BF0F2000E05046090415EB217503D4102DA8BF0F2500E055460F
:2026500045EA001502F47F4002F0FF01B8F1220F40EA054041EA000124BF02F0804211431F
:202670000C2012F07DFB974DB8F1220F32BF01202868C0F30070B8F1220F4FEA400040F09E
:20269000200084F8090126BF2868C0F3407001208E4EB8F1200F40F0100084F8090138BF1A
:2026B000514606D33168C80C00F44070C1F384510143282012F054FBB8F1200F26BF3068CE
:2026D000C0F301505046B8F1220F4FEA400040F0600084F80C0126BF2868C0F3C060504606
:2026F000B8F1220F4FEAC00040F0800084F8010126BF2868C0F345505046B8F1200F4FEA65
:20271000800040F47C40A4F89C0138BF70490AD3306801038A15920501F47C1100F00F0020
:20273000114341EA0031082012F01AFB4FF48000A5F1D0012060674A886D40F21E236FF375
:202750001F40834216D90868030E13F00F0F03F00F01C0F3034018BF491E072805D006284B
:202770000EBF0720801C00F00F0041EA0011A2F108000170DDF804C0CCF381477F1E13D0D2
:202790007F1E3BD036E0C0469402224300600C40B03F005040100940AC3F005015620840EC
:2027B000881300500000204328460068810C21D24FF480412160D2F80210430AC0F30337CA
:2027D00003F0800321F08F010B4347EA0301C2F80210D2F80130060A66F30303C2F801302E
:2027F000116800F0E70721F0E70147EA010004E02C2009404FF00040224610603B4800688C
:20281000C0F3C0070FB94020A0624FF40070206428684027C0F3C14040F0300084F8C8007E
:20283000CCF3815050B3401E03D0401E1FD002211EE0012012F0CEFE0646042031460FF081
:20285000DDFE042012F0C6FE8642FAD12248066826F07F4012F0FCFCD9F8140003680721F1
:202870004FF06022300E98474FF480602060032104200FF0C3FE08E0000009400420012148
:202890000FF0BCFE154812F0E3FC203D2868144947F6180600F03F0084F8CB0F144B0E801A
:2028B000D9F800201868D1680220884711480D4D076001212960BDE8FE8FC04694042A436B
:2028D000FCFCFC008C13005040A00C409813005000803F400A600840A83F0050BD3786007C
:2028F00070B00C4094046042A4010010B03F00502C20094000600C402DE9F04FADF18C0D61
:202910001C911E93CC491D920A6806460DF156000260496841603046694612F0B7F90028C0
:202930001F9004BF0020229000F0F78102200027B61CDFF84CB32090D34D2297304602A940
:2029500010F0CDFC5FEA000900F0E48122990EA816220EF0C0FB9DF809707F1E00F08280F8
:202970007F1E40F0CF81B9F10A0F40F3D681B61C316804A80160361D318805AF42F20B0066
:2029900039800DF1160110F087FEBDF81600BDF81410884200F3C181B61C16F8010B16F837
:2029B000017B16F8014B8DF8380016F8011B8DF839700EAA8DF83A40304605F03BFEBF49B9
:2029D00009780028064400F0A8811F9C012904F1020400F091814FF400500DF14E0110F019
:2029F0005BFE0DF14E000DF15601082213F0D8F940B11C990DF14E00082213F0D1F90028BE
:202A100040F07A8142F2010004A906F015FB42F20B0005A906F010FB42F205000EA906F0BF
:202A30000BFB0DF1390142F2060006F005FB0DF13A0142F2070006F0FFFA0DF13B0142F247
:202A5000090006F0F9FA9DF83B0028B1022840F0538142F2030001E042F20D000FA906F096
:202A7000EBFA49E1B9F1040F40F35781B61C16F8010B16F8017B16F8014B8DF8380016F8D4
:202A9000011B8DF839700EAA8DF83A40304605F0D1FD0028064400F040811C9806A906F070
:202AB00055F89DF83600002840F00A819DF83B0000287AD195F83170002F00F0FD8095F871
:202AD0003300874207D095F88C000A2801D10AF0B9FCA86B1EE0AF6B4FF400500DF15E012C
:202AF00010F0DAFD13F048FA4FF0FF08229C2190A24695F83100A04240DCA86BB8F1FF0F87
:202B100008D008EB88040019007912F011FBA86B071923D195F831300746002B08BF229C9C
:202B300019D05846229C40681946D8467F1F7F1DFA782AB1491E04F10104F8D17F1D0AE0E4
:202B5000804795F83310491C85F83310D8F80810884795F83130A34200F094801C980CF06B
:202B700077FA38710120F870FC788DF8364038798DF83700229B8DF82330A1E0387911F0FE
:202B9000D5F8014608220DF15E0013F009F940B138880104219814F054FA82453CBF82463B
:202BB000A046641C7F1DA4B2A3E795F83070002F00F0828095F83200874207D095F88C005D
:202BD0000A2801D10AF03EFC686B1EE06F6B4FF400500DF1660110F05FFD13F0CDF94FF0A6
:202BF000FF08229C2190A24695F83000A0424DDC686BB8F1FF0F08D04FEA48140019C07F50
:202C100012F096FA686B071925D195F830300746002B08BF229C1CD0DBF80400229C19465F
:202C3000D846203F2037BA7F42B1491E04F10104F8D120370DE0C0466C0C0000804795F844
:202C50003210491C85F83210D8F80810884795F83030A34216D02299384620220EF03BFAE1
:202C70001C980CF0F5F9F8770123FF2039462022BB770446787206A8FC720CF0FBFE1FE0BD
:202C9000B4150020612055E0CC100020F87F11F04DF8014608220DF1660013F081F838B192
:202CB0007968219814F0CDF982453CBF8246A046641C2037A4B297E764203BE0151500209C
:202CD0009DF836000EA9162240F004008DF8360008A80CF0CFFE1F9C9DF83B00A41C40B186
:202CF0009DF84D700FA839460FF04AFF3F1A8DF8357006A80FF02AFA20984844801C80B28E
:202D1000209003E01F9C4E44B61CA41C209884423FF714AE2098022803DC229A6720114660
:202D300004E01F9A911C121A2298921C1D9B19801E990A8023B0BDE8F08F70472DE9F84314
:202D5000C74C0F460646F80B80F0DD81E07AB90F80F06B81B80880F05881F80A80F0318133
:202D7000207A10B1380980F02981206C002840F093803809C0F09380002501262570B948B0
:202D9000A67114F03DF8284613F036F9B64904F170002A4614F04CF904F1580090E800034E
:202DB00013F050FE2379B0EB08004FEA103071EB09010905012B40EA0100606606D194F806
:202DD0006810B0EBC12F01D8E07860B340F60900A08294F82100267100F0F00040F00100E6
:202DF00084F8210094F82000E57000F0F00084F82000A56114F0FCF9D14A131D196821F0CD
:202E1000020119606FF00203136004F1140642F8106C11688908FCD31360516841F0020151
:202E3000516014F0E1F92E4604F1580080E86000666611F003FC6078012803D0E068403012
:202E500014F0CEF9C6480660022011F0D7FF11200BF05AFBE068007C10B90E200BF054FBA4
:202E7000A07A18B1A572052011F0C8FFBD49A5710878E57128B10D7004F1EC00042113F00A
:202E90007FFDB4F95000B4F95210884214BF022007200CF031F98EE0380980F08C80B80BA0
:202EB00077D2780B29D2380CC0F0518104F13C0014F0D1F8F0B1C16849680978022919D166
:202ED00090F82700400915D2206C90F82700400910D3206C806840880028FAD0206C8068FA
:202EF00040880128F5D0206C0026A0641920266413F020FF27F4004729E110F0D7FD38B148
:202F1000B56930466FF4807100224FF00073A847954904F17000002214F08AF8B1680025CD
:202F30004FF0010840F602026572088884F8008082420AD0B0F5C15F07D00A8B4FF61F6009
:202F5000104040F43470088306E00A8A4FF61F60104040F434700882757413F073FDD4F896
:202F70005421E36804F5AA719A4208BFA846266E46B1864226BF301A401E801B01EB8801EC
:202F9000000B88602566192013F0D4FE27F48057DDE004F1400014F05EF8061C08D0706885
:202FB00030B17568F068B6F9241000222023A84727F40057CBE027F00807C8E00020207217
:202FD000F9E714F015F9054604F13C0014F043F8061C15D0E06810B1783013F0BDF8F0686C
:202FF000E060284614F000F913F02CFD20665F4813F006FF4FF4006104F1EC0013F0C0FC71
:20301000002027F480672072A1E004F14C05284614F021F807F0E0FB284614F01CF827F02B
:20303000020708B147F0020791E020B1042011F0E5FE0020E07214F0DBF8B168804608887C
:2030500040F60202824211D0B0F5C15F0ED00A8B4FF61F60104040F4347008830DE0C046DF
:20307000A00A0020CDB600001DFE00000A8A4FF61F60104040F43470088204F1580090E809
:203090000C00002B08BF002A18D0042012F0A2FAA0B1A56D13F0D6FC854226BF401B401EB1
:2030B000401B000BF060F168708A401840F6C411F06081422CBFB0F5FA7FF160404614F09D
:2030D00093F810F0F3FC98B1B56930466FF4807100224FF00073A84704F13C0013F0BBFF84
:2030F000002808BF47F0020702D0192013F022FE75692DB1002130464FF080630A46A847AF
:2031100027F0005723E014F073F8014604F1440013F0A1FF0646B569A80813D296B125EA47
:203130000500B061084614F05FF8706868B165B12A46F068B6F9241075680023A84704E03B
:2031500010100440084614F04FF827F4804727B104F1EC00394613F013FCBDE8F883C04610
:20317000000004608B2D0020A5BF00008DAA00002DE9F04F0320ADF1540D12F081F8CA4C60
:203190000025022004F11C0141F80C5F401E8D60FAD104F14000A946062701467F1E21F8BE
:2031B0000C9BFBD14FF0080AC049A0F800A0C04A8160C049121D22F00303CF1A2762A36149
:2031D000E361A66904F11C08944618460A46B14200F29581B910E82700EB810121F8049CF2
:2031F0004FF6FC761F8006EA0C033746D21A00F1E80607EA02012661EC39A0F8E810284684
:203210001CF030F86061C249D8F80000DFF82C8320610A6808F10C00026049684160BD4996
:203230008346524612F0BCFD28B9BB4801685A46116040685060B948B94FC0F8B070C0F813
:20325000B850C0F8C850B74EC0F8CC50B64BC0F8B460B64AC0F8BC30B54FD0F8B010C0F8F8
:20327000C020C0F8C47009B1284688471CF076F8B04ECDF8389029460C2206F120000DF0C5
:203290002AFFAD4F0222ADF820A041F270737762708CADF82220616AB3621027099740F0B7
:2032B0001900708408A8884700280CBF0A9F2F1C0120ADF82CA0616AADF82E000BA88847D9
:2032D0009DF83000444620700D99616077B1D021397087F80190B87087F8039087F8049079
:2032F0003946BD600220FD6011F030F99449182001221BF06DFFE220594613F0C3FC18202F
:203310001CF052FA60706068B046C8F808000BF02DFB944F08F17000A060D8F80850894C83
:2033300049466762F520A56013F092F9864D05F1180005F10C010CF0D1FCA8600D2013F098
:203350008BFB00B1CA460E2013F086FB08B94AF0100A7E49A86813F071FD7D49C82205F161
:20337000240010F0C7FB7B48BAF1100F686011D1606A78B1C2686AB1FF204FF6FC778DF88C
:203390001000F81CADF8120004AEADF8140096E803009047704F07F1140007F108010CF0B7
:2033B0009DFC7860484613F067FD4E46BD1E824605F8029F02206870304613F0C3FD014648
:2033D00078685246C9B211F02DFB761C022EEFDB624907F120004FF4FA7210F08BFB606A73
:2033F000002845D00769DFF878A16FB10094514612A80A688988026012AE818096E80300F4
:2034100001234A46B847606A002831D0C26852B1514612A80B688988036012AF818097E850
:2034300003009047606A18B307690FB306208DF80800ADF80A0010AEADF80C9002AD009635
:2034500095E803004A460223ADF84020B847666ABDF840007769A08057B1BDF8400002AEB1
:20347000401CADF8400096E80300022210ABB84724A013F0A5FB606A062668B307695FB3A2
:203490008DF818600425ADF81A500EA8ADF81C9006AB009093E803004A462B46B84758B910
:2034B0000E981930814617E0B41500204DF90100952D0020004B00208DF818604846676A76
:2034D000ADF81A5006AE0F907C69ADF81C9096E803002A460FABA047CDF8389048460DF09A
:2034F00083FCE0200E2113F0B3F812F067FF08F10200012112F08CFF00F00AFFFCE726F854
:20351000029B64E654492053656E736F7200C046C8FF01007C0C0000F012005008020020AB
:20353000AD4101008946010021580100FD4901005DE40000B813002020BF02006C1B002047
:20355000AD890000D411002048180020754E01006967010001690100D81800203507010053
:203570009C0C0000B80200202DE9F04FDFF8E0C292F808B009AF88460646ADF1240D049371
:2035900038F07F05039206BF604600884FF6FF700590F08A800934BF002008203076F08A40
:2035B000C00834BF102080207076F08A400903D260460E30007800E00020B076F08A4108AD
:2035D0002CBF20240024000928BF44F010047568002108F07F08307D06916D1E02280EDBF1
:2035F0000C2808DC0C2803D1022044F40854069044F0030404E00D280CBF022001200443A6
:2036100096F8880008B144F00804210900D328B1DFF8C89299F8CC3013B908B1DF2051E141
:2036300021096DD396F88950DFF8B4A206F1240133891AF8052007910AEB000109790890C5
:203650008918491DC9B2C918B1F5006F80F23C8100284CD0049A039906F180000AF0DEFBEB
:203670000799002808603FD0806AB0F1FF3F39D070680023401E8DB196F88A10524600F8DA
:203690000119515D491EC9B241B1721892F87F20491EC9B2002900F80129F6D10799706661
:2036B0000968896AB162090E00F8011996F82A1000F8011996F82910089A00F8011996F877
:2036D000281005F0030500F8011902F0070141EAC501017071683289091AC9B27060891894
:2036F000318105E0DB2700E0F3277770EDE00023F08A7370C00828BF44F0100475686D1E94
:20371000336DA3B9B36D93B999F8E510012903D13089B0F5EE7F06DA200904D202290AD1FD
:2037300044F4005401E044F48054012002E044F4085402200690DFF8ACA19AF801000128D1
:203750000FD013F039F860B19AF8380048B196F86B00042805D1022024F48054069044F49B
:20377000005444EA8834B8F1020FA4B20AD0B8F1030F10D1ED1F09F1D801284613F055FCD4
:203790006D1E08E0B9F8BE00001205F8010999F8BE0005F80109069802280CD0B8F1000F6C
:2037B00015D0BBF1000F0CD004990598814208D144F040040BE0BBF1000F08D1B8F1000FF8
:2037D00005D00599081205F8010905F8011944EA8B24BBF1020FA4B209D0BBF1030F0ED1C8
:2037F0000399ED1F284613F020FC6D1E07E003990888001205F80109087805F80109BBF19A
:20381000000F05D00498011205F8011905F801093878F8B934480178307D0D2814D068B9AA
:20383000306D28B999F8A800411C89F8A8100AE099F8CD00411C89F8CD1004E099F8B600FD
:20385000411C89F8B610014605F8011904E0C0465A0F002044F48074201205F801092C70E2
:2038700070683189401B7560C0B240183081200927D3B06D00B130629AF8380010B1307D40
:203890000D281ED1726A12F1150002D113F00AFA726A916A481C9062306A3289B162471B2F
:2038B0000092D21B019090B20290706A96F888202B46153008F0D4F900281CBF7070071C83
:2038D00007D10020707005E0E5277770F32012F08CFEF8B209B0BDE8F08FC046A00E00202E
:2038F000440C000014150020E92C0020B0B50446BC480768ADF1480D002F00F0AC812078F1
:20391000401E112800F2A781DFE810F06E0156013C0127011F010801F100E300C300B20082
:203930008D005D0053004200A5012A001C001200F86B002800F08F81684621460CF068FEF8
:20395000F96B86E1386C002800F085816846002101220DF0C0FB60788DF80000396C78E1C5
:20397000F86A002800F07781684600210E220DF0B2FBA11C684612F007FFA57BA18900223D
:20399000ADF80A1005B101228DF80C20F96A61E1B86B002800F05F816846002102220DF01E
:2039B0009AFBA5788DF8015060788DF80000B96B4FE1786B002800F04E81684621460CF0E3
:2039D00027FE796B45E1386B08B36846002114220DF081FBA5788DF80150A3680193A2890F
:2039F000ADF80820A17B8DF80A1060788DF80000E57B8DF80B50237C8DF80C3094F9112074
:203A10008DF80D2061690491396B684688476068002800F020810146F2200870002048703A
:203A300010F094FD17E1B86A002800F014816846002124220DF04FFB6078A11C8DF80000A8
:203A50000DF1020012F0A0FE04F10C0103A812F09BFE257EE08A04F119018DF818500B2238
:203A7000ADF816000DF119000CF004F8B96AF0E0786A002800F0EF806846002102220DF020
:203A90002AFBA5788DF8015060788DF80000796ADFE0386A002800F0DE80684600211222E4
:203AB0000DF019FB658862796078ADF8025023798DF80520E11D8DF80000A5798DF80430AE
:203AD0000B220DF107008DF806500BF0D3FF396ABFE0F869002800F0BE8068460021012211
:203AF0000DF0F9FA60788DF80000F969B1E0B86910B120460FF0A0FBA07D002800F0AB8034
:203B1000A07820B9A069002800F0A58003E0A069002800F0A08012F0DFF99CE078690028DB
:203B300000F099806846002113220DF0D4FA6D46A01C0168406829600B22686004F10A019F
:203B500002A80BF097FF796983E03869002800F0828020460BF0D0F97DE0F86800287AD0C1
:203B7000684600210E220DF0B6FA6078A11C8DF800000DF1020012F007FEA089ADF80C008E
:203B9000F96866E0B868002865D06846002114220DF0A1FAA01C01686D4629604068686083
:203BB000A07A0B2204F10B018DF808000DF109000BF060FFB9684CE0786800284BD06846A1
:203BD000002110220DF087FA60786588211D8DF800000B22ADF8025001A80BF04BFF796889
:203BF00037E0C046741B00203868A0B36846002119220DF070FAA01C01686D46296040687C
:203C10006860A07A410824BF01218DF80810810824BF01218DF80910C10824BF01218DF848
:203C30000A10010924BF01218DF80B10C10924BF01218DF80C1030F07F001CBF01208DF81B
:203C50000D000B220DF10E0004F10B010BF012FF39686846884712B0B0BD70472DE9F04FA8
:203C7000C34E37688246ADF12C0D17B913F01AF83768DFF80C8308F10300DFF80C9305780C
:203C9000002D3FD0002538897968BA4B0795C400097818781034890906D340F6485191FB91
:203CB000F0F1091901F5AF743B7D60438400352B0CBF2F1C4FF4FA570DF12601E8200FF0C3
:203CD000ADFE9DF82600032808BF44F620673068007D3C19352807D111F02CFF0146306811
:203CF0006C300EF04DFF444302204F468DF8200007F10C000068069406A909F097F8AC48BA
:203D10000C3805709C4901209C4F08703978012902D0002102F04CFF30680489456813F091
:203D30007EF9DFF860822888000932D398F83870316877B34A6A4F6E906A4646B0F1FF3FB4
:203D500022D00FB3431C93628862030E07F8013991F82A0007F8010991F8290007F80109A0
:203D700091F828003870086A00940190401B201A80B2029091F88820486A8B6A153019466E
:203D90002B4607F06DFF00E0DB20F16F002840F0E380214628460CF05DFE642009A90FF0E8
:203DB0003DFE494698F83870087837B9774800780AF046FF012805D0CAE00AF041FF012800
:203DD00040F0C680DFF8C8C1A01C241D6D1EA1B2ACF87800C1F3022040F0080005F80109F1
:203DF000002629700227CCF884509DF82450ACF86A60002D0CBF674867486446C4F8C00040
:203E1000664DC4F8800068688047AB460A90BAF1010F54D0BAF1040F51D0BAF1000F4ED0EB
:203E300094F84000BAF1050F04F13005C0F3C0002CD0E8200DF125010FF0F0FD98F838006E
:203E500000B39DF8250003281CD1687B2B7C00F0F00005F1110140F00300687343F0180002
:203E70002874F4200FF0DAFDD8F89C00804704968DF814706686A064B0468DE88001D9F829
:203E90000C004EE0464B04F168050EE028B9687B00F0F00040F0010004E0687B00F0F0007B
:203EB00040F003006873404B6686049638468DF8147031468DE80300D9F80C0032E094F8E2
:203ED0003D0000F0F00040F0030084F83D0094F8400004F130010D46113140F0180084F87E
:203EF0004000F4200FF09AFD98F83800002808BF4FF4FA5002D0D8F89C008047A0640496E1
:203F10001F498DF81470D9F80C008B78002B06BFA4F84E6004F14C056686324639468DE868
:203F300006001F4B294604AA01F090FD1D490880DBF80810002809D41C4A92F900001C4F2C
:203F50006834401C10700A983C600DE00A9888471A200CF03BFD08E0002908BFE420F8D02B
:203F7000144A00201070E42088470BB0BDE8F08F700D0020241B0020971B0020A21B0020D6
:203F9000241A002014150020C4190020770F0020D81200204E9055550E7A5555B41500201A
:203FB00031A10000F419002099CA00009E1B00200C170020942D00202DE9F04FC24D4FF0EF
:203FD000000AADF1140DDFF81C83E868CDF808A000288DF80CA040D1CC4CBC49843C206806
:203FF000814210D0BA4981420DD0BA4981420AD0B949814207D0B949814204D0B8498142D2
:2040100001D012F04FFE12F069F921684FF0FF32012805D1C1F30330083806D0C01F01D067
:20403000012A02D10120E87001E085F803A011F06BFB4446206A00F1200118B912F032FE68
:20405000216A2031096805F1140088474FF4FA70E884A54FAF620626EE624446E26992F831
:204070002670E7B9A14892F8257001788F4216D05046342404FB002C9CF8267037B99CF8FB
:204090002530401C9942C0B2F4D103E09CF82500884204D1604610F04DFFD8F81C20DFF83D
:2040B00050B2D8F824001BC88BE81B00E878012814BF50460520DFF83C928F4C8BF800006F
:2040D00099F8157127B990690068C4F8A40005E0D0690068C4F8A40012F0EEF9632004A919
:2040F0000FF09CFC99F8E720104611F059F9B4F896C007462CF0070C4CF0010CA4F896C01F
:20411000D4F8980004F18806812A40F00F00C4F8980001DB842A05DB397B052914BF242106
:20413000292100E0212184F89C10717D812A01F03F01717501DB842A18DBBB7A6BB99DF8C0
:2041500010203F3262F305017175F28A4FF6C07303EA020141F0180113E09DF8102001F096
:20417000C00102F03F020A43114603E021F03F0141F002017175F28A4FF6E071114041F0B5
:204190002001F182FA7A397B491D5143D8F81C200A230CF0010C91FBF3F1C9044CEA114152
:2041B000F181F97A1923890391FBF3F161F31C203061308B92F824104FF6F77361F3020033
:2041D00003EA0001308392F8240000F008000843308399F9D6000EF0A1FAA4F8A20079686A
:2041F0003B68D8F81C203889401E414303EB51004FF47A71B0FBF1F0A4F8A800106A00782E
:20421000A4F88AA084F8AC00C4F88CA0707B00F0F00040F00100707312F040FEA0B9F87ACE
:20423000364A99F8E740B1FBF0F01070F87A022CB1FBF0F0C0B2B1FBF0F0687004D13048DB
:2042500002214170A8270770EF68D8F820402FB350460FF0BBFC287999F8E710884211D1AA
:20427000697999F81521E86891420CD10221524653468DE80600314602AA01F0E7FBC8F800
:204290000C6017E0E868D8F8201049688847D8F8207001201B493C68087000E024681A480C
:2042B00005F1140359463246A047E860D8F82400C8F8280099F8E70099F81571287105B0E2
:2042D0006F71BDE8F08FC046C419002000F0022000F0012000F00020008002200080012051
:2042F0000080002000170020D95C0100870F0020582D0020A00E0020D8120020241B00200F
:20431000241A0020A31B002040280020181300502DE9F041CA4CCB4DDFF830836088ADF1C9
:20433000600D4108C0F08B800CA808A90DF006FD012878D1404624300068D8B10769CFB16A
:20435000062002268DF808000022ADF80A600FABADF80C2002AE009396E803000C23B847C4
:2043700040B9BDF83C006084109F67621198A06212F054FB9DF82D00012805D00220207772
:20439000BDF82210A1820AE0032009AF20773A6804F114010A6078684860BDF82210BDF86D
:2043B000200009AA0EF0AAFA011C02D0A0A012F01EFE022010F026FEBDF830009DF82C70CF
:2043D00028870DA985F83A7005F1480012F0B5FDBDF8320005F13E0609A9A5F84600304623
:2043F00012F0ABFDBDF82200298FA887502012F023F9B5F84610532012F01EF94A20314647
:2044100012F040FC95F83A10E12012F021F9A98F4B2012F011F905F10800102111F0F8FF84
:204430000120207005E0012010F0ECFD002012F0B3FBA01C012111F0DDFF2046408880088B
:204450000DD3606A10F04CFF11F084FA00B2A081E08101F041FDA01C022111F0CBFF28891A
:20447000410805D305F10800012111F0C3FF2889810805D305F10800022111F0BBFF288989
:2044900001094BD395F8540005F1080600283DD0401E39D0401E02D0401E33D039E095F82C
:2044B0005010472012F0D4F895F85110542012F0CFF8A98F4B2012F0BFF8298F502012F0A6
:2044D000BBF80927032395F83A008DF8597016AA8DF85A305C498DF8580001278DF85B70E5
:2044F00018201AF075FEB4F84E00B4F84C1088420FD195F8520001280BD13046202111F0AF
:2045100087FF06E0032002E0022000E001200DF0B5FD3046082111F06DFF2889410911D35D
:2045300095F8520005F10806032818BF042802D1A86D10F0BDFE10F0ADF93046102111F069
:2045500059FF2889810907D30CF0B2FE05F10800202111F04FFF2889C10907D30CF040FB18
:2045700005F10800402111F045FF2889400A0DD395F8550012F010FB41F2883010F0C8FE0C
:2045900005F108004FF4807111F034FF4546E88840080DD368780026000904D3A878012853
:2045B00001D110F00FF86E70A81D012111F022FF6088002839D10A200825254CADF8120092
:2045D0004FF0FF37ADF81050616A059704A8884700282AD10720ADF84850616AADF84A002E
:2045F00012A88847149E1596F8B91A499DF84E20087890420ED19DF84C004A78824206D040
:2046100089684B6C33B100213246984702E03046FFF76CF9159840B1ADF818500320ADF860
:204630001A00616A079606A8884718B0BDE8F08141757468204572726F723A20307800C00F
:20465000B813002070140020836F0100D4110020B41500206C1B00202DE9F04F09AFADF188
:204670003C0D08900A92388809911E46ADF81800101C08BF002000F08481002700F1010908
:204690004FF0FF3A4FF0010BB8466CE1252940F063811078521C0A922D2818BFADF80680B1
:2046B00005D15846551CADF8060010780A9530281CBF4246434605D10A9908785A465B46B5
:2046D000491C0A912A28CDF80080554616D1306804930A99CDF808A0C01C4B1C20F003001C
:2046F000001D306050F8044C0A93002C0878009418D5ADF806B06442009413E044460AE09F
:20471000610001EBC40140180A99A0F1300408780094491C0A91302801DB3A28F0DBCDF87D
:2047300008A004932E282BD10A9908782A2801F101010A9111D13068CDF80880C01C20F021
:204750000300001D306050F8045C002D48BF454608782B46491C0A9111E0454643460AE052
:20477000690001EBC50140180A99A0F1300508782B46491C0A91302801DB3A28F0DB029366
:204790000AB1224604926C2804D04C2818BFADF8048005D10A990878ADF804B0491C0A9122
:2047B0000BA9CDF80C800FAB07916428059300F08B80692800F08880BDF818C0752872D07E
:2047D00078286ED06F286AD0702850D063283DD073281ED009980A990128A1F101010A91A5
:2047F00015D96B490C68B5F1FF3F03D0A84288BF6D1C00D8099D029508A80AA932466B4681
:20481000A047C7190A99039801F1010974E040462AE030680A99C01C20F00300001D3060CC
:2048300050F8040CBCF1000F01F10109014608B955A00146079112F087F90390B5F1FF3F83
:204850005BD0A842C4BF281C039056E03068C01C20F00300001D306010F8040C5D468DF82F
:204870002C000A990395584601F1010945E0082035680490E81C20F00300001D306050F89D
:20489000041C082210230FA80DF0AEF8401E0790402101700A99079801F1010929E00823F8
:2048B00002E0102300E00A230A99306801F10109C01C20F00300001D306050F8041CAA429F
:2048D000BCBF2A1C049210E00A99306801F10109C01C20F00300001D306050F8041CAA425A
:2048F000BCBF2A1C04926FF009030FA80DF07CF80790059D281A0390009C241ABDF80650CB
:2049100000945DB906E008A8202109AA10F095FF009C7F1C641E0094F5D503980546401E64
:20493000039075B9BDF80600E8B10098401E009019D408A8202109AA10F07FFF00987F1C8A
:20495000F4E70798411C0791017809AA08A810F074FF03987F1CE1E708A809AA10F06DFFBC
:204970007F1C09F101094A460A9812F8011C401C00290A907FF48AAE089808B14146017014
:2049900038460FB0BDE8F08F286E756C6C2900C0C00C00002DE9F04F002898461546ADF1BA
:2049B0002C0D00F0158111F47C1F40F00E8111F00F0F00F00D8107460591002006900A90F9
:2049D0004FF0000A0990544608944FF0010BCDF810B0044650460790059805990BEA000038
:2049F00021EA0B014FEA4B0B401E059100F0CD80401E7BD0801E68D0001F40F0E08005B1EC
:204A10002F660720152642F2D002022307F8010B01A907F8016BA2F1CF0007F8013B0EF0A9
:204A30003BFE684603A90AF0A7FD9C4801783E46812907DB9848B0F8B600842905DA49F6BF
:204A5000D05104E09448B0F8B60042F2D00108180099019A4FF47A6390FBF3F04018009038
:204A7000824206D8801ABDF80C300090581CADF80C00009B50085146814609041804030CBB
:204A900019430004534610EB090041EB0A0102F08DFEBF1D0090BDF80C309DF80C009DF8C2
:204AB000002006F8010B181206F8010B9DF8011006F8012B9DF8023006F8011B9DF803201F
:204AD00006F8013B0934327078E00220152607F8010B042307F8016BB8F1000F07F8013B68
:204AF0000CBF099898F80000241D65E01DB1EF6595F86B0006900520152642F2D002049B6F
:204B100007F8010B0DF10E01DDF8189007F8016BA2F1CC0007F8013B0EF0BEFD02A80FF089
:204B3000D9FC5E4801783E46812907DB5A48B0F8B600842905DA49F6D05104E05648B0F84B
:204B5000B60042F2D001081802994FF47A6390FBF3F09DF80E209DF80E3040183F1D029065
:204B7000000206F8019B00EB6300B0FBF2F002909DF808009DF8091006F8010B9DF80A30F8
:204B900006F8011BE41D337018E00320152607F8010BB8F1000F07F8016B034607F8013B3F
:204BB00004BF0A9807F8010B05D098F8000007F8010B98F80100641D07F8010BA4B20598F5
:204BD00000287FF409AF264661E011F00F0F01D000205DE080468A4602264FF4803908F1C5
:204BF000020509EA0A002AEA090A4FEA4909B0F580301AD0B0F5803014D0B0F500300ED0C4
:204C1000B0F5802009D0B0F5002004D0B0F580102AD1072404E0062402E0052400E0042451
:204C3000002704E00224012701E001242746A81C214600F073FC47B104F00F04C0F30A0151
:204C500041EAC42141F4004105E004F07F0400F0FF0141EA042105F8011B36180912B61CCE
:204C70002970B6B245196D1CBAF1000FB9D1022ED8BF00260BDDB01E4FF6FE7708F8010B8F
:204C9000B819C0F3022040F0A00088F8000030460BB0BDE8F08FC046D0290020870F0020E4
:204CB000BA482DE9F84F0025B94CB749056094F8E200002800F06381012800F02F81B54EC0
:204CD00002283CD0032840F05A8151F8250CD4F8B8100029A0F5C060C4F8D400B8BF4942DA
:204CF0000028B8BF4042814226DA4FF08057D7F8A4014568B4F8BC0030214FF47F420823A1
:204D100000903046A847D7F8A4014568B4F8C00004214FF4F802122300903046A847D7F8A6
:204D3000A401B4F8D070456820214FF440620A2330460097A847012584F8D8501AE151F8C8
:204D5000258C12F069F82F4600B901273946924F38680028FCD0B146012609F10409D9F8EF
:204D70002CA03E6009B112F05DF8CAF30720C4F8BC0012F051F8AA4600B9B2463B68002B92
:204D9000FCD0D9F800B0BAF1000F3E6001D012F049F8CBF38440C4F8C00012F03DF8AA4625
:204DB00000B9B2463B68002BFCD0D9F81C90BAF1000F3E6001D012F035F8C9F38120C4F8AA
:204DD000D000B8F5C061C4F8B81000F09C8094F8D80068B9C4F8D410D4F8C000C4F8C80060
:204DF000D4F8BC70C4F8C470D4F8D030C4F8CC30D4F8D410D4F8BC30002954BF02206FF012
:204E1000010004F1C802176801EB41014018411000EB917107EBA1001060D4F8C810C4F81C
:204E3000C43000291CDD1E293CDDD4F8CC0030B93429B4BF15391E21C4F8C81025E02A2922
:204E5000BABFD4F8C8000B381E20C4F8C800D4F8C4003F28B4BF401C3F20C4F8C4001FE08C
:204E7000D4F8CC00032812D011F10B0FC6BFD4F8C8000B30301CC4F8C800D4F8C400002885
:204E9000C4BF401E051CC4F8C450032508E011F1150FC6BFD4F8C8001530301CC4F8C800CC
:204EB000C4F8CC504FF08057D7F8A401B4F8C43030214FF47F424568364800930823A847B3
:204ED000D7F8A40104214FF400321123456831480096A847B4F8C860D7F8A40104214FF425
:204EF000F802122345682B480096A847D7F8A40120214FF440620A23B4F8CC604568254815
:204F10000096A84701E084F8D85040F2FF50404502D8801C40452DD208202EE051F8251CB7
:204F30001E4F4BF2F5204843060A3868C0F3814001280AD110F00EFD0FF062FB11F078FF10
:204F50003111C010484306EBE03694F8E50030B91348006820F07F408019460801E084F86D
:204F7000E5501048310C0660012741600E4D8760287808B90B2000E0052084F8E40004F001
:204F900029F9BDE8F88FC0462D400C402C500C40B80F002000A00C4000800C40B43F00504A
:204FB000102009403C600C40320C00002DE9F04FAC4C04F128000068ADF1240D0FF08EF81C
:204FD00008B111F06FF9A248DFF89CA2DFF888B20068A24E089010F099FD10F08DFFE5692F
:204FF000A769B5F57A7F13D0C01B4FF47A720023A5FB000102F0DAFB80464FF47A7200235E
:2050100011F08EFC2A46002302F0D0FBC01901E0A0EB0708A0618D488C49006820F002002C
:20503000086070688047DBF80010DBF8043045466918B1F57A7F0DD34FF47A72B1FBF2F225
:20505000D2184FF47A73CBF804201F46B1FBF7F25A43891ACBF80010B168884770688047AB
:20507000DAF8041002466818B168CAF8040010468847DAF8000000285FD007464FF00009B0
:20509000706880474FF000081FFAA5F3079083B95FFA95F36BB93979E8B2884204DD7968B9
:2050B0002846884209D20AE03879E9B2401A387108E079682846884201D3414601E0796876
:2050D000091A7960B88878B9FB8853B9FB6843B13B8933B1B87A19460AF0ACF9F86878605D
:2050F000B88808B9FB880BB13B896BB9B9F1000F04BF3868CAF8000003D03868C9F8000066
:205110003868B846074601E0B9463F68B16807988847B8F1000F0ED0B8F8043043B9B8F860
:2051300006302BB998F80A00B8F808100AF082F9404610F0C1FE002FA2D144484349006807
:2051500040F002000860E06828B3804723E015F8060C2169A5F10C07032819D0E16A9DF872
:2051700016000978884210D115F8080C10F030F9B979012903D0022908BFA87000E02870E2
:20519000002029460DF08AFB05E011F08BF802E009B12846884708200727ADF81000716AC6
:2051B000ADF8127004A88847069D0028CFD0294800680088C8B17068804726490968002258
:2051D0000D880A80B1688847089A00202946207090470546FF202070706880471D490968B0
:2051F0000A8815430D80B168884710F08FFC0746B7F1FF3F1CD0706807B9194F216AB94210
:2052100038BF0F1C80471C230546626AADF802300820ADF80000716A019268468847A16AA5
:205230003846491CA1620FF0AFF9B1682846884708200A27ADF808004FF0FF35ADF80A70E3
:20525000716A039502A88847C5E6C04610E000E0AC0C0000842D0020B01B0020B415002074
:205270008EC2F52894190020682D00202DE9F04FA54C064600200F46ADF13C0DDFF8909248
:20529000ADF80C002068A44D017D252900F010816C3005A903F05AFC002818BFC0B240F053
:2052B000308120460068C18AC9080DD3007D03280AD09DF81F0038B99DF820004C4638704D
:2052D000B534207000201CE101A804A90AF054F9A5F12F018B4691F82F30019A3468DBF802
:2052F00008104FF47A7A504641F208155843891A0AFB12000AFB01F1001B091B8D42C8BF88
:20531000002965DC854205DD002803DD346804F5915434609DF81F00002857D042F2040019
:205330000DF135010EF0B8F910F036FE044606980DA9241A42F206000EF0AEF99DF83410B2
:205350009DF81D00FF2904BF0A218DF83410FF2808BF0A209DF834206C499DF81C30D046FF
:20537000B4FBF1F1801880B24843991008FB01F1814298BF081C2D1805A810F0EEFB9DF8EB
:205390001C203468B0FBF2F15143411A8BB251464B4308FB02F1CA1AC91A121B091B8D4269
:2053B00001D9002908D56942914216D2002A14D5B5FBF8F109B203E06900B1FBF8F189B214
:2053D00032684FF4916303FB012405E0002004E0306841F630342418346005460DF1120181
:2053F00002A80AF0C9F80298DBF80810B4FBFAF210180290814203D99BF82F30834204D92B
:205410004B4603F15804267836BB9DF81C0055190004A84298BF2D1A9DF81F00002808BFBE
:205430009DF8200016D09DF81C00B5FBF0F084B29DF833000EF07AFC9DF83120014620467B
:205450000EF00CFC044610F075FB024608A920460EF052FA4C460DE0814204D8BDF81200EE
:20547000401CADF812004C46BDF8120094F85B100CF0A2F93870244E84F8B5003068007DC2
:2054900005287FF41FAF2348007820B111F094F900283FF417AF387803A9ADF80C0042F2EA
:2054B0000C0003F0C9FDBDF80C00A4F8B00009E768460DF10E010AF05FF83068009A2B7839
:2054D00041F208144FF47A7101FB0202009259438A1A944210DCA1F5FA619142BCBF00F577
:2054F000FA6030604C4694F85B10208F0CF064F901460020397002E039784C46652084F8EB
:20551000B5100FB0BDE8F08F700D0020A0860100D02900205D0F0020BB2A0020F0B5044676
:205530000846ADF16C0D401E6BD0401E0DD0801E00F00381401E00F0E980401E00F0DB80B0
:20555000401E00F0A88000203CE142F2010007A90EF0A2F842F20B0008A90EF09DF842F254
:2055700006000DF165010EF097F842F207000DF166010EF091F842F2050019A90EF08CF880
:2055900004A809F061FE05460DF1670142F209000EF082F89DF86700002808BF002303D0B0
:2055B00002200FF0EBFF034607A8006808A920600988271D3C46B81C218005F007079DF8DB
:2055D00065609DF864109DF8662000F8011B9DF8674000F8016B03F0030600F8012B620795
:2055F00047EA926104AC41EA8611012700F8011B9DF8672000942946019707F05DF80A308C
:2056100099E042F206000DF165010EF045F842F207000DF166010EF03FF842F2040019A959
:205630000EF03AF804A809F00FFE05460DF1670142F208000EF030F89DF86700002808BF7A
:20565000002303D001200FF099FF03469DF864009DF8657004F8010B9DF8666004F8017B05
:205670009DF867209DF86770790704F8016B03F0030705F0070646EA916004AE40EA871017
:20569000294604F8010B002700962046019707F013F8001D4FE042F2150011A90DF0FCFF7F
:2056B00013AD42F2160029460DF0F6FF15AE42F2170031460DF0F0FF17AF42F2180039466D
:2056D0000DF0EAFF11A801682160406860606A6804F108035A6028681860306803F10801A0
:2056F000086074684C60386801F1080528607A686A60202066E042F214000DF122010DF0EB
:20571000CBFFBDF8221002200A1258E009A8002120220BF0E0FC42F2130009A90DF0BCFFB6
:2057300009A811F011FA024609A920460AF0A2F909A811F009FA80B244E042F20E0002A9AF
:205750000DF0AAFF0DF10A0142F20F000DF0A4FF0DF10B0142F20A000DF09EFF03A942F2E5
:2057700010000DF099FF0DF10D0142F211000DF093FF0DF10E0142F212000DF08DFFBDF803
:2057900008009DF80B209DF80C709DF80D609DF80E509DF80A1004F8010B02F0010200126D
:2057B00004F8010B07F0010042EA400206F0010042EA800205F0070042EA4012042004F82C
:2057D000011B22701BB0F0BD2DE9F04F06469E48001D0068ADF1340D80470B900AA98220F1
:2057F00004F0A6FE9DF8280018BB00248DF828404FF6FF75ADF804509DF82800ADF80650F6
:20581000FF2108228DF8000002A811F032FC8DF81840D420694602F0B1F99DF82800401C9B
:20583000C0B28DF828000328E4DB82200AA902F0A5F90020DFF808A2DFF808828DF82800BB
:2058500081469DF828008DF8019069468DF80000D02004F06DFE01274D46E8B99DF80B30EF
:20587000012B07D19DF80A0020B90DF1020011F027F888B9747B002C0CBF052209224F466E
:205890009C4209D10DF1020006F10E0110F014FC002818BF012507D1002F40F0BF801DB9B9
:2058B000707F002800F0BA804C469DF828008DF8214008A98DF82000D12004F039FE0028C8
:2058D00032D19DF82200FF282ED08DF800006946D42004F02DFE002833D102A8311D082244
:2058F00010F0EAFB00B330887788ADF80400ADF8067045B1307B9DF82810B7698DF818005A
:205910000DEB81010F61D420694602F037F975B1307F9DF82310884209D08DF8230008A92F
:20593000D12002F02BF902E0641C032CBDDB032C74D14F468DF80070D420694604F0F8FD9D
:2059500028B1DAF808100B988847192074E002AB184610F0B5FF4C4600B101242046341D97
:2059700030B918462146082210F0A6FB00284AD030887388327BADF804009DF82810ADF8E1
:205990000630002D8DF818200DEB810000F110000CBF4946B1690822016002A8214610F04D
:2059B0009BFF98F8380030B1D8F888201AB19DF80010204690474C469DF828008DF821403A
:2059D00008A98DF82000D12004F0B2FDE82807D09DF82200FF2803D0641C032CECDB10E0CF
:2059F0009DF800008DF82490337F8DF8220069468DF82330D42002F0C1F808A9D12002F0B6
:205A1000BDF8032C02DB7F1C032F93DB032F05D1DAF808100B9888471A200DE09DF8280032
:205A3000401CC0B202288DF82800FFF60AAFDAF808100B98884748460DB0BDE8F08FC04632
:205A5000B415002014150020B41500202DE9FE4F9B4692468946054611F0CAFB02908C48B9
:205A7000353801680CAFA94208BF416801A84A4653460090284603F09DFF834C061C13D1F6
:205A900094F8880140F0040084F888010298C4F87C5111F0A9FB9DF8040002280CBF6FF0F3
:205AB00002086FF00108ECE005F1780010F054FBB08CA4F85000B6F92480C6F808909AF878
:205AD0000400C6F804B086F82600A6F824806F48F56097E80C00202106F1100719401040CB
:205AF00087E80300002786F82770F06840680078022809D19AF80500012805D196F8270021
:205B100040F0100086F82700029811F06DFB94F88901042807D1D4F88001B4F9841194F858
:205B3000862111F02AFA11F063FB814694F8890130F004033ED104F13C000368D3B9314678
:205B50000FF076F938B3A5F8C08096F8270040F0800086F8270085F8C270E07920B1207884
:205B700010B101202072E771484611F03DFB484800781FE004F13C0031460FF059F950B181
:205B9000A5F8C08096F8270040F0800086F8270085F8C27048E0B4F9500000F6FF706FF373
:205BB0001F30A4F85000484611F01EFB6FF00100BDE8FE8F02280ED196F8270040F08000F2
:205BD00086F8270085F8C270484611F00DFBB6F92400BDE8FE8F012811D104F1C80010F0FD
:205BF000BBFA96F8270040F0800086F8270085F8C270206C0028E7D1484611F0F5FA206CB1
:205C100000282AD12078A76400BB6079012838D011F0EEFA8146A079A0B9B0680CF0FAFABF
:205C300058B9607A012803D1484611F0DDFA28E0484611F0D9FA04211FE004F1C80011F0BA
:205C5000CBFAF1E7134901200870EDE7012010F0A7FB192011F06EF813E0206CC06840681C
:205C7000007802280DD1F06840680078022808D19AF8050028B94FF4004104F1EC0010F03C
:205C90007FFE4046BDE8FE8FA00A0020FDEFFF9F290C00208B2D00202DE9FE4F0646307DE2
:205CB00001280AD196F916000CF038FD4FF6FF71814208BFE82000F00281F07B814A20B931
:205CD0001146491C0978022908DB012803D110460078022802DBF120BDE8FE8F346AB6F808
:205CF000289096F8347096F835B0B58B4FF000085FEA040A17D0744890F83830002B2ED09D
:205D1000016D00292BD004F0FF0088476E49096D04B20AF47F008847001900B2001D00B256
:205D3000C43084B200E0C4240DB12D1DADB267480078012809D147B16548C11991F8048044
:205D500010F80B002418641DA4B205EB090020184044801C80B210F011F8071C02D11A2051
:205D7000BDE8FE8F08EB09002B193881002D07EB030078600EBF0020E019801C00217422B5
:205D9000C7F8A00007F10C0011F073F94C442D1907F13C00FF211022A7F84C5011F069F929
:205DB00007F12C000F21102211F063F900243C707C707868716A328D09F05CFE07F18000EF
:205DD00006F12C010B2209F055FE07F18C00314610F0FEFB7089A7F89600307B87F8980032
:205DF000707B06F10E0587F899002A6869460A60AB888B80AA798A719DF80010204601294A
:205E100008BF01209DF80110012908BF40F004009DF80210012908BF40F008009DF8031047
:205E3000012908BF40F010009DF80410012908BF40F020009DF80510012908BF40F040002C
:205E50009DF80610012908BF40F08000A7F89A00707D87F89C00B07D87F89D00B28BA7F880
:205E7000A42022B1D7F8A000B16909F003FEB07F87F8A600306AC7F8A800B7F8A400C0B1DF
:205E9000D7F8A000A8B17868401E7860F82101707868401E78600470B7F8A410B7F8A460EA
:205EB0007868401A786039897018801C38817868B8650848007839460CF0F0FC2046BDE8EA
:205ED000FE8FC0469E0D0020141500206C0F0020440C00003C160020F0B500214422ADF1E4
:205EF000540D02A80BF0F7F8F22013A910F0C2FE834DBDF84C0013A9A5F86800F32010F06A
:205F1000B9FEBDF84C000DF10901A5F86A00E22010F0A0FE688CADF81200410806D305F147
:205F30000C01096805A80160BDF81200810805D3291D098806A80180BDF81200C10807D32D
:205F500005F1100109680DF11A000160BDF81200010908D30DF11E0005F14C01242209F0F6
:205F700089FDBDF81200400903D3A86A12906F6A11976448007800280CBF012100210120F5
:205F90000BF00CFEBDF8120041082CBF0F240B24810824BFA41CA4B2C10824BF241DA4B2CA
:205FB000010924BF2434A4B2400924BF0834A4B220460FF093FC071C00F09F8005260DF129
:205FD000090100F8016B0A68026049684160BDF81210083010F04AFFBDF8121084464808D4
:205FF0000BD3BDF81410604610F040FFBDF8161010F03CFFBDF812108446880807D3BDF81F
:206010001810604610F032FFBDF812108446C8080BD3BDF81A10604610F028FFBDF81C1095
:2060300010F024FF8446BDF81210374A9388080949D3BDF81E10604610F018FFBDF820103E
:2060500010F014FFBDF8221010F010FFBDF8241010F00CFFBDF8261010F008FFBDF8281054
:2060700010F004FFBDF82A1010F000FFBDF82C1010F0FCFEBDF82E1010F0F8FEBDF8301056
:2060900010F0F4FEBDF8321010F0F0FEBDF8341010F0ECFEBDF8361010F0E8FEBDF8381058
:2060B00010F0E4FEBDF83A1010F0E0FEBDF83C1010F0DCFE194610F0D9FE117810F0D6FEA3
:2060D000BDF812108446480906D3119960460EF01CFC12990EF019FC05F1140122463046D8
:2060F0003B4605F07FFB0820ADF80260074D01972968ADF800006846884715B0F0BDC0465A
:20611000B8130020DA180020D4110020D81500202DE9F047DFF80CA20746AAF13500DFF89A
:20613000F8810068800880F0E7800FF013FC814908310B6800261C17641C990D0AD2C0F17F
:206150003E0110F10A0F4FEAE101D8BF08218C42B8BF0C1CDFF8C4C1990E0FD2590E0DD363
:206170006246143A1168C1F304211629A8BF20391268C2F30462162A0EDB0CE0634AD2F8A7
:206190007C11C1F304611629A8BF20391268C2F30442162A00DB203A61189146162905DAF2
:2061B00011F10A0FB8BF6FF0090100E01521584C584D01F01F0242F4F85222802A6812F0AD
:2061D000030F18BF0126D20828BF46F002060FB146F00406424692F90740041B052C04DA18
:2061F0009479B44208BF918866D00F28A0F10F0827DB08EB0014A4F1F0084FEA282EBEF1C3
:20621000070F88BF4FF0070E7546062D88BF06255CF82570042404EB850465462C59E41BA5
:2062300004F0FF05F70824BFC4F307273D44B70824BFC4F307473D44770828BF05EB146517
:2062500001E00025AE465CF82EC0F7080CF0FF0424BFCCF307273C44B70824BFCCF30747F5
:206270003C44770828BF04EB1C64ADB2A9EB0101A8EB0E277D43002905F1800504EB152470
:20629000D8BF012103F0FF0334254D43A9B259434FF6FF73B1FBF4F18B4238BF191C802877
:2062B00089B2918005DA10F1800FB8BF6FF07F0000E07F20D0719671194800681F29106076
:2062D0004FF0000008D340F2FF128A4206D24908401C8A42FBD301E01F219180124F0F398B
:2062F000090940EAC10047EA0001CAF8FB1F0026CAF8FF6FBDE8F0870C490D4F42460820B0
:206310000F60921D1070BDE8F087C0463C1100506E62084024220840782D00209C130050A6
:20633000082009403500094000E7A48030100940FDFDA400AC3F00502DE9F04F0128ADF1D5
:20635000140D40F0EE80DFF814B2DBF8DC00012840F0E4800220CBF8DC0010F039FF0290DA
:2063700001200DF015FE5FEA000806D00120CBF8DC00029810F028FFD5E010F021FF6C49AA
:2063900003900020086001200FF024F9012818BF002003D100200CF091F90120654900909C
:2063B0000020654F08603868112010F053FD00280CBF00240124102010F04CFD08B144F0CE
:2063D00002040F2010F046FD08B144F004040B2010F040FD28B159480068594E016B30882B
:2063F00088470A2010F036FD002600B101264FF0805A0AF5DC75301C04D02868514E016B3F
:20641000308888475048012606602868816944F0200088474D48066010F016FD00F0010123
:206430000191400814D24A4810F0C1FC8146B9F1040FF8D0B9F1010F05D1DAF8D80142680C
:206450004348032190474349086820F0030008600020FFF75DFE2B683868986B8047019828
:2064700001280DD0B9F1010F05D1DAF8D80142683748314690473749086840F003000860C9
:206490002C48066028684169204688470B2010F0E1FC20B128682A4BC16A188888470A2001
:2064B00010F0D8FC20B12868264BC16A188888472548032206602549CBF8DC2000230B60D9
:2064D0002868416B204688470128F9D1386804200DF05EFD044616481F49066038680868A6
:2064F0008009FCD30098012802D130460CF0E6F810F098FC08200DF04BFD07460398CBF8A4
:20651000DC6010F059FE0CF027FA029810F05CFE57EA040018BF4FF0FF3804E06FF00408E6
:2065300001E06FF00108404605B0BDE8F08FC0460C400940000222432C200940B801001043
:20655000DE090000DA0900002820086080010443004003402422084014100940B80F002084
:20657000804A2DE9F04F13680546ADF13C0D0DF12A000360526842607B4C94F8B30005F15C
:20659000280105F12807002800F0E8806878002840F0E48010F010F9DFF8D091DFF8D48114
:2065B00000B3042046466A68A873301D12780068042A00F0958095F83000022812D14846B1
:2065D000007801280ED06A4905F1280002220E4620310FF0E5FB28B906F1160105A810F017
:2065F00024FD05AF686E002800F0B880012102AA09F0F4FE002840F0B1809DF80800A87396
:20661000E86C40B139460DF11E0208ABFCF774F9002840F0A38008A80090686E39460DF167
:206630001E0306F091FB002840F0988048460078012851D04FF400500DF122010DF02CF812
:206650000DF122000DF12A0108220FF0A9FB38B10DF12200394608220FF0A2FB00283BD192
:2066700094F85900002837D0A66CB4F8445042F2010004A90DF010F8049A4FF0004100207F
:20669000E2FB0610061C206D10F0A4FA86190498B04202D86D1C361AADB247467868804737
:2066B0005FFA80F8206CB04204D1208FA84208BF002608D026642587002084F835000FF042
:2066D0006BFC0126E064B968404688470EB10AF0A3FE012084F85800002084F859003DE001
:2066F0008B468047264C0D9095F8307022480A264FF00009804610F807A0207AB84206D1F4
:206710005246204659460FF0D7FC012804D0761E04F10C04F1D100E0A1465FEA09070FD1A2
:2067300098F80601164F461C810088F8066101EBC001F0B27F180A2804BF002088F8060101
:20675000384659460A2210F0C7F80C48094900788968B8720D9888470420A8730FB0BDE8D1
:20677000F08FC046640C0000D029002015150020340F0020B4150020CC100020C41900206C
:206790005A1100202DE9F043002B08BF002A10D10029BCBF00204FF0004106DB50EA0107B1
:2067B0001CBF6FF000006FF0004109F05EFEBDE8F0835FEA530898EA610803D50026404273
:2067D00066EB01015FF0000913F0004E03D00026524266EB03031C461546002C08BF8D424A
:2067F0009CBF2C1C0025070C47EA01470E0CB44208BFBD429EBF240444EA15442D04070A11
:2068100047EA01670E0AB44208BFBD429EBF240244EA15642D02470847EAC1774E08B4429E
:2068300008BFBD4200F29280870847EA81778E08B44208BFBD427BD8C70847EA4177CE0893
:20685000B44208BFBD4265D8070947EA01770E09B44208BFBD424FD8470947EAC1674E097C
:20687000B44208BFBD4239D8870947EA81678E09B44208BFBD4223D8C70947EA4167CE09C4
:20689000B44208BFBD420DD8E60146EA5566EF01B14208BFB84201D3C01BB14159EB0909DA
:2068B0004EEB0E0EA60146EA9566AF01B14208BFB84201D3C01BB14159EB09094EEB0E0EF1
:2068D000660146EAD5666F01B14208BFB84201D3C01BB14159EB09094EEB0E0E260146EA0F
:2068F00015762F01B14208BFB84201D3C01BB14159EB09094EEB0E0EE60046EA5576EF00FD
:20691000B14208BFB84201D3C01BB14159EB09094EEB0E0EA60046EA9576AF00B14208BF1D
:20693000B84201D3C01BB14159EB09094EEB0E0E660046EAD5766F00B14208BFB84201D329
:20695000C01BB14159EB09094EEB0E0EA14208BFA84201D3401BA14159EB09094EEB0E0E5F
:20697000A34208BFAA423EBF2D0A45EA0465240A8AD373464A465FEA080803D500264042F6
:2069900066EB01015FEA480803D50026524266EB03031E4617460B46024631463846BDE81E
:2069B000F0832DE9F043044694F830900F46984615468B20ADF1340D0DF10A0103F0B8FDAC
:2069D0008A20694603F0B4FD94F8250000283ED1B9F1000F19D1BDF80A104FF6FE708842D3
:2069F00005DCBDF80A1088422FD1694615E0B4F844009DF80A608DF80C0000128DF80D0045
:206A1000BDF80A008DF80E601BE0B9F1020F09D0B9F1030F19D104F1280103A810F005FBB6
:206A3000092612E0207CC00934BFB4F84200B4F844008DF80C0000128DF80D00208D8DF888
:206A50000E00001205268DF80F00002013E002280CBF05260926012818BF04F11C0104D1FE
:206A7000892006A903F064FD06A9324603A80FF033FF94F8260006EB0D01C8723A4603A841
:206A900031460AF08DFC002840F08E80B9F1000F19D1BDF80A104FF6FE70884205DCBDF801
