:20000000003B012055120100A1C10310A1C10310A1C10310A1C10310A1C10310A1C103105E
:1C002000A1C10310A1C10310A1C10310A1C10310A1C10310A1C1031079C10310B9
:200040007E482DE9F04F0C4601210170DFF8F491DFF8F481DFF8F4A1DFF8F4B178494FF010
:20006000000C2027ADF1440D65461F4081F800C0C4490E9391F8C0620D9205EA020008BF4B
:2000800000287AD10D984FF0E047194662460F4002EA000008BF002843D10E9E0D9B4FF406
:2000A0008601B9F8BA00DFF82CC3CDF82C9012EA060701EA030108BF002919D1C44912EA2C
:2000C000060701EA030108BF00296FD0374643460D9E1C8103F138015881002F81E8C00049
:2000E00004BF311CB1F1806F60D102285ED111E0374643460D9E1C8103F138015881002F61
:2001000081E8C00004BF311CB1F5803F4ED1B0F5505F4BD1D8686746436938682146984733
:2001200042E04646B749B6F9087091F90000BC42A0F10100087017D1728906F1380003C87B
:20014000002904BFB0F5803FB2F5505F08D0002904BFB0F1806F022A02D010F041FD03E086
:2001600011F0F4FD14F08EFC524692F90000401E10706FF00101318114E043466FF001000E
:2001800003F1080108806EB1BE480078832802D08120594608704646716919B16046884763
:2001A0002146E8E7CDF82C90B9F8BA000D9A0E9E02212F461140374008BF002900F0CE8339
:2001C000B24A43F201418142109200F0A183C91C814200F09D838B490A4691F90010474630
:2001E000491E1170B7F908108C4205D043F60401814240F09C8398E3624890F8C0C207F135
:20020000380090E800034FF482062F4617EA090706EA080008BF00281CD10B48383003C880
:200220004FF400322F4602400F4008BF002A02D110F0D6FC7BE311F089FD78E3EA1D002046
:20024000C81D0020A816002090190020CE1D0020213500205D46BCF1010F4FF081044FF00E
:20026000000B03D0287808B157F036FC2C70864C5846109E6778E0815946E7706069317074
:20028000027A417A0F9601F0070302EB0322490995B238BF2D1F09D304F114010A68157AB2
:2002A000517A01F0070105EB0125AD1E467A36F07F03784EADB240F0178375490988A94208
:2002C000C0F212830A3029460EF022FE216A04F118000522083157F0E7FA0520E17EA37E4B
:2002E000227FE08103EB0120BA4BED1EADB26271244A597892F8C0320F9AA081C1F3011A57
:20030000002B0A9208BFBAF1020F00F0ED82BAF1020F00F3E98263B110F0070F00F0E4829A
:2003200058490978862904D100F00701022940F0DB82011301F0020102294DDAA378DFF81B
:20034000449100F00700022835D1D6F80480002B31D1216A09A801220D3157F0A5FA062079
:20036000E081C047804699F800300648B56847680C96862B1AD13FB957F0AEFB0148B568E8
:20038000476801E0200800209DF9240014F0B7FF9DF9246078775846B8774046FE77A84751
:2003A000A08900F010000FF09FFD01E04046A84714F018FA9BE299F800005A46862808BFEA
:2003C00001220C9652B1584611F0E6FCE77804E000000C8CFC1B00200C96A378A7B19BB959
:2003E000012F00F07E82A089022F03D110F0070F40F07782032F08D100F00701032904D06D
:200400006FE2C046CF1D0020A089010909D310F4405F00F06682C54991F8E473002F00F0E2
:200420006082011301F00201022902DA810A80F0588268494978C1F381098E11B9F1010FED
:2004400000F04F82012E00F04C82C249BAF1020F09D08A5D11F809108918CFB206B3C109A0
:200460001ED3BF1E0BE072184944127909798918CFB2C10910D259EA060311D0BF1CFFB218
:200480000EE0C046253500203433002023350020E81D00200819002059EA060308BF02274D
:2004A000C0F300217A1AA1719542C0F21A82ED1B00090D44A9B2618128BF4FF0250B0BEBB2
:2004C0000100743080B214F001F9A5782061002800F00782002174220FF05EF90020B4F82F
:2004E0000C8020711DB90A9908F0200008700A98A57903784FF0000B002B3BD0002D39D1E4
:2005000008F00708B8F1030F06D0B8F1010F23D1864890F82E04F8B18448B0F84C005B4604
:20052000810809D3814991F87A509DB94D681DB16D7E35F07F050DD163B98008D84606D353
:2005400085498D6888780DB12846804710B9B8F1000F01D004202071744890F8C00210B117
:20056000BAF1020F01DA13F09BFDB4F80C80A57994F804B0216901F1740048608865638942
:200580000B816089A1F85C005FEA18100ED3C5F1030082B2A1F85C20886D0E4957F084F98D
:2005A0002169B1F85C20886D801888650948094B4078C0F301121878A1F80C80002D00F01D
:2005C000780040EA02004BEA000008744FF0FF0302E0C0464E3300208B730CBF607900203A
:2005E00081F8306081F83A9081F84900E089002FA0EB050085B2E58100F06B81BA46216AC1
:200600002781684652464919083157F04DF9BF487F19BDB2E581216940780A7C6E46C0F321
:200620008103C0F3011BC0F38107002B02F0400844D0C0F301100023022801D1D0090BD21A
:200640009DF801209DF8000000EB0220A1F844000DF10206A1F84200CB4AB1F84400B2F8D8
:200660005A20824203D04FF6FF72824221D1032F12D072783078C44B00EB022082B24A8637
:20068000B3F85810B61C0120914211D04FF6FF71914218BF00200BE020693146323057F08D
:2006A000C3FB2069B84932304F3157F0A5FB08360346002B00F010812046C07EB4F80C900A
:2006C00083111ED02069BBF1020F03D0017CC90903D309E058EA070706D172783178B61CE5
:2006E00001EB0221A0F84210032B05D07178327802EB0122028504E020693146283057F051
:2007000093FB09F00709B9F1030F07D0B9F1010F3CD1064890F82E04002837D003482669D7
:20072000076F4FF0000817B302E0C046200800207B7E33F07F0316D096F8300002280DD0B9
:20074000032810D107F1700006F1280157F054FB48B11BE0A4770100D41D0020B7F870002F
:20076000318D884212D057F80C7C002FE0D1B8F1000F0BD1654F4046207178783B46C0F3D5
:200780000111187800F07800084330748A4890F8C00210B1BBF1020F0BDA0F98A77906789C
:2007A0003EB137B9607921790FF0F4FEE589B4F808A0206981890909C0F08B80806D694638
:2007C000524657F071F82169886D50448865276AB1F85C0001225044A1F85C000DF125006C
:2007E0007919083157F060F86E1CB5B2E58121699DF82500896D087021699DF825709DF83D
:200800002530886D401C8865B1F85C00401CA1F85C0007F0070081F82400C3F3C10781F85D
:20082000257091F8246060898046002E54D060497F183E78361D864226814DDC216A324631
:2008400005A84919083157F02FF83A789DF817C0111D6D18A8B29DF81450E08105EB0C6001
:2008600023699DF8165000EB05409DF81550042900EB052098610BDD206906A9521E1C30B5
:2008800057F012F8387823696844C07D83F82600986D05A9324657F007F82169886D8019B8
:2008A0008865B1F85C0006EB06474FF0FF35C8EA0040A0FA47F01FFAA0F215FA80F0A1F80F
:2008C0005C2082B26281B1F85C000A818018A1F85C0000F079F80AE014F028FC10F080F97C
:2008E00005E014F065FA02E014F062FA0C96DDF83080D8F804008047216A0A680023137108
:2009000009682162D8F80810884710E04E33002040462A4F80784146401C887097F9000039
:200920003946401E087010F05BF913F015FF22480B99154F00226FF0010690F8C002A1F81A
:20094000BA203E8110B11098007808B914F09AF81B481B4990F90000401E0870174890F9B8
:20096000000010B9134800210170154890F90000A0B10D9A0E9F02214FF0E04011403840EB
:2009800008BF00290DD001E0901900200C4890F90000002805DC57F09FF802E0002002F028
:2009A00009FE0849002011B00870BDE8F08FC0466C770100C61D002020080020CF1D002021
:2009C000CE1D0020EA1D00202DE9F04FB74D28696C89296AEE89806DADF1440D2246891916
:2009E000083156F061FF2969886D00198865296A3619B6B201220DF13E008919083156F0C1
:200A000053FF296A761CB4B2042204A8EC810919083156F049FF241DA0B29DF81310E8811D
:200A20002B699DF8100000EB01609DF8121000EB01409DF8111000EB0120049014F068F993
:200A4000D863049813F050FEA3F84000EA2013F000FF0221B5482C690170217C28790843D8
:200A600020749DF93E0014F04AFC84F846009DF93E00218984F8480004F17400A065B4F8A6
:200A80005C00401A61684FF0000B401801466060A08984F847B0820A18D2020957D310F0E7
:200AA000070F07D000F00700032812BF081C6068401C48E06168C87800F00702401000F0A4
:200AC000380000EB42004018001D3CE0271C02D157F002F82C69B889800A2ED379684878C7
:200AE000C6112AD13E89796658464B780A7803F07F035B0003EBE2137E2B0DD07F2B09D0DF
:200B000002F07F0280188918801C891C80B28642EBDC08E0594600E00121801C87F8601013
:200B200080B2864201DA584605E07968091879603989091A3981A7F86800606E10B1B4F8A1
:200B40006800B0B160686061A089000916D294F86000002800F0F880204610F0CDFE2C69E7
:200B6000E06C002800F0F080B4F85000002840F0EB8014F0C9FA584628610DE258465E46C3
:200B8000059094F82470069005A906AA07AB0796204604F01DFF002840F0CB80059A6669D6
:200BA00060682389311A581A1FFA80F80AB956F093FFB4F85C0000900196CDF808800698BE
:200BC000001D03900598A169A36D3A4615300AF059F8002840F0AD80B54894F86030268951
:200BE000C15D701A208113B1204610F085FEA68906F00706032E02D160680078E07394F8AA
:200C00000F90732009A913F05BF8832010A907F0D3F9DFF8A082DA4659460AE0C278012A74
:200C200003D1002F08BFDC2027D0001D491C0990C9B29DF8400088427ADD09988278032E9F
:200C400007D00378B3420DD098F800300BB1022E08D0032EE9D10378032BE6D103465B7885
:200C60004B45E2D1BB10B3EBA20F05DA02F0030207F003039A42D1DD58468146059894F82C
:200C80000FC090F814E0594601E0491CC9B28E454ADD07694B00032E07EB030208D1FB5C9C
:200CA000032BF2D152786245EFD10AE0343300201278B24205D098F80020002AE5D0022E8F
:200CC000E3D10698077D002F08BFB9F1DC0F2FD0A069B0F1FF3F25D0712008A912F0F0FFA4
:200CE000089B5846A26905998B4206D10699824601EB8A01C968914212D8401C2C330228B5
:200D0000F1DB0698521CB2F1FF3F00EB8A00C26002D107980121817084F801B0584609E04A
:200D2000DB2007E0DB2004E0DC2002E021350020DD2060702C696070A069677860651FB1EF
:200D4000F22013F086FD2C69964E96F8C002002800F09E80A189DFF8508201F00702022A03
:200D60005DD1AF78002F5AD16778002F57D129698DF83FB00DF13600283157F055F82969D5
:200D80000BA80A22283156F08FFD414601F110022F69D6F8E4321088401C1080786E0421B3
:200DA0000DF13F029847444605F1100928B9706818B19DF83F1080F868102F6997F83000CF
:200DC000022811D1D9F8000006F56B71884602222830203113F0BEF930B908F116010DF113
:200DE000360057F021F82F6970480078862807D1608A401C6082B88900F010000FF074F83B
:200E000096F8C00220B1D6F8081309B12869884714F07AF95846286113F0E4FCBEE0644AE1
:200E200017785FB3C1F30131022927D16078002840F0B2809DF83E00414628708B8A2F79F7
:200E400004F128021C34002F03F1010088820CBF5846082057495B460B6000900194B6F8E5
:200E6000D233117A0D2004F0A7FC10B913F018F901E013F063FC0F482C69007840B1D6F8DB
:200E8000081329B12046884730462C6990F8C002A7890A9407F0070780B1A07BFF2877D046
:200EA000032F09D1204640680078042806DD6FE070770100E00A0020012F69D1381C3CD086
:200EC000401E50D0801E63D1A089C0F30130022803D16068007807282DD02089002857D053
:200EE000204641684A1C42600F78A446C7739CF824407CB9002F4BD00A2F49DA2E4900895D
:200F0000791811F8011C814209D0082F40D1082805D03DE0C07B00283AD00A2838DA6046BD
:200F20000189491E0181C17B0B3101700A99C87B401CC87319E0322016E096F8B9030F2816
:200F40000BD013F003FF40B90A988189091301F00201022901DA3169884796F8EF030A9C67
:200F60002074152000E0162020700A9906F1740056F0E4FB114C6068804796F87C10491C64
:200F800086F87C10A1688847202014F005F841E70AA811F02BFB3DE70FF022FE11B0BDE884
:200FA000F08FC04620080020E01C00202535002023350020241C0020CC6801000819002080
:200FC0002DE9F04FADF18C0D1C911E93D2491D920A6804460DF15700026049684160204632
:200FE000694612F049F900281F9004BF0020229000F0088202200027A41CDFF824B32090B1
:20100000C64E2297204602A910F04DFC5FEA000900F0F58122990DF13900162256F060FC25
:201020009DF809707F1E00F088807F1E40F0DF81B9F10B0FC0F2E681A41C04A8042221460A
:2010400056F032FC241D05A80222214656F02CFC42F20B000DF1160110F006FEBDF8160012
:20106000BDF81410884200F3CD81A41C14F8010B0DF1390214F8017B8DF8390014F8015BCD
:201080008DF83A7014F8011B8DF83B50204605F0D9FFC34909780028044400F0B3811F9DD9
:2010A000012905F1020500F09B814FF400500DF14F0110F0D9FD0DF14F000DF15701082279
:2010C00013F048F840B11C990DF14F00082213F041F8002840F0848142F2010004A906F03F
:2010E00057F942F20B0005A906F052F942F205000DF1390106F04CF90DF13A0142F2060053
:2011000006F046F90DF13B0142F2070006F040F90FA942F2090006F03BF99DF83C0028B12D
:20112000022840F05D8142F2030001E042F20D000DF13D0106F02CF952E1B9F1050FC0F224
:201140006181A41C14F8010B0DF1390214F8017B8DF8390014F8015B8DF83A7014F8011B97
:201160008DF83B50204605F06DFF0028044400F049811C9806A906F03BF89DF836000028EF
:2011800040F010819DF83C0000287DD1B6F84A70002F00F00381B6F84E00874207D0B08A66
:2011A000F18A884201D109F009F8706D21E0776D4FF400500DF15F0110F056FD13F0A4F879
:2011C0004FF6FF78229D2190AA46B6F84A00A84243DC706D4FF6FF7141450AD04FEA480778
:2011E00007EB88073818808811F08AF8706D3F1823D1B6F84A300746002B08BF229D19D05C
:201200005846229D40681946D846BF1FBF1DFA782AB1491E05F10105F8D1BF1D0AE080478C
:20122000B6F84E10491CA6F84E10D8F808108847B6F84A30AB4200F098801C9809F088FE3A
:20124000B8800120F870FD788DF83650B888ADF83700229B8DF82330A4E0B88810F0C6FB17
:20126000014608220DF15F0012F074FF40B138880104219814F019F882453CBF8246A8462F
:201280006D1CBF1DADB2A0E7B6F84870002F00F08580B6F84C00874207D0B08AF18A884260
:2012A00001D108F08BFF306D20E0376D4FF400500DF1670110F0D8FC13F026F84FF6FF78EF
:2012C000229D2190AA46B6F84800A8424FDC306D4FF6FF71414509D008EB48173818B0F8A8
:2012E0001F0011F00DF8306D3F1828D1B6F848300746002B08BF229D1FD0DBF80400229D33
:201300001946D846213F2137BA7F5AB1491E05F10105F8D1213710E0BC7701000411002077
:20132000081900208047B6F84C10491CA6F84C10D8F808108847B6F84830AB4215D02299D2
:201340003846212256F0CCFA1C9809F001FEA7F81F000123FF2039462122BB7705467872EA
:2013600006A8FD720CF000FF1CE0612060E0B7F81F0010F03BFB014608220DF1670012F0BC
:20138000E9FE38B17968219813F08FFF82453CBF8246A8466D1C2137ADB294E7642047E074
:2013A000220800209DF836000DF13901162240F004008DF8360008A856F076FA1F9D9DF802
:2013C0003C00AD1C48B19DF84E700DF13D0039460FF0BCFE3F1A8DF8357006A80EF02CFEF0
:2013E000209809EB0007BF1CB8B2209003E01F9D4C44A41CAD1C209885423FF703AE20986F
:20140000022803DC229A672011460DE01F9F01460220C0EA014207EB0741A1FA42F21FFA06
:20142000A2F110FA82F222981D9B19801E990A8023B0BDE8F08F70472DE9F04F0320ADF18B
:20144000540D12F06BF9CE4C0025022004F11C0141F80C5F401E8D60FAD104F14000A94674
:20146000062701467F1E21F80C9BFBD10821C64FC44BC64A01803F1D04F11C082E46836025
:20148000964627F00301531A23628C46A1610846E161824200F2CC81B80823F00303AEEB8A
:2014A0008000E827801001EB800040F8046CEC3BCCF800704846C1F8E830E831216154F060
:2014C000DDFE6061BC49D8F80000DFF8F4A220610A680AF10C073A6049687960B74938468B
:2014E000082212F037FEB84628B9D04801683A46116040685060D048D04FC0F8B470D04BB4
:20150000C0F8B830C0F8BC50C0F8CC50D04AC0F8D050D04FC0F8C020CF4BD0F8B410C0F88C
:20152000C470C0F8C83009B14846884754F0E4FECA4ECB460C224946CDF838B006F12800D8
:201540000EF02AF9C64F41F2707308223363708DF762616AADF82020102309930227ADF8DC
:20156000227040F01900708508A8884700280CBF0A9F4F4608200123ADF82C00616AADF85E
:201580002E300BA8884754469DF830000D992070616077B1D021397087F80190B87087F89C
:2015A000039087F804903946BD600220FD6011F0C5FAAC491820012254F016FEE220414679
:2015C00013F08AFC182055F0F3F860706068B046C8F808000BF0D6F8AC4F08F18400A06083
:2015E000D8F80850A04C49466762F520A56013F065F913F07BF99D4D002807BF0F2205F18E
:201600000C010D2205F1180105F124006A700E22AA700DF0A1F8A860687813F047FB002856
:201620000CBF08264E46A87813F040FB08B946F010068F49A86813F043FD8E49C82205F1D0
:20164000300056F08BFB8C48102E686010D1606A70B1C26862B1FF208DF810004FF6FF773C
:20166000ADF8127004AEADF8147096E803009047824F07F1140007F108010DF06DF87860F8
:20168000484656F0E1FA4E46BD1E824605F8029F02206870304656F0DDFA0146786852467A
:2016A000C9B211F0A5FA761C022EEFDB744907F120004FF4FA7256F051FB724D05F10C00AC
:2016C000291D0DF049F82860606A002845D00769DFF8B4A16FB10094514612A80A688988D3
:2016E000026012AE818096E8030001234A46B847606A002831D0C26852B1514612A80B68AF
:201700008988036012AF818097E803009047606A18B307690FB306208DF80800ADF80A0011
:2017200010AEADF80C9002AD009695E803004A460223ADF84020B847666ABDF84000776987
:20174000A08057B1BDF8400002AE401CADF8400096E80300022210ABB8473AA013F05AFBEA
:20176000E820032113F0AAF8E720092113F0A6F8606A0626002835D00769002F32D007E01B
:20178000081900204569050026350020003B01208DF818600425ADF81A500EA8ADF81C9042
:2017A00006AB009093E803004A462B46B84748B90E9E1936B34615E0C87F0500C4770100F8
:2017C000B01D0020606A8DF8186006AFADF81A504469ADF81C9097E80300CDF83CB02A46F0
:2017E0000FABA047CDF838B058460DF01FFEE0200C2113F063F84F20032113F05FF85720F4
:20180000052113F05BF84E20042113F057F85920032113F053F812F013FF08F1020001214B
:2018200056F06EFA00F002FAFCE7C046F012005040F8046B2DE6C046100100204128010078
:20184000B52B010054492053656E736F7200C046CDE30000692F010069C000009017002031
:2018600020BF0200E53D0000A4150020F0190020A12F01007D4901002D4B0100D81A002040
:20188000E97A0500681D002004780100C40100202DE9F04FD14D0024ADF1140DDA4E0294C5
:2018A000E8688DF80C4000288DF80D4039D1CC48CC490068814219D0CB49814216D0CB49F5
:2018C000814213D0CA49814210D0CA4981420DD0C94981420AD0C949814207D0C8498142CA
:2018E00004D0C849814201D056F0F6F810F0A6F8012814BF201C0120E870F06800F1200182
:2019000020B956F0E9F83046C1682031096805F1140088474FF4FA70E884BC4FAF6206232F
:20192000EB623046DFF8E8B2036A9BF8FF232146B146382711FB073090F8266036B990F8CC
:201940002560491CB242C9B2F4D103E090F82510914205D1834203D011F0E6FBD9F8203085
:20196000AC49D9F82400C5C88A468AE8C5009BF82D74A94E0C7027B998690068C6F8AC008F
:2019800005E0D8690068C6F8AC0012F0C9FE632004A910F0D7FC9BF8FF0311F0A9FB06F152
:2019A0009E0201461078012363F3020010709BF8FF83B8F1800F05DDB8F1840F1FDBB8F1AE
:2019C000860F10DB0F2006F1A70286F8A000107864F303001070887B052814BF24202920A8
:2019E00086F8A40019E00F2086F8A000292786F8A47006F1A700027864F303020CE00F200E
:201A000086F8A000212786F8A47006F1A700027822F00F0242F00802027006F1A5021078BF
:201A2000B8F1800F64F38710107002DDB8F1840F1ADB8F7A87B906F1A5039DF810001A78D1
:201A4000401E60F3050206F1A6001A70027822F03F0242F0180216E006F1A5029DF8103025
:201A6000107863F3050006E006F1A502107820F03F0040F00200107006F1A600027822F04D
:201A80003F0242F020020270887B8A890A2706F19E03401D504390FBF7F21F8862F3CD072C
:201AA0001F808889192206F1A007800390FBF2F33A6863F31C2206F1A8033A60D9F8202027
:201AC000187892F8247067F30200187092F8240006F1A807C310387863F3C30038704AF69C
:201AE0003F33A6F8AA3008894B680F68401E434307EB53004FF47A73B0FBF3F0176AA6F83B
:201B0000B0003878A6F89240C6F8944006F19D0286F8B4001078012767F30300107013F00B
:201B2000F9FAC8B988893D49B8F1020FB3FBF0F0C0B20870B3FBF0F0687008D0B8F1840FEE
:201B40000ADBB8F1860F07DA05215C2001E00221A820334A51701070EB68D9F80C70DFF8DE
:201B6000C8802BB3204610F01FFD28799BF8FF13884213D169799BF82D24D9F80C70E86866
:201B800091420ED102238DE8180023463C6D903602AA3146A047C9F8106016E0D9F80C708B
:201BA000E8687968884701211E48D9F80C7001703C68903605F11403404651463246A047EC
:201BC000E860D9F82400C9F828009BF8FF039BF82D74287105B06F71BDE8F08FF01B002099
:201BE0009412005000F0022000F0012000F00020008002200080012000F0820000F0822075
:201C00000080822000800020901900207D40010020080020E8340020A8160020081D0020D4
:201C2000E01C0020EB1D0020802F00202DE9F041C94CCA4DDFF828836088ADF1600D410860
:201C4000C0F083800CA808A90EF0D4FB01286DD1404624300068D8B10769CFB1062002262F
:201C60008DF808000022ADF80A600FABADF80C2002AE009396E803000C23B84740B9BDF87B
:201C80003C006085109FE7621198206312F0F0FF0226BDF82210BDF8200084F8246009AA77
:201CA000A1830FF05DF8011C02D0B7A013F0D1FA30460EF03FFDBDF830009DF82C70A5F835
:201CC00040000DA985F8427005F1500056F03DF8BDF8320005F1460609A9A5F84E003046E2
:201CE00056F033F8BDF82200B5F84010A5F84400502012F0D7FDB5F84E10532012F0D2FD29
:201D00004A20314613F0E8F895F84210E12012F0D5FDB5F844104B2012F0C4FD05F10A001C
:201D2000102155F0EDFF0120207008E012F09CFAE06001200EF0FEFC002013F04DF8A01C93
:201D4000012155F0CFFF2046408880080FD3E06A11F014FD934800680068804700B2A08214
:201D6000E08202F03BFDA01C022155F0BBFF6F89780805D305F10A00012155F0B3FF6F8998
:201D8000B80805D305F10A00022155F0ABFF6F89780917D384491820422217AB54F024FAA9
:201DA00095F85A0005F10A06032818BF042802D1286E11F0CBFC10F063FE3046102155F08A
:201DC00091FF6F89B80907D30DF028FC05F10A00202155F087FF6F89F80907D30BF012FCD7
:201DE00005F10A00402155F07DFF6F89780A0AD395F85D0012F0F0FF05F10A004FF480715B
:201E000055F070FF6F89380951D395F85C0005F10A0600283FD0401E37D0401E02D0401E98
:201E200031D03FE095F85810472012F047FD95F85910542012F042FDB5F844104B2012F0C7
:201E400031FDB5F84010502012F02CFD0927032395F842008DF8597016AA8DF85A305349DE
:201E60008DF8580001278DF85B70182054F0BCF995F85A00012815D1E87898B13046202186
:201E800055F03EFF0EE003200AE05220012112F0FDFC022004E05220012112F0F7FC012086
:201EA0000EF0E0FB3046082155F01CFF6F89454617B1A86813F0EEFAE988687849081CD373
:201EC000A97802094FF0000601D301290ED040090ED301290CD030A012F09CFFA01C01213A
:201EE00055F00EFFA86813F0D5FA01E010F0A4F86E70A81D012155F0F5FE608800283FD114
:201F00000A2008252A4CADF812004FF0FF37ADF81050616A059704A88847002830D1072091
:201F2000ADF84850616AADF84A0012A88847149E159628BB1F499DF84E200878904214D13F
:201F40009DF84C004A7882420CD089684B6C63B100213246984708E0901700205C180020C7
:201F6000A4150020304600F0EDF9159840B1ADF818500320ADF81A00616A079606A88847CA
:201F800018B0BDE8F081C04641757468204572726F723A20307800C05374617274696E6793
:201FA0002E2E2E00EC01001045230100C751010008190020B01D00202DE9F04F064692F8BF
:201FC00008B0307D09AF8846ADF1240D04933528039205D0114606F170000A2255F064FC5A
:201FE000DFF8C4C238F07F0506BF604600884FF6FF700590F08A800934BF002008203076B8
:20200000F08AC00834BF102080207076F08A400903D260460E30007800E00020B076F08A41
:2020200041082CBF20240024000928BF44F010047568002108F07F08307D06916D1E022856
:202040000EDB0D2808DA0C2803D1022044F40854069044F0030404E00D280CBF02200120CA
:20206000044396F88C0008B144F00804210900D328B1DFF8C09299F8E43313B908B1DF20DB
:202080004CE121096ED306F12401DFF8ACA296F88D50079100EB0A011AF805300A799918F3
:2020A0003389491DCAB29918A44B1A8808908A42C0F2368100284CD0049A039906F184007A
:2020C0000AF09EF80799002808603FD0806AB0F1FF3F39D070680023401E8DB196F88E109C
:2020E000524600F80119515D491EC9B241B18A1992F88320491EC9B2002900F80129F6D1F0
:20210000079970660968896AB162090E00F8011996F82A1000F8011996F82910089A00F86E
:20212000011996F8281005F0030500F8011902F0070141EAC501017071683589091ACAB21E
:202140007060A918318105E0DB2700E0F3277770E7E00023F08A7370C00828BF44F0100436
:2021600075686D1E336DA3B9B36D93B999F8FD13012903D13089B0F5EE7F06DA200904D246
:2021800002290AD144F4005401E044F48054012002E044F408540220069099F802000128B5
:2021A0000CD099F8C00248B196F86B00042805D1022024F48054069044F4005444EA8834E2
:2021C000B8F1020FA4B20AD0B8F1030F10D1ED1F09F57C71284655F027FE6D1E08E0B9F886
:2021E000D603001205F8010999F8D60305F80109069802280CD0B8F1000F15D0BBF1000F80
:202200000CD004990598814208D144F040040BE0BBF1000F08D1B8F1000F05D005990812D0
:2022200005F8010905F8011944EA8B24BBF1020FA4B209D0BBF1030F0ED10399ED1F284604
:2022400055F0F2FD6D1E07E003990888001205F80109087805F80109BBF1000F05D00498E0
:20226000011205F8011905F801093878F0B934480178307D0D2814D068B9306D28B999F8E9
:20228000C003411C89F8C0130AE099F8E503411C89F8E51304E099F8CE03411C89F8CE138C
:2022A000014605F8011903E0F20B002044F48074201205F801092C7070683789401BC1B259
:2022C000756078183081200927D3B06D00B1306299F8C00210B1307D0D281ED1726A12F1A1
:2022E000150002D155F0F8FB726A916A481C9062306A3289B162471B0092D21B019090B275
:202300000290706A96F88C202B46153007F02AFD00281CBF7070071C07D10020707005E080
:20232000E5277770F32012F094FAF8B209B0BDE8F08FC046200800206C770100E81D002029
:2023400039330020B0B50446BA480768ADF1480D002F00F0A8812078401E112800F2A38151
:20236000DFE810F06A015201380123011B010401F100E300C300B2008D005D005300420092
:20238000A1012A001C001200F86B002800F08B81684621460CF01EFCF96B82E1386C0028FE
:2023A00000F081816846002101220DF0F5F960788DF80000396C74E1F86A002800F0738189
:2023C000684600210E220DF0E7F9A11C684612F0E1FAA57BA1890022ADF80A1005B10122D5
:2023E0008DF80C20F96A5DE1B86B002800F05B816846002102220DF0CFF9A5788DF80150C9
:2024000060788DF80000B96B4BE1786B002800F04A81684621460CF0DDFB796B41E1386BB7
:2024200008B36846002114220DF0B6F9A5788DF80150A3680193A289ADF80820A17B8DF805
:202440000A1060788DF80000E57B8DF80B50237C8DF80C3094F911208DF80D206169049196
:20246000396B684688476068002800F01C810146F22008700020487010F060FB13E1B86AA4
:20248000002800F010816846002124220DF084F96078A11C8DF800000DF1020012F07AFA74
:2024A00004F10C0103A812F075FA257EE08A04F119018DF818500B22ADF816000DF11900F6
:2024C0000BF052FEB96AECE0786A002800F0EB806846002102220DF05FF9A5788DF8015022
:2024E00060788DF80000796ADBE0386A002800F0DA806846002112220DF04EF965886279BE
:202500006078ADF8025023798DF80520E11D8DF80000A5798DF804300B220DF107008DF895
:2025200006500BF021FE396ABBE0F869002800F0BA806846002101220DF02EF960788DF8C7
:202540000000F969ADE0B86910B120460FF004F9A07820B9A069002800F0A58003E0A06925
:20256000002800F0A08011F06FFE9CE07869002800F099806846002113220DF00DF96D466D
:20258000A01C0168406829600B22686004F10A0102A80BF0E9FD796983E03869002800F067
:2025A000828020460AF0D8FF7DE0F86800287AD0684600210E220DF0EFF86078A11C8DF8B6
:2025C00000000DF1020012F0E5F9A089ADF80C00F96866E0B868002865D068460021142218
:2025E0000DF0DAF8A01C01686D46296040686860A07A0B2204F10B018DF808000DF109005F
:202600000BF0B2FDB9684CE0786800284BD06846002110220DF0C0F860786588211D8DF862
:2026200000000B22ADF8025001A80BF09DFD796837E0C046B81D00203868A0B36846002183
:2026400019220DF0A9F8A01C01686D46296040686860A07A410824BF01218DF80810810842
:2026600024BF01218DF80910C10824BF01218DF80A10010924BF01218DF80B10C10924BFEE
:2026800001218DF80C1030F07F001CBF01208DF80D000B220DF10E0004F10B010BF064FDB4
:2026A00039686846884712B0B0BD70472DE9F84FDFF844830F460646F80B80F05B81C24D1C
:2026C000CB4CDFF81C932878B90F80F0EA80B90880F0DD80DFF8F8A2DFF810B3F90A80F00F
:2026E000B380B90B80F09E80DFF8E082790B50D2380C40D23809C0F0608111F039FA0028F2
:2027000034D055464446032128682170783012F0C6FD0AF00DFDAF48007818B9286840309A
:2027200012F0DBFD022010F0F7FD112009F09AFE2868007C10B90E2009F094FEA6490878EA
:2027400020B100200870052010F0E6FDA34812F0A5FC00224846B0F91410B0F916002270AC
:20276000814214BF022007200CF062F927F008070EF0AEFB21E14846416889684E88002E28
:20278000FAD04168896849880129F5D027F40047EEE720B1042010F0BFFD0020287010F075
:2027A000D5FD0146002001B10120002540B1B0696FF480712A464FF0007384463046E04701
:2027C000884889492A4612F07AFDB0684146022203880A70A3F602032BB141F21E015B1A65
:2027E00018BF183000D11030018821F47C7141F434710180757420685C46006B26688047F0
:2028000052467C4912680B68934214BF01222A1C26B1801B01EB8201000B886027F4805797
:202820002560A5E7404612F054FD011C09D0486838B14A68C868B1F92C1020231446002298
:20284000A04727F40057B8E012F033FD8046484612F03FFD061C14D05546286810B1783029
:2028600012F01DFD2068F168006B296080475C462060624812F012FC61484FF4006112F075
:2028800034FD404612F002FE27F4806795E007F0F7FA4846103012F01CFD08B927F0020756
:2028A0008BE0584A116841F08001116020B1042010F032FD0020287012F0FBFC8046B068BC
:2028C0000188A1F602052DB141F21E016D1A18BF183000D1103001884B4D21F47C7141F492
:2028E00034710180286808B3606D0068014604208847D8B120682C68006B8047F168001BAD
:20290000728AF060F068000BF060F0688018F060F068884203D240184008F060F06840F603
:20292000C41181422CBFB0F5FA7FF160404612F0ADFD10F00BFD90B1B0696FF4807100229B
:202940004FF0007304463046A047484612F0C1FC002808BF47F0020701D00EF0B9FA706947
:2029600000214FF0806304460A463046A04727F0005722E012F09DFC0146404612F0A9FC9E
:20298000061C15D0356AA80812D225EA05003062084612F07BFD706868B165B17168B6F900
:2029A0002CC0F06800232A468E466146F04702E0084612F06BFD27F480471FB1104839466B
:2029C00012F093FCBDE8F88FE233002018350020CC330020E0330020E1330020C1A20000AF
:2029E000943400202434002081820000D43300208C010010603200209C3400202993000052
:202A0000CC320020CC210840D03300202DE9F04F09AFADF13C0D08900A92388809911E465A
:202A2000ADF81800101C08BF002000F08A81002700F101094FF0FF3A4FF0010BB84672E195
:202A4000252940F069811078521C0A922D2818BFADF8068005D15846551CADF8060010780D
:202A60000A9530281CBFC446424605D10A990878DC466246491C0A912A28CDF800805546FD
:202A800017D13068CDF808A00A99CDF810C0C01C4B1C20F00300001D306050F8044C0A93D9
:202AA000002C0878009419D5ADF806B06442009414E044460AE00A9B610001EBC401091813
:202AC000A1F1300418780094591C0A91302801DB3A28F0DBCDF808A0CDF810C02E282BD147
:202AE0000A9908782A2801F101010A9111D13068CDF80880C01C20F00300001D306050F827
:202B0000045C002D48BF454608782B46491C0A9111E0434645460AE0690001EBC50109187A
:202B2000A1F130050A9908782B46491C0A91302801DB3A28F0DB02930AB1224604926C28F7
:202B400004D04C2818BFADF8048005D10A990878ADF804B0491C0A910BA9CDF80C800FAB1C
:202B600007916428059300F08D80692800F08A80BDF818C0752874D0782870D06F286CD0F0
:202B8000702851D063283ED073281FD009980A990128A1F101010A9116D96D490C68B5F1FE
:202BA000FF3F03D0A84288BF6D1C00D8099D029508A80AA932466B46A0470A99C0190746F9
:202BC000039801F1010975E040462AE030680A99C01C20F00300001D306050F8040CBCF19D
:202BE000000F01F10109014608B957A00146079112F0D4F80390B5F1FF3F5CD0A842C4BF0E
:202C0000281C039057E03068C01C20F00300001D306010F8040C5D468DF82C000A990395CB
:202C2000584601F1010946E0082035680490E81C20F00300001D306050F8041C08221023F2
:202C40000FA80DF0C1F9411E0791402400F8014C0A99079801F1010929E0082302E01023DF
:202C600000E00A230A99306801F10109C01C20F00300001D306050F8041CAA42BCBF2A1C5F
:202C8000049210E00A99306801F10109C01C20F00300001D306050F8041CAA42BCBF2A1CC6
:202CA00004926FF009030FA80DF08EF90790059D281A0390009CBDF80650211A241A009119
:202CC0005DB906E008A8202109AA10F0BCFF009C7F1C641E0094F5D503980546401E0390AB
:202CE00075B9BDF80600F0B10098401E00901AD408A8202109AA10F0A6FF00987F1CF4E77F
:202D000007990846491C0791017809AA08A810F09AFF03987F1CE0E708A809AA10F093FF61
:202D20007F1C09F101094A460A9812F8011C401C00290A907FF484AE089808B14146017086
:202D400038460FB0BDE8F08F286E756C6C2900C0387801002DE9F04FAF4C0746201DDFF8E4
:202D6000B48200688946ADF13C0D4FF0000B017DADF80CB0252900F00781703005A904F0CE
:202D800037FA002818BFC0B240F0418101A804A90CF0E0FE11F016FE00280CBF41F2081517
:202DA00043F2C82504A901A80CF0D4FE98F8270201993B684FF47A7A10FB0AF00AFB110085
:202DC000C01A8542C0F2DD80D8F80022521A0AFB02F1C91A8D4200F3D480854208DD002820
:202DE00006DD95FBFAF04FF4916110FB013038609DF81F0000285DD042F204000DF13601F7
:202E00000EF032FF11F060FA0699441A42F206000DF135010EF028FF9DF835009DF81D100C
:202E2000FF2804BF0A208DF83500FF2908BF0A219DF835609DF81C507848B4FBF0F27018A6
:202E400084B25646A81054437043A04298BF041C41F20810241805A811F035F89DF81C1022
:202E60003D68B0FBF1F24A43821A11FB06F192B206FB02F3CA1AC91A521B491B8C4201D979
:202E800000290CD56142914216D2002A14D53968B4FBF6F24FF4916312FB031508E06100DA
:202EA0003C684FF49163B1FBF6F18AB203FB02453D6001E03D68584606460DF1120102A85B
:202EC0000CF048FE0298D8F800125C46B5FBFAF280180290814203D998F82732834202D9A4
:202EE00098F894712FBB9DF81C00B6180004B04298BF361A9DF81F00002808BF9DF82000DF
:202F000024D09DF81C00B6FBF0F085B2BDF833000EF06CFD9DF83120014628460FF064F9FE
:202F2000054610F0BDFF024608A928460EF04EFE0CE0814204D8BDF81200401CADF8120074
:202F4000BDF8120098F897110CF026FF89F80000314F88F8F1017868007D052812D13846F3
:202F600090F8D50370B999F8000003A9ADF80C0042F20C0004F00CFABDF80C00A8F8EC0152
:202F800000E06524204642E011F01CFD00280CBF41F2081443F2C824214800784FF47A75B0
:202FA00010FB05F13868091BA1F5FA62824206D2A1F57A61B0FBF1F24A43801A3860684652
:202FC0000DF10E010CF0C6FD3868009998F8276205FB0102009216FB05F18A1A944211DCD0
:202FE000A1F5FA619142BCBF00F5FA60386098F89711B8F874010CF0CFFE0146584689F81F
:20300000001002E099F80010652088F8F1110FB0BDE8F08F0411002020080020A08601008F
:203020002B1300202DE9F04FB14C67688146ADF12C0D17B954F050FD67684FF0000838893B
:2030400079689D4ECDF81C80C500097830781035890906D340F6485191FBF0F16D1805F5EA
:20306000AF753E7D68438500352E0CBF46464FF4FA560DF12601E8200FF064F99DF82600B0
:20308000032808BF44F620666068007DAD19352803D1D4F82403804745430220DFF828A23D
:2030A0008DF820000AF10C000068069506A90AF04FF90120834E8249804F0870317887F844
:2030C0000080012901D000F075FA60680589466811F07AF93088000942D394F8C002002852
:2030E0003ED061684B6A4F6E986AB0F1FF3F26D02FB3421C9A628862030E07F80139606878
:2031000090F82A0007F80109606890F8290007F80109606890F8280038706268106A009579
:203120000190801B281A80B20290916A506A92F88C203346153006F015FE074600E0DB277C
:20314000D4F8041367B119B9E4200CF0F1F804E05E4880F80080E4208847002F40F0A880DD
:20316000294630460BF0D4FE642009A90FF0EAF8504694F8C012007831B994F8EF0309F0B9
:20318000E7FC012805D090E009F0E2FC012840F08C80DFF83CA1A81C87B20DF125010AF1D2
:2031A00080000780E9200FF0CDF89DF82500012805D13D46C5F3022040F0180005E02D1DAE
:2031C000ADB2C5F3022040F0080006F8010D06F8015D55469DF82400A5F872800028C5F84E
:2031E0008C600CBF3B483C48CDF8108002238DF8158005F138068DF8143005F1700AA6F872
:20320000028005F14501C5F8C800344FCAF81800087820F00F0040F003000870786880471D
:20322000DFF8BCB00A90B9F1010F1DD0B9F1040F1AD0B9F1000F14D0B9F1050F0ED0B9F180
:20324000030F08D194F8FF030FF052FFC07B022818BF56460AE005F1700607E0DFF884B085
:2032600004E005F1540601E005F138061348C068154B046D02278DE88001D868314604AA2D
:203280005B46A0471849154F0880B96800280AD4164A92F90000094F7035401C10700A98CC
:2032A0003D61884704E00A9888471A200CF040F80BB0BDE8F08FC046081D002090190020EB
:2032C000C71D0020EA1D0020F01B002025350020A81600204E9055550E7A55550819002045
:2032E000F1870000B5BA0000201C0020CE1D0020200800202DE9F04F002898461446ADF1E5
:203300002C0D00F0F38011F47C1F40F0EC8011F00F0F00F0EB8007460591002006900A9028
:203320004FF0000A0990554608954FF0010BCDF810B0054650460790059805990BEA0000FB
:2033400021EA0B014FEA4B0B401E059100F0AB80401E70D0801E5DD0001F40F0BE8042F28E
:2033600005000DF10E010EF07FFC9DF80E00002800F0B3801CB1276694F86B0006900720C6
:20338000152607F8010B022301A907F8016B42F2010007F8013B0EF067FC684603A90CF086
:2033A000D9FB06980EF03AFC0146019A00983E4640180090824206D8801ABDF80C300090C4
:2033C000581CADF80C00009B50085146814609041804030C19430004534610EB090041EB16
:2033E0000A0102F0F9FD0090BDF80C309DF80C009DF800209DF8011006F8010B181206F82B
:20340000010B9DF8023006F8012B9DF803200935BF1D42E00220152607F8010B042307F82D
:20342000016BB8F1000F07F8013B0CBF099898F800002D1D4EE01CB1E76594F86B00069013
:2034400005201526049B07F8010B0DF10F0107F8016B42F2040007F8013B0EF005FC02A8CD
:203460000FF08EF906980EF0D9FB02999DF80F609DF80F30069AED1D4018000200EB66008E
:20348000B0FBF3F03E4602903F1D06F8012B9DF808109DF809309DF80A2006F8011B06F8B0
:2034A000013B327018E00320152607F8010BB8F1000F07F8016B034607F8013B04BF0A98C1
:2034C00007F8010B05D098F8000007F8010B98F801006D1D07F8010BADB2059800287FF4B4
:2034E0002BAF2E4661E011F00F0F01D000205DE080468A4602264FF4803908F1020509EA43
:203500000A002AEA090A4FEA4909B0F580301AD0B0F5803014D0B0F500300ED0B0F580207F
:2035200009D0B0F5002004D0B0F580102AD1072404E0062402E0052400E00424002704E092
:203540000224012701E001242746A81C214600F0EDFA47B104F00F04C0F30A0141EAC421DB
:2035600041F4004105E004F07F0400F0FF0141EA042105F8011B0912871929702D18B81CB3
:203580006D1C86B2BAF1000FB9D1022ED8BF00260BDDB01E4FF6FE7708F8010BF019C0F301
:2035A000022040F0A00088F8000030460BB0BDE8F08F70472DE9F047AC4C06466068ADF196
:2035C000280D8047994DDFF88882A24F934C8246012E00F0BF802078DFF854920F284FD087
:2035E0008F4890F9000010F1020F05D18D4890F9000010F1020F43D08B4C20782E68079064
:2036000006F13C0000688047079D6168E668401A0896A900B0FBF1F2089DA068002304F199
:20362000180686E80C00AA421E463146B14102DA2946884205D805463146AA42B1411FDAAE
:2036400008900898194604F11805801A994185E80300079B04F1180696E803001A46DB1755
:2036600011F088FA04F1180540F6B832D317801A9941002985E8030002DA012148460170A1
:2036800011F018FA002860D06A48007800285CD169480078002858D168480078002854D151
:2036A00067480078002850D14846007800284CD164480078002848D163480078002844D18A
:2036C00062480078002840D1002054F00BF900283BD144462078002837D15F4DE868436CF6
:2036E000F868022105AA98479DF8140068B3DFF83081EA68F86898F90010002611F1020FE1
:2037000018BF01264FF001092EB1926B98F900109047EA68F868434E96F9001011F1020F19
:2037200003D0926B96F9001090476FF00100307088F8000084F80090002011F015FCE86835
:20374000C169F86888470020687048498968504688475FE0012054F0C5F8444989685046BC
:20376000884720780F280DD008F0CEF828680C37436C3868022104AA98479DF81000002871
:2037800046D047E044462078012841D1012011F0EBFB324E96F8C2000028FBD12E4DE868F8
:2037A000436CF868022106AA98479DF8180050B196F8C20038B92078012829D100202070EE
:2037C00011F084F924E02948406880470021029180468DF80D1002202070214E7180EA6807
:2037E0008DF80C001F4B146D8DE80300F86802AA3146A047002801D554F06EF91A491B4FF5
:2038000091F90000401C0870B9682E614046884710F082F90AB0BDE8F087C046D90B0020EA
:20382000C41D0020C51D0020081D00209C190020243500202135002023350020253500208A
:2038400022350020C61D0020C71D0020C81D0020EB1D0020F01B002090190020802F0020FA
:20386000B816002009160100CE1D0020081900202DE9F04FAA4C07466068ADF1340D8047E8
:203880000B900AA9822004F097FBA64EBDF8280038BB00244FF6FF75ADF8284017E0ADF868
:2038A0000450BDF82800ADF80650FF210822ADF8000002A854F014F88DF81840D420694673
:2038C00002F07CFDBDF82800401CADF82800301DBDF8281000888842E1DC82200AA902F0E7
:2038E0006DFDDFF844920020B246ADF828009DF8280000268DF8000069468DF80160D020DF
:2039000004F05AFBB0460126F0B99DF80B30012B07D19DF80A0020B90DF1020011F0FAF859
:2039200090B97D7B002D0CBF0522092246469D420AD10DF1020007F10E0153F079FF0028CC
:2039400018BF4FF0010809D1002E40F0D780B8F1000F03D1787F002800F0D080564600240E
:203960000CE06F490B98896888471A20D4E0BAF804006D1CADB24BE0641CA4B2B088A04299
:2039800042DD9DF82800ADF8224008A98DF82000D12004F011FB0028EED19DF82400FF2836
:2039A000EAD0ADF800006946D42004F005FB002837D102A8391D082253F03AFF0028DBD068
:2039C00038887D88ADF80400B8F1000FADF8065008D0387BBDF82810BD698DF818000DEB93
:2039E00081010D61D420694602F0E8FCB8F1000F0AD0387F9DF82510884205D08DF8250002
:203A000008A9D12002F0DAFCB088A04276D10025A84270DDADF80050D420694604F0CCFA2D
:203A200028B13F490B9889688847192074E00DF1080B584611F06EF8002300B101233C1DCE
:203A4000181C06D158462146082253F0F1FE00288DD07B8838883A7BADF80630B8F1000F6A
:203A6000ADF80400BDF828308DF818200DEB830101F110010CBF0020B8690822086021464F
:203A800002A853F011FF99F8C00230B1D9F810231AB1BDF8001020469047002401E0641C9F
:203AA000A4B2B088A0427FF762AF9DF82800ADF8224008A98DF82000D12004F07DFAE82889
:203AC00003D09DF82400FF28E9D19DF8000000228DF824003B7F8DF8262069468DF825300B
:203AE000D42002F06BFC08A9D12002F067FCB088A0427FF73CAFA8423FF433AFBDF828002B
:203B0000401C80B20228ADF82800FFF6F0AE04490B988968884700200DB0BDE8F08FC046D6
:203B200008190020E01D002020080020F0B504460846ADF16C0D401E70D0401E0DD0801E14
:203B400000F00981401E00F0EF80401E00F0E180401E00F0AD80002042E142F2010007A9DC
:203B60000EF082F842F20B0008A90EF07DF842F206000DF165010EF077F842F207000DF126
:203B800066010EF071F842F2050019A90EF06CF804A809F07DFF06460DF1670142F20900EA
:203BA0000EF062F89DF86700002808BF002503D002200FF000FF0546204607A9042253F0E0
:203BC00073FE241D08A90222204653F06DFEA71C9DF864009DF865309DF866109DF867401D
:203BE00007F8010B9DF8672007F8013B2B4607F8011B610706F0070444EA916005F0030453
:203C000004AD40EA8410314607F8010B012400953846019406F0D2FD0A309AE042F2060033
:203C20000DF165010EF020F842F207000DF166010EF01AF842F2040019A90EF015F804A8A9
:203C400009F026FF05460DF1670142F208000EF00BF89DF86700002808BF002303D0012056
:203C60000FF0A9FE03469DF864009DF8657004F8010B9DF8666004F8017B9DF867209DF866
:203C80006770790704F8016B03F0030705F0070646EA916004AE40EA8710294604F8010B5B
:203CA000002700962046019706F088FD001D50E042F2150011A90DF0D7FF13AF42F216009F
:203CC00039460DF0D1FF15AD42F2170029460DF0CBFF17AE42F2180031460DF0C5FF2046A6
:203CE00011A9082253F0E0FD083408222046394653F0DAFD04F1080708223846294653F0FD
:203D0000D3FD082207F10800314653F0CDFD202066E042F214000DF122010DF0A5FFBDF8E0
:203D2000221002200A1258E009A80021202253F0D7FD42F2130009A90DF096FF09A811F073
:203D40002DF8024609A9204653F0AEFD09A811F025F880B244E042F20E0002A90DF084FF5E
:203D60000DF10A0142F20F000DF07EFF0DF10B0142F20A000DF078FF03A942F210000DF0D4
:203D800073FF0DF10D0142F211000DF06DFF0DF10E0142F212000DF067FFBDF808009DF8EF
:203DA0000B209DF80C709DF80D609DF80E509DF80A1004F8010B02F00102001204F8010B0C
:203DC00007F0010042EA400206F0010042EA800205F0070042EA4012042004F8011B227090
:203DE0001BB0F0BD2DE9FE4FDFF82CA207460AF1040000688047DFF8188200248346002F3B
:203E000088F8034066D00FF071FE08F586602146AC22064653F064FDDFF8F89109F10400D5
:203E20000188C80000EB011080B253F0A9FDC8F8D00408B953F050FE06F18C070225B9F8D2
:203E4000040000EB400080B253F09AFD47F8040F08B953F041FE6D1EF1D1F01DFF210822EE
:203E600053F03EFDFF2106F11000082288F83F1453F036FD022703234FF6FF7C012288F878
:203E8000503406F19400A8F852C4042100F8042F417083707F1EC170F8D106F1A000052511
:203EA000022700F8042F417085707F1EC270F8D1B9F8047086F8A8304FB12146D8F8D004EA
:203EC0007F1E084401F11801A0F802C0F6D1022088F8340498F8C002554618B1D8F8C402A7
:203EE00000B180470CF088FD98F9EE0310F024FF0FF028FE10F016FF10F0ACFD10F09EFDA6
:203F0000464F072657F8040B00B18047761EF9D110F0E8FD464606F14400016809B10EF0DE
:203F200065FB3F48006886F84E40C0B112E0384653F0CEFB029002A80EF058FB1EE0384630
:203F400053F0C6FB019001A80EF050FB12E068460EF04CFB53F0BAFA00280090F7D1314805
:203F60000078012802D02046FFF724FB2E4806F170070470306F0028E1D13F1D706F00281F
:203F8000D5D1346774672948C6F8800186F87A40274FC6F88471274BC6F8883186F87B40D2
:203FA000254AC6F88C21B4702449C6F8901186F87C40234FC6F89471224BC6F89831254B64
:203FC000214AC6F8B8302149C6F89C21224A204FC6F8BC20234BC6F8A0112049C6F8A4715D
:203FE0001F4FC6F8C0105846C6F8C470A968C6F8C830884706F2D531522000F0B3FA96F804
:20400000EF030DF0BBFD0CF0F7FC2046BDE8FE8F20080020E01D0020081900202009002083
:2040200014350020EA1D0020203500200BF8000071520100B13D0100956E000031B80000D9
:20404000A94301001D340100C997000099860000B93001002FE00000E58B00007D010100BA
:2040600065E40000950901002DE9FE4F0546287D012808D195F917000CF052FD4FF6FF715E
:20408000814200F016819548EF7B017894481FB990F87B208A4208DB012F03D190F87A206A
:2040A0008A4202DBF120BDE8FE8F80462E6A95F83500B5F8289095F83470AC8B4FF0000ADE
:2040C0005FEA060B029017D098F8C032002B2FD0D8F8D81200292BD006F0FF008847D8F8EF
:2040E000D81206B20BF47F008847361830B2001D00B2C83086B200E0C8260CB1241DA4B280
:2041000098F8E403012809D147B1764802993F1897F804A0405C8019401D86B209EB040088
:2041200080195044801C80B253F050FB071C02D11A20BDE8FE8F09EB0A0033193881002C65
:2041400003EB070078600EBF0020B819801C00217822C7F8A40007F10C0053F0C1FB09EB23
:204160000600FF2110220019A7F84C0007F13C0053F0B6FB07F12C000F21102253F0B0FB47
:2041800000243C707C707868696A2A8D53F08CFB07F1840005F12C010B2253F085FB07F1A8
:2041A0009000294610F048FB6889A7F89A00287B87F89C00687B05F10E0687F89D00326832
:2041C00069460A60706848609DF800102046012908BF01209DF80110012908BF40F004005E
:2041E0009DF80210012908BF40F008009DF80310012908BF40F010009DF80410012908BF7C
:2042000040F020009DF80510012908BF40F040009DF80610012908BF40F080009DF807104B
:20422000012908BF40F48070A7F89E00A87D87F8A000E87D87F8A10095F8380087F86C00B3
:20424000AA8BA7F8A82022B1D7F8A400A96953F02BFBA87F87F8AA00286AC7F8AC00B7F805
:20426000A800C0B1D7F8A400A8B17868401E7860F82101707868401E78600470B7F8A810C8
:20428000B7F8A8607868401A786038898019801C38817868B865B7F89E00410A16D395F89B
:2042A0003710042905DD00F0040100F00100084302D0E820BDE8FE8F08F1800630460AF07C
:2042C000B7FF95F83710304610F08EF898F80000394653F071F92046BDE8FE8FE01D0020E7
:2042E000200800206C7701002DE9F04142F20400ADF1280D0DF123010DF0B6FC42F2050036
:204300000DF122010DF0B0FC42F2010069460DF0ABFC8C4D8C489DF82310C5F8A4016420F0
:2043200011FB00F1C5F89C118849C5F8C0119DF8221011FB00F0C5F8B8018548854EC5F821
:20434000DC01B07888B342F203000DF106010DF08BFC0FF0A5FD04460DF1060021460CF00B
:20436000F5FE241A9DF8220085F8974170B1009860B105F5DA700DF0E9FA05F5B87009F0F7
:204380008DFF012085F8900185F8940142F202000DF106010DF068FC0DF106000FF044FF6E
:2043A00005F5CC700DF0D2FA11E042F202000DF106010DF059FC0DF106000FF035FF05F54F
:2043C000CC700DF0C3FA05F5B8700CF099FC96F8FF030EF08DFEC07B022804BF012085F855
:2043E000F00195F8F401002840F0A98005F124000021382253F074FA00272F81688900EBD0
:20440000800080B2064653F0BBFA05F124044FF00108E86010B910F046FFE86839463246A3
:2044200053F05EFA4C484D4EA86304F108002E630DF08CFA42F21B0001A90DF015FCBDF8DA
:20444000040001A9A5F8480042F21C000DF00CFCBDF8040001A9A5F84A0042F21D000DF0DC
:2044600003FCBDF8040009A9A8825D200DF06AFF9DF8240000280CBF85F8587085F858807F
:20448000B5F8480040B100EB401080B253F078FA286508B910F007FFB5F84A0048B141008F
:2044A00001EB800188B253F06BFA686508B910F0FAFEA88A38B1C00080B253F061FA2861F3
:2044C00008B910F0F0FE26490A680DF11A00026049684160A88A3C462E460AE028690DF1DF
:2044E0001A01082200EBC40053F0DEF9B08A641CA4B2A042F2DCB5F84860B5F84A40EF82F1
:2045000056B1286D4FF6FF720146A0F81F20761E8F7701F12100F7D154B1686D4FF6FF7127
:20452000264602468180761ED77002F10600F8D128463946062253F0D3F985F8F4810AB059
:20454000BDE8F081041100209D190100ADA90000175201002008002055940000002A7515B4
:20456000347601002DE9FE43984A80460F46B8F1450F03D110464B38076022E10FF0C2FF68
:20458000FF2808BFF42000F01D818F4C04EB8004A07810B9E178002937D0E178814208BFF0
:2045A000FB2000F00F81B8F1580F24D0B8F1600F1AD0B8F1E00F0ED0B8F1E80F05D03A78BD
:2045C00090421FDC91421DDB1FE010463978007881421AD1F5E097F900000CF0A1FA4FF6D6
:2045E000FF7181420ED010E038880A280ADBB0F5804F07DA09E038888F2803DB47F60251C0
:20460000814202DCE820BDE8FE83724D686880478146714E207862783946301800F56B70E6
:2046200053F042F9A968484688474046503800F0C680801E00F0AD80401E00F0BD808D383F
:2046400000F0B580401E00F09B80401E00F0AC80801F1ED00D3840F0B4800E2096F82D74BF
:204660008DF8020017B11B208DF8020096F9EE139DF90200884204D0E0200DF10201FFF76C
:2046800071FF10F04DF896F82D04002800F0998073E0012103208DF8051030278DF8030064
:2046A00000248DF808704FF4FA558DF8064096F8FF13ADF80050052080298DF8040009DDAA
:2046C000842907DA8DF8030014278DF8087008208DF804009DF8030096F8D113884204D033
:2046E0004F200DF10301FFF73DFF9DF8040096F8DD13884203D0572001A9FFF733FF96F88C
:20470000FF03842808DB862806DAC0208DF808004FF4FA47ADF800709DF8080096F8E11355
:20472000884203D05A2002A9FFF71CFFBDF80000B6F8DE13884203D058206946FFF712FF87
:2047400096F8FF0378B902208DF805000B278DF807401F498DF806707D260E80E7200DF155
:204760000701FFF7FFFEF7200DF10501FFF7FAFEE1200DF10601FFF7F5FE0CF013FD20E03A
:2047800096F8EF030DF0FAF901281AD01A20BDE8FE8396F8D50318B902200EF0DDFA10E018
:2047A000022010F0E9FB0CE010F048F909E096F9EE0310F0C1FA04E010F04CF901E010F098
:2047C000B1FA0020BDE8FE83D46B01001F0C0020E81D00200819002020080020F0B50021E9
:2047E0005022ADF15C0D02A80AF0D6FFF22016A910F06AFB8F4DBDF8580016A9A5F87000DC
:20480000F32010F061FBBDF858000DF10901A5F87200E22010F048FB688DADF812004108CB
:2048200006D305F11401096805A80160BDF81200810805D3291D098806A80180BDF8120020
:20484000C10807D305F1180109680DF11A000160BDF81200010908D30DF11E0005F15401A9
:20486000302209F081FCBDF81200400903D3286B1590EF6A14977048007800280CBF012109
:204880000021012053F088F9BDF8120041082CBF0F240B24810824BFA41CA4B2C10824BF87
:2048A000241DA4B2010924BF3034A4B2400924BF0834A4B220460FF0EFF9071C00F0B78065
:2048C00005260DF1090100F8016B0A68026049684160BDF81210083053F02BFABDF81210CD
:2048E000844648080BD3BDF81410604653F021FABDF8161053F01DFABDF81210844688087D
:2049000007D3BDF81810604653F013FABDF812108446C8080BD3BDF81A10604653F009FAD0
:20492000BDF81C1053F005FA8446BDF81210434A9388080961D3BDF81E10604653F0F9F908
:20494000BDF8201053F0F5F9BDF8221053F0F1F9BDF8241053F0EDF9BDF8261053F0E9F90B
:20496000BDF8281053F0E5F9BDF82A1053F0E1F9BDF82C1053F0DDF9BDF82E1053F0D9F90B
:20498000BDF8301053F0D5F9BDF8321053F0D1F9BDF8341053F0CDF9BDF8361053F0C9F90B
:2049A000BDF8381053F0C5F9BDF83A1053F0C1F9BDF83C1053F0BDF9194653F0BAF9117825
:2049C00053F0B7F9BDF8421053F0B3F9BDF8441053F0AFF9BDF8461053F0ABF9BDF84810FB
:2049E00053F0A7F9BDF84A1053F0A3F9BDF84C1053F09FF9BDF812108446480906D3149982
:204A0000604653F051F9159953F04EF905F11C01224630463B4604F089F90820ADF8026014
:204A2000074D01972968ADF800006846884717B0F0BDC04690170020DA1A0020A4150020A9
:204A40002C1900208F492DE9F04F0A680646ADF16C0D15A80260496841608B4C94F8EF012B
:204A600006F1280A06F12807002800F008817078002840F00481FF20844B8DF818001D7861
:204A8000F06C012105AA01F079FEDFF80492DFF8048228B99DF8180008B99DF81C5070BB3C
:204AA000B08900F00700022814BF04200520B073B08900F00700032807D173684046001DAC
:204AC00001681878042800F09C8096F83000022815D149468878012811D001F56B710D4619
:204AE00006F12800022220310FF034FB38B905F116010DF13E0053F097F90DF13E07706EC6
:204B0000002800F0BC80012102AA0AF034F9002840F0B5809DF80800B073F06C40B1394633
:204B200012AA0DF14A03FCF74BFA002840F0A7800DF14A000090706E394612AB06F06AFB6A
:204B4000002840F09C804946891C0878012854D04FF4005013A90DF087F813A815A9082272
:204B60000FF0F8FA30B113A8394608220FF0F2FA002842D194F8950100283ED0D4F88451E0
:204B8000B4F8806142F2010004A90DF06DF8049A4FF000410020E5FB0210051CD4F88C019A
:204BA00010F04BF92D180498A84202D8761C2D1AB6B24746786880475FFA80F8D4F87C017D
:204BC000A84205D1B4F87401B04208BF00260BD0C4F87C51A4F87461002084F871010FF033
:204BE00073FB0126C4F88801B968404688470EB10AF0DEFB012084F89401002084F895016F
:204C00003DE0CDF85CA08847AB46244D4FF00008189096F830902048CDF864A00A2710F8DE
:204C200009A0287A484505D11999524628460FF091FA20B17F1E05F10C05F2D100E0A8467E
:204C40005FEA08070ED194F86C01144A0C2110FB0127401C84F86C01C0B20A2804BF00209A
:204C600084F86C01179938460A2252F01DFE09491898896887F80AB088470420B0731BB087
:204C8000BDE8F08FB477010004110020F01B00202008002008190020801E0020F8110020F4
:204CA0002DE9F04F8146D9F800600C465FEA0208ADF11C0D14BF00214FF0FF3106F1480594
:204CC000284610F0DEF8AA46002818BF0B2040F00B8188480025F460B8F1010F057007D06C
:204CE000657002200EF01AFD06200EF017FD01E0012060702078012840F2AB80801E0128B9
:204D000068D9801E012832D9801E012800F2DD8010F0CFFA4FF080578346D7F8DC11A078EE
:204D20004E6A0090217807F5EE772846062908BF0120019001200290A068228A6368E168A0
:204D4000B0470646584610F0A1FB002E40F0BF80B8F1000F02D00FF029FE02E048460EF01B
:204D600013FE002800F0A4803868806A2BE010F0A0FA83464FF0805CDCF8DC010127006892
:204D8000009726786368A168A278AE46042E0CF5EE7408BFBE46064618467346B0470646F6
:204DA000584610F073FB002E40F09180B8F1000F02D00FF0FBFD02E048460EF0E5FD00287F
:204DC00076D02068406880474949C1F8B0510D6006467CE010F06DFA07464FF08053D3F8A4
:204DE000DC01E18A80690091E1680191218B0291A1780391217D04910122059221782E4630
:204E000003F5EE75022908BF161CE1786268A36884463046E0470646384610F037FB002E54
:204E200055D1B8F1000F02D00FF0C0FD02E048460EF0AAFD00283BD02868006A8047061CDB
:204E400045D12868A168E28A2369C569E078A847BEE710F02EFA83464FF08052D2F8DC01E8
:204E6000E18AC0680091E1680191218B0291A1780391217D04910121059127782E4602F552
:204E8000EE7507B90E46A368E178626807463046B8470646584610F0F9FAC6B9B8F1000F97
:204EA00002D00FF083FD02E048460EF06DFD08B9142019E0286840698047061C07D1286851
:204EC00002692169E078904782E74FF0FF36B8F1010F05D002200EF01FFA06200EF01CFAD0
:204EE000504610F0FAF9304607B0BDE8F08FC046504502401F3500202DE9F043071CADF17D
:204F0000240D00F01381F86B002800F00F81B7F84020002A00F00A81007817F130014FF02D
:204F2000000603D097F83810052902D0002E00F0FD80DFF80482401E69D0801E55D07F4CA4
:204F4000C01E3DD0001F40F0F1807A4DA878002800F0EC8003A8314604220AF01DFCB7F831
:204F600040002A78032840F0E180F86B401C52F0E6FE434603F17C073988012A01F10101CE
:204F8000398009D0D988421A022A05DBB3F87E108918491EA3F87E10D880E7782E704008AF
:204FA00008D2012F00F0C2800121E170304652F0F3FDBBE0002F00F0B980E6703146F5E7FE
:204FC000012A40F0B3800725E0788DF8205000280CBF0121311C3046E17052F0DDFDE0782D
:204FE00002228DF8210028460CE0012A40F09E804346B3F85C000122401CA3F85C000420EA
:205000008DF82000394608AB03F090FE8EE0684631460C220AF0C0FBB7F840000B285ED171
:20502000FC6B14F8010BC14689F82800204652F086FEA41C0346204652F070FE0546201D6E
:2050400052F06CFE8046387A4C4689F82400022806D0396804F11C0001607A68426001E07D
:205060003888A08303F00100190928BF40F00800590928BF40F010006085834218BF0226E6
:20508000B5F57A7FADF8020016D32D48A84213D3E5620FF0D9FD81460FF0D6FD00EB0929C6
:2050A0000FF0D2FD00EB0920B0FBF5F16943401A0A300EF063FB00E00226E06AB8F57A7FE9
:2050C000019008D342F21070404504D3C4F830800FF0CEFD00E00226206B029001E044468E
:2050E000012602258DF8016068468DF800500DF00FF80DF111009DF801108DF8105052F019
:2051000018FEBDF8021052F014FE019952F0CCFD029952F0C9FD39460D2204AB284603F058
:2051200005FEB4F86200401CA4F8620009B0BDE8F083C0465C18002090170020A4150020F9
:20514000407E050001282DE9FE4F40F0F480DFF820A2DAF8DC00012840F0EA800220CAF86E
:20516000DC000EF0D5FD01200DF062FA5FEA000805D00120CAF8DC000EF0DEFDDDE010F08E
:20518000B0F8704D6E49029000200860A86A0068014601208847012818BF002003D1002014
:2051A0000AF080FF0120684F0090386811200FF093FF00280CBF0024012410200FF08CFFB6
:2051C00008B144F002040F200FF086FF08B144F004040B200FF080FF28B128685B49006B13
:2051E0000246088890470A200FF076FF28B128685749006B02460888904756480126066014
:2052000028688069014644F020008847524806600FF05CFF00F00101DFF844B101914008B9
:2052200016D2286A806801464C4888478146B9F1040FF6D0B9F1010F05D1286A4068024606
:205240004648032190475946086820F0030008604448006842F2107240F2AA23B0FBF2F104
:205260005143401A83422CBF40484FF040403E49086028683968806B8047019801280ED0D7
:20528000B9F1010F05D1286A40680246334831469047DBF8000040F00300CBF800002868DA
:2052A00040690146204688470B200FF015FF28B128682649C06A0246088890470A200FF0B1
:2052C0000BFF28B128682249C06A0246088890472048032206602049CAF8DC2000230B606F
:2052E0002868406B0146204688470128F8D1386804200DF09DF904461148009D0660386868
:20530000012D02D130460AF0CDFE0FF0D3FE08200DF08EF907460298CAF8DC6010F0B2F846
:205320000EF00AFD57EA040018BF4FF0FF3804E06FF0040801E06FF001084046BDE8FE8F86
:205340000C400940B80100102C200940827501007E75010028200860800104430040034073
:20536000242208401C1400501C00094008E7A480881300207B4A2DE9F84F8146854C50687A
:20538000800806D2106804F15001000C40F0F0000870D2F808B0DFF8D081754F641E5E46B7
:2053A000B00E11D2700E0FD3802084F820004FF6D801A4F861103D462074A5F17000006800
:2053C000C0F3046009F02CFE684D55F8180CBA46C0F3400018B967490020086001E046F05A
:2053E00040666549F00EB70E80F001004FF0805300F00100086087F0010000F00100886069
:20540000D3F8F06103F5F87072680090594648469047DFF86891DAF80070594B39F83B2C54
:2054200007F0FF06101280F0C000B04211D002F0FF021968B04234BF01214FF0FF31401809
:205440000102864281F4404142EA010129F83B1CEFD13809C7F30331C7F384466FF401729C
:2054600000F0F000014304F80810F90CA65401F0F00040F47040A4F86300DAF8046028686B
:205480001F4620F0100828F4F070286057F8080C5FEA9B6002D25FEA5B6017D255F8180CA2
:2054A000800834BF300AF00800F0F80040F47840A4F86100207800F07F002070207840F00F
:2054C00080002070C6F3044009F0AAFD46F3050321783A6841F30500984211D09842B4BF62
:2054E00001224FF0FF3201F04001801800F03F020A4322702178834241F080012170E7D1E6
:2055000038683868C5F800801E4957F8080CDAF814004026C0F3053089F8A30F43F6180389
:20552000E675009A0B8010688168584688471649164A0AE0105C9378141D834299BF20444B
:2055400010F8010C20444078086008684B689842FCD10228EED1012048620D4F3860BDE89B
:20556000F88FC046AC4F0050FEFDFFFF28000940F813005094042A43000220436BA00C40CD
:20558000342009406AB00C4000600C409C77010094046042066208402DE9F043002B08BF23
:2055A000002A10D10029BCBF00204FF0004106DB50EA01071CBF6FF000006FF000410BF0A4
:2055C00020F9BDE8F0835FEA530898EA610803D50026404266EB01015FF0000913F0004E8F
:2055E00003D00026524266EB03031C461546002C08BF8D429CBF2C1C0025070C47EA0147F4
:205600000E0CB44208BFBD429EBF240444EA15442D04070A47EA01670E0AB44208BFBD42F9
:205620009EBF240244EA15642D02470847EAC1774E08B44208BFBD4200F29280870847EA83
:2056400081778E08B44208BFBD427BD8C70847EA4177CE08B44208BFBD4265D8070947EAE5
:2056600001770E09B44208BFBD424FD8470947EAC1674E09B44208BFBD4239D8870947EA2A
:2056800081678E09B44208BFBD4223D8C70947EA4167CE09B44208BFBD420DD8E60146EA9C
:2056A0005566EF01B14208BFB84201D3C01BB14159EB09094EEB0E0EA60146EA9566AF01BD
:2056C000B14208BFB84201D3C01BB14159EB09094EEB0E0E660146EAD5666F01B14208BFCE
:2056E000B84201D3C01BB14159EB09094EEB0E0E260146EA15762F01B14208BFB84201D3CA
:20570000C01BB14159EB09094EEB0E0EE60046EA5576EF00B14208BFB84201D3C01BB141EC
:2057200059EB09094EEB0E0EA60046EA9576AF00B14208BFB84201D3C01BB14159EB090983
:205740004EEB0E0E660046EAD5766F00B14208BFB84201D3C01BB14159EB09094EEB0E0EA4
:20576000A14208BFA84201D3401BA14159EB09094EEB0E0EA34208BFAA423EBF2D0A45EADE
:205780000465240A8AD373464A465FEA080803D50026404266EB01015FEA480803D5002609
:2057A000524266EB03031E4617460B46024631463846BDE8F08370472DE9FE4F0CAF9946E3
:2057C000934604467D680291294603F06BFF061C00F0EE803888F082774F347597F8C002F0
:2057E00018B1012C04BF1520307506F1840029460B2252F059F8012C04D00D2C1CBF70687F
:20580000401C00D170683062002597F8C00235650028B5654ED0052C18BF012C45D14FF0F7
:20582000040A86F86BA0F08A86F86950C00934BF97F8D10397F8FA0359460A2286F86A00C2
:2058400006F1700052F030F89BF8080003282CD1032097F8D53302903BB3DFF8608108EBCF
:205860008408D8F8000010F47F0F0ED086F82CA0D8F8000006F12C01012200F47F003063F5
:20588000304602F0A9F8D8F8000010F0FF0F0CD02A2086F83C00D8F8000006F13C0100F04D
:2058A000FF003064304606F0A5FE97F8C00208B10D2C13D0009502994B4630465A46FCF756
:2058C0007BFB071C75D1E41F012C03D8707E40F020007076304606F0F1FE6AE00520374C6D
:2058E00086F86B0004F13400016811F0F70F18D02A2186F83C10BA78006806F13C01012A30
:2059000000F0FF0030641CBF20F00800306497F8D50318B9306C20F002003064304606F097
:2059200069FE009502994B4630465A46FCF744FB5FEA00083AD1224806603489756801A987
:2059400064200CF0FFFC1F4EA01C0DF1050187B206F180000780E9200CF0F4FC9DF80500D9
:20596000012806D13C46C4F30220022140F0180006E0241D0421A4B2C4F3022040F00800AE
:2059800005F8010D671A05F8014DB9B2C6F88C50AD1C284609F0BCFA9DF8040000280CBFB9
:2059A00009480A48C6F8C800C6F88800474600E01A27F8B2BDE8FE8F200800208C690100B0
:2059C000241C0020A81600204E9055550E7A55552DE9F047044694F830900F46984615465E
:2059E0008B20ADF1300D0DF10A0102F0E5FA8A20694602F0E1FA94F8250000283ED1B9F18F
:205A0000000F19D1BDF80A104FF6FE70884205DCBDF80A1088422FD1694615E0B4F8440033
:205A20009DF80A608DF80C0000128DF80D00BDF80A008DF80E601BE0B9F1020F09D0B9F147
:205A4000030F19D104F1280103A852F0EDF9092612E0207CC00934BFB4F84200B4F8440002
:205A60008DF80C0000128DF80D00208D8DF80E00001205268DF80F00002013E002280CBFD8
:205A800005260926012818BF04F11C0104D1892006A902F091FA06A9324603A851F004FFDA
:205AA00094F826000DEB0601C8723A4603A831460AF014F8002840F08F80B9F1000F19D149
:205AC000BDF80A104FF6FE70884205DCBDF80A1088422FD1694615E0B4F844009DF80A606D
:205AE0008DF8200000128DF82100BDF80A008DF822601BE0B9F1020F09D0B9F1030F19D14E
:205B000004F1280108A852F08FF9082012E0207CC00934BFB4F84200B4F844008DF82000F8
:205B200000128DF82100208D8DF8220000128DF8230004203E6881460BA9822002F03CFA90
:205B40009DF82C10307B8142D8BF9DF82C00002842D0074600244FF0180A722029460EF0A3
:205B6000AFF8B0689DF82C100019C8F80000007881422DDD296810FB0A1028600146D8F822
:205B800000004278012A1FD083782BBBB9F1040F06D0091D08A852F02FF9012816D017E077
:205BA00008884B888DF82800042208A98DF82A3000128DF8290018128DF82B000AA851F092
:205BC00037FE012802D003E0807828B9002004E07F1E04F10304C0D1F3200CB0BDE8F087C0
:205BE0002DE9FF4705466878002840F0E98095F89A1002291CBF0329E82095F88F10802917
:205C0000C8BFE82095F89010092901DB0A2900DDE82095F8911009B1042905DB8029C0F252
:205C2000CE80882980F2CB80002840F0C98069480078884204D005F19101E820FEF792FC2D
:205C400005F19001E720FEF78DFC05F18F01E120FEF788FC05F19C015020FEF783FCDFF8EA
:205C60007C8195F89A0002280CD04FF6FE70A8F8CC0305F1920108F2C23052F0D5F805F15E
:205C8000920604E005F192063088A8F8CC0308F5FA7005F184010B2251F006FE4FF0010936
:205CA0000220A5F816903146287501A80EF0C4FD95F89E70B5F89CA0686805F19E01002FEB
:205CC000A0F1010068600CBF002048464F780FB140F002008F780FB140F00400CF780FB136
:205CE00040F008000F790FB140F040004F790FB140F0800069684A1E6A6008702F7D696884
:205D00000024481C2862781E087028892C6598F8C032AC65801C002B288141D0042785F865
:205D20006940E88A85F86B70C00934BF98F8D10398F8FA0331460A2285F86A0005F1700053
:205D400051F0B2FD95F89A00032829D105F1700005F1920152F068F898F8D50300B31E4EEF
:205D6000306810F47F0F0CD085F82C70306805F12C014A4600F47F002863284601F02CFE32
:205D8000306810F0FF0F0BD02A2085F83C00306805F13C0100F0FF002864284606F02AFCAF
:205DA00000942846832101AA5346FCF705F9071C02D1284606F082FC381C01D106E0E8201C
:205DC00068701820287028460AF0B0FB0090BDE8FF87C0461F0C00209469010020080020B6
:205DE0002DE9F04F784C6068ADF1340D002840F0E88004F170063068002800F0E280DFF8CF
:205E0000D48108F11F000078022800F0DA80704D281D006880476D490C900A680DF127000F
:205E2000026049684160206FB146074668B34FF0000A1D263A7D08200DF1260313F8011F03
:205E400091421DD0401EF9D148463946524651F021FC787E30F07F0005D194F87B00401E87
:205E600084F87B0004E094F87A00401E84F87A007E7057F80CBC384609F006F85F4602E0EC
:205E8000BA4657F80C7C002FD4D1352008F0BAF9A9684646002862D1452008F0B3F9A96845
:205EA000002856D1684601A909F054FED9F8000038B1017D252904D050F80C0C0028F8D145
:205EC00013E090B196F89401002838D00EF07AFD00280CBF04210D21009F96F82702401AD0
:205EE000B8421FD8012086F89101152008F08AF9A968A8B10C98884760680DF10601703086
:205F000001F076F910BB96F827020099884203D91C2002F017FD54E0002086F892010AE0CF
:205F20000C984DE0252008F06DF9A9680C988847002086F89101042001F0F8FA41E02520CC
:205F400008F060F9A9680C988847192001F006FE37E00C98884708200CF04AF831E00C9899
:205F6000884796F8F001B8B10EF08EF9318901B97189F268491E89B201EB81018918D1F8A3
:205F800001100FF092F942F21071814292BF00206431081AC0B200E000206968002808BF94
:205FA0000620D9D0C6F8D40188470446D6F8DC11D6F8D40106F5F2720DF07AF9A9682046C2
:205FC00088470DB0BDE8F08F20080020AC77010008190020041100202DE9F0411C4615462B
:205FE0008C4208BF854282BF00230022E5E0002C08BF002D0AD100290EBF00286FF0000082
:206000006FF0000100F0E1F8BDE8F0815FF000085FF0000E002C08BF8D429CBF2C1C002503
:20602000070C47EA01470E0CB44208BFBD429EBF5FEA044444EA15445FEA0545070A47EAB4
:2060400001670E0AB44208BFBD429EBF5FEA042444EA15645FEA0525470847EAC1774E080E
:20606000B44208BFBD4200F29380870847EA81778E08B44208BFBD427CD8C70847EA417749
:20608000CE08B44208BFBD4266D8070947EA01770E09B44208BFBD4250D8470947EAC167D3
:2060A0004E09B44208BFBD423AD8870947EA81678E09B44208BFBD4224D8C70947EA41671A
:2060C000CE09B44208BFBD420DD8E60146EA5566EF01B14208BFB84201D3C01BB14158EBEE
:2060E00008085EEB0E0EA60146EA95664FEA8517B14208BFB84201D3C01BB14158EB0808DC
:206100004EEB0E0E660146EAD5666F01B14208BFB84201D3C01BB14158EB08084EEB0E0EEB
:20612000260146EA15762F01B14208BFB84201D3C01BB14158EB08085EEB0E0EE60046EA2A
:206140005576EF00B14208BFB84201D3C01BB14158EB08084EEB0E0EA60046EA9576AF00F8
:20616000B14208BFB84201D3C01BB14158EB08084EEB0E0E660046EAD5766F00B14208BF18
:20618000B84201D3C01BB14158EB08085EEB0E0EA14208BFA84201D3401BA14158EB0808B4
:2061A0005EEB0E0EA34208BFAA423EBF2D0A45EA0465240A89D3734642461E4617460B4639
:2061C000024631463846BDE8F08170472DE9F843784C714A7248734DDFF8CC81744E94F8F9
:2061E000E430591E0B2900F2C980DFE801F0954F6629466629466629C806106842F21072D4
:2062000040F2AB27B0FBF2F15143401A874204D98020383D286000272F6067485F49002688
:206220000125001D06600E200D6006F01BF902200DF072F884F8E45084F8E360BDE8F883F8
:20624000042B07D001220A2B40F8252C14BF0221032104E02023012140F8253C0A4684F88F
:20626000E210002140F83D1C0827C0F8FB7FC0F8FF7F40F83D2CBDE8F883052B14BF0920F6
:206280000620002684F8E4002E607EE094F8E17001213C38002FC0F81B1004BF06210022D5
:2062A00002D00022EA62032184F8E410032140F8011C2A602868800867D294F8E40001261F
:2062C00003281CD04FF08059D9F8A40140680027702204233946844600974046E047D9F833
:2062E000A401C06870223946134684464046E04794F8E400062814BF0A200720C2E72B4812
:20630000006840680221702204230746009140460021B8470420B5E7116842F2107340F2EB
:20632000AB27B1FBF3F25A43891A8F4202D90821403D296001270F213038376042F62A2204
:2063400040F8011C4FF08059C0F80320D9F8A40140680225072300214FF4C07284464046A0
:206360000095E047D9F8A401C06800214FF4C072072384464046E047376004E0FEE700200C
:20638000306070600C2584F8E45004F178000EF084FFBDE8F883C0461C14005004800C4058
:2063A0003D400C4058600C4000A00C40A401001054600C408813002038500C402DE9F04199
:2063C00007460C467148DFF8DCC1DFF8CC81DFF8D0E1724902883846D12810DCD12879D05B
:2063E000713800F0B180401E00F0AB80401E00F0A480113810D04C3800F0868007E0D23854
:2064000054D0401E41D0401E33D0401E28D038460EF040FDFF2802D1F420BDE8F0815C4DAC
:2064200005EB8005A97809B9E87850B1E878884208BFFB2000F0A7802278914269DC9042FC
:2064400067DB544E70688047074628786A7841464018214651F028FAB1683846884791E06A
:206460002278022A55DA0846641C00EB8200042285E021888A424CDDC8007746182200EB19
:20648000011039684018241D79E02678304602283FDA2C2505FB0680611C1022393051F0D1
:2064A00003FA616905FB0680C1646BE022786178022A2EDA02292CDA2C2001EB420600FBCC
:2064C00002C34F1C0CEB460C022283F868740CF5996030E02178608802291ADA824218DD65
:2064E0002C2303FB01C595F860340CF586629842A4BF431C85F8603402EB8102D2F89010F8
:2065000000EB40000322BDE720786778022800DA17B1E820BDE8F08161462C223D187E1C42
:2065200002FB001368000A2283F8586400EBC500401800F2AC40A41C21E01CB30846082292
:206540001DE0FCB1704692E7B4B90CF586600CF58561022700F17C020CF5986C983041F889
:206560002C2F5CF8043B08617F1E02F10A0200F104008B60F3D105E04046582224302146E4
:2065800051F092F90020BDE8F081C046E41D00203069010008190020500C0020F40C00205B
:2065A000F00C0020200800202DE9FE43DFF8C081704D0E46B00958D3444604F174074DE0EC
:2065C0000178D0290EDBD02909D181783970C17879700179B97085687D60C168B96051F0D9
:2065E0006FF948E004F14805286009F09FFF28460BF0FCFF3FE0884794F87C10491E84F85D
:206600007C10A9688847009801788DF80410A0644378CBB1DC2B0DD0DD2B0BD0E42B09D07A
:20662000F32B07D0DE2B05D0DF2B03D0E82B18BFDB2B0BD105F0FCF89DF80400162805D148
:2066400068460BF0D3FF01E009F070FF9DF80400162803D004F148000BF0C8FF384651F00E
:2066600037F8002869680090C5D1F00BA9464446C00305D0404F50F029FF002800909FD1A1
:20668000700905D32E208DF8040001A809F04EFF700805D325208DF8040001A809F046FFDE
:2066A000B00805D326208DF8040001A809F03EFFF00805D327208DF8040001A809F036FF25
:2066C000300905D329208DF8040001A809F02EFFF00908D300208DF805002D278DF804703D
:2066E00001A809F023FF300A08D300208DF8050030278DF8047001A809F018FF700A08D3B9
:2067000000208DF8050035278DF8047001A809F00DFFF00A08D300208DF8050023278DF87E
:20672000047001A809F002FFB00A08D300208DF8050036278DF8047001A809F0F7FE606C4A
:20674000D9F8041080B18847616C00270091D9F8081067648847009804F14806306009F0E8
:20676000E5FE30460BF042FF0020BDE8FE83C0462008002008190020D41D00202DE9F04355
:20678000894614460546ADF12C0D69460CF074FD5FEA000800F0C580AD1C0226284602A902
:2067A0000BF081F8071C00F0BC809DF80900814509D0ED19BF1908F10200BF1CAD1CBEB2EC
:2067C000B042EBDCADE0401E05F1020500F08D80401E50D0801E33D0401E26D0401E20D05A
:2067E000401E18BF622040F0AC80202F40F0998020462946082251F057F8083504F1080025
:206800000822294651F050F805F1080704F110000822394651F048F807F1080518340822A7
:206820000BE0022F7DD1022207E0202F79DC20460021202251F054F83A46204629467DE037
:20684000042F6ED120462946022251F02DF8AD1C15F8010BA070287800F00100E0702878F4
:20686000C0F3400020712878C0F38000607128784011A07164E00B2F53DB0DF11200002111
:20688000162251F02DF820462946042251F00CF82D1D201D0222294651F006F842F20B0082
:2068A00004A90BF0E1F9BDF81000A188884238DCA81C10F8011BA17110F8011BE17110F812
:2068C000011B217210F8011BC1F3C202A2720DF1120200F0B7FB20B39DF82700A0819DF860
:2068E0001670E78104F1100025E0052F19DB0DF112000021162250F0F3FF15F8010B207034
:2069000015F8010B607015F8010BA07015F8011B0DF11202C1F3C2002071284600F092FB38
:2069200008B967200DE09DF82700E0809DF81670278104F10A0011220DF1160150F0B4FF09
