:20000000004B00207D510100FDC90110FDC90110FDC90110FDC90110FDC90110FDC901109C
:1C002000FDC90110FDC90110FDC90110FDC90110FDC90110FDC901103BCA0110A4
:20003C00BD0400214D040021810400218504002121050021A10500215106002179060021DA
:20005C00F8B51047F8B50E4600210125AD0430470A48037800F00FF89B070BD0124C2078D9
:20007C00FF2807D0FF2121700E490F24240220436031C882F8BDF8B5014800476B02002147
:20009C00E54C0000094801E00848000C064C05492278FF2A01D1CA7A22706031C8827046E9
:2000BC00801C004700620840C8060021070F0808F0B4084710B501480047000089090000A8
:2000DC0070B503461546012906D0002906D0114A2846FFF7B5FF70BD0F4800E00F480524E5
:2000FC00834203D84008641E002CF9DCE340012040031818820B012907D006490023803111
:20011C002846FFF79FFFE0B270BD0249044B6C31F6E70000835C0000A0BC862300830D2357
:20013C0098060021F8B51A4E0546716B1948CC09E401002D11D01849097802290FD0007B18
:20015C00044372B60120154F4002B847114820380088C109C90704D016E0C07AF0E7407BE5
:20017C00EEE70F497463CC61400AC0070CD001208003316B002D01D0014300E081430846D1
:20019C0031630749403948630020B84762B6F8BD80020021880000219B0200217B3F00008B
:2001BC004040044010B5224A0021516121498968C90009D42149204BCA0598424B6B01D84D
:2001DC00134300E093434B631D49FFF771FF10BD38B51A4D287F002827D11A480088C009E2
:2001FC00C00722D1124C606900281ED1684600F04FF868460078012817D168464078102831
:20021C0013D208206061686A4009400120600E4A0021D1620D4A0221116001210843206094
:20023C00032108436862206038BD0948804738BD00400440180000210000930880020021EC
:20025C00CF680000680000210011044080E200E0C33B00000749002800D00420064A72B649
:20027C000978C90701D0105800E0802062B640B2704700006B0200215860044010B5034CF9
:20029C00FFF718FF20680028FAD110BD0011044003B40148019001BDA56F00000000000035
:2002BC00010003000A001F005900EB003902EA04F9099712EB1FA132784A0A66FA828C9E28
:2002DC0063B617C964D6EDDEC1E3E0E5FF000000A36100007F1407134D00F1242E1F133FEA
:2002FC00B00A3F0007FF0000304000400140034007400F404F40CF40CF41CF43CF47CF4F25
:20031C00CF3FCF2FCF1FCF0F000000000F00080000003F00000040003F00000004006800A8
:20033C000E00DC00060043001A00050000000000020000003F00000000000400C00000004A
:20035C000400C0000000070050C00091007070C00091007082312100319110B1007001812B
:20037C0001B100A18231329110B101911110418141224F40F106007051C0019130181039D5
:20039C00833108D01831416F3100319110B1831414165B680070251050C00091F4C3C0C007
:2003BC002014036F3110410422C082312100319110B163393110410482C0823121003191C2
:2003DC0010B163393110A2C082312100319110B1501015310514059200703F6452C03110EE
:2003FC0031066131C102426412C13110213971065131E102426400708A65996588C0208278
:20041C0050398039001E9F4041C001301814181A89C0308260398039001EA94041C001306B
:20043C001914191A3C64369110B1349110B154B0007154A064B0F0800022AF404012B09002
:20045C0032B053825339533985643F6411C122C1426470C1C26811C1C2C0426470C1C76815
:20047C0050C00091277298921516141642105310F0C12182313131398139313151B070B293
:20049C0072652772999270B262107310F0C331822131213981391B107265E2C08231608289
:2004BC0080318039020061B00071329110B151A061B0277230C2F36800008012B09032B012
:2004DC00007050C000912772999262107310F0C3318221312139813951B070B27E652772CB
:2004FC00989270B242105310F0C1218231313139813931311A107E6551A061B02772B0C08B
:20051C0018693F6401C122C1426401C1C2C04264151A3C64359110B153828564C012B09040
:20053C0032B000703F6472C281C0426422C111C1426402C011C1426462C031C3426462C319
:20055C0011C1426402C311C14264538253398564E2C347641122404142C281C8426452C275
:20057C0011C1426472C2E1CE426402C281C8426402C201C84264B0C0546900703F6442C234
:20059C0001C8426452C211C0426472C2E1C0426402C001C1426462C001C3426422C101C16F
:2005BC00426462C301C1426402C301C1426453828564007061B000711214231C7A4D33911F
:2005DC0010B10070329110B17269007061B000711318321C8649329110B10070339110B1BC
:2005FC007E690070C2C047641510C2C01216476441311514C0C0803105145410A078040478
:20061C000070E6C0863101CC161467106182F0C3010417140070067305720B720E7250B060
:20063C000071818060B050A092804122C3458080F1C11004301601110114016CD661D761A0
:20065C00D861D961DA61DB61DC61DE61E061E261E461366339639180F2C0210421318280DE
:20067C00422A1214321601112114016CEE610B62F4613963EE610B62F4613963E661E661E8
:20069C00E661E661E661E6619464E661F964E6612A65E6615665E6614667E6611012B09011
:2006BC000E720673057210123090A761F0CF3C67D4C103C0C0C354644078509150781092CC
:2006DC00607820927078309280784092907860923078909110824039F006011010311014C6
:2006FC0000924267E661BCA0E2A054A0F08050221546408000222B470D6240A02D828D313D
:20071C008D391082F1C0100409101A824A391A041082803910040E10AB10BC10C2106364AD
:20073C002972E0CF3C6713B003B0C86653B050B054B064B013B0A5661082E0223846AE66FD
:20075C000071418001222B47F08010224B46F022184764B03122384263B0CE661082E02256
:20077C0038467066386264B06F818F318F3DD0DFFF923C670071418001222B4764B0F080B1
:20079C005022654263B01182C1226046CE6605671182D12252467066526261817281813126
:2007BC00813D8231823DC0EFF19202933C670B62B081C091D381978290A2D3187F4EF30B3F
:2007DC001316E31CA44AC391E3813B149062BA1C8B46231E8B4AE31C8B4E90B207228B4221
:2007FC0090A21B1A9662E31CA44AC391E3813B18AB1CA04E9B1CA24ABC1CA442B21010821C
:20081C00D0229D42F0801022A4466364A566A462AB1094629B10946200703082F1C010044E
:20083C0063B00071A86ABC10E0B00070B281C291D281018212185181121841828131813D85
:20085C00121CBF4AE2B032B0B0DFF2923C67F1C72114C34E12C86291729131B0E1B000706B
:20087C0008C006C000C86091709100700182B081C091D0811018518110180614E1804282ED
:20089C008231823D201CE44AE2B02122E84632B00510A0DFF5923C672122E842E2A032B0EC
:2008BC0031824139F0C00104011EF642181610C01030081C04476010103C0610F1C7611437
:2008DC00FA4E16C8669171818131813D161C014B769131B006C008C0007061818131813DC7
:2008FC00408280390118F11C174B0114B080C0221747BCB033B090EFF1920F933C6700704E
:20091C0003A063B064B0EFB056650071408000222B4764B02A65EFA00071408000222B47DB
:20093C0064B003B03862018262818231823D80EFF19202933C6703A05665E661A2806364AA
:20095C00E66150B00071E661E092D08200223D47C0B20070A080F022594330B002C162312C
:20097C0001C0A080001E5243F0225343A0F56031603953632010101A136F236E11161216EE
:20099C00546B007021CA000011C9000009AD00000000000000000000B5B30000878501001C
:2009BC00392201002180010021790100057901008D29010000000000000000009D1101009D
:2009DC00894201009D55010041DF00009B8101000E3FA70C18B80BDA500AD33809CD2C08DB
:2009FC00CB2407C92006C71C05C61804C51803C41402421001C310004100F6C0080E3FAB55
:200A1C000C2BBC0BE5900AD85809D24008CE3207CB2A06C92405C82004441803C61C02C502
:200A3C001801C41600C312F6C0040500DF410100D96D010051D30000678501004D860100C6
:200A5C00C9200100016E0100BF850100CB850100C5850100050000008D8601000000000026
:0E0A7C005D1D0100EC0900000F190A00000FBB
:200A900000FD00000F111D550100700A7F0000A0090000480070BD800034241C002000315A
:200AB00046CE01B008010104AF12023FCB18949CF70600C8CD0007000032DD0FC8E038C4E3
:200AD0000D00F28100C7001405C9E001F800F2952B8A01F32201F102CBEFF002E415E4AF86
:200AF0000E25FF7D0100F9380100852D86E7350208E7CFF6030A24B52119DA40B00300FA13
:200B10009803FFE50538BF000040130020FFE183FE015019AD00008002035704401F01B36C
:200B30000801B48201BC590303702B870810FFE084FFE1D74E9055FFE20701FA2103FF0FAE
:200B5000008000230798E0EF08003FA7FFE1930300EB8005FFE0040478800188FD6A03F5D9
:200B7000F40110580000BFFC0400C42264FFEF42B1FF220100BB830100ADF20030793476CB
:200B9000FFEF3C1DE00000597D11523EDF067017FFE1FF000330FFEF0F0231026703070F77
:200BB0000FFFE304D3FEFFEFD4012C0200208BF9013300DF0030FFEF06EDF71D7F44FFEFE1
:200BD0000ADBC0A05BC72AA1257F340718FE7CB0403700A3840600FF2040007F644040004C
:200BF000FF030507B123053305FF8305480A0306B87AFF02009F84020044C7FF0304010278
:200C100063841000FF4302B0040200DF7DFF838803008460F135FF88601A418C602382FF8E
:200C3000A388FB000200F80C1F4309000063003027B166E981FE286F106D3F1C88C0887124
:200C500088514932C5FD0D6E704000011B00007DC800B002002A00028AB077180C0EFFE042
:200C7000260002887077440D0E70B01200024A507DE0017002000C000389F07C8AF18AD1F6
:200C9000049E0100054E807B1D6B3B7F340C1800200031B2783904FFE59170F82251F307B7
:200CB000E3C2014E717B3F03FFEF020F2005EB80040030FE5D3F2E088080E80031047F26AD
:200CD00084E9C557D20000617D8186D600301B00200175F4027D02F530001C60005000FFA8
:200CF000A00040018002F004D9E024B0FFEF0E40118E7D01004F84190020003101BF02A008
:200D100001B098003128EF2254A9702E6DB3363F0F087AB00F143062AF1D681A002000314B
:200D30005570003478003480003488003435900034980034250EA0477271480C4D02F1FF39
:200D5000E1C805F00031D0003455D80034E00034E80034F00034239C010033A6B1A669376B
:200D700070F0FFEF12EFD576010083C1FF0014B2FFE2CC7F90A7C1401C8433B8890600F34E
:200D9000FFEF0CF0003446F031C1C0BC34EF10056000E980010032BC542AF00031C40034FA
:200DB000CC0034D4003455DC0034E40034EC0034F4003425FC0034040B3000310C003478D9
:200DD000B20D7FFFE7AC1623BF004275FFF0007D0000003C1C00203000305934007000F152
:200DF000004B00700500927F2001010000D8290174000044FFF000F30100000700B9C81AB1
:200E10000020EC01A80252381C0133340100052000313C0034FFF0009D0000016CDC02005F
:200E30007200C08CEF1900200300C47969011F00A77F0100FFF000FD000004E81800209824
:200E50001A47002001010000310029F80170000031FFF0007B0100000F00681A002001618D
:200E700000FFF000493001009F83010075840100003D000000E8180020FFF0000000000090
:200E9000020000007F120000000F08000000FFF00001000000FFF00001000004FFF00001C4
:200EB000000004FFF0000000900A000008020020DE0D000044010020060E000000010020E6
:200ED000270E0000A4010020460E000078010020630E0000C8010020800E0000E40100202E
:200EF000900E0000401C0020980E000000020020A00E0000EC010020A70E0000F00100207F
:080F1000AE0E0000F801002004
:201000003C000000000000000000000034100000000000000000000001000000000000004F
:1C10200000000000000000000000000001000000000000000800000000000000AB
:20103C003400000000000000000000006810000000000000000000000100000000000000E7
:14105C00010000000000000000000000080000000000000077
:2010700030000000000000000000000098100000040000000000000001000000FFFFFFFF87
:10109000FF00000001000000080000000000000048
:2010A0002C0000000000000000000000C4100000040000000000000001000000FFFFFFFF2F
:0C10C000FFFFFFFF080000000000000020
:2010CC0038140000E410000095A1011091A70110A1C2011009B2011041B8011000000000EA
:0810EC00000000002D000000CF
:2010F400280000000000000000000000141100000000000000000000FFFFFFFF0000000093
:081114000800000000000000CB
:20111C00341400003011000065C2011069C101101BC2011091BA011000000000000000006D
:04113C002F00000080
:20114000341400005411000071C20110A5B6011099BF011045B601100000000000000000BD
:04116000300000005B
:201164002400000000000000000000008011000000000000000000000000000008000000AE
:041184000000000067
:20118800240000000000000000000000A41100000000000000000000000000000800000066
:0411A8000000000043
:2011AC00240000000000000000000000C8110000000000000100000000000000080000001D
:0411CC00000000001F
:2011D00000000000BC1B002004000000000000000000000020000000701000003000000034
:2011F0001C110000C41B00200400000000000000000000000C000000301300001800000048
:2012100040110000CC1B0020040000000000000000000000240000004813000018000000CB
:2012300000000000D41B002004000000000000000000000010000000A01000002C0000009F
:20125000CC100000DC1B0020040000000000000000000000200000006411000024000000CE
:20127000FFFFFFFFE41B00200400000000000000000000002800000088110000240000005A
:20129000FFFFFFFFEC1B0020040000000000000000000000580000003C100000340000003F
:2012B000FFFFFFFFF41B002004000000000000000000000010000000601300001800000054
:2012D000FFFFFFFFFC1B00200400000000000000000000001C000000AC11000024000000CA
:2012F000FFFFFFFF041C002004000000000000000000000038000000F4100000280000003A
:20131000FFFFFFFF0C1C002004000000000000000000000054000000001000003C000000D5
:1813300018000000000000000000000040130000080000000000000032
:1813480018000000000000000000000058130000080000000000000002
:18136000180000000000000000000000701300000800000000000000D2
:0813780002000000E8A40100DE
:041384000100000064
:0413880000000E0053
:04138C0000000F004E
:041390003200000027
:041394000100000054
:04139800301B0020E6
:04139C00000200004B
:0413A000F5850100CE
:0413A400FDC901106E
:0413A8000000000041
:0413AC00000000003D
:0413B0000800000031
:0413B4000000220013
:0413B8007019002088
:0413BC00010000002C
:0413C000481B0020A6
:0413C400080000001D
:0413C8000000000021
:0413CC00000000001D
:0413D0000000000019
:0413D400080000000D
:0413D8000000000011
:0413DC00000000000D
:0413E0000100000008
:0413E400981A002033
:0413E80006000000FB
:0413EC0001000000FC
:0413F0000C180020B5
:0413F40000000000F5
:0413F80000000000F1
:0413FC0000020000EB
:0414000000000000E8
:021406002900BB
:021408000100E1
:02140A002500BB
:02140C002F00AF
:02140E003000AC
:021410002D00AD
:021412000100D7
:0114140001D6
:081418000300000094A4010090
:081420000000000000000000C4
:0414280000000100BF
:04142C0000000300B9
:0414300083C4011060
:041434003C14000064
:041438003C14000060
:04143C0000000000AC
:041440008000000028
:041444008000000024
:0414480000000000A0
:04144C00481B002019
:04145000F581010021
:041454002000000074
:041458002CA40100BF
:04145C0058A3010090
:0414600009C30110AB
:04146400BB2B01009D
:041468002B2C010028
:04146C0095C801100E
:0414700097C8011008
:041474000000000074
:041478002BA40100A0
:04147C005CA201006D
:0414800074A2010051
:0414840044A201007D
:0214880008005A
:02148A00090057
:02148C0001005D
:02148E0000005C
:01149000015A
:041494000000000054
:041498000000000050
:04149C00000000004C
:0414A0000000000048
:0414A400918601002C
:0414A80001610100DD
:0414AC00A97301001F
:0414B000E9640100EA
:0414B400E7650100E7
:0414B800A96901001D
:0414BC00A92801005A
:0414C000C9830100DB
:0414C400613D010085
:0414C8000DC801103A
:0414CC001DC8011026
:0414D0000800000010
:0414D40024000000F0
:0414D80018000000F8
:0414DC0028000000E4
:0414E00020000000E8
:0414E4003C000000C8
:0414E8000C000000F4
:0414EC0034000000C8
:2014F000CA482DE9F04F0C4601210170DFF82493DFF82483DFF824A3DFF824B3C4494FF0EC
:20151000000C2027ADF14C0D65461F4081F800C0C7490E9391F838600D9205EA020008BF05
:2015300000287AD10D984FF0E047194662460F4002EA000008BF002843D10E9E0D9B4FF441
:201550008601B9F8B200DFF80CC3CDF8289012EA060701EA030108BF002919D1BC4912EA9B
:20157000060701EA030108BF00296FD0374643460D9E1C8103F130015881002F81E8C0008C
:2015900004BF311CB1F1806F60D102285ED111E0374643460D9E1C8103F130015881002FA4
:2015B00081E8C00004BF311CB1F5803F4ED1B0F5505F4BD1186A674643693868214698472D
:2015D00042E04646C449B6F9087091F90000BC42A0F10100087017D1728906F1300003C8B2
:2015F000002904BFB0F5803FB2F5505F08D0002904BFB0F1806F022A02D012F04DF803E0B9
:2016100013F054FA16F0FEFB524692F90000401E10706FF00101318114E043466FF0010079
:2016300003F1080108806EB1B4480078832802D08120594608704646316919B160468847E8
:201650002146E8E7CDF82890B9F8B2000D9A0E9E02212F461140374008BF002900F07C83D2
:20167000A84A43F201418142119200F04F83C91C814200F04B8398490A4691F9001047460B
:20169000491E1170B7F908108C4205D043F60401814240F04A8346E3654890F838C007F19B
:2016B000300090E800034FF482062F4617EA090706EA080008BF002810D15748303003C88C
:2016D0004FF400322F4602400F4008BF002A02D111F0E2FF29E313F0E9F926E30020BCF112
:2016F000010F4FF081045D460F9003D0287808B116F0AAFD2C70824C002067786081119EF2
:20171000E770054635702069DFF8FC91017A457A05F0070201EB022135F07F05A1F10401FE
:201730001FFA81F840F0D982B8F5006F80F2D5820A30414610F0C0F9E16904F114000522A3
:20175000083116F09BFBA8F1030305201FFA83F8E27DA57D6081217E354B0C96C2F3011063
:20177000109093F83800617105EB022518B91099022900F0B2821099022900F3AE8260B13C
:2017900015F0070F00F0A9825C480078862804D105F00700022840F0A082281300F0020AB5
:2017B000BAF1020F58DAA37805F00700022841D14E46D6F804B0002B3CD1E16909A801226C
:2017D0000D3116F05BFB06206081D84780460B96C24F4A48B6683A680078862822D122B97B
:2017F00016F032FD48463A6886689DF9240016F03FFF9DF924705077002090774046D7779C
:20181000B04705F0100011F029F90DE0961B00208C1B0020D812002010170020921B0020F6
:20183000BA2E00204046B04716F07CF959E2C04620150020314800780026862808BF01264F
:20185000CDF82C905EB1002013F0A2F9E77805E000000C8CE4190020CDF82C90A37887B15D
:201870007BB9012F00F03682022F03D115F0070F40F03082032F04D105F00700032840F0EC
:201890002982280908D315F4405F00F02382C2480778002F00F01E82BAF1020F02DAA80AB2
:2018B00080F01882BE480078C0F3810B8611BBF1010F00F00F82012E00F00C821099B74828
:2018D00002290BD010F80B10805D4018C7B20EB3E8091FD3BF1E0EE0931B002000EB0B01ED
:2018F0008019097900794018C7B2E8090ED25BEA06030FD0BF1CFFB20CE0C046BE2E0020EB
:20191000042E0020BC2E0020C01500205BEA060308BF0227C5F30029A7EB09008045C0F235
:20193000D981A8EB07002909484480B2208124BF25210F910F994018743080B216F07CFBF6
:2019500094F80280E060002800F0C4810021742210F030FC0020B8F1000F207103D10C9907
:2019700005F0200008700C9803784FF00008002B53D0B9F1000F50D1D548008805F007019A
:2019900003291ED18108424609D3544991F82E30A3B90B681BB15B7E33F07F030ED16AB990
:2019B0008008C24607D3D6498B68887813B1984794F8048010B9BAF1000F02D004202071DE
:2019D0008046D14890F8383013B11098022824DACC490220002301F10A0AB8F1000F8AF8FA
:2019F00000006279CB72AAF1020007D000F1020A9AF8001041F010018AF8001002710A9AC1
:201A10000521A2F87810C2F8840015F047FC5046032110F051F894F80480E16801F1740026
:201A30004860886523890B812089A1F85C0028090ED3C9F1030082B2A1F85C20886DD54900
:201A500016F01CFAE1688A6DB1F85C00801888655348D04B0078C0F3011218788D81B9F154
:201A7000000F00F0780040EA020048EA00050D744FF0FF038B730CBF6079002081F83060EF
:201A900081F83AB081F849006089002FA0EB090085B2658100F01381E0693A46E780291853
:201AB0000831684616F0EAF93D48EE19B5B26581E16800780A7C6E46C0F38103C0F3011A6D
:201AD000C0F38108002B02F0400949D0C0F301100023022804D1D0090ED201E0700D00201E
:201AF0009DF801209DF8000000EB0220A1F844000DF10206A1F84200AE4AB1F84400B2F831
:201B10005220824203D04FF6FF72824222D1B8F1030F12D072783078A64B00EB022082B2DE
:201B30004A86B3F85010B61C0120914211D04FF6FF71914218BF00200BE0E0683146323088
:201B500016F074FDE0689B493230473115F0F8FF08360346002B00F0B5802046E168C07D39
:201B7000831125D0BAF1020F03D0087CC00903D309E059EA080206D172783078B61C00EBBE
:201B90000220A1F84200032B0CD07078327802EB00220A850CE0C0466C0F0020A0A401002C
:201BB0001B2E0020E0683146283016F03FFDE16888890009C0F08380886D3A46694616F013
:201BD0005DF9E068816D79188165E669B0F85C1001227F18A919A0F85C7008310DF1250053
:201BF00016F04CF96F1CBDB26581E1689DF82500896D0870E2689DF825609DF82530906DEE
:201C1000401C9065B2F85C00401CA2F85C0006F0070082F82400C3F3C10182F825102089A0
:201C300092F824708046002F4CD0604F7F183E78361D8642E68045DCE0692918324608318C
:201C500005A816F01BF93A789DF817C0111D481980B29DF81450608105EB0C60E3689DF8B8
:201C7000165000EB05409DF81550042900EB052098610BDDE06806A9521E1C3016F0FEF8F7
:201C90003878E3686844C07D83F82600986D05A9324616F0F3F8E068816D71188165B0F846
:201CB0005C10A8EB06077118A0F85C10791E89B22181B0F85C2001818918A0F85C1000F0CC
:201CD00041FC0EE016F0E6FB11F0E6FC09E0C0465416002016F014FA03E016F011FACDF8B9
:201CF0002C90DDF82C80D8F804008047E1690A68002313710968E161D8F80810884714E03B
:201D1000981B0020081A00202015002040462A4F80784146401C887097F900003946401E0A
:201D3000087011F0B9FC15F07DFC26480A99214F00226FF0010690F83800A1F8B2203E81F4
:201D500010B11198007808B916F05CF81B481B4990F90000401E0870174890F9000010B99F
:201D7000134800210170154890F90000A0B10D9A0E9F02214FF0E0401140384008BF0029A0
:201D90000ED00E4890F90000002809DC16F05CFA06E0C0461A2E00200020014605F09AF9CA
:201DB0000749002013B00870BDE8F08F70A401008A1B002010170020931B0020921B002088
:201DD000961B0020201500202DE9F04FCF4CDFF840A3DFF844936088ADF16C0D4108C0F0FD
:201DF0008E800CA808A911F0BFF801287BD14D4624352868D8B10769CFB1062002268DF86B
:201E100008000022ADF80A600FADADF80C2002AB009593E803000C23B84740B9BDF83C0014
:201E3000E085109F27631198606316F0C9F89DF82D00012806D0022084F82800BDF8221053
:201E500021840BE0032009AF84F828003A6804F120010A6078684860BDF82210BDF82000FD
:201E700009AA11F061FE011C02D0A4A016F0C0FB022014F04BFB5546BDF830009DF82C702E
:201E900028870DA985F83A7005F1480016F054FBBDF8320005F13E0609A9A5F846003046E7
:201EB00016F04AFBBDF82200298FA887502015F089FEB5F84610532015F084FE4A2031462F
:201ED00016F0B2F995F83A10E12015F087FEA98F4B2015F077FE102105F1080015F05EFD33
:201EF0000120207005E0012014F010FB002016F025F9A01C012115F043FD204640888008EF
:201F1000C0F00782206B14F06FFC00274421384610F0A0FB00B10127381C2ED07D4D0420C0
:201F30000222294616F02CFA061C22D029460A881006000C40EA2220C0F380360880C00B73
:201F500017D38D1C01200222891C16F019FA061C0FD0A91C0320022216F012FA06462978CF
:201F7000AF78EB78687840EA0120A08143EA0720E08116F065FA304600E0002004F10C05E5
:201F9000D44EB5F9028000B32888801014F094F8CF4F394610F0CDF831460BF055F914F036
:201FB00081FA28801FFA88F0801014F085F8394610F0BFF831460BF047F914F073FA00B241
:201FD00001216880C0A016F013FB0020452110F041FB28B3012017A9022216F0D1F9051CE0
:201FF0001AD0BDF85C000025C013C003B0F5004F08BF0125B0F5004F0ED1002017A9022263
:2020100016F0BEF9051C07D0BDF85C00BDF85C10000240EA2120A08016F012FA284600E0DC
:202030000020271D3D8820B9CAA0012116F0E0FA1CE0C5F30B0014F03CFD83468846281354
:2020500014F037FD05F044FEDDA20CCA0BF07CF80B460246414658460BF076F810F06EFDAB
:2020700031460BF0F1F814F01DFA3880D74F387878B10020432110F0EDFA50B100208DF812
:20209000660001210DF1660013F0FEFE387016F0D7F9D948006843F69821B1FBF0F016F0BA
:2020B000B1FB3B78181C1BD00020432110F0D2FAF8B113F08BFA387016F0C2F97988BA8865
:2020D0003B7804F110050806000C40EA212011062880090C41EA222841EA2221618204E030
:2020F00004F11005B4F8128028880121012B397014D0B8A0012116F07BFA3CE0417574685A
:20211000204572726F723A20307800C0B81300207C140020902E0020D411002000B214F08F
:20213000C8FCADA797E80C000BF00EF8ACA20CCA0BF00AF8ACA20CCA06F0F2FE10F0FEFCC6
:2021500031460BF081F814F0ADF980B22880404614F0AFFC97E80C000AF0F6FFA4A20CCA35
:202170000AF0F2FF10F0EAFC31460BF06DF814F099F980B268800020772110F06BFA0028B2
:2021900000F0B680F7200DF15E01062216F0F8F8074616F055F95FB19DF85E000127802803
:2021B00006D19DF85F0018B99DF8600000B90027002F00F09B80DC489DF861209DF8621023
:2021D0009DF86360038841EA02210A0142EA2612B0F90A50B0F90260C3EB2211D210A2EBF1
:2021F000430206FB02F3B0F9042049430E1302FB06F1891301EBE32101EB81028032491020
:202210004FEA222EA1F57A418A105243531303FB05F6B0F908504FF4004C4D436D1005EBB9
:20223000E6050CEBA546C5887543EE13B0F90A506B43B0F908504D436D1005EBE30563467B
:2022500003EBA543C5885D43ED1345D0B0F90E305943D312B0F910205A4302EB41029DF8F3
:202270005E30B0F90C10090401EBA2010A139DF85F1041EA03219DF86030090141EA231161
:20229000AA4B40F6354C0CFB11310CFB1211CA0F19BFB1FBF5F149004900B1FBF6F1B0F9FE
:2022B0001460B0F91630B0F91200CA088D085243520B5A4306FB05F35B1303EB2233C01878
:2022D00001EB201109E0C04654454D5000C046C00000003D0000003FE169642004F118028D
:2022F0009EFBF0F31360B1FBF0F05060012F03D08BA0012116F07CF98D4801687D2707FBF4
:2023100001F04009606103F00DFE8D48022115F037FB55462889410805D305F108000121F8
:2023300015F02EFB2889810805D305F10800022115F026FB2889010968D395F8540005F139
:20235000080600285AD0401E42D0401E05D0401E3AD056E04C47485400C095F85010472089
:2023700015F03CFC95F85110542015F037FCA98F4B2015F027FC298F502015F023FC09272F
:2023900001238DF8597095F83A008DF85A3016AA8DF85B3067498DF8580018201CF018FF2D
:2023B000B4F85A00B4F8581088422AD195F85200012826D13046202115F0F0FA21E0C04682
:2023D0007B14AE47E17A843F032018E0882E0020022014E048554D00000000000000F03E2C
:2023F0000000000000A064400000000000004440000000000000594008A50100012010F09D
:2024100053FF3046082115F0BBFA2889410911D395F8520005F10806032818BF042802D13E
:20243000A86D14F0C9F913F02FFC3046102115F0A7FA2889810907D310F0F4F905F1080036
:20245000202115F09DFA2889C10907D30FF0FAFB05F10800402115F093FA2889400A0DD37A
:2024700095F8550015F06AFE41F2883014F0D4F905F108004FF4807115F082FA4D46E8888B
:2024900040080DD368780026000904D3A878012801D113F091FA6E70A81D012115F070FA41
:2024B0006088002839D10A200825234CADF812004FF0FF37ADF81050616A059704A8884719
:2024D00000282AD10720ADF84850616AADF84A0012A88847149E1596F8B918499DF84E20B0
:2024F000087890420ED19DF84C004A78824206D089684B6C33B100213246984702E0304602
:2025100001F004FE159840B1ADF818500320ADF81A00616A079606A888471BB0BDE8F08F57
:202530005052455300C046C0442E0020000050C3285009407F850100C0150020601B002090
:20255000BA1300202DE9F04FB94C0C3CE0686189E2692589806DADF13C0D0E4689180831AF
:202570002A4615F08BFCA81986B2E068816D6D188565E0690122311808310EA815F07EFC8E
:20259000E069761CB5B2042265812918083104A815F074FC9DF813109DF8100000EB016099
:2025B000E3689DF812102D1D00EB01409DF81110658100EB0120049015F05CFDD863049822
:2025D00015F032FAA3F84000EA2015F0D4FA0221B648E2680170117C2079084310749DF99B
:2025F000380016F045F882F846009DF93800118982F84800002082F8470002F17400906529
:20261000B2F85C00401A5168091851609089830A18D2030957D310F0070F07D000F0070015
:20263000032812BF081C5068401C48E05068C17801F00703491001F0380101EB4301401837
:20265000001D3CE0171C02D115F0FEFDE268B889800A2ED379684878C6112AD13E897966FC
:2026700000204D780B7805F07F056D0005EBE3157E2D0DD07F2D09D003F07F031818801CC6
:202690005B1880B2991C8642EBDC08E0002100E00121801C87F8601080B2864201DA0020B6
:2026B00005E07968411879603989091A3981A7F86800506E10B1B2F86800B0B15068506111
:2026D0009089000916D292F86000002800F0FC80104611F0F7FEE268D06C002800F0F48004
:2026F000B2F85000002840F0EF8015F0C1FE0020E06024E24FF0000B1546104605A9CDF871
:2027100014B007ABCDF818B095F82470CDF81CB006AA04F0D8FB002840F0CB80059A6E6964
:2027300068682B89311A581A1FFA80F80AB915F08BFDB5F85C0000900196CDF8088006984C
:20275000001D03900598A969AB6D3A4615300AF0E3FF002840F0AD80AD4895F860302E8903
:20277000C15D701A288113B1284611F0ABFEAE8906F00706032E02D168680078E87395F8AE
:202790000F90732009A914F083FB83200DF13A0108F00AFCDFF8D082DA4651460AE0C278E5
:2027B000012A03D1002F08BFDC2027D0001D491C0990C9B29DF83A00884279DD0998827801
:2027D000032E07D00378B3420DD098F800300BB1022E08D0032EE9D10378032BE6D103467C
:2027F0005B784B45E2D1BB10B3EBA20F05DA02F0030207F003039A42D1DD50468146059842
:2028100095F80FC090F814E0514601E0491CC9B28E4549DD07694B00032E03EB070209D1C2
:20283000FB5C032BF2D152786245EFD10BE0C046102E00201278B24205D098F80020002A93
:20285000E4D0022EE2D10698077D002F08BFB9F1DC0F2DD0A869B0F1FF3F23D0712008A902
:2028700014F016FB5346089AA9690598824206D106989A4600EB8A00C068884210D85B1C6A
:202890002C32022BF1DB0698491CB1F1FF3F00EB8A00C16002D1079801218170584608E04D
:2028B000DB2007E0DB2004E0DC2002E0BA2E0020DD206870E26850709069577850651FB135
:2028D000F22015F058F9E2689F4DDFF8849295F83810002900F0AD8090899C4EDFF874B242
:2028F00000F00700022858D1A078002855D15078002852D1E1684FF000080CA88DF8398083
:20291000283115F093FE06F11C01E7680888EB6D401C0880786E0DF139020421984704F171
:202930000C0A30B94846006818B19DF8391080F8681015F013FA90B1E76897F83000022870
:202950000ED1DAF80000594602222031283014F0EDFC28B90BF116010CA815F067FEE768FC
:202970000DF12E0000906D6E786E0CA942460BABA84779480078862808D1F08BE768401C02
:20299000F083B88900F0100010F068F815F070FD4046E06015F0C6F8D3E0704B1A780027F1
:2029B00002B101277248026827B16F7817B115F0D5F928B91878002831D015F0CFF970BB1C
:2029D00053782779002B40F0BA809DF83800318C02F12803002F207002F11C0201F101007C
:2029F000308414BF082600265D490020086015F0C1F90146009658460192263006881A46AD
:202A10000D20334605F068F820B914F047FC03E074A4010015F024F81348E268017841B15E
:202A3000D5F880702FB13946104688470E48E26801780A9251B1907BFF287AD01046C17B80
:202A5000042976DC40680078072872D0938913F0070040D0401E56D0801E6AD1C3F30130DC
:202A7000022808D102E0C046581500205068007807282ED0FFE7108900285AD010464168A1
:202A90004A1C42600F788446C7739CF824607EB9002F4ED00A2F4CDA0189324EF01910F87D
:202AB000010C884209D0082F43D1082905D040E0C07B00283DD00A283BDA60460189491E97
:202AD0000181C17B0B3101700A99C87B401CC8731BE0322018E0244E96F8A1000F280CD005
:202AF00015F0E6FA48B9181300F00200022804DA0A984D462D1D2968884796F8D7000A9AD3
:202B10001074152000E0162010700A994D4605F1280013F0ADFC154E7068804795F8301087
:202B3000491C85F83010B1688847202015F0D4FB02E00AA812F02AFE4FF0000828E710F053
:202B5000ABFD0FB0BDE8F08F20150020381A0020700D0020340F0020BE2E0020BC2E0020FD
:202B70000C1A002054A00100A00E0020C0150020102E00202DE9FE4FE54980460122A1F1DD
:202B900030000260DF480768002FFCD0DE4ADF4EC027E048E04B17603268920808D2324676
:202BB00052F8042C03F14104120C42F0F00222704FF0000A8346C1F800A0DFF864C3DBF842
:202BD0000810D64D0191880E43D2480E41D3802018744FF6D802A3F8512018702868C0F3E1
:202BF0000464162CA8BF203C1F460F3F387800F01F001628A8BF2038844223D0624602F195
:202C1000980EDA4ACEF800A0261A022E05DC16F1020FB8BF6FF0010600E002263018166860
:202C300000F01F06844246F4F856A7F866604FF001061660E8D11068374617601068CEF89D
:202C50000060106828460068C0F30420162808DB06E0A5F1D0000068C0F30460162800DBDA
:202C7000203800EB2170401C162805DA10F10A0FB8BF6FF0090000E01520DE4F00F01F00AD
:202C900040F4F850A3F85900386880083ABFEA48C0F800A041F04061019E6246A5F138041E
:202CB000C80E8F0E80F0010000F00100106087F0010000F0010090602068C0F38367C0F38E
:202CD0008F21B00C23D2304640F3072000280BD542425046490805D17F0806BF0127391CA1
:202CF0004FF6FF71521EF5D1002810DD4FF6FF72490041F001018A4207D27F0047F001072F
:202D10000F2F92BF01210F27111C401EF0D141EA0741182013F08EFA2068D24E2768C94CEE
:202D3000A6F10409C0F3870107F0030041EA0021D9F8040040F2FF3253468FB22C21466851
:202D500000972746A7F14000B0470C3D2868C0F30D011C2013F06EFAB84955F8080C0140AC
:202D700000F07C400143142013F064FA55F80C1C01F47C000904090C0143102013F05AFAEB
:202D9000624955F8042C0968C2F30350C2F30345490813D2DBF800100B0510EB237003D4F7
:202DB0001028A8BF0F2000E05046090415EB217503D4102DA8BF0F2500E0554645EA0015AE
:202DD00002F47F4002F0FF01B8F1220F40EA054041EA000124BF02F0804211430C2013F0AD
:202DF00029FA974DB8F1220F32BF01202868C0F30070B8F1220F4FEA400040F0200084F8FE
:202E1000090126BF2868C0F3407001208E4EB8F1200F40F0100084F8090138BF514606D3BE
:202E30003168C80C00F44070C1F384510143282013F000FAB8F1200F26BF3068C0F3015006
:202E50005046B8F1220F4FEA400040F0600084F80C0126BF2868C0F3C0605046B8F1220FA8
:202E70004FEAC00040F0800084F8010126BF2868C0F345505046B8F1200F4FEA800040F403
:202E90007C40A4F89C0138BF70490AD3306801038A15920501F47C1100F00F00114341EACE
:202EB0000031082013F0C6F94FF48000A5F1D0012060674A886D40F21E236FF31F4083429E
:202ED00016D90868030E13F00F0F03F00F01C0F3034018BF491E072805D006280EBF0720F4
:202EF000801C00F00F0041EA0011A2F108000170DDF804C0CCF381477F1E13D07F1E3BD097
:202F100036E0C0469402224300600C40B03F005040100940AC3F0050156208408813005021
:202F30000000204328460068810C21D24FF480412160D2F80210430AC0F3033703F08003B7
:202F500021F08F010B4347EA0301C2F80210D2F80130060A66F30303C2F80130116800F0B3
:202F7000E70721F0E70147EA010004E02C2009404FF00040224610603B480068C0F3C007F3
:202F90000FB94020A0624FF40070206428684027C0F3C14040F0300084F8C800CCF38150E1
:202FB00050B3401E03D0401E1FD002211EE0012013F0C2FD06460420314610F035FC042040
:202FD00013F0BAFD8642FAD12248066826F07F4013F0C2FBD9F81400036807214FF06022EE
:202FF000300E98474FF4806020600321042010F01BFC08E0000009400420012110F014FC1B
:20301000154813F0A9FB203D2868144947F6180600F03F0084F8CB0F144B0E80D9F8002094
:203030001868D1680220884711480D4D076001212960BDE8FE8FC04694042A43FCFCFC00E0
:203050008C13005040A00C409813005000803F400A600840A83F0050BD37860070B00C407C
:2030700094046042A4010010B03F00502C20094000600C402DE9F04F0320ADF1540D13F057
:2030900083FBCF4C0025022004F11C0141F80C5F401E8D60FAD104F14000A94606270146DC
:2030B0007F1E21F80C9BFBD14FF0080BC549A0F800B0C54A8160C549121D22F00303CF1A01
:2030D0002762A361E361A66904F11C08944618460A46B14200F2F881B910E82700EB8101BC
:2030F00021F8049C4FF6FC761F8006EA0C033746D21A00F1E80607EA02012661EC39A0F832
:20311000E81028461CF0AEF86061B149D8F80000DFF8C4A220610A680AF10C073A60496873
:203130007960AC4938465A4614F000F9B84628B9CA4801683A46116040685060C848C94FCB
:20315000C0F8B070C0F8B850C0F8C850C64EC0F8CC50C64BC0F8B460C54AC0F8BC30C54F6B
:20317000D0F8B010C0F8C020C0F8C47009B1284688471CF0F3F8C04ECDF8389029460C220D
:2031900006F12C000FF016F8CE4F0222ADF820B041F270733763F08DADF82220616A736384
:2031B0001027099740F0BF00F08508A8884700280CBF0A9F2F1C0120ADF82CB0616AADF84C
:2031D0002E000BA888479DF83000544620700D99616077B1D021397087F80190B87087F860
:2031F000039087F804903946BD600220FD6012F0A7FBBA49182001221BF0EAFFE22041467F
:2032100015F012F818201CF0CFFA60706068B046C8F808000CF03AF8BC4F08F17C00A0607E
:20323000D8F80850AE4C49466762F520A56014F0D5FCAC4D05F1180005F10C010DF06EFCA4
:20325000A8600F2014F0DAFE00B1CB46042014F0D5FE08B94BF0100BA349A86815F0D8F8A6
:20327000A249C82205F1240011F0DCFDA048BBF1100F686011D1606A78B1C2686AB1FF20C1
:203290004FF6FC778DF81000F81CADF8120004AEADF8140096E803009047964F07F118004E
:2032B00007F10C010DF03AFC3860484615F0D4F84E46BD1C824605F8029F0220687015F0FD
:2032D000D1F9014638685246C9B212F0A5FD761C042EF0DB884907F124004FF4FA7211F04A
:2032F000A1FD484613F0CEFB012013F0CBFB484677210FF0AFF978B180498820182215F036
:203310003FF838B1B6208DF8440011A90122E02013F022FE15F094F833208DF84500772198
:2033300048460FF097F938B1F4200DF14501012213F012FE15F084F8484643210FF08AF9F4
:2033500060B11020ADF842000DF142010220024613F002FE6A49087015F072F8484612F05D
:2033700055F9012012F052F9664903200860606A002855D00769DFF890A16FB1009451466D
:2033900012A80A688988026012AE818096E8030001234A46B847606A002841D0C26852B159
:2033B000514612A80B688988036012AF818097E803009047606A002832D0076987B30DE01F
:2033D000C01500204DF90100BF2E0020004B0020C8FF0100C0A40100601B002006208DF8B6
:2033F0000800ADF80A0010AEADF80C9002AD009695E803004A460223ADF84020B847666AB9
:20341000BDF840007769A08057B1BDF8400002AE401CADF8400096E80300022210ABB8475A
:203430002BA014F09FFE606A0626002836D00769002F33D08DF818600425ADF81A500EA85F
:20345000ADF81C9006AB009093E803004A462B46B84798B90E98193081461FE0F0120050F4
:20347000080200205D5501007D5A0100856D0100F15D010059F30000B81300208DF8186011
:203490004846676AADF81A5006AE0F907C69ADF81C9096E803002A460FABA047CDF8389006
:2034B00048460EF0D3FCE0200E2114F097FB14F04BFA08F10200012114F070FAFEF784FC93
:2034D000FCE7C04620BF020026F8029B01E6C04654492053656E736F7200C0465194000048
:2034F000D411002058180020496301000D7D0100A57E0100A0180020451A0100442E002001
:20351000882E002000500940F6A40100B80200202DE9F04FADF18C0D1C911E93CC491D9209
:203530000A6806460DF156000260496841603046694612F015FE00281F9004BF002022900F
:2035500000F0F78102200027B61CDFF84CB32090D34D2297304602A911F031F85FEA0009DC
:2035700000F0E48122990EA816220EF023FE9DF809707F1E00F082807F1E40F0CF81B9F1BA
:203590000A0F40F3D681B61C316804A80160361D318805AF42F20B0039800DF1160111F032
:2035B00013FABDF81600BDF81410884200F3C181B61C16F8010B16F8017B16F8014B8DF8F6
:2035D000380016F8011B8DF839700EAA8DF83A40304605F081FDBF4909780028064400F0C0
:2035F000A8811F9C012904F1020400F091814FF400500DF14E0111F0E7F90DF14E000DF1A5
:203610005601082213F092FE40B11C990DF14E00082213F08BFE002840F07A8142F2010056
:2036300004A906F089F942F20B0005A906F084F942F205000EA906F07FF90DF1390142F22B
:20365000060006F079F90DF13A0142F2070006F073F90DF13B0142F2090006F06DF99DF8AE
:203670003B0028B1022840F0538142F2030001E042F20D000FA906F05FF949E1B9F1040FB2
:2036900040F35781B61C16F8010B16F8017B16F8014B8DF8380016F8011B8DF839700EAA72
:2036B0008DF83A40304605F017FD0028064400F040811C9806A905F09BFF9DF83600002874
:2036D00040F00A819DF83B0000287AD195F83170002F00F0FD8095F83300874207D095F825
:2036F0008C000A2801D10AF06DFDA86B1EE0AF6B4FF400500DF15E0111F066F913F002FF47
:203710004FF0FF08229C2190A24695F83100A04240DCA86BB8F1FF0F08D008EB8804001906
:20373000007912F089FFA86B071923D195F831300746002B08BF229C19D05846229C406877
:203750001946D8467F1F7F1DFA782AB1491E04F10104F8D17F1D0AE0804795F83310491CA9
:2037700085F83310D8F80810884795F83130A34200F094801C980CF037FB38710120F870D7
:20379000FC788DF8364038798DF83700229B8DF82330A1E0387911F061FC014608220DF1A9
:2037B0005E0013F0C3FD40B138880104219814F049FF82453CBF8246A046641C7F1DA4B23B
:2037D000A3E795F83070002F00F0828095F83200874207D095F88C000A2801D10AF0F2FC9D
:2037F000686B1EE06F6B4FF400500DF1660111F0EBF813F087FE4FF0FF08229C2190A2460D
:2038100095F83000A0424DDC686BB8F1FF0F08D04FEA48140019C07F12F00EFF686B07197F
:2038300025D195F830300746002B08BF229C1CD0DBF80400229C1946D846203F2037BA7FAB
:2038500042B1491E04F10104F8D120370DE0C046B0A40100804795F83210491C85F83210E2
:20387000D8F80810884795F83030A34216D02299384620220EF09EFC1C980CF0B5FAF877E8
:203890000123FF2039462022BB770446787206A8FC720DF00FF81FE0C0150020612055E0E4
:2038B000CC100020F87F11F0D9FB014608220DF1660013F03BFD38B17968219814F0C2FE59
:2038D00082453CBF8246A046641C2037A4B297E764203BE0211500209DF836000EA916220E
:2038F00040F004008DF8360008A80CF0E3FF1F9C9DF83B00A41C40B19DF84D700FA8394677
:2039100010F082FA3F1A8DF8357006A80FF034FD20984844801C80B2209003E01F9C4E44C8
:20393000B61CA41C209884423FF714AE2098022803DC229A6720114604E01F9A911C121A9E
:203950002298921C1D9B19801E990A8023B0BDE8F08F70472DE9F843C74C0F460646F80BA7
:2039700080F0DD81E07AB90F80F06B81B80880F05881F80A80F03181207A10B1380980F0B2
:203990002981206C002840F093803809C0F09380002501262570B948A67114F01BFD2846EF
:2039B00013F0F0FDB64904F170002A4614F041FE04F1580090E8000314F016FB2379B0EBDC
:2039D00008004FEA103071EB09010905012B40EA0100606606D194F86810B0EBC12F01D886
:2039F000E07860B340F60900A08294F82100267100F0F00040F0010084F8210094F820004D
:203A1000E57000F0F00084F82000A56114F0F6FED14A131D196821F0020119606FF002030A
:203A3000136004F1140642F8106C11688908FCD31360516841F00201516014F0DBFE2E4603
:203A500004F1580080E86000666611F0F1FF6078012803D0E068403014F0C8FEC6480660BA
:203A7000022012F035FC11200BF0CCFCE068007C10B90E200BF0C6FCA07A18B1A572052056
:203A900012F026FCBD49A5710878E57128B10D7004F1EC00042114F045FAB4F95000B4F9B7
:203AB0005210884214BF022007200CF0F1F98EE0380980F08C80B80B77D2780B29D2380CCF
:203AD000C0F0518104F13C0014F0C6FDF0B1C16849680978022919D190F82700400915D26C
:203AF000206C90F82700400910D3206C806840880028FAD0206C806840880128F5D0206C6B
:203B10000026A0641920266414F0F6FB27F4004729E111F063F938B1B56930466FF4807119
:203B300000224FF00073A847954904F17000002214F07FFDB16800254FF0010840F602020D
:203B50006572088884F8008082420AD0B0F5C15F07D00A8B4FF61F60104040F434700883AC
:203B700006E00A8A4FF61F60104040F434700882757414F039FAD4F85421E36804F5AA7185
:203B90009A4208BFA846266E46B1864226BF301A401E801B01EB8801000B886025661920DD
:203BB00014F0AAFB27F48057DDE004F1400014F053FD061C08D0706830B17568F068B6F97D
:203BD000241000222023A84727F40057CBE027F00807C8E000202072F9E714F00FFE054674
:203BF00004F13C0014F038FD061C15D0E06810B1783013F077FDF068E060284614F0FAFD1B
:203C100014F0F2F920665F4814F0E4FB4FF4006104F1EC0014F086F9002027F480672072D9
:203C3000A1E004F14C05284614F016FD07F010FB284614F011FD27F0020708B147F002078D
:203C500091E020B1042012F043FB0020E07214F0D5FDB1688046088840F60202824211D018
:203C7000B0F5C15F0ED00A8B4FF61F60104040F4347008830DE0C046A00A002045C10000C2
:203C90005D0C01000A8A4FF61F60104040F43470088204F1580090E80C00002B08BF002AB3
:203CB00018D0042012F048FFA0B1A56D14F09CF9854226BF401B401E401B000BF060F1682F
:203CD000708A401840F6C411F06081422CBFB0F5FA7FF160404614F08DFD11F07FF898B135
:203CF000B56930466FF4807100224FF00073A84704F13C0014F0B0FC002808BF47F00207F9
:203D100002D0192014F0F8FA75692DB1002130464FF080630A46A84727F0005723E014F069
:203D30006DFD014604F1440014F096FC0646B569A80813D296B125EA0500B061084614F036
:203D500059FD706868B165B12A46F068B6F9241075680023A84704E010100440084614F0C2
:203D700049FD27F4804727B104F1EC00394614F0D9F8BDE8F883C04600000460B52E002071
:203D90002DCB000005B500002DE9F04FDFF8E0C292F808B009AF88460646ADF1240D049319
:203DB00038F07F05039206BF604600884FF6FF700590F08A800934BF002008203076F08A18
:203DD000C00834BF102080207076F08A400903D260460E30007800E00020B076F08A410885
:203DF0002CBF20240024000928BF44F010047568002108F07F08307D06916D1E02280EDBC9
:203E10000C2808DC0C2803D1022044F40854069044F0030404E00D280CBF0220012004437D
:203E300096F8880008B144F00804210900D328B1DFF8C89299F8CC3013B908B1DF2051E119
:203E500021096DD396F88950DFF8B4A206F1240133891AF8052007910AEB0001097908909D
:203E70008918491DC9B2C918B1F5006F80F23C8100284CD0049A039906F180000AF08EFE10
:203E90000799002808603FD0806AB0F1FF3F39D070680023401E8DB196F88A10524600F8B2
:203EB0000119515D491EC9B241B1721892F87F20491EC9B2002900F80129F6D10799706639
:203ED0000968896AB162090E00F8011996F82A1000F8011996F82910089A00F8011996F84F
:203EF000281005F0030500F8011902F0070141EAC501017071683289091AC9B2706089186C
:203F1000318105E0DB2700E0F3277770EDE00023F08A7370C00828BF44F0100475686D1E6B
:203F3000336DA3B9B36D93B999F8E510012903D13089B0F5EE7F06DA200904D202290AD1D5
:203F500044F4005401E044F48054012002E044F4085402200690DFF8ACA19AF801000128A9
:203F70000FD013F0FBFE60B19AF8380048B196F86B00042805D1022024F48054069044F4AB
:203F9000005444EA8834B8F1020FA4B20AD0B8F1030F10D1ED1F09F1D801284614F046FBBB
:203FB0006D1E08E0B9F8BE00001205F8010999F8BE0005F80109069802280CD0B8F1000F44
:203FD00015D0BBF1000F0CD004990598814208D144F040040BE0BBF1000F08D1B8F1000FD0
:203FF00005D00599081205F8010905F8011944EA8B24BBF1020FA4B209D0BBF1030F0ED1A0
:204010000399ED1F284614F011FB6D1E07E003990888001205F80109087805F80109BBF180
:20403000000F05D00498011205F8011905F801093878F8B934480178307D0D2814D068B982
:20405000306D28B999F8A800411C89F8A8100AE099F8CD00411C89F8CD1004E099F8B600D5
:20407000411C89F8B610014605F8011904E0C0465A0F002044F48074201205F801092C70BA
:2040900070683189401B7560C0B240183081200927D3B06D00B130629AF8380010B1307D18
:2040B0000D281ED1726A12F1150002D114F0CCF8726A916A481C9062306A3289B162471B46
:2040D0000092D21B019090B20290706A96F888202B46153008F000FB00281CBF7070071C2D
:2040F00007D10020707005E0E5277770F32013F042FDF8B209B0BDE8F08FC046A00E002050
:2041100070A4010020150020092E0020B0B50446BC480768ADF1480D002F00F0AC812078D5
:20413000401E112800F2A781DFE810F06E0156013C0127011F010801F100E300C300B2005A
:204150008D005D0053004200A5012A001C001200F86B002800F08F81684621460DF006FA35
:20417000F96B86E1386C002800F085816846002101220EF01FF860788DF80000396C78E140
:20419000F86A002800F07781684600210E220EF011F8A11C684613F0C9FDA57BA1890022F7
:2041B000ADF80A1005B101228DF80C20F96A61E1B86B002800F05F816846002102220DF0F6
:2041D000F9FFA5788DF8015060788DF80000B96B4FE1786B002800F04E81684621460DF057
:2041F000C5F9796B45E1386B08B36846002114220DF0E0FFA5788DF80150A3680193A289EB
:20421000ADF80820A17B8DF80A1060788DF80000E57B8DF80B50237C8DF80C3094F911204B
:204230008DF80D2061690491396B684688476068002800F020810146F22008700020487012
:2042500011F07EFB17E1B86A002800F014816846002124220DF0AEFF6078A11C8DF8000034
:204270000DF1020013F062FD04F10C0103A813F05DFD257EE08A04F119018DF818500B228C
:20429000ADF816000DF119000CF014FBB96AF0E0786A002800F0EF806846002102220DF0E5
:2042B00089FFA5788DF8015060788DF80000796ADFE0386A002800F0DE8068460021122259
:2042D0000DF078FF658862796078ADF8025023798DF80520E11D8DF80000A5798DF8043023
:2042F0000B220DF107008DF806500CF0E3FA396ABFE0F869002800F0BE80684600210122DD
:204310000DF058FF60788DF80000F969B1E0B86910B1204610F000F9A07D002800F0AB8048
:20433000A07820B9A069002800F0A58003E0A069002800F0A08013F095F89CE078690028FD
:2043500000F099806846002113220DF033FF6D46A01C0168406829600B22686004F10A0113
:2043700002A80CF0A7FA796983E03869002800F0828020460BF08CFC7DE0F86800287AD0CE
:20439000684600210E220DF015FF6078A11C8DF800000DF1020013F0C9FCA089ADF80C0041
:2043B000F96866E0B868002865D06846002114220DF000FFA01C01686D46296040686860F7
:2043D000A07A0B2204F10B018DF808000DF109000CF070FAB9684CE0786800284BD068466D
:2043F000002110220DF0E6FE60786588211D8DF800000B22ADF8025001A80CF05BFA7968F2
:2044100037E0C046681B00203868A0B36846002119220DF0CFFEA01C01686D4629604068FC
:204430006860A07A410824BF01218DF80810810824BF01218DF80910C10824BF01218DF820
:204450000A10010924BF01218DF80B10C10924BF01218DF80C1030F07F001CBF01208DF8F3
:204470000D000B220DF10E0004F10B010CF022FA39686846884712B0B0BD70472DE9F04F74
:20449000C34E37688246ADF12C0D17B913F0DCFE3768DFF80C8308F10300DFF80C9305781C
:2044B000002D3FD0002538897968BA4B0795C400097818781034890906D340F6485191FB69
:2044D000F0F1091901F5AF743B7D60438400352B0CBF2F1C4FF4FA570DF12601E82010F09A
:2044F00035FC9DF82600032808BF44F620673068007D3C19352807D112F0E2FD01463068AE
:204510006C300FF081FC444302204F468DF8200007F10C000068069406A909F047FBAC48AC
:204530000C3805709C4901209C4F08703978012902D0002102F0CEFD30680489456814F0E8
:204550006FF8DFF860822888000932D398F83870316877B34A6A4F6E906A4646B0F1FF3F9C
:2045700022D00FB3431C93628862030E07F8013991F82A0007F8010991F8290007F8010978
:2045900091F828003870086A00940190401B201A80B2029091F88820486A8B6A1530194646
:2045B0002B4608F099F800E0DB20F16F002840F0E380214628460DF07FFA642009A910F07A
:2045D000C5FB494698F83870087837B9774800780BF058FA012805D0CAE00BF053FA012837
:2045F00040F0C680DFF8C8C1A01C241D6D1EA1B2ACF87800C1F3022040F0080005F80109C9
:20461000002629700227CCF884509DF82450ACF86A60002D0CBF674867486446C4F8C00017
:20463000664DC4F8800068688047AB460A90BAF1010F54D0BAF1040F51D0BAF1000F4ED0C3
:2046500094F84000BAF1050F04F13005C0F3C0002CD0E8200DF1250110F078FB98F83800BF
:2046700000B39DF8250003281CD1687B2B7C00F0F00005F1110140F00300687343F01800DA
:204690002874F42010F062FBD8F89C00804704968DF814706686A064B0468DE88001D9F87A
:2046B0000C004EE0464B04F168050EE028B9687B00F0F00040F0010004E0687B00F0F00053
:2046D00040F003006873404B6686049638468DF8147031468DE80300D9F80C0032E094F8BA
:2046F0003D0000F0F00040F0030084F83D0094F8400004F130010D46113140F0180084F856
:204710004000F42010F022FB98F83800002808BF4FF4FA5002D0D8F89C008047A064049631
:204730001F498DF81470D9F80C008B78002B06BFA4F84E6004F14C056686324639468DE840
:2047500006001F4B294604AA01F02EFD1D490880DBF80810002809D41C4A92F900001C4F66
:204770006834401C10700A983C600DE00A9888471A200DF095F808E0002908BFE420F8D0AD
:20479000144A00201070E42088470BB0BDE8F08F700D0020181B00208B1B0020961B0020D2
:2047B000381A002020150020D8190020770F0020D81200204E9055550E7A5555C0150020B2
:2047D000A9AB0000081A002019D80000921B00201C170020BE2E00202DE9F04FC24D4FF073
:2047F000000AADF1140DDFF81C83E868CDF808A000288DF80CA040D1CC4CBC49843C2068DE
:20481000814210D0BA4981420DD0BA4981420AD0B949814207D0B949814204D0B8498142A9
:2048300001D013F011FD13F01FF821684FF0FF32012805D1C1F30330083806D0C01F01D0C7
:20485000012A02D10120E87001E085F803A012F00DFA4446206A00F1200118B913F0F4FCDD
:20487000216A2031096805F1140088474FF4FA70E884A54FAF620626EE624446E26992F809
:204890002670E7B9A14892F8257001788F4216D05046342404FB002C9CF8267037B99CF8D3
:2048B0002530401C9942C0B2F4D103E09CF82500884204D1604611F0A7FDD8F81C20DFF8BC
:2048D00050B2D8F824001BC88BE81B00E878012814BF50460520DFF83C928F4C8BF8000047
:2048F00099F8157127B990690068C4F8A40005E0D0690068C4F8A40013F0A4F8632004A93B
:2049100010F024FA99F8E720104611F0CDFFB4F896C007462CF0070C4CF0010CA4F896C0F5
:20493000D4F8980004F18806812A40F00F00C4F8980001DB842A05DB397B052914BF2421DE
:20495000292100E0212184F89C10717D812A01F03F01717501DB842A18DBBB7A6BB99DF898
:2049700010203F3262F305017175F28A4FF6C07303EA020141F0180113E09DF8102001F06E
:20499000C00102F03F020A43114603E021F03F0141F002017175F28A4FF6E071114041F08D
:2049B0002001F182FA7A397B491D5143D8F81C200A230CF0010C91FBF3F1C9044CEA11412A
:2049D000F181F97A1923890391FBF3F161F31C203061308B92F824104FF6F77361F302000B
:2049F00003EA0001308392F8240000F008000843308399F9D6000EF0A7FFA4F8A200796837
:204A10003B68D8F81C203889401E414303EB51004FF47A71B0FBF1F0A4F8A800106A007805
:204A3000A4F88AA084F8AC00C4F88CA0707B00F0F00040F00100707313F020FDA0B9F87AC6
:204A5000364A99F8E740B1FBF0F01070F87A022CB1FBF0F0C0B2B1FBF0F0687004D13048B3
:204A700002214170A8270770EF68D8F820402FB3504610F043FA287999F8E710884211D1FB
:204A9000697999F81521E86891420CD10221524653468DE80600314602AA01F085FBC8F83A
:204AB0000C6017E0E868D8F8201049688847D8F8207001201B493C68087000E024681A48E4
:204AD00005F1140359463246A047E860D8F82400C8F8280099F8E70099F81571287105B0BA
:204AF0006F71BDE8F08FC046D819002000F0022000F0012000F00020008002200080012015
:204B1000008000201017002065720100870F0020702E0020A00E0020D8120020181B002027
:204B3000381A0020971B002010290020181300502DE9F04F09AFADF13C0D08900A92388865
:204B500009911E46ADF81800101C08BF002000F08481002700F101094FF0FF3A4FF0010B9D
:204B7000B8466CE1252940F063811078521C0A922D2818BFADF8068005D15846551CADF805
:204B9000060010780A9530281CBF4246434605D10A9908785A465B46491C0A912A28CDF843
:204BB0000080554616D1306804930A99CDF808A0C01C4B1C20F00300001D306050F8044C09
:204BD0000A93002C0878009418D5ADF806B06442009413E044460AE0610001EBC401401895
:204BF0000A99A0F1300408780094491C0A91302801DB3A28F0DBCDF808A004932E282BD172
:204C10000A9908782A2801F101010A9111D13068CDF80880C01C20F00300001D306050F8D5
:204C3000045C002D48BF454608782B46491C0A9111E0454643460AE0690001EBC5014018F2
:204C50000A99A0F1300508782B46491C0A91302801DB3A28F0DB02930AB1224604926C28A7
:204C700004D04C2818BFADF8048005D10A990878ADF804B0491C0A910BA9CDF80C800FABCB
:204C900007916428059300F08B80692800F08880BDF818C0752872D078286ED06F286AD0A9
:204CB000702850D063283DD073281ED009980A990128A1F101010A9115D96B490C68B5F1B3
:204CD000FF3F03D0A84288BF6D1C00D8099D029508A80AA932466B46A047C7190A99039853
:204CF00001F1010974E040462AE030680A99C01C20F00300001D306050F8040CBCF1000FD9
:204D100001F10109014608B955A00146079113F0EDF90390B5F1FF3F5BD0A842C4BF281C6F
:204D3000039056E03068C01C20F00300001D306010F8040C5D468DF82C000A990395584621
:204D500001F1010945E0082035680490E81C20F00300001D306050F8041C082210230FA889
:204D70000DF024FF401E0790402101700A99079801F1010929E0082302E0102300E00A23A8
:204D90000A99306801F10109C01C20F00300001D306050F8041CAA42BCBF2A1C049210E095
:204DB0000A99306801F10109C01C20F00300001D306050F8041CAA42BCBF2A1C04926FF006
:204DD00009030FA80DF0F2FE0790059D281A0390009C241ABDF8065000945DB906E008A8E0
:204DF000202109AA11F0DBFF009C7F1C641E0094F5D503980546401E039075B9BDF80600FD
:204E1000E8B10098401E009019D408A8202109AA11F0C5FF00987F1CF4E70798411C07916B
:204E3000017809AA08A811F0BAFF03987F1CE1E708A809AA11F0B3FF7F1C09F101094A4689
:204E50000A9812F8011C401C00290A907FF48AAE089808B14146017038460FB0BDE8F08FFD
:204E7000286E756C6C2900C018A501002DE9F04F002898461546ADF12C0D00F0158111F480
:204E90007C1F40F00E8111F00F0F00F00D8107460591002006900A904FF0000A099054465C
:204EB00008944FF0010BCDF810B0044650460790059805990BEA000021EA0B014FEA4B0B29
:204ED000401E059100F0CD80401E7BD0801E68D0001F40F0E08005B12F660720152642F282
:204EF000D002022307F8010B01A907F8016BA2F1CF0007F8013B0FF067FD684603A90BF036
:204F10005BFA9C4801783E46812907DB9848B0F8B600842905DA49F6D05104E09448B0F82D
:204F3000B60042F2D00108180099019A4FF47A6390FBF3F040180090824206D8801ABDF8EB
:204F50000C300090581CADF80C00009B50085146814609041804030C19430004534610EBD3
:204F7000090041EB0A0102F0AFFFBF1D0090BDF80C309DF80C009DF8002006F8010B18125A
:204F900006F8010B9DF8011006F8012B9DF8023006F8011B9DF8032006F8013B0934327075
:204FB00078E00220152607F8010B042307F8016BB8F1000F07F8013B0CBF099898F80000A0
:204FD000241D65E01DB1EF6595F86B0006900520152642F2D002049B07F8010B0DF10E016E
:204FF000DDF8189007F8016BA2F1CC0007F8013B0FF0EAFC02A810F067FC5E4801783E468A
:20501000812907DB5A48B0F8B600842905DA49F6D05104E05648B0F8B60042F2D001081803
:2050300002994FF47A6390FBF3F09DF80E209DF80E3040183F1D0290000206F8019B00EBD4
:205050006300B0FBF2F002909DF808009DF8091006F8010B9DF80A3006F8011BE41D3370DC
:2050700018E00320152607F8010BB8F1000F07F8016B034607F8013B04BF0A9807F8010BA8
:2050900005D098F8000007F8010B98F80100641D07F8010BA4B2059800287FF409AF2646C1
:2050B00061E011F00F0F01D000205DE080468A4602264FF4803908F1020509EA0A002AEA87
:2050D000090A4FEA4909B0F580301AD0B0F5803014D0B0F500300ED0B0F5802009D0B0F534
:2050F000002004D0B0F580102AD1072404E0062402E0052400E00424002704E002240127D7
:2051100001E001242746A81C214600F073FC47B104F00F04C0F30A0141EAC42141F400413F
:2051300005E004F07F0400F0FF0141EA042105F8011B36180912B61C2970B6B245196D1C87
:20515000BAF1000FB9D1022ED8BF00260BDDB01E4FF6FE7708F8010BB819C0F3022040F0BC
:20517000A00088F8000030460BB0BDE8F08FC046A02A0020870F0020BA482DE9F84F002580
:20519000B94CB749056094F8E200002800F06381012800F02F81B54E02283CD0032840F0CE
:2051B0005A8151F8250CD4F8B8100029A0F5C060C4F8D400B8BF49420028B8BF40428142A2
:2051D00026DA4FF08057D7F8A4014568B4F8BC0030214FF47F42082300903046A847D7F8DC
:2051F000A4014568B4F8C00004214FF4F802122300903046A847D7F8A401B4F8D070456848
:2052100020214FF440620A2330460097A847012584F8D8501AE151F8258C13F0E7F82F4619
:2052300000B901273946924F38680028FCD0B146012609F10409D9F82CA03E6009B113F06C
:20525000DBF8CAF30720C4F8BC0013F0CFF8AA4600B9B2463B68002BFCD0D9F800B0BAF1DE
:20527000000F3E6001D013F0C7F8CBF38440C4F8C00013F0BBF8AA4600B9B2463B68002BBB
:20529000FCD0D9F81C90BAF1000F3E6001D013F0B3F8C9F38120C4F8D000B8F5C061C4F86B
:2052B000B81000F09C8094F8D80068B9C4F8D410D4F8C000C4F8C800D4F8BC70C4F8C470ED
:2052D000D4F8D030C4F8CC30D4F8D410D4F8BC30002954BF02206FF0010004F1C8021768D6
:2052F00001EB41014018411000EB917107EBA1001060D4F8C810C4F8C43000291CDD1E291A
:205310003CDDD4F8CC0030B93429B4BF15391E21C4F8C81025E02A29BABFD4F8C8000B384A
:205330001E20C4F8C800D4F8C4003F28B4BF401C3F20C4F8C4001FE0D4F8CC00032812D052
:2053500011F10B0FC6BFD4F8C8000B30301CC4F8C800D4F8C4000028C4BF401E051CC4F887
:20537000C450032508E011F1150FC6BFD4F8C8001530301CC4F8C800C4F8CC504FF08057B7
:20539000D7F8A401B4F8C43030214FF47F424568364800930823A847D7F8A40104214FF4E0
:2053B00000321123456831480096A847B4F8C860D7F8A40104214FF4F802122345682B48CD
:2053D0000096A847D7F8A40120214FF440620A23B4F8CC60456825480096A84701E084F89D
:2053F000D85040F2FF50404502D8801C40452DD208202EE051F8251C1E4F4BF2F52048436B
:20541000060A3868C0F3814001280AD111F054FD10F0F0FA12F0F6FF3111C010484306EB93
:20543000E03694F8E50030B91348006820F07F408019460801E084F8E5501048310C0660E6
:20545000012741600E4D8760287808B90B2000E0052084F8E40004F03DFBBDE8F88FC046E2
:205470002D400C402C500C40B80F002000A00C4000800C40B43F0050102009403C600C4058
:205490005EA401002DE9F04FAC4C04F128000068ADF1240D0FF0FAFF08B112F0C9F9A248F9
:2054B000DFF89CA2DFF888B20068A24E089011F0F3FD11F0E7FFE569A769B5F57A7F13D00A
:2054D000C01B4FF47A720023A5FB000102F0FCFC80464FF47A72002312F0F4FC2A46002367
:2054F00002F0F2FCC01901E0A0EB0708A0618D488C49006820F00200086070688047DBF869
:205510000010DBF8043045466918B1F57A7F0DD34FF47A72B1FBF2F2D2184FF47A73CBF83D
:2055300004201F46B1FBF7F25A43891ACBF80010B168884770688047DAF8041002466818F5
:20555000B168CAF8040010468847DAF8000000285FD007464FF00009706880474FF0000893
:205570001FFAA5F3079083B95FFA95F36BB93979E8B2884204DD79682846884209D20AE0BD
:205590003879E9B2401A387108E079682846884201D3414601E07968091A7960B88878B921
:2055B000FB8853B9FB6843B13B8933B1B87A19460AF060FEF8687860B88808B9FB880BB1EC
:2055D0003B896BB9B9F1000F04BF3868CAF8000003D03868C9F800003868B846074601E0F5
:2055F000B9463F68B16807988847B8F1000F0ED0B8F8043043B9B8F806302BB998F80A0094
:20561000B8F808100AF036FE404611F01BFF002FA2D144484349006840F002000860E068DF
:2056300028B3804723E015F8060C2169A5F10C07032819D0E16A9DF816000978884210D12D
:2056500015F8080C11F048F9B979012903D0022908BFA87000E02870002029460EF034FA6B
:2056700005E012F0E5F802E009B12846884708200727ADF81000716AADF8127004A88847F5
:20569000069D0028CFD0294800680088C8B1706880472649096800220D880A80B16888470E
:2056B000089A00202946207090470546FF202070706880471D4909680A8815430D80B16842
:2056D000884711F0E9FC0746B7F1FF3F1CD0706807B9194F216AB94238BF0F1C80471C2338
:2056F0000546626AADF802300820ADF80000716A019268468847A16A3846491CA16210F003
:205710003DF9B1682846884708200A27ADF808004FF0FF35ADF80A70716A039502A8884769
:20573000C5E6C04610E000E004A50100AC2E0020A41B0020C01500208EC2F528A819002012
:20575000802E00202DE9F04FA54C064600200F46ADF13C0DDFF89092ADF80C002068A44D5A
:20577000017D252900F010816C3005A903F040FF002818BFC0B240F0308120460068C18AE5
:20579000C9080DD3007D03280AD09DF81F0038B99DF820004C463870B534207000201CE19C
:2057B00001A804A90AF008FEA5F12F018B4691F82F30019A3468DBF808104FF47A7A504615
:2057D00041F208155843891A0AFB12000AFB01F1001B091B8D42C8BF002965DC854205DD75
:2057F000002803DD346804F5915434609DF81F00002857D042F204000DF135010FF0E4F839
:2058100011F090FE044606980DA9241A42F206000FF0DAF89DF834109DF81D00FF2904BF8C
:205830000A218DF83410FF2808BF0A209DF834206C499DF81C30D046B4FBF1F1801880B25C
:205850004843991008FB01F1814298BF081C2D1805A811F048FC9DF81C203468B0FBF2F19F
:205870005143411A8BB251464B4308FB02F1CA1AC91A121B091B8D4201D9002908D569425F
:20589000914216D2002A14D5B5FBF8F109B203E06900B1FBF8F189B232684FF4916303FBEB
:2058B000012405E0002004E0306841F630342418346005460DF1120102A80AF07DFD0298B3
:2058D000DBF80810B4FBFAF210180290814203D99BF82F30834204D94B4603F158042678C6
:2058F00036BB9DF81C0055190004A84298BF2D1A9DF81F00002808BF9DF8200016D09DF829
:205910001C00B5FBF0F084B29DF833000FF0A6FB9DF83120014620460FF038FB044611F01D
:20593000CFFB024608A920460FF07EF94C460DE0814204D8BDF81200401CADF812004C462E
:20595000BDF8120094F85B100CF0E0FF3870244E84F8B5003068007D05287FF41FAF234865
:20597000007820B112F0FAF900283FF417AF387803A9ADF80C0042F20C0003F0DDFFBDF8E7
:205990000C00A4F8B00009E768460DF10E010AF013FD3068009A2B7841F208144FF47A7198
:2059B00001FB0202009259438A1A944210DCA1F5FA619142BCBF00F5FA6030604C4694F807
:2059D0005B10208F0CF0A2FF01460020397002E039784C46652084F8B5100FB0BDE8F08F22
:2059F000700D0020A0860100A02A00205D0F00208B2B0020F0B504460846ADF16C0D401ED5
:205A10006BD0401E0DD0801E00F00381401E00F0E980401E00F0DB80401E00F0A8800020F8
:205A30003CE142F2010007A90EF0CEFF42F20B0008A90EF0C9FF42F206000DF165010EF037
:205A5000C3FF42F207000DF166010EF0BDFF42F2050019A90EF0B8FF04A80AF015FB054669
:205A70000DF1670142F209000EF0AEFF9DF86700002808BF002303D0022011F031F8034652
:205A900007A8006808A920600988271D3C46B81C218005F007079DF865609DF864109DF8E7
:205AB000662000F8011B9DF8674000F8016B03F0030600F8012B620747EA926104AC41EA14
:205AD0008611012700F8011B9DF8672000942946019707F0B1FC0A3099E042F206000DF19D
:205AF00065010EF071FF42F207000DF166010EF06BFF42F2040019A90EF066FF04A80AF0B7
:205B1000C3FA05460DF1670142F208000EF05CFF9DF86700002808BF002303D0012010F070
:205B3000DFFF03469DF864009DF8657004F8010B9DF8666004F8017B9DF867209DF8677068
:205B5000790704F8016B03F0030705F0070646EA916004AE40EA8710294604F8010B00271C
:205B700000962046019707F067FC001D4FE042F2150011A90EF028FF13AD42F2160029463A
:205B90000EF022FF15AE42F2170031460EF01CFF17AF42F2180039460EF016FF11A8016872
:205BB0002160406860606A6804F108035A6028681860306803F10801086074684C60386833
:205BD00001F1080528607A686A60202066E042F214000DF122010EF0F7FEBDF82210022097
:205BF0000A1258E009A8002120220CF0E3FA42F2130009A90EF0E8FE09A812F077FA02460B
:205C100009A920460AF056FE09A812F06FFA80B244E042F20E0002A90EF0D6FE0DF10A01D4
:205C300042F20F000EF0D0FE0DF10B0142F20A000EF0CAFE03A942F210000EF0C5FE0DF188
:205C50000D0142F211000EF0BFFE0DF10E0142F212000EF0B9FEBDF808009DF80B209DF80C
:205C70000C709DF80D609DF80E509DF80A1004F8010B02F00102001204F8010B07F00100E5
:205C900042EA400206F0010042EA800205F0070042EA4012042004F8011B22701BB0F0BD21
:205CB0002DE9F04F06469E48001D0068ADF1340D80470B900AA9822005F076F99DF8280011
:205CD00018BB00248DF828404FF6FF75ADF804509DF82800ADF80650FF2108228DF8000097
:205CF00002A812F0C9FC8DF81840D420694602F0D3FA9DF82800401CC0B28DF82800032881
:205D1000E4DB82200AA902F0C7FA0020DFF808A2DFF808828DF8280081469DF828008DF8F4
:205D3000019069468DF80000D02005F03DF901274D46E8B99DF80B30012B07D19DF80A00A4
:205D500020B90DF1020012F08DF888B9747B002C0CBF052209224F469C4209D10DF102000D
:205D700006F10E0111F06EFC002818BF012507D1002F40F0BF801DB9707F002800F0BA80F0
:205D90004C469DF828008DF8214008A98DF82000D12005F009F9002832D19DF82200FF2877
:205DB0002ED08DF800006946D42005F0FDF8002833D102A8311D082211F044FC00B33088C9
:205DD0007788ADF80400ADF8067045B1307B9DF82810B7698DF818000DEB81010F61D420E7
:205DF000694602F059FA75B1307F9DF82310884209D08DF8230008A9D12002F04DFA02E0FA
:205E1000641C032CBDDB032C74D14F468DF80070D420694605F0C8F828B1DAF808100B986F
:205E30008847192074E002AB184612F01BF84C4600B101242046341D30B9184621460822DF
:205E500011F000FC00284AD030887388327BADF804009DF82810ADF80630002D8DF8182058
:205E70000DEB810000F110000CBF4946B1690822016002A8214612F001F898F8380030B1E4
:205E9000D8F888201AB19DF80010204690474C469DF828008DF8214008A98DF82000D12051
:205EB00005F082F8E82807D09DF82200FF2803D0641C032CECDB10E09DF800008DF8249097
:205ED000337F8DF8220069468DF82330D42002F0E3F908A9D12002F0DFF9032C02DB7F1CFD
:205EF000032F93DB032F05D1DAF808100B9888471A200DE09DF82800401CC0B202288DF82D
:205F10002800FFF60AAFDAF808100B98884748460DB0BDE8F08FC046C01500202015002080
:205F3000C0150020F0B500215022ADF15C0D02A80CF040F9F22016A912F06EF9974DBDF86B
:205F5000580016A9A5F87400F32012F065F9BDF858000DF10901A5F87600E22012F04CF925
:205F7000E88DADF81200410806D305F10C01096805A80160BDF81200810805D3291D098842
:205F900006A80180BDF81200C10807D305F1100109680DF11A000160BDF81200810907D33C
:205FB00005F1180005C808A981E80500BDF81200010A06D305F1140109680AA80160BDF8E8
:205FD0001200010907D30BA805F1580124220AF071FCBDF81200400903D3686B15902F6B14
:205FF0001497012011F006FEBDF8120041082CBF0F240B24810824BFA41CA4B2C10824BF35
:20601000241DA4B2810924BF0834A4B2010A24BF241DA4B2010924BF2434A4B2400924BF8E
:206030000834A4B2204610F00BFF071C00F0B48005260DF1090100F8016B0A6802604968EB
:206050004160BDF81210083012F000FABDF81210844648080BD3BDF81410604612F0F6F945
:20607000BDF8161012F0F2F9BDF812108446880807D3BDF81810604612F0E8F9BDF8121000
:206090008446C8080BD3BDF81A10604612F0DEF9BDF81C1012F0DAF9BDF812108446880932
:2060B00009D3089960460FF02AFE09990FF027FEBDF812108446080A06D30A9960460FF0EC
:2060D0001EFE8446BDF81210354A9388080949D3BDF82C10604612F0B9F9BDF82E1012F0EC
:2060F000B5F9BDF8301012F0B1F9BDF8321012F0ADF9BDF8341012F0A9F9BDF8361012F008
:20611000A5F9BDF8381012F0A1F9BDF83A1012F09DF9BDF83C1012F099F9BDF83E1012F007
:2061300095F9BDF8401012F091F9BDF8421012F08DF9BDF8441012F089F9BDF8461012F007
:2061500085F9BDF8481012F081F9BDF84A1012F07DF9194612F07AF9117812F077F9BDF81D
:2061700012108446480906D3149960460FF0C7FD15990FF0C4FD05F12001224630463B46FF
:2061900006F06CF80820ADF80260064D01972968ADF800006846884717B0F0BDB813002069
:2061B000D4110020E41500202DE9FE4F9B4692468946054612F022FB02908C483538016820
:2061D0000CAFA94208BF416801A84A4653460090284604F06FF8834C061C13D194F8880184
:2061F00040F0040084F888010298C4F87C5112F001FB9DF8040002280CBF6FF002086FF0DF
:206210000108ECE005F1780011F06CFAB08CA4F85000B6F92480C6F808909AF80400C6F89F
:2062300004B086F82600A6F824806F48F56097E80C00202106F110071940104087E80300B3
:20625000002786F82770F06840680078022809D19AF80500012805D196F8270040F01000EB
:2062700086F82700029812F0C5FA94F88901042807D1D4F88001B4F9841194F8862112F030
:206290007AF912F0BBFA814694F8890130F004033ED104F13C000368D3B9314610F032F8E8
:2062B00038B3A5F8C08096F8270040F0800086F8270085F8C270E07920B1207810B10120A9
:2062D0002072E771484612F095FA484800781FE004F13C00314610F015F850B1A5F8C0800B
:2062F00096F8270040F0800086F8270085F8C27048E0B4F9500000F6FF706FF31F30A4F8FE
:206310005000484612F076FA6FF00100BDE8FE8F02280ED196F8270040F0800086F8270078
:2063300085F8C270484612F065FAB6F92400BDE8FE8F012811D104F1C80011F0D3F996F887
:20635000270040F0800086F8270085F8C270206C0028E7D1484612F04DFA206C00282AD110
:206370002078A76400BB6079012838D012F046FA8146A079A0B9B0680DF062F858B9607AD0
:20639000012803D1484612F035FA28E0484612F031FA04211FE004F1C80012F023FAF1E796
:2063B000134901200870EDE7012011F0BFFA192011F0A2FF13E0206CC0684068007802285D
:2063D0000DD1F06840680078022808D19AF8050028B94FF4004104F1EC0011F0A3FD404650
:2063F000BDE8FE8FA00A0020FDEFFF9F290C0020B52E00202DE9FE4F0646307D01280AD14F
:2064100096F916000DF0A0FA4FF6FF71814208BFE82000F00281F07B814A20B91146491CAB
:206430000978022908DB012803D110460078022802DBF120BDE8FE8F346AB6F8289096F816
:20645000347096F835B0B58B4FF000085FEA040A17D0744890F83830002B2ED0016D0029E4
:206470002BD004F0FF0088476E49096D04B20AF47F008847001900B2001D00B2C43084B25C
:2064900000E0C4240DB12D1DADB267480078012809D147B16548C11991F8048010F80B00F4
:2064B0002418641DA4B205EB090020184044801C80B210F029FF071C02D11A20BDE8FE8FAC
:2064D00008EB09002B193881002D07EB030078600EBF0020E019801C00217422C7F8A00021
:2064F00007F10C0012F0C8F84C442D1907F13C00FF211022A7F84C5012F0BEF807F12C0053
:206510000F21102212F0B8F800243C707C707868716A328D0AF0CEF907F1800006F12C01C4
:206530000B220AF0C7F907F18C00314611F016FB7089A7F89600307B87F89800707B06F185
:206550000E0587F899002A6869460A60AB888B80AA798A719DF800102046012908BF0120DC
:206570009DF80110012908BF40F004009DF80210012908BF40F008009DF80310012908BFD7
:2065900040F010009DF80410012908BF40F020009DF80510012908BF40F040009DF806100B
:2065B000012908BF40F08000A7F89A00707D87F89C00B07D87F89D00B28BA7F8A42022B12D
:2065D000D7F8A000B1690AF075F9B07F87F8A600306AC7F8A800B7F8A400C0B1D7F8A00032
:2065F000A8B17868401E7860F82101707868401E78600470B7F8A410B7F8A4607868401AB8
:20661000786039897018801C38817868B8650848007839460DF058FA2046BDE8FE8FC046C2
:206630009E0D0020201500206C0F002070A40100481600202DE9F047DFF80CA20746AAF142
:206650003500DFF8F8810068800880F0E78010F033FC814908310B6800261C17641C990DBA
:206670000AD2C0F13E0110F10A0F4FEAE101D8BF08218C42B8BF0C1CDFF8C4C1990E0FD2F8
:20669000590E0DD36246143A1168C1F304211629A8BF20391268C2F30462162A0EDB0CE0B2
:2066B000634AD2F87C11C1F304611629A8BF20391268C2F30442162A00DB203A6118914674
:2066D000162905DA11F10A0FB8BF6FF0090100E01521584C584D01F01F0242F4F8522280FE
:2066F0002A6812F0030F18BF0126D20828BF46F002060FB146F00406424692F90740041B6E
:20671000052C04DA9479B44208BF918866D00F28A0F10F0827DB08EB0014A4F1F0084FEA93
:20673000282EBEF1070F88BF4FF0070E7546062D88BF06255CF82570042404EB85046546FF
:206750002C59E41B04F0FF05F70824BFC4F307273D44B70824BFC4F307473D44770828BFD7
:2067700005EB146501E00025AE465CF82EC0F7080CF0FF0424BFCCF307273C44B70824BF74
:20679000CCF307473C44770828BF04EB1C64ADB2A9EB0101A8EB0E277D43002905F1800566
:2067B00004EB1524D8BF012103F0FF0334254D43A9B259434FF6FF73B1FBF4F18B4238BF07
:2067D000191C802889B2918005DA10F1800FB8BF6FF07F0000E07F20D0719671194800682C
:2067F0001F2910604FF0000008D340F2FF128A4206D24908401C8A42FBD301E01F21918057
:20681000124F0F39090940EAC10047EA0001CAF8FB1F0026CAF8FF6FBDE8F0870C490D4F91
:20683000424608200F60921D1070BDE8F087C0463C1100506E62084024220840A02E0020A7
