:20000000003B012085330100A1C10310A1C10310A1C10310A1C10310A1C10310A1C103100D
:1C002000A1C10310A1C10310A1C10310A1C10310A1C10310A1C1031079C10310B9
:20004000DFF800C32DE9F04FADF1440D9CF8AF049CF840730F90BC4807B9017881210F9F08
:200060000170022F02D1B949FF200870B84C0F9DB949B84ADFF8E482002003461E46277815
:20008000A081012D0C93098816702069A77012D0007A801E85B2A942C0F2AD83216A04F13D
:2000A00018000422083157F0D1FB0426A17E607EE27EA68129E0467A027A06F0070302EBD6
:2000C000032295B2720938BF2D1F06D3427A057A02F0070205EB0225AD1E36F07F06ADB2FB
:2000E00040F08983A942C0F286830A30294610F05DFE216A04F118000522083157F0A6FB3A
:200100000526A681227FE17EA07E04F11A0300EB01200B93C1F3011B60818A49227191F813
:200120004013ED1EADB2002908BFBBF1020F00F06283BBF1020F00F35E83DFF8B49261B1C0
:2001400010F0070F00F0578349460978862904D100F00701022940F04E83011301F00201FF
:20016000022944DA637800F00700022831D1D8F804A0181C2DD1216A09A801228919083158
:2001800057F064FB771CB8B2A081D0470746D8F808106C4899F800304568CDF828800E466C
:2001A000862B02D03846884710E09DF9240017F0B5FD9DF9243068770020A8773846EB7724
:2001C000B047608900F0100011F06EFE17F010F815E399F800000C9E862808BF0126CDF82F
:2001E00028803EB10C9813F0BFFFA77801E0CDF8288063788FB183B9012F00F0F9826089BB
:20020000022F03D110F0070F40F0F282032F05D100F00701032901D0EAE26089010909D387
:2002200010F4405F00F0E482464991F86474002F00F0DE82011301F00201022902DA810ABC
:2002400080F0D6820F99012905D0BC4ABB49921C89780B9201E0B949C978C1F381098E11D8
:20026000B9F1010F00F0C482012E00F0C182BD49BBF1020F09D08A5D11F809108918CFB265
:20028000AEB1C10913D3BF1E0BE072184944127909798918CFB2C10905D259EA060306D07E
:2002A000BF1CFFB203E059EA060308BF0227C0F300217A1A61719542C0F29A82ED1B0009A3
:2002C0000D44A9B2218124BF25200C900C984018743080B216F008FD65786061002800F079
:2002E00087820021742211F073FA0020E070B4F80A804FF0FF0A1DB9164908F0200008701D
:200300000025144B60790D951D780E90002D41D000283FD108F00708B8F1030F06D0B8F1F4
:20032000010F25D1074890F8AE0408B30F98012816D0A34805789DB117F074F9FE2815D088
:200340000EE0C04610010020B9350020091F0020FC330020BB3500206C1E0020D818002009
:2003600016F00EF910B915F0CDFE08B10420E0700F98012808D1B94890F8400310B1BBF1C8
:20038000020F01DA16F0D0FA6079B4F80A800E90E0780D90636903F1740058609865258968
:2003A0001D812089A3F85C005FEA181016D30F9D0E98012DC0F1030082B2A3F85C2019BF4E
:2003C0005E49491CB3F85C200B99986D57F03EFA6369B3F85C10986D401898650F98A3F843
:2003E0000C80012806D055490B980078497805E0BD35002051480B99C07809780D9DC0F3AE
:20040000011001F07801014345EA0100187483F80EA00E9920790C9001B1002083F830607F
:2004200083F83A9083F84900A089002FA0EB010085B2A58100F0D1818848BB46216A90F84C
:20044000AF94E7805A464919CDF840906846083157F0FCF97F19BDB2A581B9F1010F07BF8B
:200460003648C0780B98007861690F7C4E46012E07F0400AC0F301100F9007BF2F48C0787A
:200480000B9800786E46C0F38107002F44D00F980023022802D1BAF1000F0BD19DF80120FC
:2004A0009DF8000000EB0220A1F844000DF10206A1F84200DFF83493B1F84400B9F86A2016
:2004C000824203D04FF6FF72824222D1032F11D07278307800EB022082B24A86B9F8681039
:2004E000B61C0120914213D04FF6FF71914218BF181C0DE0CC4800683146323057F01EFC1D
:20050000C948006809F15F01323057F0FFFB08360346002B00F064811098012807BF0748F8
:20052000C0780B980078831124D00F996069022906D0017CC90906D30CE0C04614340020EC
:200540005AEA070706D172783178B61C01EB0221A0F84210032B07D07178327802EB01226C
:20056000028507E030AC0100AF4800683146283057F0E4FB08F00708B8F1030F07D0B8F19A
:20058000010F39D1354890F8AE04002834D033486669D0F880704FF00009E7B17B7E33F060
:2005A0007F0314D096F8300002280BD003280ED107F1700006F1280157F0A8FB38B11BE0B2
:2005C0007C1E0020B7F87000318D884214D057F80C7C002FE2D1B9F1000F0DD1934F484616
:2005E000E0700B9BF878C0F301111878CDF8349000F0780008433074109801285BD1174804
:2006000090F8400310B10F98022854DA88480078002850D00E9800284DD10D980F4E074684
:20062000DFF8F8A1DFF8F8910C9D96F8AF04012816D02846524600250223D570911C0B7034
:2006400017B143F010030B7003228870484680F84720816416F068F92AE0C04610010020FA
:20066000E9200DF1260114F07DF89DF82660052336B95046072200F10C010A70082204E05C
:20068000504600F10C010B7018224273881C022200260270CE701FB1027842F010020270BE
:2006A0000D71C9F8DC10A9F8D030032110F07EFBA589B4F806B0606981890909C0F08D809F
:2006C000806D5A46694657F0C1F86169886D58448865276AB1F85C0001225844A1F85C004C
:2006E0000DF125007919083157F0B0F86E1CB5B2A58161699DF82500896D087061699DF8B5
:2007000025709DF82530886D401C8865B1F85C00401CA1F85C0007F0070081F82400C3F375
:20072000C10781F8257091F8246020898146002E56D03C497F183A78121D1646E28086428F
:200740004EDC216A05A84919083157F07FF838789DF817209DF814304019001D80B23D782C
:20076000A08103EB026061699DF8163000EB03409DF8153000EB032088616DB12A4800686C
:200780006D1E06A92A461C3057F060F8387861696844C07D81F82600886D324605A957F060
:2007A00055F86169886D80198865B1F85C004FF0FF3706EB0642C9EA0040A0FA42F01FFA1C
:2007C000A0F217FA80F0A1F85C2082B22281B1F85C000A818018A1F85C0000F001FC0EE022
:2007E00017F074F912F0B2F809E0C0462018002016F0D6FF03E016F0D3FFCDF828800A9DE8
:2008000068688047216A0A680023137109682162A968884711B0BDE8F08FC046C81B0020DB
:200820007C130020FC9D01001034002014340020BB3500202DE9F047044660784FF0000ADB
:20084000ADF1200D42280DDC422800F09783401E0E2813D92F38082821D9103844D0401E3B
:2008600037D07CE3433825D0401E00F083830C3800F07C83401E00F0758370E3DFE810F0BB
:200880005F035703A20338039E039A039203D302C6026F036F038E038A03B802B002DFE817
:2008A00010F0A7017C006C0075035F00540046002C007103A088022838BF272407D3A06821
:2008C000024657F0CAF9911C16F0E0FD044643208CE2A08828B9C549182055F085FCC4B290
:2008E00000E02724412081E2A08818B916F068FE044600E02724402078E2A088CDF800A0E8
:20090000012818BF27240CD1A068CA4902786B46182055F069FC0099C4B20DF1110057F022
:200920006EF98DF810403720052104AADAE2A088012818BF272406D1A068C7490278182080
:2009400055F052FCC4B2362050E2A08828B9C349182055F049FCC4B200E02724352045E212
:20096000A088082818BF272405D1BD49A268182055F03AFCC4B2342038E2A088022818BF57
:20098000272408D1A06857F068F9B6490246182055F02AFC5446322028E2A1880329C0F09E
:2009A0002281A06890F800804046713800F00881401E012840F215815E3800F0E480401E45
:2009C00000F0C380401E00F0AB80401E00F09080401E5DD0401E3ED040468138022810D9C4
:2009E000001F01280DD9801E09D0401E09D0401E012804D9801E14BFFF20022002E00820FB
:200A000000E00120C91E814240F0ED8015F064FC071C00F0BF80A06841468139022900F172
:200A2000030015D9091F012912D9891E0AD0491E0ED0491E012905D9891E6FD157F00DF91F
:200A400038806BE001683A4611604068506065E00078387062E0072940F0C580052015F06B
:200A60003BFC071C00F09680A068401C10F8021B397010F8011B797010F8011BB97010F882
:200A8000011BF9700678524606B10122384677E0182940F0A8801C2015F01EFC071C79D0AC
:200AA000A3685B1C13F8020B3870184657F0D5F89E1CB880304657F0D0F8B51CF880294653
:200AC00007F1080016F0E4FF05F1080313F8010B514600B1012107F1100502263976184669
:200AE00057F0AAF81B1D761E45F8040BF7D115E0172978D1182015F0EFFB071C4AD0A5683E
:200B00006D1C15F8020B102229463870781C0FF02FF805F1100057F08FF87861384630E0F4
:200B2000052960D1042015F0D7FB071C32D0A068401C10F8011B397010F8011B797010F8F0
:200B4000011BB9700078F870E8E706294BD1052015F0C2FBF0B1A168491C11F8012B0270B9
:200B600011F8012B427011F8012B827011F8017B524607B10122C2700F78524607B1012243
:200B8000027107461AE00D292DD10C2015F0A4FB071C01D11A2427E0A068401C10F8011BD5
:200BA000397010F8011B79700268BE1C326045687560037A337210F8091FF972384602E00A
:200BC000032910D15046A060A368C849424618201F4655F009FBC4B237B1384615F074FF94
:200BE00002E0F42400E027243120FFE0296C0100A088032840F0F180A0680678451C1A24F1
:200C000030467138022840F2E6805F3816D0401E09D0401E10D0401E09D0401E05D0401E39
:200C200018BF08200BD1052009E01C2007E0182005E0C04625030100042000E00C2015F027
:200C40004BFB071C00F0C5803046D03802280BD9C01E02280AD90BE0C9AC000079C90000DD
:200C600005B80000B12901006878787028783870CE491820324655F0B7FACD4985B232464A
:200C80003B46182055F0B0FAC4B2002C40F09E80681C80B215F020FB5FEA000800F0958090
:200CA0008146304609F8014BD03870D0401E5FD0401E51D0401E40D0401E23D0401E57D012
:200CC000E8B24E46012818D0E8B202280FD0E8B2042807D0EAB2304639460EF049FFE8B224
:200CE00036180DE03968484656F089FF03E03988484656F0ACFF064602E0387806F8010BB1
:200D0000304656E03978484600F8011BB98856F09EFFF98856F09BFF07F1080116F0B8FE92
:200D2000397E022607F1100500F8011B55F8041B56F065FF761EF9D13BE038784D46791C4C
:200D4000102205F8010B28460EF012FF796905F1100056F054FF2CE03978484600F8011BFB
:200D6000797800F8011BB97800F8011BF9781EE03978484600F8011B797800F8011BB97831
:200D800000F8011BF97800F8011B39790FE03978484600F8011B7978BE1C00F8011B32684D
:200DA000026075684560337A0372F97A093000F8011BA0EB0900C1B242463020491C16F023
:200DC00097FE404615F080FE00E01A24384615F07BFE1CB9F9E0F42400E02724302005E035
:200DE000A088012814BF272426240F2021469BE0A088012818BF272106D1A06875490278A2
:200E0000182055F0F1F9C1B20E208DE0A088002808BF272105D0A1680878491C16F046FAF5
:200E20000146092080E00A202727ADF80C00A6888DF81870012E0CD1A0680478452C05D1A7
:200E400065491820462203AB55F0CEF9BDF80C0038B99DF8180000283DD1BDF80C00401CD8
:200E60003AE0BDF80C00401C80B215F035FA071C2ED0452C07D0791C204603AA14F000FFC1
:200E80008DF818000DE0452001A90DF10E0214F0F7FE0199BDF80C208DF81800781C0EF008
:200EA00067FE9DF8180038709DF81800002806BFBDF80C00401C0120ADF80C00BDF80C101E
:200EC0003A46082016F014FE384615F0FDFD7CE01A208DF818000120ADF80C00BDF80C10FF
:200EE00006AA082016F004FE6FE0C046E1700000A088042818BF272115D1A06801788DF80D
:200F00000810401C10F8011B8DF8091010F8011B8DF80B103149007802AA8DF80A00182072
:200F200055F062F9C1B2042016F044FC4DE0A08800280CBF54462724022021460DE0A08869
:200F4000012818BF272107D1A1680978504601B1012016F03FFB014601200C4646E74FF018
:200F6000260A32E0204612F091FA2EE0204612F0E9FC2AE0204612F00FFD26E0204613F0F4
:200F8000CDF822E0204610F071FE1EE020460EF0C7FB1AE0204612F0B5FF16E020460DF022
:200FA000D9FA12E0204611F00BFB0EE0ED3F0100CD900000204610F045FC06E020460AF09A
:200FC00097FB02E020460BF063FC504608B0BDE8F087C046C978010065470100D77B01002B
:200FE0002DE9F04FC04C60692689216AA589806DADF1440D32464919083156F027FC61693D
:20100000886DAD1980198865B848216A0678ADB2012249190DF13E00083156F017FCB44FD1
:201020006D1CADB2022E09D1216A38460122401C4919083156F00AFC6D1CADB2216A04A830
:2010400004224919083156F001FC2D1DA8B29DF813109DF810309DF81220A08103EB016024
:201060009DF81110636900EB024000EB0120049016F032FBD863049816F020F8A3F840001E
:20108000EA2016F006F9BA48DFF8E8A20221022E01700AD1B848801C007830B1387810B9D1
:2010A0007878FF2801D00420E0706569E078297C084328749DF93E0016F030FE85F8460057
:2010C00005F17407AF6529899DF93E006E6885F84800B5F85C004FF0000B401A80190146DD
:2010E0006860A88985F847B0820A18D2020950D310F0070F07D000F00700032812BF081CDB
:201100006868401C41E06968C87800F00702401000F0380000EB42004018001D35E0696878
:201120004878C7112BD12E89696658464B780A7803F07F035B0003EBE2137E2B0DD07F2BCF
:2011400009D002F07F0280188918801C891C80B28642EBDC09E0594600E0012185F8601091
:201160002989801C80B2814201DA584605E06968091869602989091A2981A5F86800686EB9
:2011800010B1B5F86800B0B168686861A889000918D295F86000002800F0FC80284613F069
:2011A00009F86569E86C002800F0F480B5F85000002840F0EF8004F1140016F0A9FD584669
:2011C00060610CE258465E46059095F82470069005A906AA07AB0796284605F07DF9002824
:2011E00040F0CD80B5F85C106869009101902E896968401A311A88B202900698001D03901F
:201200000598AB6DA9693A4615300BF0F1F8002840F0B580B94895F860302E89C15D701A54
:20122000288113B1284612F0C5FFAE8906F00706032E02D168680078E87395F80F8073207D
:2012400009A915F071F8832010A907F03FFFD94659460AE0C278012A03D1002F08BFDC200A
:2012600028D0001D491C0990C9B29DF84000884240F3848009988278032E07D00378B342F7
:201280000DD09AF840330BB1022E08D0032EE8D10378032BE5D103465B784345E1D1BB103E
:2012A000B3EBA20F05DA02F0030207F003039A42D0DD58468446059895F80FE090F81480E6
:2012C000594601E0491CC9B288454FDD07694B00032E07EB03020DD1FB5C032BF2D15278E2
:2012E0007245EFD10FE0C046FC330020BF050020081F00201278B24205D09AF84023002A96
:20130000E0D0022EDED10698077D002F08BFBCF1DC0F33D0A869B0F1FF3F25D0712008A964
:2013200015F002F8089B5846AA6905998B4206D10699814601EB8901C968914212D8401CF2
:201340002C330228F1DB0698521CB2F1FF3F00EB8900C26002D107980121817085F801B002
:2013600058460DE0DB200BE0DB2008E0DC2006E0B9350020100100207A1E0020DD2068706B
:2013800065696870A8696F7868651FB1F22015F080FF65699AF84003002800F09E80A98971
:2013A000914E01F00702022A5FD16778002F5CD16F78002F59D16169D8460DF136008DF8DC
:2013C0003F80283156F0BAFC61690BA80A22283156F03CFA06F1100167690888DAF86433AA
:2013E000401C0880786E0DF13F020421984704F11409354630B9DAF8040018B19DF83F10E7
:2014000080F86810676997F83000022811D1D9F800000AF22C410E4602222830203115F0E1
:20142000CBFA30B906F116010DF1360056F086FC67696E480078862807D1688A401C688238
:20144000B88900F0100010F02FFD9AF8400320B1DAF8881309B160698847484616F058FCD2
:201460005846606115F0C4FEBBE0614A17785FB3C1F30131022927D16878002840F0AF80EF
:20148000E7789DF83E105F48B38A05F128021C35002F017003F10100B0820CBF594608215B
:2014A000544B5846186000910195BAF85234117A0D2004F005FF10B915F036FA01E015F084
:2014C00035FE4D486569007838B1DAF8881321B12846884765699AF84003AF890A9507F028
:2014E000070778B1A87BFF2875D0032F08D1284640680078042805DD6DE0C046009E01008D
:20150000012F68D1381C3AD0401E4FD0801E62D1A889C0F30130022803D16868007807282C
:201520002BD02889002856D0284641684A1C42600F78AC46C7739CF824606EB9002F4AD057
:201540000A2F48DA2D490089C95D814209D0082F41D1082805D03EE0C07B00283BD00A2863
:2015600039DA28460189491E0181C17B0B3101700A99C87B401CC8731AE0322017E09AF83C
:2015800039040F280CD016F0CFF848B90A988189091301F00201022902DADAF810108847A9
:2015A0009AF86F040A9D2874152000E0162028700A990AF1840056F093F8114D6868804718
:2015C0009AF88C10491C8AF88C10A9688847202016F0C2F944E70AA813F074FE40E711F0FF
:2015E000B5F911B0BDE8F08F481D0020BD350020BB350020D01B002050040020079E01008C
:20160000D81800207A1E00202DE9F04FADF18C0D1C9104461D920DF15700D1491E93082286
:2016200056F014F92046694614F085F81F90002804BF0020229000F0098202200027A41CD1
:20164000DFF824B32090C74E2297204602A912F0C8FA5FEA000900F0F68122990DF13900DE
:20166000162256F00FF99DF809707F1E00F088807F1E40F0E081B9F10B0FC0F2E781A41C75
:2016800004A80422214656F0E1F8241D05A80222214656F0DBF842F20B000DF1160112F00A
:2016A0007FFCBDF81600BDF81410884200F3CE81A41C14F8010B0DF1390214F8017B8DF8E1
:2016C000390014F8015B8DF83A7014F8011B8DF83B50204606F048FCC34909780028044465
:2016E00000F0B4811F9D012905F1020500F09C814FF400500DF14F0112F052FC0DF14F0057
:201700000DF15701082215F057F940B11C990DF14F00082215F050F9002840F0858142F2F7
:20172000010004A906F0CCFD42F20B0005A906F0C7FD42F205000DF1390106F0C1FD0DF172
:201740003A0142F2060006F0BBFD0DF13B0142F2070006F0B5FD0FA942F2090006F0B0FDB1
:201760009DF83C0028B1022840F05E8142F2030001E042F20D000DF13D0106F0A1FD53E129
:20178000B9F1050FC0F26281A41C14F8010B0DF1390214F8017B8DF8390014F8015B8DF8B2
:2017A0003A7014F8011B8DF83B50204606F0DCFB0028044400F04A811C9806A906F01CFF75
:2017C0009DF83600002840F011819DF83C0000287DD1B6F84E70002F00F00481B6F85200FD
:2017E000874207D0308B718B884201D10AF09AFAB06D21E0B76D4FF400500DF15F0112F033
:20180000CFFB15F0E1F94FF6FF78229D2190AA46B6F84E00A84243DCB06D4FF6FF714145A6
:201820000AD04FEA480707EB88073818808813F02DF9B06D3F1823D1B6F84E300746002B38
:2018400008BF229D19D05846229D40681946D846BF1FBF1DFA782AB1491E05F10105F8D164
:20186000BF1D0AE08047B6F85210491CA6F85210D8F808108847B6F84E30AB4200F099808D
:201880001C980BF05FF9B8800120F870FD788DF83650B888ADF83700229B8DF82330A5E0CA
:2018A000B88812F017FA014608220DF15F0015F083F840B138880104219816F001FA824550
:2018C0003CBF8246A8466D1CBF1DADB2A0E7B6F84C70002F00F08680B6F85000874207D0DF
:2018E000308B718B884201D10AF01CFA706D20E0776D4FF400500DF1670112F051FB15F078
:2019000063F94FF6FF78229D2190AA46B6F84C00A84250DC706D4FF6FF71414509D008EB5B
:2019200048173818B0F81F0013F0B0F8706D3F1829D1B6F84C300746002B08BF229D20D040
:20194000DBF80400229D1946D846213F2137BA7F62B1491E05F10105F8D1213711E0C046F5
:2019600054A50100C00E0020D81800208047B6F85010491CA6F85010D8F808108847B6F8D2
:201980004C30AB4215D022993846212255F07AFF1C980BF0D7F8A7F81F000123FF203946C1
:2019A0002122BB770546787206A8FD7255F04EFF1CE0612060E0B7F81F0012F08BF9014676
:2019C00008220DF1670014F0F7FF38B17968219816F076F982453CBF8246A8466D1C21372D
:2019E000ADB293E7642047E0120100209DF836000DF13901162240F004008DF8360008A856
:201A000055F024FF1F9D9DF83C00AD1C48B19DF84E700DF13D00394611F030FC3F1A8DF8F7
:201A2000357006A810F0E6FA209809EB0007BF1CB8B2209003E01F9D4C44A41CAD1C20985B
:201A400085423FF702AE2098022803DC229A672011460DE01F9F01460220C0EA014207EB8B
:201A60000741A1FA42F21FFAA2F110FA82F222981D9B19801E990A8023B0BDE8F08F70472B
:201A8000D6482DE9F04F14300168ADF11C0D31B1CD480078012814BF002001208847DFF80D
:201AA00034B3CA4DCA4FCC4C9BF8AF042979012861D0E86801290CD158B1002011F0C0FF75
:201AC000386A4168E8688847D748012101700020E86002214FF00108297138B9386A016A7F
:201AE00005F1140088474FF4FA70E88413F00EF9F8698069006860639BF96E040FF01AFF57
:201B00004FF6FF71814218BF60860026668404F12D016662087868F30300087015F0CAFF71
:201B200030B9D548D94A102114230170501C0370E86858B9386A0668F96AD04804F12002C1
:201B400005F11403B0472F46044612E0304611F077FF8DF80C6033468DF80D60386A029350
:201B6000066D08228DE80C00E8682034214602AAB047FC607CE1E86802290CD158B100205F
:201B800011F05EFF386A4168E8688847A648012101700020E860012129714FF00008CDF8CC
:201BA00010808DF814808DF81580A8B9B448006812F068FA012812BF85F801800120687048
:201BC000386A016A05F1140088474FF4FA70E884AC4EAE620623EB6213F098F8AA49786A1E
:201BE0004DC88A468AE84D009BF8AD64F86981F8008026B980690068C4F8FC0005E0C0694D
:201C00000068C4F8FC0015F083FA632006A912F0A9FD9BF87F94484614F0C2F804F1EE0271
:201C2000014610780123B9F1800F63F30200107005DDB9F1840F1FDBB9F1860F10DB0F202E
:201C400004F1F70284F8F000107868F303001070887B052814BF2420292084F8F40019E0CB
:201C60000F2084F8F000292684F8F46004F1F700027868F303020CE00F2084F8F000212616
:201C800084F8F46004F1F700027822F00F0242F00802027004F1F5021078B9F1800F68F335
:201CA0008710107002DDB9F1840F1ADB8E7A86B904F1F5039DF818001A78401E60F30502D1
:201CC00004F1F6001A70027822F03F0242F0180216E004F1F5029DF81830107863F30500D4
:201CE00006E004F1F502107820F03F0040F00200107004F1F600027822F03F0242F020027D
:201D00000270887B8A890A2604F1EE03401D504390FBF6F21E8862F3CD061E80888919220A
:201D200004F1F006800390FBF2F3326863F31C2204F1F8033260FA69187892F8246066F3BB
:201D40000200187092F8240004F1F806C310307863F3C30030704AF63F33A4F8FA3008891B
:201D60004B680E68401E434306EB53004FF47A73B0FBF3F0166AA4F800013078A4F8E28091
:201D8000C4F8E48004F1ED0284F804011078012666F30300107015F08DFE30BB8889364E23
:201DA000B9F1020FB3FBF0F0C1B238483170B3FBF1F2427014D0B9F1840F16DBB9F1860FB2
:201DC00013DA05225C210DE0BF0500202C1C002020180020100100207C1300203C1800208D
:201DE0000222A8212A4B1A700170E8683E6A70B3404611F025FEA8789BF87F14884215D1CB
:201E0000E9789BF8AD243E6AE868914210D1022142468DE80600366DE034434604AA2146D6
:201E2000B047FC601EE0C0463E1F00203E6AE86871688847012117483B6A01701E680F48BA
:201E400004F1E002514605F11403B04707E004F1E0020A48346805F114035146A047E86091
:201E6000786AB8629BF87F04A8709BF8AD74EF7007B0BDE8F08FC046701D00202030002027
:201E800094120050E168010088350020781E0020481D00203E1F00202DE9F04FCE4CADF160
:201EA0003C0DDFF838A3DFF83893DFF83CB3D04F0C90616894F8AF04012800F081800120C1
:201EC00052464E4610703278012A02D001F026FA61680D894E6894F86F040BF0F5FE01F0AB
:201EE00091FBC04CDFF8048304F1380908F1040089F80F500068A6640025658780478246C7
:201F00005A4607F120000C9B0668106833F0010335D104F1A00104F138024D8004F1AD0318
:201F2000C4F8A4201A7822F00F0242F002021A7004F1AC031A7865F303021A7004F1B703E0
:201F40001A7822F00F0242F004021A70658749F64043C4F8BC3004F144031A7865F3030289
:201F60001A708DF814500495B64B8DF8155008248DE83000346D04AAA0474C460FE08DF85D
:201F8000145038348DF815502A466580AD4B049208218DE80600356D04AA2146A847AA4967
:201FA00046460880B16800280A4607D4A74991F90000FC60401C0870504638E1504639E198
:201FC0004FF0000808894A68A14ECDF82480C500127830781035920906D340F6485292FB12
:201FE000F0F2AD1805F5AF750E7D68438500352E0CBF46464FF4FA560DF12E01E82012F0DD
:20200000B1FB9DF82E00032808BF44F620666068007DAD19352803D1D4F8A40380474543A1
:2020200002205E468DF828003068089508A90CF093FE4E46012051460870317887F800804E
:20204000012901D001F06AF960680589466814F08BFEDFF800B23088BA46000942D394F8B5
:2020600040736168002F3DD04B6A4F6E986AB0F1FF3F26D02FB3421C9A628862030E07F829
:202080000139606890F82A0007F80109606890F8290007F80109606890F828003870626817
:2020A000106A00950190801B281A80B20290916A506A92F88C203346153009F031FD0746C2
:2020C00000E0DB27D4F8841367B119B9E4200EF073F904E0604880F80080E4208847002FDD
:2020E00040F0AC80294630460EF060FE64200BA912F038FB594894F84073007837B994F802
:202100006F040BF0E1FD012805D094E00BF0DCFD012840F09080524BA81C87B20DF12D01FE
:20212000E9201F8012F01EFB9DF82D00012805D13D46C5F3022040F0180005E02D1DADB2E8
:20214000C5F3022040F0080006F8010D06F8015D244D9DF82C00A5F8C2800028C5F8DC60D3
:202160000CBF40484048CDF8188002238DF81D8005F168068DF81C3005F1C009A6F80280CC
:2021800005F17501C5F81801184FC9F81800087820F00F0040F003000870786880470D902F
:2021A000284B0C98012825D0042823D088B105280DD0032808D194F87F0413F0F1FDC07B49
:2021C000022818BF4E4617E005F1C00614E0274B12E005F184060FE0100100202F1E002052
:2021E0003D1F00207C130020381C0020D81800202018002005F16806DAF82000046D41468A
:2022000002208DE80300DBF80C0006AA3146A047BE680D490028324608800AD40B4991F9D7
:202220000000C035401C08700D98CAF80C50904704E00D9890471A200EF0BEF80FB0BDE889
:20224000F08FC046E9660000C81B0020361E0020701D00202C1C0020BD3500207B1E002053
:202260004C1400204E9055550E7A555511E300002DE9F04F064692F80890307D09AF88463A
:20228000ADF1240D04933528039205D0114606F170000A2255F0DAFADFF8D4C238F07F05F5
:2022A00006BF604600884FF6FF700590F08A800934BF002008203076F08AC00834BF102099
:2022C00080207076F08A400903D260460E30007800E00020B076F08A41082CBF2024002448
:2022E000000928BF44F010047368002108F07F08307D06915B1E02280EDB0D2808DA0C2810
:2023000003D1022044F40854069044F0030404E00D280CBF02200120044396F88C0008B121
:2023200044F00804210900D320B1B34D95F8642412B908B1DF204EE1210973D306F124013C
:20234000DFF8A8A296F88DB0079100EB0A011AF80B300A7999183389491DCAB29918A44B44
:202360001A8808908A42C0F23881002851D0049A039906F184000BF0DBFB079900280860ED
:2023800044D0806AB0F1FF3F3ED07068BBF1000F4FF00003A0F1010012D096F88E10524645
:2023A00000F8011912F80B10491EC9B241B18A1992F88320491EC9B2002900F80129F6D14E
:2023C000079970660968896AB162090E00F8011996F82A1000F8011996F82910089A00F8AC
:2023E000011996F828100BF0030B00F8011902F0070141EACB0101707168091ACAB231894E
:2024000070608918318105E0DB2700E0F3277770E4E00023F08A7370C00828BF44F0100496
:2024200073685B1E326DA2B9B26D92B995F87D14012903D13089B0F5EE7F06DA200904D21E
:2024400002290AD144F4005401E044F48054012002E044F4085402200690A87801280CD089
:2024600095F8400348B196F86B00042805D1022024F48054069044F4005444EA8834B8F1D5
:20248000020FA4B20CD0B8F1030F12D1A3F1070A05F58E61504655F051FCAAF1010308E01E
:2024A000B5F85604001203F8010995F8560403F80109069802280CD0B8F1000F15D0B9F127
:2024C000000F0CD004990598814208D144F040040BE0B9F1000F08D1B8F1000F05D005991B
:2024E000081203F8010903F8011944EA8924B9F1020FA4B20BD0B9F1030F10D10399A3F114
:202500000708404655F01AFCA8F1010307E003990888001203F80109087803F80109B9F1D5
:20252000000F05D00498011203F8011903F801093878F8B92F480178307D0D2814D068B9B6
:20254000306D28B995F84004411C85F840140AE095F86504411C85F8651404E095F84E0408
:20256000411C85F84E14014603F8011904E0C0466205002044F48074201203F801091C7063
:2025800070683789C01AC1B2736078183081200920D3B06D00B1306295F8400310B1307D88
:2025A0000D2817D1706A816A4A1C82623289306AB162C71A0092D21B019090B20290706AE8
:2025C00096F88C20153009F0ABFA00281CBF7070071C07D10020707005E0E5277770F32015
:2025E00014F057FEF8B209B0BDE8F08FFC9D01006C1E00200034002010010020B1482DE923
:20260000F04F8846ADF1140DB14DAF4903920078AE4A9A4601286AD001230B70C848039B63
:202620004FF0E04600240227884616EA0A060068147007EA030708BF002F34D14FF4803134
:202640001A4614EA0A0501EA020108BF00291AD122464FF4003112EA0A0501EA030108BFA7
:2026600000290CD14FF4800112EA0A0201EA030108BF00290AD0047110F068F906E004719E
:2026800011F0C0FF02E00471FDF7DAFC03992546202015EA0A0500EA010008BF002813D047
:2026A00014F044FD10E095F90010AB4A491E297092F90010491E117095F900500DB9A7493B
:2026C0000C80047110F042F9A34991F9000028B1002E0CBF002F91F9000004E0A04804707D
:2026E000204600F01BFE0094CDF804802DE10120002316460191DFF86CB29C4C08702027B2
:202700001A460399009317EA0A07327003EA010008BF002876D108464FF0E047104017EA4D
:202720000A0708BF002843D14FF48601039BBBF80A01DFF83CC2CDF808B012EA0A0701EA15
:20274000030108BF002919D1874912EA0A0701EA030108BF002970D004F13801A4F808804D
:2027600099466081BAF1000F81E8000604BF4946B1F1806F61D102285FD111E004F13801E2
:20278000A4F8088099466081BAF1000F81E8000604BF4946B1F5803F4FD1B0F5505F4CD1E4
:2027A0002046006A6746436938684146984742E0264695F90000B6F90870401EB8452870B4
:2027C00017D1728906F1380003C8002904BFB0F5803FB2F5505F08D0002904BFB0F1806F22
:2027E000022A02D010F0B2F803E011F00BFF14F0F9FD594A92F90000401E10706FF00101DC
:20280000318116E05E4E6FF0010004F1080196F8407308806FB157480078832802D05649EA
:20282000812008702646316919B1184688474146E6E7CDF808B0BBF80A010399464E00279C
:202840004FF0020917EA0A0309EA010108BF00295FD043F2014181423CD0C91C814239D015
:20286000B4F9083095F900109845A1F10101297004D043F60401814237D134E004F13800AD
:2028800003C84FF4820217EA010302EA000208BF002A13D104F1380090E800183B464FF45D
:2028A000003213EA0C0302EA0B0008BF002802D110F04CF819E011F0A5FE16E0FDF7C0FB9B
:2028C00013E0C046BF0500203D1F0020301E0020371E0020A07895F90030401CA070581E04
:2028E000287010F033F814F04BFC0298244A39466FF00103A0F80A1192F84003238110B1FB
:202900001E4804780CB914F06DFD96F90000401E307095F9000010B911483946017096F9E6
:20292000000078B103994FF0E047484617EA0A0700EA01000CBF002896F9000005E0C04674
:202940000C340020384600F0E9FC0198009905B00170BDE8F08FC046361E0020B6140020E4
:202960002E1E00207C13002000000C8C20180020381C0020BD350020B9350020BB350020A8
:20298000100100202DE9F84FDFF844830F460646F80B80F05B81C24DCB4CDFF81C932878CF
:2029A000B90F80F0EA80B90880F0DD80DFF8F8A2DFF810B3F90A80F0B380B90B80F09E80E4
:2029C000DFF8E082790B50D2380C40D23809C0F0608113F0C3FB002834D0554644460321BA
:2029E00028682170783015F067F90CF0FFF8AF48007818B92868403015F07CF9022012F0D8
:202A000039FF11200BF092FA2868007C10B90E200BF08CFAA649087820B100200870052045
:202A200012F028FFA34815F003F800224846B0F91410B0F916002270814214BF02200720D5
:202A40000DF0FCFE27F0080710F07EFA21E14846416889684E88002EFAD04168896849887E
:202A60000129F5D027F40047EEE720B1042012F001FF0020287012F017FF0146002001B150
:202A80000120002540B1B0696FF480712A464FF0007384463046E047884889492A4615F0F2
:202AA00019F9B0684146022203880A70A3F602032BB141F21E015B1A18BF183000D11030CB
:202AC000018821F47C7141F434710180757420685C46006B2668804752467C4912680B68F3
:202AE000934214BF01222A1C26B1801B01EB8201000B886027F480572560A5E7404615F063
:202B0000F5F8011C09D0486838B14A68C868B1F92C10202314460022A04727F40057B8E0C1
:202B200015F0D2F88046484615F0E0F8061C14D05546286810B1783015F0BEF82068F1685F
:202B4000006B296080475C462060624814F070FF61484FF4006115F0D5F8404615F0B6F922
:202B600027F4806795E008F01DFC4846103015F0BDF808B927F002078BE0584A116841F0AD
:202B80008001116020B1042012F074FE0020287015F09AF88046B0680188A1F602052DB1A8
:202BA00041F21E016D1A18BF183000D1103001884B4D21F47C7141F434710180286808B343
:202BC000606D0068014604208847D8B120682C68006B8047F168001B728AF060F068000B8C
:202BE000F060F0688018F060F068884203D240184008F060F06840F6C41181422CBFB0F5A8
:202C0000FA7FF160404615F061F912F04DFE90B1B0696FF4807100224FF000730446304676
:202C2000A047484615F062F8002808BF47F0020701D010F089F9706900214FF080630446D8
:202C40000A463046A04727F0005722E015F03CF80146404615F04AF8061C15D0356AA808B4
:202C600012D225EA05003062084615F02FF9706868B165B17168B6F92CC0F06800232A46E9
:202C80008E466146F04702E0084615F01FF927F480471FB11048394615F034F8BDE8F88F4F
:202CA00082340020B03500206C34002080340020813400201DBA000034350020C434002058
:202CC00095930000743400208C010010003300203C35002071AA00006C330020CC21084074
:202CE00070340020B0B50446C6480768ADF1480D002F00F085812078401E112800F28081AA
:202D0000DFE810F063014F013501200119010301F100E300C300B2008D005D0053004200FB
:202D20007E012A001C001200F86B002800F06881684621460DF054FEF96B5FE1386C002884
:202D400000F05E816846002101220EF041FD60788DF80000396C51E1F86A002800F05081F7
:202D6000684600210E220EF033FDA11C684614F0F1FAA57BA1890022ADF80A1005B10122C8
:202D80008DF80C20F96A3AE1B86B002800F038816846002102220EF01BFDA5788DF8015014
:202DA00060788DF80000B96B28E1786B002800F02781684621460DF013FE796B1EE1386B3D
:202DC00008B36846002114220EF002FDA5788DF80150A3680193A289ADF80820A17B8DF80B
:202DE0000A1060788DF80000E57B8DF80B50237C8DF80C3094F911208DF80D2061690491ED
:202E0000396B684688476068002800F0F9800146F22008700020487012F092F8F0E0B86A11
:202E2000002800F0ED806846002124220EF0D0FC6078A11C8DF800000DF1020014F08AFA8C
:202E400004F10C0103A814F085FA257EE08A04F119018DF818500B22ADF816000DF119003A
:202E60000CF086FEB96AC9E0786A002800F0C8806846002102220EF0ABFCA5788DF8015039
:202E800060788DF80000796AB8E0386A002800F0B7806846002112220EF09AFC658862790A
:202EA0006078ADF8025023798DF80520E11D8DF80000A5798DF804300B220DF107008DF8EC
:202EC00006500CF055FE396A98E0F869002800F097806846002101220EF07AFC60788DF8DF
:202EE0000000F9698AE0B86910B1204610F0D2FDA07820B9A069002800F0828002E0A069F0
:202F000000287DD013F0C0FD7AE07869002877D06846002113220EF05BFC6D46A01C0168A1
:202F2000406829600B22686004F10A0102A80CF01FFE796962E03869002861D020460CF028
:202F400065F85DE0F86800285AD0684600210E220EF03EFC6078A11C8DF800000DF10200D4
:202F600014F0F8F9A089ADF80C00F96846E0B868002845D06846002114220EF029FCA01CBA
:202F800001686D46296040686860A07A0B2204F10B018DF808000DF109000CF0E9FDB9683D
:202FA0002CE0786860B36846002110220EF010FC60786588211D8DF800000B22ADF802505B
:202FC00001A80CF0D5FD796818E03868C0B16846002119220EF0FCFBA01C01686D46296030
:202FE00040686860A07A02A912F001FA0B220DF10E0004F10B010CF0BBFD39686846884793
:2030000012B0B0BD201E00202DE9F04FBF4DDFF80493C14C4FF000084FF0010AADF11C0DEF
:20302000E0694FF0FF3114F04DFFD9F8040080476789E688A288A4F80A802189A4F8068072
:20304000114347EA010246EA0201A180D9F80810A4F808808847A188080A03D34FF67F7073
:203060000840A08008200927ADF80000D9F80010ADF8027068468847DDF808B00028CDF8FC
:203080000CB039D120789DF80620616A904233D139B1A078401E02D0401E02D126E058466F
:2030A000884758460DF062FA071C25D00C2013F027F9061C1DD0D9F804008047B7603B786E
:2030C00083465BB92069314614F0F8FEA08840F01000A080E06914F0EDFE05E0304613F0FB
:2030E00003FD384613F000FDD9F808105846884702E0384613F0F8FCA38858092ED320698F
:2031000014F0D4FEE8B9D9F8041014F0A3FCC0B988470646206914F0C5FE071C0DD0B868AC
:203120004068A061B968486849880DF067FAB86813F0DAFC384613F0D7FCD9F8081030463A
:203140008847206914F0B2FE20B9E06914F0B2FEA38803E0A38823F01003A3809808C0F0BB
:20316000968080E004A8514612F050FB287800286DD0401E71D0401E5ED0401E47D0401E46
:203180001ED0401E6FD19DF810006978A8706F68A868C91CCEB20590314614F083F99DF898
:2031A0001010814205D147B1059930464246B84703E05748006813F0A7FC85F8008052E004
:2031C000AF68E8789DF81010C019C170E878401CC3B2EB7013F038FD6978C6B2C91AB142C6
:2031E0000CDBD8193146C01C12F010FBE87869788019C0B2E870814224D034E0DB1989B2F9
:20320000DB1C184612F002FB6878E8701AE09DF8100085F803809DF810706870F81C13F07F
:2032200033F80028A86008BF85F8008020D06978017085F800A016E09DF81000A96888706C
:20324000687810B9052028700DE00420FBE79DF81000FE2807D10320F5E79DF81000A968BD
:20326000487002272F7013F0EFFC00287FF47AAFA38813F0E9FC30B94FF6FD70184023F003
:203280000203A08003E0E06914F014FEA388180927D3606914F006FE071C15D0216A69B103
:2032A000607858B1401E02D0401E0AD103E0B86811F06CFC216AB868884702E0B86811F0DB
:2032C00065FC384613F010FC606914F0EFFD20B9E06914F0EFFDA38803E0A38823F00803DE
:2032E000A380D808FFF49CAE4FF6FB701840A080206914F0DBFD00287FF492AEA08840F0CE
:203300001000A080E06914F0D5FD89E6581E0020601E0020D8180020580B00202DE9F04FD3
:20332000B74C05466068ADF1340D8047DFF87CB2A24FAC4E012D0B9000F0C4809BF8390414
:203340009F4D0F2850D09A4890F9000010F1020F05D1984890F9000010F1020F44D0964C66
:2033600020783B68099003F13C0000688047099F61680023401AB900B0FBF1F2E768A0688E
:203380000A9704F1180787E80C000A9F98464146BA4271EB080102DA3946884206D807463E
:2033A0004146BA4271EB08011EDA0A90B9469A4604F11801B9EB02097AEB030A81E8000616
:2033C000099A04F1180003C81346DB1714F08EF8183440F6B832D317801A9941002984E83E
:2033E0000300BCBF0120287014F014F8002864D074480078002860D17348007800285CD115
:2034000072480078002858D171480078002854D12878002851D16F48007800284DD16E4896
:203420000078002849D16D480078002845D1002054F02CFA002840D1694F9BF8AF94387866
:2034400000283AD1684C206A436CF068022106AA98479DF8180080B3DFF85481226AF068D2
:2034600098F90010002511F1020F18BF01254FF0010A2DB1926B98F900109047226AF068F5
:203480004C4D95F9001011F1020F03D0926B95F9001090476FF00100287088F8000087F8A6
:2034A00000A0002013F026FE206AC169F0688847B9F1010F04BF0020607051490B988968AF
:2034C000884770E0012054F0E1F921460B9889688847464800780F280DD008F0A3FB386874
:2034E0000C36436C3068022107AA98479DF81C00002856D057E03A4D9BF8AF842878012844
:203500004FD1012013F0F6FD394F97F8C2000028FBD1354C206A436CF068022108AA9847E1
:203520009DF8200050B197F8C20038B92878012837D10020287013F079FF32E0304840685D
:2035400080472C4B814602210022B8F1010FF068297003F11007256A274E7A8009D00492FF
:203560008DF8141001238DF815308DE8060004AA09E002928DF80C108DF80D2003F11007B0
:203580008DE8060002AA2D6D39463346A8471B491B4E91F90000401C0870B168E76048466A
:2035A000884713F0AFF90DB0BDE8F08F100100202C1E00202D1E0020701D00204018002085
:2035C000BC350020B9350020BB350020BD350020BA3500202E1E00202F1E0020301E002054
:2035E0003E1F00202C1C00202018002049050020203000207C1300204D4D0100361E0020F2
:20360000D81800202DE9F04FAA4C6068ADF12C0D8047A94A1178A94D08911278A168012A20
:203620000BD0A54A01241470884728780795012805D02046FFF772FE01E088470795AA4DFF
:203640009F4CDFF8888295F8AF14E068012900F0B080DFF870B29BF9000028B19A4890F9EB
:203660000000002840F0AF80924840688047099000268DF8146004964FF001098DF81590B5
:2036800008F59C7AC8F8406108F5A271AAF80260087808F5A27766F303000870387808F28E
:2036A000531369F3C7103870187808F2531269F300001870107808F2531769F341001070ED
:2036C000387808F2531366F382003870187808F2531266F3C3001870107866F3041010704F
:2036E00098F8530108F5AA7140F0600088F85301F42011F037F8206A754A076D764B7548EB
:2037000031468DE803001068514604AAB8476949A08000288968AF78069148D46A496F4BCC
:2037200091F90000401C087093F90000002F00F1010018709BF90000C4F80CA000F1010008
:203740008BF8000014BF8021311CB4F85C004FF67F7208F5A876024011430843A4F85C00F3
:20376000307867F3C7103070B5F85204B5F85634082204F15F0705F58E663146A4F86A00A6
:203780003846A4F8683054F061F8B5F852040822B5F85644A8F86A013146A8F8684108F59E
:2037A000B07054F053F80699099888476CE0B146FAE708F5847108F58477814205D142481A
:2037C00090F9000008B100265FE03A48406880470026824695F84033A8F80A61002B07BF67
:2037E0004FF48600311C3E482021B1463D4A8DF80D601378CDF808909B0904D21278120975
:2038000038BF012200D302228DF80C20226A166D314B2F4A8DE803001068394602AAB047D0
:20382000244900288E68A0802CD427492B4B91F90000AA78401C087093F90000E760002A7A
:2038400000F1010018700CBF4F468027B4F85C00B5F852344FF67F71082201400F4338433F
:2038600005F58E61A4F85C00B5F85674A4F86A3004F15F00A4F8687053F0E8FF5046B0473B
:20388000012602E05046B0474E460A48406880470849896816B9084B089A1A70884707983F
:2038A0000078012802D00020FFF738FD30460BB0BDE8F08FD81800202E1E00203D1F0020FD
:2038C00020180020381E0020371E00207C130020381C002020004300FD250000361E002089
:2038E00000004F8CBA35002010010020B3492DE9F04F09781346ADF1240D814240F05A81E5
:2039000058781F789E780690FB2F079680F23A8100F01E004FF001090A2880F22F81069857
:20392000A74900F01F0051F82060002E089600F02581069ADD1CADF80C70079E8DF8082051
:2039400028468DF8096032F07F04049000F01281002F4FF0040A00F0F78001781B798DF8DA
:203960000B1021F007048DF80A30083C00F0E580DFF85082083C4ED0083C07D0083C40F01E
:20398000D980032F08BF4FF0000ADDE0032F40F0DB80841C04944446257DADF80C90002746
:2039A000012D30D1257F95422AD1627FB24227D1E27F514011F0070F22D1A17F99421DD1B0
:2039C0008078A8B1401E12D0401E032818D9001F02D0401E14D008E0607D1B1AB3F1FF3FCD
:2039E00006D007200FF006FFA2E008270EE0B94602A849460CF00AF9074604E0032705E0B0
:203A000007200FF0F7FE002F00F092803A4602A8202100278AE0042FC0F296808346A81CD6
:203A200054F01BF94446054620783F1FFEB2002701282BD19DF80810227A914223D19DF8C2
:203A40000910627A91421ED19DF80A10A27A914219DB9DF80BC0E37A9C4512D1A3899D4291
:203A60000DD1914206D0A1788E420DD0A1888E4205D109E002202070A1788E4204D0574635
:203A800002E0022700E00327216927B99DF80A30042808D020E0084613F006F8504620705F
:203AA0009DF80A30A372ABB902A90EC904F1080080E80E00284612F0FBFB2061002804BFF7
:203AC0002078062708D000206070A670A580A581207005E007B90327042823D002281DD063
:203AE0002169A0789DF80A20884612FB00F080B2324640180BF104010CF03AF89DF80A00CA
:203B0000A072A088801B86B2A68036B9CDF81080ADF80C500627D14602E02078042801D072
:203B20004E46267004F1080018213A4612F02CFBBA4609E04FF0050A06E07F1E401CADF8C1
:203B40000C704FF0060A0490D146B9F1060F15D1089902A888478146049878B101901A48B1
:203B600008210527ADF800100168ADF802706846884703E0089902A888478146B9F1000FC1
:203B800002D10FE04FF004090698079F8DF81490002103228DF8150005AB8DF8167060208F
:203BA00004F0C2FE09490888401C08800020022153F0C6FF09B0BDE8F08FC046580B0020DA
:203BC000201D0020D4330020D8180020841900202DE9F04FAF4C0746201DDFF8B482006845
:203BE0008946ADF13C0D4FF0000B017DADF80CB0252900F00781703005A904F0FDFC0028BD
:203C000018BFC0B240F0418101A804A90DF046FF13F0B8FB00280CBF41F2081543F2C825B6
:203C200004A901A80DF03AFF98F82B0201993B684FF47A7A10FB0AF00AFB1100C01A85420B
:203C4000C0F2DD80D8F80422521A0AFB02F1C91A8D4200F3D480854208DD002806DD95FBBB
:203C6000FAF04FF4916110FB013038609DF81F0000285DD042F204000DF1360110F090F952
:203C800012F082FF0699441A42F206000DF1350110F086F99DF835009DF81D10FF2804BF41
:203CA0000A208DF83500FF2908BF0A219DF835609DF81C507848B4FBF0F2701884B2564630
:203CC000A81054437043A04298BF041C41F20810241805A812F0DFFC9DF81C103D68B0FB67
:203CE000F1F24A43821A11FB06F192B206FB02F3CA1AC91A521B491B8C4201D900290CD531
:203D00006142914216D2002A14D53968B4FBF6F24FF4916312FB031508E061003C684FF46E
:203D20009163B1FBF6F18AB203FB02453D6001E03D68584606460DF1120102A80DF0AEFE0A
:203D40000298D8F804125C46B5FBFAF280180290814203D998F82B32834202D998F89871B6
:203D60002FBB9DF81C00B6180004B04298BF361A9DF81F00002808BF9DF8200024D09DF85C
:203D80001C00B6FBF0F085B2BDF833000FF0A2FF9DF831200146284610F058FC054612F07B
:203DA00067FC024608A9284610F00CFB0CE0814204D8BDF81200401CADF81200BDF8120006
:203DC00098F89B110EF000F889F80000314F88F8F5017868007D052812D1384690F855046E
:203DE00070B999F8000003A9ADF80C0042F20C0004F066FABDF80C00A8F8F00100E065245D
:203E0000204642E013F0BEFA00280CBF41F2081443F2C824214800784FF47A7510FB05F1E8
:203E20003868091BA1F5FA62824206D2A1F57A61B0FBF1F24A43801A386068460DF10E01B7
:203E40000DF02CFE3868009998F82B6205FB0102009216FB05F18A1A944211DCA1F5FA61F1
:203E60009142BCBF00F5FA60386098F89B11B8F878010DF0A9FF0146584689F8001002E0AB
:203E800099F80010652088F8F5110FB0BDE8F08FC00E002010010020A0860100EB10002032
:203EA0002DE9F04F002898461446ADF12C0D00F0F38011F47C1F40F0EC8011F00F0F00F0C8
:203EC000EB8007460591002006900A904FF0000A0990554608954FF0010BCDF810B005460F
:203EE00050460790059805990BEA000021EA0B014FEA4B0B401E059100F0AB80401E70D012
:203F0000801E5DD0001F40F0BE8042F205000DF10E0110F045F89DF80E00002800F0B380D8
:203F20001CB1276694F86B0006900720152607F8010B022301A907F8016B42F2010007F8BF
:203F4000013B10F02DF8684603A90DF0A7FD069810F000F80146019A00983E464018009089
:203F6000824206D8801ABDF80C300090581CADF80C00009B50085146814609041804030CD6
:203F800019430004534610EB090041EB0A0102F0B5FE0090BDF80C309DF80C009DF8002071
:203FA0009DF8011006F8010B181206F8010B9DF8023006F8012B9DF803200935BF1D42E038
:203FC0000220152607F8010B042307F8016BB8F1000F07F8013B0CBF099898F800002D1DAE
:203FE0004EE01CB1E76594F86B00069005201526049B07F8010B0DF10F0107F8016B42F236
:20400000040007F8013B0FF0CBFF02A810F05EFD06980FF09FFF02999DF80F609DF80F30E5
:20402000069AED1D4018000200EB6600B0FBF3F03E4602903F1D06F8012B9DF808109DF8BF
:2040400009309DF80A2006F8011B06F8013B327018E00320152607F8010BB8F1000F07F85A
:20406000016B034607F8013B04BF0A9807F8010B05D098F8000007F8010B98F801006D1D55
:2040800007F8010BADB2059800287FF42BAF2E4661E011F00F0F01D000205DE080468A460C
:2040A00002264FF4803908F1020509EA0A002AEA090A4FEA4909B0F580301AD0B0F5803099
:2040C00014D0B0F500300ED0B0F5802009D0B0F5002004D0B0F580102AD1072404E0062429
:2040E00002E0052400E00424002704E00224012701E001242746A81C214600F08FF947B146
:2041000004F00F04C0F30A0141EAC42141F4004105E004F07F0400F0FF0141EA042105F8BB
:20412000011B0912871929702D18B81C6D1C86B2BAF1000FB9D1022ED8BF00260BDDB01E4E
:204140004FF6FE7708F8010BF019C0F3022040F0A00088F8000030460BB0BDE8F08F70475F
:204160002DE9F04FAA4C07466068ADF1340D80470B900AA9822004F0A9FFA64EBDF82800DC
:2041800038BB00244FF6FF75ADF8284017E0ADF80450BDF82800ADF80650FF210822ADF88B
:2041A000000002A853F06EFB8DF81840D420694602F096FFBDF82800401CADF82800301D4F
:2041C000BDF8281000888842E1DC82200AA902F087FFDFF844920020B246ADF828009DF8EF
:2041E000280000268DF8000069468DF80160D02004F06CFFB0460126F0B99DF80B30012B46
:2042000007D19DF80A0020B90DF1020013F032F990B97D7B002D0CBF0522092246469D422A
:204220000AD10DF1020007F10E0153F0D3FA002818BF4FF0010809D1002E40F0D780B8F10D
:20424000000F03D1787F002800F0D080564600240CE06F490B98896888471A20D4E0BAF8B5
:2042600004006D1CADB24BE0641CA4B2B088A04242DD9DF82800ADF8224008A98DF82000FE
:20428000D12004F023FF0028EED19DF82400FF28EAD0ADF800006946D42004F017FF00281C
:2042A00037D102A8391D082253F094FA0028DBD038887D88ADF80400B8F1000FADF8065007
:2042C00008D0387BBDF82810BD698DF818000DEB81010D61D420694602F002FFB8F1000F6D
:2042E0000AD0387F9DF82510884205D08DF8250008A9D12002F0F4FEB088A04276D100250E
:20430000A84270DDADF80050D420694604F0DEFE28B13F490B9889688847192074E00DF1AF
:20432000080B584613F0A6F8002300B101233C1D181C06D158462146082253F04BFA0028F0
:204340008DD07B8838883A7BADF80630B8F1000FADF80400BDF828308DF818200DEB830106
:2043600001F110010CBF0020B86908220860214602A853F06BFA99F8400330B1D9F89023AA
:204380001AB1BDF8001020469047002401E0641CA4B2B088A0427FF762AF9DF82800ADF872
:2043A000224008A98DF82000D12004F08FFEE82803D09DF82400FF28E9D19DF8000000229F
:2043C0008DF824003B7F8DF8262069468DF82530D42002F085FE08A9D12002F081FEB08872
:2043E000A0427FF73CAFA8423FF433AFBDF82800401C80B20228ADF82800FFF6F0AE044939
:204400000B988968884700200DB0BDE8F08FC046D8180020641E002010010020F0B5044660
:204420000846ADF16C0D401E70D0401E0DD0801E00F00981401E00F0EF80401E00F0E180BA
:20444000401E00F0AD80002042E142F2010007A90FF0A6FD42F20B0008A90FF0A1FD42F256
:2044600006000DF165010FF09BFD42F207000DF166010FF095FD42F2050019A90FF090FD83
:2044800004A80BF05DF806460DF1670142F209000FF086FD9DF86700002808BF002503D0CC
:2044A000022011F052FD0546204607A9042253F0CDF9241D08A90222204653F0C7F9A71CB8
:2044C0009DF864009DF865309DF866109DF8674007F8010B9DF8672007F8013B2B4607F8A0
:2044E000011B610706F0070444EA916005F0030404AD40EA8410314607F8010B0124009571
:204500003846019407F006FE0A309AE042F206000DF165010FF044FD42F207000DF166015B
:204520000FF03EFD42F2040019A90FF039FD04A80BF006F805460DF1670142F208000FF081
:204540002FFD9DF86700002808BF002303D0012011F0FBFC03469DF864009DF8657004F88D
:20456000010B9DF8666004F8017B9DF867209DF86770790704F8016B03F0030705F00706ED
:2045800046EA916004AE40EA8710294604F8010B002700962046019707F0BCFD001D50E058
:2045A00042F2150011A90FF0FBFC13AF42F2160039460FF0F5FC15AD42F2170029460FF00C
:2045C000EFFC17AE42F2180031460FF0E9FC204611A9082253F03AF9083408222046394679
:2045E00053F034F904F1080708223846294653F02DF9082207F10800314653F027F9202083
:2046000066E042F214000DF122010FF0C9FCBDF8221002200A1258E009A80021202253F073
:2046200031F942F2130009A90FF0BAFC09A853F02BF9024609A9204653F008F909A853F0F2
:2046400023F980B244E042F20E0002A90FF0A8FC0DF10A0142F20F000FF0A2FC0DF10B0165
:2046600042F20A000FF09CFC03A942F210000FF097FC0DF10D0142F211000FF091FC0DF108
:204680000E0142F212000FF08BFCBDF808009DF80B209DF80C709DF80D609DF80E509DF827
:2046A0000A1004F8010B02F00102001204F8010B07F0010042EA400206F0010042EA8002BE
:2046C00005F0070042EA4012042004F8011B22701BB0F0BD2DE9FE43A44C80460F46B8F10F
:2046E000450F08D104F511753422284653F0AEF8C4F8345437E112F0C5FBFF2808BFF42041
:2047000000F0328194F8AF14022907D1B8F1E80F00F02981B8F1E70F00F02581944D05EB64
:204720008005A87810B9E978002937D0E978814208BFFB2000F01881B8F1580F24D0B8F13E
:20474000600F1AD0B8F1E00F0ED0B8F1E80F05D03A7890421FDC91421DDB1FE0387894F890
:204760007F1488421AD1FEE097F900000DF0E2F84FF6FF7181420ED010E038880A280ADB8F
:20478000B0F5804F07DA09E038888F2803DB47F60251814202DCE820BDE8FE83774E70688A
:2047A0008047814628786A783946201800F22C4053F04CF8B168484688474046503800F0D9
:2047C000C680801E00F0AD80401E00F0BD808D3800F0B580401E00F09B80401E00F0AC8080
:2047E000801F1ED00D3840F0BE800E2094F8AD748DF8020017B11B208DF8020094F96E147E
:204800009DF90200884204D0E0200DF10201FFF761FF12F07DFC94F8AD04002800F0A38018
:2048200073E0012103208DF8051030278DF8030000258DF808704FF4FA568DF8065094F84B
:204840007F14ADF80060052080298DF8040009DD842907DA8DF8030014278DF8087008200D
:204860008DF804009DF8030094F85114884204D04F200DF10301FFF72DFF9DF8040094F8D0
:204880005D14884203D0572001A9FFF723FF94F87F04842808DB862806DAC0208DF8080038
:2048A0004FF4FA47ADF800709DF8080094F86114884203D05A2002A9FFF70CFFBDF8000049
:2048C000B4F85E14884203D058206946FFF702FF94F87F0478B902208DF805000B278DF85C
:2048E000075024498DF806707D260E80E7200DF10701FFF7EFFEF7200DF10501FFF7EAFEDF
:20490000E1200DF10601FFF7E5FE0EF065FA2AE094F86F040FF00AFE012824D01A20BDE84F
:20492000FE8394F8550418B9022010F053FC1AE0022013F001F816E010F03AFE09E094F913
:204940006E0412F0D3FE0EE011F006FE01E011F0EFFD94F8AF04022805D107480078012822
:2049600001D00CF0ABFA0020BDE8FE831001002020A101006C1E00207C1E0020D818002018
:204980002DE9FE4F0746A148001D00688047DFF8208200248346002F88F803405ED011F0AB
:2049A0009BFB08F596602146AC22064652F06AFF804DA988C80000EB011080B252F0B4FF59
:2049C00008F5A86A0227A946C8F85005B9F8040000EB400080B252F0A7FF7F1E4AF8040BB3
:2049E000F4D1F01DFF21082252F04CFFFF2106F11000082288F8BF1452F044FF0227032396
:204A00004FF6FF7C012288F8D03406F19400A8F8D2C4042100F8042F417083707F1EC170AC
:204A2000F8D106F1A0000525022700F8042F417085707F1EC270F8D1B9F8047086F8A830DF
:204A40004FB12146D8F850057F1E084401F11801A0F802C0F6D1022088F8B40498F8400388
:204A6000554D18B1D8F8440300B180470EF0F6FA98F96E0412F03AFE0FF07CFD11F058FD43
:204A800011F06AFD10F094FD4C4F072657F8040B00B18047761EF9D112F0D4FC464606F1CC
:204AA0005400016809B110F00DFC4548006886F85E40C0B112E0384652F0DCFD029002A82D
:204AC00010F000FC21E0384652F0D4FD019001A810F0F8FB14E0684610F0F4FB52F0C8FC84
:204AE00000280090F7D137480078012802D02046FEF714FC344896F8AF8406F180070470AA
:204B0000D6F880000028DED13F1DD6F884000028D1D1C6F88040C6F8844086F88A4086F832
:204B20008B40B8F1020F86F88C4004BF2748C6F898002748C6F89001264FC6F89471264BB7
:204B4000C6F89831B470254AC6F89C212449C6F8A011244FC6F8A471234BC6F8A831264B28
:204B6000224AC6F8C8302249C6F8AC21234A214FC6F8CC20244BC6F8B0112149C6F8B4715B
:204B8000204FC6F8D0105846C6F8D470A968C6F8D830884706F255415220FFF79BFD96F8A6
:204BA0006F040FF0C3FC0EF059FA2046BDE8FE8F10010020641E0020D818002020020020B6
:204BC000AC3500203D1F0020B8350020157D010043180100837C01006964010015810000F8
:204BE0003DD20000096D0100AD59010045B000000599000079550100D3E60000F99C000078
:204C000039210100A1FF0000E9280100D81800202DE9FE4F0546287D012808D195F917007D
:204C20000CF088FE4FF6FF71814200F016819548EF7B017894481FB990F88B208A4208DB9D
:204C4000012F03D190F88A208A4202DBF120BDE8FE8F80462E6A95F83500B5F8289095F820
:204C60003470AC8B4FF0000A5FEA060B029017D098F84033002B2FD0D8F8581300292BD0B1
:204C800006F0FF008847D8F8581306B20BF47F008847361830B2001D00B2C83086B200E001
:204CA000C8260CB1241DA4B298F86404012809D147B1764802993F1897F804A0405C8019A7
:204CC000401D86B209EB040080195044801C80B252F04EFD071C02D11A20BDE8FE8F09EB69
:204CE0000A0033193881002C03EB070078600EBF0020B819801C00217822C7F8A40007F13C
:204D00000C0052F0BFFD09EB0600FF2110220019A7F84C0007F13C0052F0B4FD07F12C00EE
:204D20000F21102252F0AEFD00243C707C707868696A2A8D52F08AFD07F1840005F12C0196
:204D40000B2252F083FD07F19000294612F094FA6889A7F89A00287B87F89C00687B05F11C
:204D60000E0687F89D00326869460A60706848609DF800102046012908BF01209DF801100D
:204D8000012908BF40F004009DF80210012908BF40F008009DF80310012908BF40F0100045
:204DA0009DF80410012908BF40F020009DF80510012908BF40F040009DF80610012908BF62
:204DC00040F080009DF80710012908BF40F48070A7F89E00A87D87F8A000E87D87F8A1005C
:204DE00095F8380087F86C00AA8BA7F8A82022B1D7F8A400A96952F029FDA87F87F8AA0057
:204E0000286AC7F8AC00B7F8A800C0B1D7F8A400A8B17868401E7860F82101707868401E23
:204E200078600470B7F8A810B7F8A8607868401A786038898019801C38817868B865B7F89B
:204E40009E00410A16D395F83710042905DD00F0040100F00100084302D0E820BDE8FE8F60
:204E600008F1900630460CF0F9FA95F83710304612F0A2F998F80000394652F06FFB204636
:204E8000BDE8FE8F641E002010010020FC9D01002DE9F04F0546954C6F780026ADF1540DE6
:204EA0003846312810DC312800F0D680002800F01681401E00F00C81401E00F00581B0F191
:204EC0002E0700F0E180FDE0323800F0AE80401E4ED0401E012816D9801E40F0F380A88884
:204EE00002280DD12068002808BF182109D0A86852F0B3FE2168884712F0CDFC014600E0D4
:204F000027213620DBE010342068B84668B3A86802A911F0E4FFB8F1340F034618BF301C5C
:204F200002D152F09AFE9B1C13F8017BB8F1350F024603D1A988B81D884213D0B8F1340FDE
:204F40000ED1A98807F10800884209D1009364683B4602A803C8A04712F09DFC014605E09A
:204F6000272103E024683A46F3E718214046A6E0A88808284BD10C342068002845D0A8684A
:204F800004A911F0ACFF024652F067FE95788346F82DC8BFF825DFF858814FF0080A042005
:204FA000AF1CADF83A00D8F80010ADF838A05FFA87F90EA8CDF83C90884720BB109807462B
:204FC00008B3801C0090246804AB93E803005A462B46A047041C07D13C70494633203A4633
:204FE0007D7012F08BFD02E012F055FC04460520ADF81A004546ADF818A02968079706A812
:2050000088472CB96EE01A2402E0182400E0272411A8314602220CF0DBFB8DF84440332085
:2050200011AA022112F06AFD5CE0A888314605280BD11834206840B1A86808A911F04FFF68
:20504000226808A803C89047014612A852F0D7FD3220042112AAE5E7A888052811D10834E3
:205060002068002808BF18210CD0A8680AA911F036FF22680AA803C8904712F00CFC01467C
:2050800000E0272131201AE0A888092815D1241D2068002808BF182110D0A8680CA911F0BF
:2050A0001EFF52F0C9FD246802460CA803C83346A04712F0F0FB014600E02721302012F06A
:2050C00083FB0FE026260DE00A4A02200521A9E713A8432152F0BBFD13AA0120A1E701205E
:2050E00010F07AFB304615B0BDE8F08FC8060020D8180020F8AB01002DE9F04F8146D9F84D
:2051000000600C465FEA0208ADF11C0D14BF00214FF0FF3106F14805284612F0AAFBAA4617
:20512000002818BF0B2040F00B8188480025F460B8F1010F057007D06570022010F000FE46
:20514000062010F0FDFD01E0012060702078012840F2AB80801E012868D9801E012832D965
:20516000801E012800F2DD8012F0AEFD4FF080578346D7F8DC11A0784E6A0090217807F5DC
:20518000EE772846062908BF0120019001200290A068228A6368E168B0470646584612F036
:2051A00095FE002E40F0BF80B8F1000F02D012F0DDF802E0484610F0B1FE002800F0A48003
:2051C0003868806A2BE012F07FFD83464FF0805CDCF8DC0101270068009726786368A1688E
:2051E000A278AE46042E0CF5EE7408BFBE46064618467346B0470646584612F067FE002E68
:2052000040F09180B8F1000F02D012F0AFF802E0484610F083FE002876D0206840688047C4
:205220004949C1F8B0510D6006467CE012F04CFD07464FF08053D3F8DC01E18A80690091D6
:20524000E1680191218B0291A1780391217D04910122059221782E4603F5EE75022908BF40
:20526000161CE1786268A36884463046E0470646384612F02BFE002E55D1B8F1000F02D094
:2052800012F074F802E0484610F048FE00283BD02868006A8047061C45D12868A168E28AB9
:2052A0002369C569E078A847BEE712F00DFD83464FF08052D2F8DC01E18AC0680091E1684E
:2052C0000191218B0291A1780391217D04910121059127782E4602F5EE7507B90E46A368D9
:2052E000E178626807463046B8470646584612F0EDFDC6B9B8F1000F02D012F037F802E0D7
:20530000484610F00BFE08B9142019E0286840698047061C07D1286802692169E07890475A
:2053200082E74FF0FF36B8F1010F05D0022010F0A1FA062010F09EFA504612F0DBFC3046A2
:2053400007B0BDE8F08FC04650450240B73500208E492DE9F04F06460822ADF16C0D15A813
:2053600052F074FA8A4C94F8F30106F1280A06F12807002800F007817078002840F0038174
:20538000FF20844B8DF818001D78F06C012105AA02F05CFADFF80092DFF8008228B99DF840
:2053A000180008B99DF81C5070BBB08900F00700022814BF04200520B073B08900F007001F
:2053C000032807D173684046001D01681878042800F09C8096F83000022815D148468178C6
:2053E000012911D000F22C410D46022206F12800203111F0E1FA38B905F116010DF13E0046
:2054000052F09CFC0DF13E07706E002800F0BB80012102AA0BF041FC002840F0B4809DF817
:205420000800B073F06C40B1394612AA0DF14A03FCF7EAF8002840F0A6800DF14A00009043
:20544000706E394612AB07F0AFF9002840F09B804846801C0078012854D04FF4005013A9E2
:205460000EF09EFD13A815A9082211F0A5FA30B113A83946082211F09FFA002842D194F8AA
:20548000990100283ED0D4F88851B4F8846142F2010004A90EF084FD049A4FF00041002067
:2054A000E5FB0210051CD4F8900112F0BEF92D180498A84202D8761C2D1AB6B24746786870
:2054C00080475FFA80F8D4F88001A84205D1B4F87801B04208BF00260BD0C4F88051A4F81F
:2054E0007861002084F8750111F04EFB0126C4F88C01B968404688470EB10CF045FD012073
:2055000084F89801002084F899013CE0CDF85CA08847AB46224D0A274FF00008CDF864A0F3
:2055200096F83090189014F809A0287A484505D119995246284611F03FFA20B17F1E05F165
:205540000C05F2D100E0A8465FEA08070ED194F87001134A0C2110FB0127401C84F870016F
:20556000C0B20A2804BF002084F87001179938460A2252F06BF909491898896887F80AB08B
:2055800088470420B0731BB0BDE8F08F54A50100C00E00207B1E002010010020D818002024
:2055A000B80F0020F0B542F20400ADF12C0D0DF123010EF0F5FC42F205000DF122010EF0E7
:2055C000EFFC42F2010069460EF0EAFC814C82489DF82310C4F8A801642011FB00F1C4F817
:2055E000A0117E49C4F8C4119DF8221011FB00F0C4F8BC017A487B4EC4F8E001B07888B3DB
:2056000042F203000DF106010EF0CAFC11F030F805460DF1060029460DF030FE2D1A9DF89C
:20562000220084F89B5170B1009860B104F5DC700EF000FB04F5BA700AF008FF012084F817
:20564000940184F8980142F202000DF106010EF0A7FC0DF1060011F007FA04F5CE700EF089
:20566000E9FA11E042F202000DF106010EF098FC0DF1060011F0F8F904F5CE700EF0DAFA8A
:2056800004F5BA700DF078FB96F87F0410F088FBC07B022804BF012084F8F40194F8F801A4
:2056A000002840F0958004F128000021382252F0E9F80026A681E08900EB800080B2054624
:2056C00052F032F9206131462A4652F0DBF84648464FE06304F1300067630EF0ABFA42F2B4
:2056E0001B0001A90EF05CFCBDF8040001A9A4F84C0042F21C000EF053FCBDF8040001A944
:20570000A4F84E0042F21D000EF04AFCBDF8040009A920835D200FF025F89DF82400012782
:2057200000280CBF84F85C6084F85C70B4F84C0028B100EB401080B252F0F6F86065B4F817
:205740004E0030B1410001EB800188B252F0ECF8A065208B20B1C00080B252F0E5F86061B9
:2057600023490DF11A00082252F070F8354609E060690DF11A01082200EBC50052F066F811
:205780006D1CADB2208BA842F2DCB4F84C50668355B1606D4FF6FF720146A0F81F206D1E5B
:2057A0008E7701F12100F7D1B4F84E504DB1A06D4FF6FF71024681806D1ED67002F10600EC
:2057C000F8D1201D3146062252F05CF884F8F8710BB0F0BDC00E0020853C01000DC20000C2
:2057E0002F7C010010010020F5AD0000002A751554A501002DE9F04F7C4C02204FF0080AEC
:20580000ADF1540DADF81A002168ADF818A01020079006A8884700280CBF089F00270126B8
:20582000A14609A8ADF824A0D9F80010ADF8266088479DF828106E4C0B982170606067B1F9
:20584000D020387000257D70B970FD703D710220BD603946FD600FF073FB304611F0BAFEA3
:20586000A046E22008F10C0111F020FD182050F09FFF88F801005F48C8F808000EF052FACC
:205880005F4D5D480227382245625E4C47705B496280037801625C4D8670042764222370E5
:2058A0005B492F70594C2F7504F10C0052F0E0F94FF0000B574DA0606F68574C8DF840B063
:2058C0006FB110A8A11D009012AB0A6889881A6012AA998092E8030033465A46B8472A68EC
:2058E0004AB1A11D12A80B688988036012AF818097E80300904721680DF14100016027796A
:20590000077146480068400805D341208021062210AB03F009F8424C04F1140004F108018B
:205920000AF06CFC6060584652F05EF95E46A51E074605F802BF02206870304652F05AF997
:20594000014660683A46C9B20FF072FB761C022EEFDB344904F12000322252F089F9324C1D
:2059600004F10C00211D0AF049FC4FF0FF37072620600324ADF808A00A20ADF80A00D9F869
:205980000010039702A888470028F3D1ADF830A0D9F80010ADF832600CA888470E9D002815
:2059A0009DF836209DF834000F95E3D198F8001091420ED198F80110814207D0D8F8081066
:2059C0004B6C33B159462A46984702E02846FDF789F90F980028CDD0ADF810A0ADF81240C0
:2059E000D9F80010059504A88847C3E7D8180020181E002088190020580B00209D36010089
:205A0000517701001C1D0020D43300205C1C0020792A0100D0060020F8AB0100801E0020A9
:205A2000681A0020917A0500D01D002001282DE9FE4F40F0F480DFF820A2DAF8DC00012807
:205A400040F0EA800220CAF8DC0010F0BDFC01200EF098FF5FEA000805D00120CAF8DC0098
:205A600010F0C6FCDDE012F049F9704D6E49029000200860A86A00680146012088470128FB
:205A800018BF002003D100200CF0EAFA0120684F00903868112011F0E9FF00280CBF002402
:205AA0000124102011F0E2FF08B144F002040F2011F0DCFF08B144F004040B2011F0D6FFBB
:205AC00028B128685B49006B0246088890470A2011F0CCFF28B128685749006B024608885D
:205AE000904756480126066028688069014644F0200088475248066011F0B2FF00F001011D
:205B0000DFF844B10191400816D2286A806801464C4888478146B9F1040FF6D0B9F1010FCF
:205B200005D1286A406802464648032190475946086820F0030008604448006842F2107250
:205B400040F2AA23B0FBF2F15143401A83422CBF40484FF040403E49086028683968806BC8
:205B60008047019801280ED0B9F1010F05D1286A40680246334831469047DBF8000040F0E0
:205B80000300CBF80000286840690146204688470B2011F06BFF28B128682649C06A0246AA
:205BA000088890470A2011F061FF28B128682249C06A0246088890472048032206602049EA
:205BC000CAF8DC2000230B602868406B0146204688470128F8D1386804200EF0D3FE0446F3
:205BE0001148009D06603868012D02D130460CF037FA11F029FF08200EF0C4FE074602980D
:205C0000CAF8DC6012F04AF910F0F2FB57EA040018BF4FF0FF3804E06FF0040801E06FF033
:205C200001084046BDE8FE8F0C400940B80100102C2009404EAA01004AAA01002820086012
:205C40008001044300400340242208401C1400501C00094008E7A480041600207B4A2DE95E
:205C6000F84F8146854C5068800806D2106804F15001000C40F0F0000870D2F808B0DFF872
:205C8000D081754F641E5E46B00E11D2700E0FD3802084F820004FF6D801A4F861103D46DE
:205CA0002074A5F170000068C0F304600BF048F9684D55F8180CBA46C0F3400018B96749F5
:205CC0000020086001E046F040666549F00EB70E80F001004FF0805300F00100086087F0BB
:205CE000010000F001008860D3F8F06103F5F87072680090594648469047DFF86891DAF83E
:205D00000070594B39F83B2C07F0FF06101280F0C000B04211D002F0FF021968B04234BF5D
:205D200001214FF0FF3140180102864281F4404142EA010129F83B1CEFD13809C7F3033124
:205D4000C7F384466FF4017200F0F000014304F80810F90CA65401F0F00040F47040A4F851
:205D60006300DAF8046028681F4620F0100828F4F070286057F8080C5FEA9B6002D25FEAA5
:205D80005B6017D255F8180C800834BF300AF00800F0F80040F47840A4F86100207800F0E8
:205DA0007F002070207840F080002070C6F304400BF0C6F846F3050321783A6841F3050091
:205DC000984211D09842B4BF01224FF0FF3201F04001801800F03F020A43227021788342F0
:205DE00041F080012170E7D138683868C5F800801E4957F8080CDAF814004026C0F305302D
:205E000089F8A30F43F61803E675009A0B8010688168584688471649164A0AE0105C93788D
:205E2000141D834299BF204410F8010C20444078086008684B689842FCD10228EED1012043
:205E400048620D4F3860BDE8F88FC046AC4F0050FEFDFFFF28000940F813005094042A435D
:205E6000000220436BA00C40342009406AB00C4000600C4028AC01009404604206620840F8
:205E80002DE9F0477B4A854D7B4C117895F8AFC4012891464FF00101A0706F68117040F2F3
:205EA0009780DFF8D881DFF8DCA1801E47D0401E35D0401E00F09F80401E1FD0401E40F0E7
:205EC000A78097F86D00608197F86E60002E06BFE1700E1CE6706A495046007809784546D0
:205EE00005F1440311FB00F04643B1002964187820F00F0040F00300187089E0BCF1010F12
:205F000040F086800020F98A6071C90934BF95F8511495F87A14617011F046FD56E0BCF10D
:205F2000010F09D195F87F040FF03AFFC07B022802D1002009F0CEFD0FF0BAFD46E052489D
:205F40000668BCF1010F1DD09AF800008700F06B8047DAF804103C23401AB0FBF7F1B1FB10
:205F6000F3F25A43891A227812FB03F0401A3C301FFA80FAF06B804707FB0A0140460164EF
:205F800044301DE09AF800008700F06B8047DAF804103C23401AB0FBF7F1B1FBF3F25A43F5
:205FA000891A227812FB03F0401A3C301FFA80FAF06B804707FB0A014046C0F8C810CC300A
:205FC000017821F00F0141F0020101706F681FE00021FE8A6171F10934BF95F8511495F8C5
:205FE0007A14617078B995F82F0460B10229C4BF0220607007E097F86900607197F86A00F7
:2060000060700026A67100F077FC6F68002F2FD01E4806785EB97968087800F0200020710E
:206020008878E0710878800901D211F049FDA078032803D0022818BF062819D1144D68688C
:206040008047A17802290CD012490F7817B912490F7837B1022189F80010A9688847BDE8A4
:20606000F087832189F80010A96888470BF030FBBDE8F087BD350020481D00207C1300200C
:20608000791E0020701D002040180020B5350020D8180020B9350020BB35002010010020BB
:2060A0002DE9F043002B08BF002A10D10029BCBF00204FF0004106DB50EA01071CBF6FF0F9
:2060C00000006FF000410CF0D6FCBDE8F0835FEA530898EA610803D50026404266EB0101D8
:2060E0005FF0000913F0004E03D00026524266EB03031C461546002C08BF8D429CBF2C1CF1
:206100000025070C47EA01470E0CB44208BFBD429EBF240444EA15442D04070A47EA016711
:206120000E0AB44208BFBD429EBF240244EA15642D02470847EAC1774E08B44208BFBD4268
:2061400000F29280870847EA81778E08B44208BFBD427BD8C70847EA4177CE08B44208BF93
:20616000BD4265D8070947EA01770E09B44208BFBD424FD8470947EAC1674E09B44208BF73
:20618000BD4239D8870947EA81678E09B44208BFBD4223D8C70947EA4167CE09B44208BFBB
:2061A000BD420DD8E60146EA5566EF01B14208BFB84201D3C01BB14159EB09094EEB0E0E39
:2061C000A60146EA9566AF01B14208BFB84201D3C01BB14159EB09094EEB0E0E660146EAA6
:2061E000D5666F01B14208BFB84201D3C01BB14159EB09094EEB0E0E260146EA15762F01E2
:20620000B14208BFB84201D3C01BB14159EB09094EEB0E0EE60046EA5576EF00B14208BFF4
:20622000B84201D3C01BB14159EB09094EEB0E0EA60046EA9576AF00B14208BFB84201D300
:20624000C01BB14159EB09094EEB0E0E660046EAD5766F00B14208BFB84201D3C01BB14121
:2062600059EB09094EEB0E0EA14208BFA84201D3401BA14159EB09094EEB0E0EA34208BF77
:20628000AA423EBF2D0A45EA0465240A8AD373464A465FEA080803D50026404266EB010146
:2062A0005FEA480803D50026524266EB03031E4617460B46024631463846BDE8F08370473E
:2062C0002DE9FE4F0CAF9946934604467D680291294604F0D9FF061C00F0EE803888F08239
:2062E000774F347597F8400318B1012C04BF1520307506F1840029460B2251F0A7FA012CA4
:2063000004D00D2C1CBF7068401C00D170683062002597F8400335650028B5654ED0052C04
:2063200018BF012C45D14FF0040A86F86BA0F08A86F86950C00934BF97F8510497F87A040F
:2063400059460A2286F86A0006F1700051F07EFA9BF8080003282CD1032097F855340290DA
:206360003BB3DFF8608108EB8408D8F8000010F47F0F0ED086F82CA0D8F8000006F12C017A
:20638000012200F47F003063304602F021FDD8F8000010F0FF0F0CD02A2086F83C00D8F8C0
:2063A000000006F13C0100F0FF003064304607F059FB97F8400308B10D2C13D0009502998E
:2063C0004B4630465A46FBF753FF071C75D1E41F012C03D8707E40F020007076304606F0CE
:2063E00099FF6AE00520374C86F86B0004F13400016811F0F70F18D02A2186F83C10BA7862
:20640000006806F13C01012A00F0FF0030641CBF20F00800306497F8550418B9306C20F046
:2064200002003064304607F01DFB009502994B4630465A46FBF71CFF5FEA00083AD1224897
:2064400006603489756801A964200EF08BF91F4EA01C0DF1050187B206F1D0000780E920CF
:206460000EF080F99DF80500012806D13C46C4F30220022140F0180006E0241D0421A4B2A3
:20648000C4F3022040F0080005F8010D671A05F8014DB9B2C6F8DC50AD1C28460AF086FC0C
:2064A0009DF8040000280CBF09480A48C6F81801C6F8D800474600E01A27F8B2BDE8FE8FB6
:2064C00010010020D89E0100D01B00207C1300204E9055550E7A55552DE9F047044694F87D
:2064E00030900F46984615468B20ADF1300D0DF10A0102F0EBFD8A20694602F0E7FD94F82A
:20650000250000283ED1B9F1000F19D1BDF80A104FF6FE70884205DCBDF80A1088422FD1B6
:20652000694615E0B4F844009DF80A608DF80C0000128DF80D00BDF80A008DF80E601BE0E6
:20654000B9F1020F09D0B9F1030F19D104F1280103A851F0F3FB092612E0207CC00934BF90
:20656000B4F84200B4F844008DF80C0000128DF80D00208D8DF80E00001205268DF80F00F7
:20658000002013E002280CBF05260926012818BF04F11C0104D1892006A902F097FD06A925
:2065A000324603A851F052F994F826000DEB0601C8723A4603A831460BF034FA002840F01E
:2065C0008F80B9F1000F19D1BDF80A104FF6FE70884205DCBDF80A1088422FD1694615E09F
:2065E000B4F844009DF80A608DF8200000128DF82100BDF80A008DF822601BE0B9F1020FD3
:2066000009D0B9F1030F19D104F1280108A851F095FB082012E0207CC00934BFB4F84200FC
:20662000B4F844008DF8200000128DF82100208D8DF8220000128DF8230004203E6881466E
:206640000BA9822002F042FD9DF82C10307B8142D8BF9DF82C00002842D0074600244FF032
:20666000180A722029460FF05FFEB0689DF82C100019C8F80000007881422DDD296810FBF8
:206680000A1028600146D8F800004278012A1FD083782BBBB9F1040F06D0091D08A851F0E2
:2066A00035FB012816D017E008884B888DF82800042208A98DF82A3000128DF829001812F4
:2066C0008DF82B000AA851F085F8012802D003E0807828B9002004E07F1E04F10304C0D1B5
:2066E000F3200CB0BDE8F08784462DE9F84F7848DFF8FCB1DFF8DC91784EDFF8E481794D38
:20670000DFF8E4E1DFF8E4A104787348012C57D04F4601243C7000244FF0E04704701F4033
:2067200004EA0200347008BF00283DD10820274610401F4008BF00282DD0424692F9000085
:20674000B5F8A230401E107042F201429A4202D0121D9A4209D170460068826C6046904749
:20676000008842F6014181420CD1688FB0F5105F16D158460068514600F5C07008600FF05C
:206780007DF918E0E12009F017FE98F90000002800F08F8091E0454695F90000401E287044
:2067A0001D2009F009FE06E0454695F90000401E287010F053FE98F90000002879D07CE0F8
:2067C0004F4601243C700024047005F186003470068814EA03074FF0020000EA020008BF11
:2067E000002813D120464FF0E04710401F4008BF002803D11D2009F0DFFD4BE0454695F9F9
:206800000000401E287010F029FE43E0424692F900305B1E137043F20842B24208D0B5F801
:206820006A70931CB34203D0BA4218BFBB4212D170460068826C60469047008843F6030106
:20684000814206D008F0DAFD98F90000002830D033E0B5F86A70B5F8C21043F604008842F7
:206860001CD0B8421AD0B5F88620904216D0B1F5505F05D0080B0BD31D2009F09DFD07E06B
:2068800058460068514600F5C07008600FF0F6F810F0A8FD98F9000058B10EE015480078DF
:2068A00002280DD003280BD008F0A8FD98F9000018B92046FCF732FD05E098F9000002E0EC
:2068C000204609F079FD89F80040BDE8F88FC046BF0500203D1F0020301E00202F1E0020B5
:2068E000361E00207C13002040180020381800200C0100214A1D00202DE9FE4FDFF8E0813D
:206900000025804C98F8AF048DF800506678019011F04BF94FF0010B0BFA06F2DFF8C89142
:20692000744E4FF6FF718918014098F84003618138B3D8F8782322B342F21A00694690474A
