:20000000003B012089230100A1C10310A1C10310A1C10310A1C10310A1C10310A1C1031019
:1C002000A1C10310A1C10310A1C10310A1C10310A1C10310A1C1031079C10310B9
:200040009C482DE9F04F90F86B14ADF14C0D1091002190F8FC020D91974920B90846007804
:20006000002840F0A380109F81220846022F027002D19249FF2008700D98914CBF4A109E44
:20008000BF490B90DFF8FC8227781070012EA08109882069A77012D0007A801E85B2A942AC
:2000A000C0F2B283216A04F118000422083157F099FB0426A17E607EE27EA68129E0467A10
:2000C000027A06F0070302EB032295B2720938BF2D1F06D3427A057A02F0070205EB022567
:2000E000AD1E36F07F06ADB240F08E83A942C0F28B830A3029460FF001FF216A04F11800FF
:200100000522083157F06EFB0526A681227FE17EA07E04F11A0300EB01200C93C1F3011BD2
:2001200060816449227191F8FC12ED1EADB2002908BFBBF1020F00F06783BBF1020F00F366
:200140006383DFF8C09261B110F0070F00F05C8349460978862904D100F00701022940F0B2
:200160005383011301F00201022946DA637800F00700022833D1D8F804A0181C2FD1216A23
:2001800009A801228919083157F02CFB771CB8B2A081D047824699F800604648D8F808509E
:2001A0004768CDF82880862E14D10FB916F019F99DF9240016F065F978770B989DF92460E0
:2001C000B8775046FE77A847608900F0100010F085FF01E05046A84715F0E4FB18E399F8B3
:2001E00000000D9E862808BF0126CDF828803EB10D9812F011FEA77801E0CDF8288063785E
:200200008FB183B9012F00F0FC826089022F03D110F0070F40F0F582032F05D100F0070119
:20022000032901D0EDE26089010909D310F4405F00F0E7821F4991F82074002F00F0E18220
:20024000011301F00201022902DA810A80F0D9821099012905D0BE4ABD49921C89780C9236
:2002600001E0BB49C978C1F381098E11B9F1010F00F0C782012E00F0C482BF49BBF1020F5E
:2002800009D08A5D11F809108918CFB2F6B1C1091CD3BF1E0BE0721849441279097989186D
:2002A000CFB2C1090ED259EA06030FD0BF1CFFB20CE0C0462008002049360020AD1F002097
:2002C0006434002059EA060308BF0227C0F300217A1A61719542C0F29482ED1B00090D44EF
:2002E000A9B2218124BF25200D900D984018743080B215F00BF965786061002800F08182A7
:20030000DDF82C807422414610F044FB84F80380B4F80A804FF0FF0A1DB9184908F0200034
:2003200008700B9D154B60790E951D780F90002D39D0002837D108F00708B8F1030F06D08F
:20034000B8F1010F15D1BA4890F86A0488B11098012806D09F4805781DB115F059FDFE2873
:2003600005D014F025FE10B914F048FC08B10420E0701098012810D106E0C0464B36002004
:20038000101F00208C1A0020A94890F8FC0210B1BBF1020F01DA14F047FF6079B4F80A801F
:2003A0000F90E0780E90636903F174005860986525891D812089A3F85C005FEA181016D379
:2003C000109D0F98012DC0F1030082B2A3F85C2019BF5F49491CB3F85C200C99986D57F09F
:2003E00001FA6369B3F85C10986D401898651098A3F80C80012807D055490C98007849787B
:2004000006E0C0464D36002051480C99C07809780E9DC0F3011001F07801014345EA010009
:20042000187483F80EA00F9920790D9001B10B9883F8306083F83A9083F84900A089002F68
:20044000A0EB010085B2A58100F0D1817848BB46216A90F86B94E7805A464919CDF844909C
:200460006846083157F0BEF97F19BDB2A581B9F1010F07BF3648C0780C98007861690F7CC3
:200480004E46012E07F0400AC0F30110109007BF2F48C0780C9800786E46C0F38107002F45
:2004A00045D010980B9B022802D1BAF1000F0BD19DF801209DF8000000EB0220A1F8440011
:2004C0000DF10206A1F84200DFF82893B1F84400B9F86A20824203D04FF6FF72824223D17C
:2004E000032F12D07278307800EB022080B24886B9F86820B61C0121824204D04FF6FF72CE
:20050000824218BF191C08460DE0CD4800683146323057F02BFCCA48006809F15F013230D6
:2005200057F00CFC08360346002B00F065811198012807BF0648C0780C980078831123D023
:2005400010996069022905D0017CC90905D30BE07C3400205AEA070706D172783178B61CB9
:2005600001EB0221A0F84210032B07D07178327802EB0122028507E030890100B048006852
:200580003146283057F0F2FB08F00708B8F1030F07D0B8F1010F39D1254890F86A04002871
:2005A00034D023486669DDF82C80876FEFB17B7E33F07F0315D096F8300002280CD0032874
:2005C0000FD107F1700006F1280157F0B7FB40B11CE0C046181F0020B7F87000318D8842C9
:2005E00014D057F80C7C002FE1D1B8F1000F0DD1944F4046E0700C9BF878C0F301111878A4
:20060000CDF8388000F0780008433074119801285BD1074890F8FC0210B11098022854DA72
:2006200089480778002F50D00F9800284DD101E0200800200E98854E0746DFF8F891DFF808
:20064000F8810D9D96F86B04012813D04A4628460223911C0B9D0B70D57017B143F0100328
:200660000B7003228870404680F84720816414F0DBFD27E0E9200DF1260112F081FE9DF871
:200680002660052336B94846072200F10C010A70082204E0484600F10C010B70182242738A
:2006A000881C022202700B9ACA701FB1027842F0100202700D71C8F8DC10A8F8D030032133
:2006C0000FF01CFCA589B4F806B0606981890909C0F08D80806D5A46694657F083F8616909
:2006E000886D58448865276AB1F85C0001225844A1F85C000DF125007919083157F072F893
:200700006E1CB5B2A58161699DF82500896D087061699DF825709DF82530886D401C8865B4
:20072000B1F85C00401CA1F85C0007F0070081F82400C3F3C10781F8257091F82460208986
:200740008046002E58D03D497F183A78121D1646E280864250DC216A05A84919083157F0B3
:2007600041F838789DF817209DF814109DF8163040193D78001D01EB026180B201EB034154
:20078000A0819DF81530606901EB032181616DB12B4800686D1E06A92A461C3057F022F853
:2007A000397860696944C97D80F82610806D324605A957F017F86169886D80198865B1F8C7
:2007C0005C004FF0FF3706EB0642C8EA0040A0FA42F01FFAA0F217FA80F0A1F85C2082B2DC
:2007E0002281B1F85C000A818018A1F85C0000F02FF80DE02819002015F056FD11F092F9F0
:2008000006E015F09BFB03E015F098FBCDF82880DDF82880D8F804008047226A0B991368AC
:20082000197111682162D8F80810884713B0BDE8F08FC046B41C0020C8130020687A0100C0
:20084000783400207C3400204B360020200800202DE9F04FC34C60692689216AA589806D91
:20086000ADF14C0D32464919083156F0BBFF6169886D80198865C5480778216AAD19ADB2ED
:2008800001220DF13E004919083156F0ABFFDFF808836D1CADB2022F09D1216A40460122E5
:2008A000401C4919083156F09DFF6E1CB5B2216A04A804224919083156F094FF2E1DB0B2F0
:2008C0009DF813109DF810509DF81220A08105EB016063699DF8111000EB024000EB012077
:2008E000049015F0DBFAD863049814F0C1FFA3F84000EA2015F08DF8A548A64E0221022F4B
:2009000001700BD1A548801C007838B14146087810B94878FF2801D00420E0706569E0787E
:20092000297C084328749DF93E0015F0AAFD85F8460005F17407AF6529899DF93E006B680A
:2009400085F84800B5F85C004FF0000A401AC01801466860A88985F847A0820A18D2020929
:2009600055D310F0070F07D000F00700032812BF081C6868401C46E06968C87800F00702EF
:20098000401000F0380000EB42004018001D3AE00DB915F026FDA889800A2ED369684878E8
:2009A000C7112AD12F89696650464B780A7803F07F035B0003EBE2137E2B0DD07F2B09D046
:2009C00002F07F0280188918801C891C80B28742EBDC08E0514600E00121801C85F860105E
:2009E00080B2874201DA504605E06968091869602989091A2981A5F86800686E10B1B5F823
:200A00006800B0B168686861A889000918D295F86000002800F01081284611F0E1FE65699E
:200A2000E86C002800F00881B5F85000002840F0038104F1140015F01EFD504660611FE267
:200A40005046059095F82470069005A906AA07AB0790284605F0EEFD002840F0E280059A66
:200A6000D5F8148068682B89A8EB0001581A1FFA80F90AB915F0B5FCB5F85C000090CDF822
:200A80000480CDF808900698001D03900598A969AB6D3A4615300BF0EDF8002840F0C18022
:200AA000B04895F860202B89C15D581A288112B1284611F095FEA88900F00709B9F1030F92
:200AC00002D168680078E87395F80FB0732009A914F07EF9832010A908F01AF9B8464F469A
:200AE0005046514611900BE0C278012A04D1B8F1000F08BFDC2029D0001D491C0990C9B2F9
:200B00009DF84000884240F38B8009988378032F07D00278BA420DD096F8FC220AB1022F68
:200B200008D0032FE8D10278032AE5D1024652785A45E1D14FEAA802B2EBA30F05DA03F02E
:200B4000030308F003029342CEDD5046DDF814C08346604695F80FE090F8148039465046B7
:200B600004E0C04664340020401CC0B2804555DDDCF810704300032907EB030210D1FB5C1C
:200B8000032BF1D152787245EED112E08B0C00204936002020080020AC1F0020161F002055
:200BA00012788A4205D096F8FC22002ADCD00229DAD10698077D002F08BFBBF1DC0F2FD004
:200BC000A869B0F1FF3F27D0712008A914F000F9089B5046AA6905998B4207D10699074674
:200BE00001EB8701C9681197914213D8401C2C330228F0DB06981199521CB2F1FF3F00EBB8
:200C00008100C26002D107980121817085F801A0504607E0DB2005E0DB2002E0DC2000E078
:200C2000DD20687065696870A8696F7868651FB1F22014F0EEFE656996F8FC02002800F030
:200C4000A180A989DFF8448201F00702022A5ED16778002F5BD16F78002F58D161698DF887
:200C60003FA00DF13600283157F080F861690BA80A22283156F0B6FD414601F110026769F3
:200C8000D6F820331088401C1080786E04210DF13F029847454604F1140928B9706818B167
:200CA0009DF83F1080F86810676997F83000022811D1D9F8000006F57A71884602222830C4
:200CC000203114F0F9FA30B908F116010DF1360057F04CF867696E480078862807D1688A9E
:200CE000401C6882B88900F0100010F0F7F996F8FC0220B1D6F8441309B16069884748461B
:200D000015F0B9FB5046606114F04CFEBAE0614A177877B3C1F3013102292AD16878002863
:200D200040F0AE809DF83E105F484346E7780170988A05F128021C35002F00F101009882A4
:200D40000CBF51460821544B5046186000910195B6F80E34117A0D2005F060FB20B914F05F
:200D600063FA03E06C7A010014F0BAFD4B486569007838B1D6F8441321B1284688476569CD
:200D800096F8FC02AF890A9507F0070760B1A87BFF2871D0032F05D128464068007804288D
:200DA00002DD69E0012F67D1381C3AD0401E4ED0801E61D1A889C0F30130022803D1686816
:200DC000007807282BD02889002855D0284641684A1C42600F78AC46C7739CF824506DB973
:200DE000002F49D00A2F47DA2D490089C95D814209D0082F40D1082805D03DE0C07B0028C3
:200E00003AD00A2838DA60460189491E0181C17B0B3101700A99C87B401CC87319E03220BA
:200E200016E096F8F5030F280BD015F055F840B90A988189091301F00201022901DA31697D
:200E4000884796F82B040A9D2874152000E0162028700A9906F17C0056F00EFC114D68684C
:200E6000804796F88410491C86F88410A9688847202015F04FF945E70AA812F0B3FB41E7EF
:200E800010F050FE13B0BDE8F08FC0460C1E00204D3600204B360020BC1C00201C0B00204A
:200EA000737A01008C1A0020161F0020AE482DE9F04F14300168ADF11C0D31B1A548007823
:200EC000012814BF002001208847DFF894B2A24DA24FA44C9BF86B042979012863D0E868C9
:200EE00001290CD158B1002011F026FC386A4168E8688847D848012101700020E8600221F7
:200F00003E6A297148B9002E00F09180316A05F1140088474FF4FA70E88412F06DFDF86905
:200F20008069006860639BF92A040FF0A9FD4FF6FF720121824218BF60860026668404F1D8
:200F40002D026662107861F30300107015F0A0F930B9D448D44A102114230170501C0370C2
:200F6000E86858B9386A0668F96AD94804F1200205F11403B0472F46044612E0304611F039
:200F8000DBFB8DF80C6033468DF80D60386A0293066D08228DE80C00E8682034214602AA13
:200FA000B047FC60A7E1E86802290CD158B1002011F0C2FB386A4168E8688847A64801219D
:200FC00001700020E8600121297100260496B0468DF8148000288DF8158035D1C748C84945
:200FE0000068814217D0C749814214D0C649814211D0C64981420ED0C54981420BD0C5490B
:20100000814208D0C449814205D0C449814202D0C34981420BD111F067FE012812BF85F866
:20102000018001206870386A00F1200608B915F0D8F9316805F1140088474FF4FA70E8845B
:20104000B84EAE620623EB6212F0D6FCB649786A4DC88A468AE84D009BF86964F86981F871
:20106000008026B980690068C4F8FC0005E0C0690068C4F8FC0014F025FC632006A912F081
:201080007FF99BF83B0413F023FA04F1EE0201461078012363F3020010709BF83B94B9F12A
:2010A000800F05DDB9F1840F1FDBB9F1860F10DB0F2004F1F70284F8F000107868F30300EF
:2010C0001070887B052814BF2420292084F8F40019E00F2084F8F000292684F8F46004F1E8
:2010E000F700027868F303020CE00F2084F8F000212684F8F46004F1F700027822F00F02F8
:2011000042F00802027004F1F5021078B9F1800F68F38710107002DDB9F1840F26DB887AE3
:2011200080B904F1F5039DF818001A78401E60F3050204F1F6001A70027822F03F0242F01E
:20114000180222E004F1F5029DF81830107863F3050012E08B0C00204C1D00202819002034
:2011600020080020C81300204419002004F1F502107820F03F0040F00200107004F1F6004F
:20118000027822F03F0242F020020270887B8A890A2604F1EE03401D504390FBF6F21E8887
:2011A00062F3CD061E808889192204F1F006800390FBF2F3326863F31C2204F1F80332608F
:2011C000FA69187892F8246066F30200187092F8240004F1F806C310307863F3C300307056
:2011E0004AF63F33A4F8FA3008894B680E68401E434306EB53004FF47A73B0FBF3F0166A57
:20120000A4F800013078A4F8E28004F1ED0284F804014FF00008C4F8E4801078012666F3B7
:201220000300107015F034F8E8B988891D4EB9F1020FB3FBF0F0C1B21B483170B3FBF1F28C
:2012400042700BD0B9F1840F0DDBB9F1860F0ADA05225C2104E0C046CF1F00200222A82130
:20126000324B1A700170E8683E6A98B3404611F063FAA8789BF83B14884217D1E9789BF827
:2012800069243E6AE868914212D1022142468DE80600366DE034434604AA2146B047FC6045
:2012A00023E0C046301E0020141F00203E6AE8687168884701211E483B6A01701E681D483B
:2012C00004F1E002514605F11403B0470AE0C046B030002004F1E0021648346805F11403CE
:2012E0005146A047E860786AB8629BF83B04A8709BF86974EF7007B0BDE8F08F94120050A2
:2013000000F0022000F0012000F00020008002200080012000F0820000F082200080822031
:201320000080002005520100183600200C1E0020CF1F0020B03000202DE9F04FADF18C0D63
:201340001C9104461D920DF15700D1491E93082256F048FA2046694612F0CEFF1F9000285A
:2013600004BF0020229000F0098202200027A41CDFF824B32090C74E2297204602A911F016
:2013800000FB5FEA000900F0F68122990DF13900162256F043FA9DF809707F1E00F0888049
:2013A0007F1E40F0E081B9F10B0FC0F2E781A41C04A80422214656F015FA241D05A80222C1
:2013C000214656F00FFA42F20B000DF1160111F065FCBDF81600BDF81410884200F3CE81F1
:2013E000A41C14F8010B0DF1390214F8017B8DF8390014F8015B8DF83A7014F8011B8DF852
:201400003B50204606F08AFDC34909780028044400F0B4811F9D012905F1020500F09C814C
:201420004FF400500DF14F0111F038FC0DF14F000DF15701082213F03FFF40B11C990DF1E4
:201440004F00082213F038FF002840F0858142F2010004A906F038FE42F20B0005A906F08A
:2014600033FE42F205000DF1390106F02DFE0DF13A0142F2060006F027FE0DF13B0142F2AD
:20148000070006F021FE0FA942F2090006F01CFE9DF83C0028B1022840F05E8142F2030011
:2014A00001E042F20D000DF13D0106F00DFE53E1B9F1050FC0F26281A41C14F8010B0DF170
:2014C000390214F8017B8DF8390014F8015B8DF83A7014F8011B8DF83B50204606F01EFD45
:2014E0000028044400F04A811C9806A906F0BAFE9DF83600002840F011819DF83C00002802
:201500007DD1B6F84E70002F00F00481B6F85200874207D0308B718B884201D109F0C6FFBC
:20152000B06D21E0B76D4FF400500DF15F0111F0B5FB13F09BFF4FF6FF78229D2190AA460E
:20154000B6F84E00A84243DCB06D4FF6FF7141450AD04FEA480707EB88073818808812F0F1
:201560000BF9B06D3F1823D1B6F84E300746002B08BF229D19D05846229D40681946D8466A
:20158000BF1FBF1DFA782AB1491E05F10105F8D1BF1D0AE08047B6F85210491CA6F8521016
:2015A000D8F808108847B6F84E30AB4200F099801C980AF0A9FDB8800120F870FD788DF843
:2015C0003650B888ADF83700229B8DF82330A5E0B88811F04FFA014608220DF15F0013F0F4
:2015E0006BFE40B138880104219814F01CFF82453CBF8246A8466D1CBF1DADB2A0E7B6F883
:201600004C70002F00F08680B6F85000874207D0308B718B884201D109F048FF706D20E0DB
:20162000776D4FF400500DF1670111F037FB13F01DFF4FF6FF78229D2190AA46B6F84C0065
:20164000A84250DC706D4FF6FF71414509D008EB48173818B0F81F0012F08EF8706D3F185E
:2016600029D1B6F84C300746002B08BF229D20D0DBF80400229D1946D846213F2137BA7F54
:2016800062B1491E05F10105F8D1213711E0C046C0810100401100208C1A00208047B6F8CE
:2016A0005010491CA6F85010D8F808108847B6F84C30AB4215D022993846212256F0AEF84C
:2016C0001C980AF021FDA7F81F000123FF2039462122BB770546787206A8FD7256F082F837
:2016E0001CE0612060E0B7F81F0011F0C3F9014608220DF1670013F0DFFD38B1796821986A
:2017000014F091FE82453CBF8246A8466D1C2137ADB293E7642047E0220800209DF8360044
:201720000DF13901162240F004008DF8360008A856F058F81F9D9DF83C00AD1C48B19DF820
:201740004E700DF13D00394610F0C6FD3F1A8DF8357006A80FF06AFD209809EB0007BF1C29
:20176000B8B2209003E01F9D4C44A41CAD1C209885423FF702AE2098022803DC229A67202E
:2017800011460DE01F9F01460220C0EA014207EB0741A1FA42F21FFAA2F110FA82F2229804
:2017A0001D9B19801E990A8023B0BDE8F08F70472DE9F04F0320ADF1540D13F023F8CE4C3A
:2017C0000025022004F11C0141F80C5F401E8D60FAD104F14000A946062701467F1E21F8A8
:2017E0000C9BFBD10821C64FC44BC64A01803F1D04F11C082E468360964627F00301531A68
:2018000023628C46A1610846E161824200F2CC81B80823F00303AEEB8000E827801001EB5F
:20182000800040F8046CEC3BCCF800704846C1F8E830E831216154F021FD6061BC49D8F833
:201840000000DFF8F4A220610A680AF10C073A6049687960B7493846082213F02DFDB84623
:2018600028B9D04801683A46116040685060D048D04FC0F8B470D04BC0F8B830C0F8BC502B
:20188000C0F8CC50D04AC0F8D050D04FC0F8C020CF4BD0F8B410C0F8C470C0F8C83009B1CF
:2018A0004846884754F028FDCA4ECB460C224946CDF838B006F128000FF06CF8C64F41F205
:2018C000707308223363708DF762616AADF82020102309930227ADF8227040F019007085F2
:2018E00008A8884700280CBF0A9F4F4608200123ADF82C00616AADF82E300BA88847544631
:201900009DF830000D992070616077B1D021397087F80190B87087F8039087F8049039466D
:20192000BD600220FD6012F045F9AC491820012254F05AFCE220414614F094FB182054F049
:2019400037FF60706068B046C8F808000BF0FAFEAC4F08F18400A060D8F80850A04C4946ED
:201960006762F520A56014F089F814F09FF89D4D002807BF0F2205F10C010D2205F118011A
:2019800005F124006A700E22AA700DF0B9FDA860687814F051FA00280CBF08264E46A8784A
:2019A00014F04AFA08B946F010068F49A86814F045FC8E49C82205F1300056F071F98C483A
:2019C000102E686010D1606A70B1C26862B1FF208DF810004FF6FF77ADF8127004AEADF80B
:2019E000147096E803009047824F07F1140007F108010DF085FD7860484656F0C7F84E46AF
:201A0000BD1E824605F8029F02206870304656F0C3F8014678685246C9B212F025F9761C28
:201A2000022EEFDB744907F120004FF4FA7256F037F9724D05F10C00291D0DF061FD2860C8
:201A4000606A002845D00769DFF8B4A16FB10094514612A80A688988026012AE818096E8BA
:201A6000030001234A46B847606A002831D0C26852B1514612A80B688988036012AF818096
:201A800097E803009047606A18B307690FB306208DF80800ADF80A0010AEADF80C9002AD16
:201AA000009695E803004A460223ADF84020B847666ABDF840007769A08057B1BDF8400095
:201AC00002AE401CADF8400096E80300022210ABB8473AA014F064FAE820012113F0CEFF80
:201AE000E720092113F0CAFF606A0626002835D00769002F32D007E08C1A002045690500C5
:201B00004E360020003B01208DF818600425ADF81A500EA8ADF81C9006AB009093E80300CA
:201B20004A462B46B84748B90E9E1936B34615E0C87F050038890100D81E0020606A8DF848
:201B4000186006AFADF81A504469ADF81C9097E80300CDF83CB02A460FABA047CDF838B05A
:201B600058460EF023FDE0200C2113F087FF4F20032113F083FF5720052113F07FFF4E204F
:201B8000042113F07BFF5920032113F077FF13F029FE08F10200012156F054F800F0F8FBD1
:201BA000FCE7C046F012005040F8046B2DE6C04610010020793801002D3C010054492053CD
:201BC000656E736F7200C04675F100005940010055CF00005C18002020BF02003D480000BA
:201BE00058170020141B0020914001003D5B0100A55C0100001C00202D7A0500901E0020E4
:201C000078890100C40100202DE9F04FD04CADF13C0DDFF840A3DFF84093DFF840B3D04F38
:201C20000C90666894F86B04012800F08480002E00F08280012051464D4608702978012974
:201C400002D001F037FC6668358994F82B0476680BF0E4FB01F0A6FDC44CDFF8148304F188
:201C6000380908F1040089F80F500068A66400256587804782465A4607F120000C9B066867
:201C8000106833F0010335D104F1A00104F138024D8004F1AD03C4F8A4201A7822F00F0233
:201CA00042F002021A7004F1AC031A7865F303021A7004F1B7031A7822F00F0242F00402AB
:201CC0001A70658749F64043C4F8BC3004F144031A7865F303021A708DF814500495B94BE9
:201CE0008DF8155008248DE83000346D04AAA0474C460FE08DF8145038348DF815502A46C3
:201D00006580B04B049208218DE80600356D04AA2146A847AC4946460880B16800280A4669
:201D200007D4AA4991F90000FC60401C087050463EE150463FE10EB914F053FB4FF0000850
:201D400030897168A24BCDF82480C500097818781035890906D340F6485191FBF0F16D1854
:201D600005F5AF75337D68438500352B0CBF46464FF4FA560DF12E01E82011F001FB9DF854
:201D80002E00032808BF44F620666068007DAD19352803D1D4F860038047454302205E46E3
:201DA0008DF828003068089508A90CF0F1F94E46012051460870317887F80080012901D043
:201DC00001F078FB60680589466813F0CFFB3088BB46000942D394F8FC0200283ED061686E
:201DE0004B6A4F6E986AB0F1FF3F26D02FB3421C9A628862030E07F80139606890F82A00B0
:201E000007F80109606890F8290007F80109606890F8280038706268106A00950190801B12
:201E2000281A80B20290916A506A92F88C203346153008F07FFF074600E0DB27D4F840132F
:201E400067B119B9E4200DF011FD04E0624880F80080E4208847002F40F0B18029463046BB
:201E60000EF04CF864200BA911F08AFA5B4894F8FC72007837B994F82B040BF0CFFA0128B6
:201E800005D099E00BF0CAFA012840F09580544BA81C87B20DF12D01E9201F8011F070FAEC
:201EA0009DF82D00012805D13D46C5F3022040F0180005E02D1DADB2C5F3022040F008001C
:201EC00006F8010D06F8015D284D9DF82C00A5F8C2800028C5F8DC600CBF42484248CDF8C0
:201EE000188002238DF81D8005F168068DF81C3005F1C00AA6F8028005F17501C5F81801AC
:201F00001B4FCAF81800087820F00F0040F003000870786880470D90DFF8A8900C98012813
:201F200028D0042826D0E8B105280DD0032808D194F83B0412F0CCFAC07B022818BF564675
:201F40001AE005F1C00617E0DFF8A09014E0C04620080020EF1E0020CD1F0020581D0020BD
:201F60002819002005F1840606E0C046C81300208C1A002005F16806DBF82000154B046DAB
:201F8000414602208DE80300D86806AA31464B46A047BE680C490028324608800AD40B496C
:201FA00091F90000C035401C08700D98CBF80C50904704E00D9890471A200DF057FC0FB08A
:201FC000BDE8F08F2D590000B41C0020F61E0020301E00204C1D00204D360020171F002043
:201FE000981400204E9055550E7A5555A5C90000B7482DE9F04F0C46ADF1140DDFF8E0B21F
:20200000B54902920078B54A039301286ED0B14801230024029F0B7002264FF0E045894602
:20202000039B006814703E401D4008BF002E35D13A464FF4803114EA030701EA020108BF0F
:2020400000291CD113464FF400311940039B224612EA030708BF00290DD1039F029B4FF4E8
:2020600080013A4001EA030108BF00290AD004710FF058FD06E0047111F0D2F802E0047166
:20208000FDF7DEFF0299039B2020274608401F4008BF002814D013F023FC11E0594691F9D3
:2020A0000020B04B521E0A7093F90020521E1A7091F900700FB9AC490C8004710FF032FD8F
:2020C000A84991F9000040B1002D08BF002E09D091F90000002805DC39E1A4480470204626
:2020E00001F0E8F9A046CDF8009035E101204FF0000817460870029EDFF87492DFF878A212
:202100000091454687F80080202705EA06001F4008BF002878D1424630464FF0E04719460E
:2021200010400F4008BF002843D133464FF48601039EB9F80A01DFF844C2CDF8049012EA2B
:20214000060701EA030108BF002919D1894912EA060701EA030108BF002971D0374651469A
:20216000029E0C8101F138034881002F83E8C00004BF331CB3F1806F62D1022860D111E0BE
:2021800037465146029E0C8101F138034881002F83E8C00004BF331CB3F5803F50D1B0F56F
:2021A000505F4DD1086A6746436938682146984744E05E4696F90000401E30705646B6F901
:2021C0000800844217D1728906F1380003C8002904BFB0F5803FB2F5505F08D0002904BFEA
:2021E000B0F1806F022A02D00FF09CFC03E011F017F813F003FD5B4A92F90000401E1070B6
:202200006FF00101318117E0604E96F8FC7251466FF0010001F1080210806FB1584800784F
:20222000832802D0574A812010705646316919B1404688472146E5E7CDF80490B9F80A01C2
:20224000039B029A474F5E4641464FF0020B11EA03050BEA020208BF002A61D043F20142A1
:20226000554682423ED0D21C82423BD0B5F9083096F900209C42A2F10102327004D043F67C
:202280000401814239D136E005F1380090E800064FF4820311EA0A0403EA090008BF0028F4
:2022A00012D105F1380090E800064FF4003411EA0A0104EA090008BF002802D10FF032FC2C
:2022C0001BE010F0ADFF18E0FDF7BAFE15E0C0468B0C002074340020CD1F0020F01E0020FF
:2022E000F71E0020A87896F90040401CA870601E30700FF017FC13F001FB0198234B6FF0B1
:202300000104A0F80A8193F8FC022C8110B11E48007808B913F072FC97F90000401E3870F8
:2023200096F9000010B9114880F8008097F9000078B10299039D58464FF0E04608402E4047
:2023400008BF002808D097F90000002804DC14F048F8002001F0AEF8009805B080F80080DE
:20236000BDE8F08FF61E002002150020EE1E0020C813002000000C8C28190020581D002019
:202380004D360020493600204B360020200800202DE9F041C94CCA4DDFF828836088ADF197
:2023A000600D4108C0F083800CA808A90FF088F901286DD1404624300068D8B10769CFB1AD
:2023C000062002268DF808000022ADF80A600FABADF80C2002AE009396E803000C23B84774
:2023E00040B9BDF83C006085109FE7621198206313F0FAFC0226BDF82210BDF8200084F891
:20240000246009AAA1830FF015FD011C02D0B7A013F0DBFF30460FF023FABDF830009DF821
:202420002C70A5F840000DA985F8427005F1500055F02DFCBDF8320005F1460609A9A5F812
:202440004E00304655F023FCBDF82200B5F84010A5F84400502013F005FBB5F84E105320AE
:2024600013F000FB4A20314613F0FCFD95F84210E12013F003FBB5F844104B2013F0F2FA45
:2024800005F10A00102155F0DDFB0120207008E012F09CFFE06001200FF0E2F9002013F05A
:2024A00061FDA01C012155F0BFFB2046408880080FD3E06A12F0D6F99348006800688047BC
:2024C00000B2A082E08202F081FDA01C022155F0ABFB6F89780805D305F10A00012155F0D5
:2024E000A3FB6F89B80805D305F10A00022155F09BFB6F89780917D384491820422217AB22
:2025000053F072FE95F85A0005F10A06032818BF042802D1286E12F08DF911F0EDFA30469E
:20252000102155F081FB6F89B80907D30EF05CFB05F10A00202155F077FB6F89F80907D3F6
:202540000BF0D6FF05F10A00402155F06DFB6F89780A0AD395F85D0013F004FD05F10A0058
:202560004FF4807155F060FB6F89380950D395F85C0005F10A0600283ED0401E36D0401E44
:2025800002D0401E30D03EE095F85810472013F075FA95F85910542013F070FAB5F8441047
:2025A0004B2013F05FFAB5F84010502013F05AFA092701238DF8597095F842008DF85A3010
:2025C00016AA8DF85B3052498DF85800182053F00BFE95F85A00012815D1E87898B130461A
:2025E000202155F02FFB0EE003200AE05220012113F02CFA022004E05220012113F026FAB6
:2026000001200FF0F9F83046082155F00DFB6F89454617B1A86813F0FDFFE98868784908C1
:202620001CD3A97802094FF0000601D301290ED040090ED301290CD030A013F0B1FCA01CF2
:20264000012155F0FFFAA86813F0E4FF01E010F00FFD6E70A81D012155F0E6FA608800283D
:2026600040D10A2008252B4CADF812004FF0FF37ADF81050616A059704A88847002831D13E
:202680000720ADF84850616AADF84A0012A88847149E159630BB20499DF84E20087890428D
:2026A00015D19DF84C004A7882420DD089684B6C6BB100213246984709E0C0465C18002031
:2026C000E019002058170020304600F0EBF9159840B1ADF818500320ADF81A00616A079613
:2026E00006A8884718B0BDE8F081C04641757468204572726F723A20307800C05374617261
:2027000074696E672E2E2E00EC010010813301003F6301008C1A0020D81E00202DE9F04FF7
:20272000064692F808B0307D09AF8946ADF1240D04933528039205D0114606F170000A22C0
:2027400055F050F8DFF8C4C239F07F0506BF604600884FF6FF700590F08A800934BF002090
:2027600008203076F08AC00834BF102080207076F08A400903D260460E30007800E00020AC
:20278000B076F08A41082CBF20240024000928BF44F010047568002109F07F09307D069102
:2027A0006D1E02280EDB0D2808DA0C2803D1022044F40854069044F0030404E00D280CBFF1
:2027C00002200120044396F88C0008B144F00804210900D328B1DFF8C88298F8203413B9B5
:2027E00008B1DF204BE121096ED306F12401DFF8A4A296F88D50079100EB0A011AF8053011
:202800000A7999183389491DCAB29918A24B1A8808908A42C0F2358100284CD0049A03995C
:2028200006F184000AF0C8FC0799002808603FD0806AB0F1FF3F39D070680023401E8DB1B7
:2028400096F88E10524600F80119515D491EC9B241B18A1992F88320491EC9B2002900F84D
:202860000129F6D1079970660968896AB162090E00F8011996F82A1000F8011996F82910B0
:20288000089A00F8011996F8281005F0030500F8011902F0070141EAC501017071683589BC
:2028A000091ACAB27060A918318105E0DB2700E0F3277770E6E00023F08A7370C00828BF79
:2028C00044F0100475686D1E336DA3B9B36D93B998F83914012903D13089B0F5EE7F06DA5A
:2028E000200904D202290AD144F4005401E044F48054012002E044F408540220069098F87B
:20290000020001280CD098F8FC0248B196F86B00042805D1022024F48054069044F40054FE
:2029200044EA8934B9F1020FA4B20AD0B9F1030F10D1ED1F08F22C41284655F017FA6D1E62
:2029400008E0B8F81204001205F8010998F8120405F80109069802280CD0B9F1000F15D0C1
:20296000BBF1000F0CD004990598814208D144F040040BE0BBF1000F08D1B9F1000F05D065
:202980000599081205F8010905F8011944EA8B24BBF1020FA4B209D0BBF1030F0ED103995F
:2029A000ED1F284655F0E2F96D1E07E003990888001205F80109087805F80109BBF1000F84
:2029C00005D00498011205F8011905F801093878F0B932480178307D0D2814D068B9306D85
:2029E00028B998F8FC03411C88F8FC130AE098F82104411C88F8211404E098F80A04411CEB
:202A000088F80A14014605F8011903E02E0C002044F48074201205F801092C7070683789E4
:202A2000401BC1B2756078183081200926D3B06D00B1306298F8FC0210B1307D0D281DD111
:202A4000746A14F1150001D113F0CBFCA16A481CA0623289306AB162471B0092D21B019097
:202A600090B20290706A96F88C202B46153008F061F900281CBF7070071C07D10020707088
:202A800005E0E5277770F32012F0C3FFF8B209B0BDE8F08F687A0100101F00206834002012
:202AA00020080020B0B50446BA480768ADF1480D002F00F0A8812078401E112800F2A3812E
:202AC000DFE810F06A015201380123011B010401F100E300C300B2008D005D00530042002B
:202AE000A1012A001C001200F86B002800F08B81684621460DF01CF8F96B82E1386C00289C
:202B000000F081816846002101220DF043FF60788DF80000396C74E1F86A002800F07381CD
:202B2000684600210E220DF035FFA11C684613F011F8A57BA1890022ADF80A1005B10122EA
:202B40008DF80C20F96A5DE1B86B002800F05B816846002102220DF01DFFA5788DF801500D
:202B600060788DF80000B96B4BE1786B002800F04A81684621460CF0DBFF796B41E1386B4E
:202B800008B36846002114220DF004FFA5788DF80150A3680193A289ADF80820A17B8DF84A
:202BA0000A1060788DF80000E57B8DF80B50237C8DF80C3094F911208DF80D20616904912F
:202BC000396B684688476068002800F01C810146F22008700020487010F0ECFF13E1B86AAD
:202BE000002800F010816846002124220DF0D2FE6078A11C8DF800000DF1020012F0AAFF85
:202C000004F10C0103A812F0A5FF257EE08A04F119018DF818500B22ADF816000DF1190059
:202C20000CF076F9B96AECE0786A002800F0EB806846002102220DF0ADFEA5788DF8015047
:202C400060788DF80000796ADBE0386A002800F0DA806846002112220DF09CFE6588627903
:202C60006078ADF8025023798DF80520E11D8DF80000A5798DF804300B220DF107008DF82E
:202C800006500CF045F9396ABBE0F869002800F0BA806846002101220DF07CFE60788DF8ED
:202CA0000000F969ADE0B86910B120460FF0C2FDA07820B9A069002800F0A58003E0A069FC
:202CC000002800F0A08012F071FB9CE07869002800F099806846002113220DF05BFE6D46B3
:202CE000A01C0168406829600B22686004F10A0102A80CF00DF9796983E03869002800F0DF
:202D0000828020460BF09EFB7DE0F86800287AD0684600210E220DF03DFE6078A11C8DF837
:202D200000000DF1020012F015FFA089ADF80C00F96866E0B868002865D06846002114227A
:202D40000DF028FEA01C01686D46296040686860A07A0B2204F10B018DF808000DF10900A3
:202D60000CF0D6F8B9684CE0786800284BD06846002110220DF00EFE60786588211D8DF887
:202D800000000B22ADF8025001A80CF0C1F8796837E0C046E01E00203868A0B368460021D3
:202DA00019220DF0F7FDA01C01686D46296040686860A07A410824BF01218DF80810810888
:202DC00024BF01218DF80910C10824BF01218DF80A10010924BF01218DF80B10C10924BF87
:202DE00001218DF80C1030F07F001CBF01208DF80D000B220DF10E0004F10B010CF088F82D
:202E000039686846884712B0B0BD70472DE9F84FDFF844830F460646F80B80F05B81C24DB4
:202E2000CB4CDFF81C932878B90F80F0EA80B90880F0DD80DFF8F8A2DFF810B3F90A80F0A7
:202E4000B380B90B80F09E80DFF8E082790B50D2380C40D23809C0F0608111F011FF0028AD
:202E600034D055464446032128682170783013F0D4FA0BF0D7F8AF48007818B92868403061
:202E800013F0E9FA022011F087FA11200AF092FB2868007C10B90E200AF08CFBA6490878FD
:202EA00020B100200870052011F076FAA34813F0B3F900224846B0F91410B0F916002270AB
:202EC000814214BF022007200CF060FD27F008070FF096F821E14846416889684E88002ED9
:202EE000FAD04168896849880129F5D027F40047EEE720B1042011F04FFA0020287011F07F
:202F000065FA0146002001B10120002540B1B0696FF480712A464FF0007384463046E0470C
:202F2000884889492A4613F088FAB0684146022203880A70A3F602032BB141F21E015B1AF1
:202F400018BF183000D11030018821F47C7141F434710180757420685C46006B2668804788
:202F600052467C4912680B68934214BF01222A1C26B1801B01EB8201000B886027F4805730
:202F80002560A5E7404613F062FA011C09D0486838B14A68C868B1F92C1020231446002225
:202FA000A04727F40057B8E013F041FA8046484613F04DFA061C14D05546286810B17830AA
:202FC00013F02BFA2068F168006B296080475C462060624813F020F961484FF4006113F0F5
:202FE00042FA404613F012FB27F4806795E007F02FFF4846103013F02AFA08B927F002078D
:203000008BE0584A116841F08001116020B1042011F0C2F90020287013F009FA8046B068BA
:203020000188A1F602052DB141F21E016D1A18BF183000D1103001884B4D21F47C7141F42A
:2030400034710180286808B3606D0068014604208847D8B120682C68006B8047F168001B45
:20306000728AF060F068000BF060F0688018F060F068884203D240184008F060F06840F69C
:20308000C41181422CBFB0F5FA7FF160404613F0BDFA11F09BF990B1B0696FF48071002299
:2030A0004FF0007304463046A047484613F0CFF9002808BF47F0020701D00EF0A1FF7069E7
:2030C00000214FF0806304460A463046A04727F0005722E013F0ABF90146404613F0B7F91F
:2030E000061C15D0356AA80812D225EA05003062084613F08BFA706868B165B17168B6F98B
:203100002CC0F06800232A468E466146F04702E0084613F07BFA27F480471FB110483946F5
:2031200013F0A1F9BDE8F88F1235002040360020FC3400201035002011350020A9B3000052
:20314000C435002054350020D98F0000043500208C01001090330020CC35002021A4000086
:20316000FC330020CC210840003500202DE9F04F09AFADF13C0D08900A92388809911E4690
:20318000ADF81800101C08BF002000F08A81002700F101094FF0FF3A4FF0010BB84672E12E
:2031A000252940F069811078521C0A922D2818BFADF8068005D15846551CADF806001078A6
:2031C0000A9530281CBFC446424605D10A990878DC466246491C0A912A28CDF80080554696
:2031E00017D13068CDF808A00A99CDF810C0C01C4B1C20F00300001D306050F8044C0A9372
:20320000002C0878009419D5ADF806B06442009414E044460AE00A9B610001EBC4010918AB
:20322000A1F1300418780094591C0A91302801DB3A28F0DBCDF808A0CDF810C02E282BD1DF
:203240000A9908782A2801F101010A9111D13068CDF80880C01C20F00300001D306050F8BF
:20326000045C002D48BF454608782B46491C0A9111E0434645460AE0690001EBC501091813
:20328000A1F130050A9908782B46491C0A91302801DB3A28F0DB02930AB1224604926C2890
:2032A00004D04C2818BFADF8048005D10A990878ADF804B0491C0A910BA9CDF80C800FABB5
:2032C00007916428059300F08D80692800F08A80BDF818C0752874D0782870D06F286CD089
:2032E000702851D063283ED073281FD009980A990128A1F101010A9116D96D490C68B5F197
:20330000FF3F03D0A84288BF6D1C00D8099D029508A80AA932466B46A0470A99C019074691
:20332000039801F1010975E040462AE030680A99C01C20F00300001D306050F8040CBCF135
:20334000000F01F10109014608B957A00146079112F0EAFD0390B5F1FF3F5CD0A842C4BF8B
:20336000281C039057E03068C01C20F00300001D306010F8040C5D468DF82C000A99039564
:20338000584601F1010946E0082035680490E81C20F00300001D306050F8041C082210238B
:2033A0000FA80DF00BFF411E0791402400F8014C0A99079801F1010929E0082302E0102328
:2033C00000E00A230A99306801F10109C01C20F00300001D306050F8041CAA42BCBF2A1CF8
:2033E000049210E00A99306801F10109C01C20F00300001D306050F8041CAA42BCBF2A1C5F
:2034000004926FF009030FA80DF0D8FE0790059D281A0390009CBDF80650211A241A009162
:203420005DB906E008A8202109AA11F094FC009C7F1C641E0094F5D503980546401E03906D
:2034400075B9BDF80600F0B10098401E00901AD408A8202109AA11F07EFC00987F1CF4E741
:2034600007990846491C0791017809AA08A811F072FC03987F1CE0E708A809AA11F06BFC4E
:203480007F1C09F101094A460A9812F8011C401C00290A907FF484AE089808B1414601701F
:2034A00038460FB0BDE8F08F286E756C6C2900C0AC8901002DE9F04FB94C05466068ADF19E
:2034C000340D8047DFF884B2A44FAE4E012D0B9000F0C4809BF8F503A14D0F2850D09C4837
:2034E00090F9000010F1020F05D19A4890F9000010F1020F44D0984C20783B68099003F11E
:203500003C0000688047099F61680023401AB900B0FBF1F2E768A0680A9704F1180787E890
:203520000C000A9F98464146BA4271EB080102DA3946884206D807464146BA4271EB0801D8
:203540001EDA0A90B9469A4604F11801B9EB02097AEB030A81E80006099A04F1180003C8E1
:203560001346DB1712F0C2FB183440F6B832D317801A9941002984E80300BCBF01202870AB
:2035800012F054FB002864D076480078002860D17548007800285CD174480078002858D1E0
:2035A00073480078002854D12878002851D17148007800284DD170480078002849D16F4801
:2035C0000078002845D1002054F02CF9002840D16B4F9BF86B94387800283AD16A4C206A04
:2035E000436CF068022106AA98479DF8180080B3DFF85C81226AF06898F90010002511F1D2
:20360000020F18BF01254FF0010A2DB1926B98F900109047226AF0684E4D95F9001011F1E0
:20362000020F03D0926B95F9001090476FF00100287088F8000087F800A0002012F034F94E
:20364000206AC169F0688847B9F1010F04BF0020607053490B988968884774E0012054F06A
:20366000E1F821460B9889688847484800780F280DD007F08FFD38680C36436C30680221BC
:2036800007AA98479DF81C0000285AD05BE03C4D9BF86B842878012853D1012012F004F944
:2036A0003B4F97F8C2000028FBD1374C206A436CF068022108AA98479DF8200050B197F82E
:2036C000C20038B9287801283BD10020287012F0B9FA36E03248406880472E4B8146022193
:2036E0000022B8F1010FF068297003F11007256A294E7A8009D004928DF8141001238DF832
:2037000015308DE8060004AA09E002928DF80C108DF80D2003F110078DE8060002AA2D6D9F
:2037200039463346A8471E498D68002801D512F058FE1A4991F90000E760401C087048465A
:20374000A84711F045FA0DB0BDE8F08F20080020EC1E0020ED1E0020301E002048190020CD
:203760004C360020493600204B3600204D3600204A360020EE1E0020EF1E0020F01E00209D
:20378000CF1F00204C1D002028190020150C0020B0300020C8130020CD2D0100F61E0020C6
:2037A0008C1A00202DE9F04FAA4C6068ADF12C0D8047A94A1178A94D08911278A168012AC9
:2037C0000BD0A54A01241470884728780795012805D02046FFF76EFE01E088470795AA4D62
:2037E0009F4CDFF8888295F86B14E068012900F0B080DFF870B29BF9000028B19A4890F98E
:203800000000002840F0AF80924840688047099000268DF8146004964FF001098DF8159013
:2038200008F59C7AC8F8406108F5A271AAF80260087808F5A27766F303000870387808F2EC
:20384000531369F3C7103870187808F2531269F300001870107808F2531769F3410010704B
:20386000387808F2531366F382003870187808F2531266F3C3001870107866F304101070AD
:2038800098F8530108F5AA7140F0600088F85301F4200FF075FD206A754A076D764B754808
:2038A00031468DE803001068514604AAB8476949A08000288968AF78069148D46A496F4B2B
:2038C00091F90000401C087093F90000002F00F1010018709BF90000C4F80CA000F1010067
:2038E0008BF8000014BF8021311CB4F85C004FF67F7208F5A876024011430843A4F85C0052
:20390000307867F3C7103070B5F80E04B5F81234082204F15F0705F22C463146A4F86A0011
:203920003846A4F8683053F05DFFB5F80E040822B5F81244A8F86A013146A8F8684108F582
:20394000B07053F04FFF0699099888476CE0B146FAE708F5847108F58477814205D1424876
:2039600090F9000008B100265FE03A48406880470026824695F8FC32A8F80A61002B07BF0A
:203980004FF48600311C3E482021B1463D4A8DF80D601378CDF808909B0904D212781209D3
:2039A00038BF012200D302228DF80C20226A166D314B2F4A8DE803001068394602AAB0472F
:2039C000244900288E68A0802CD427492B4B91F90000AA78401C087093F90000E760002AD9
:2039E00000F1010018700CBF4F468027B4F85C00B5F80E344FF67F71082201400F433843E2
:203A000005F22C41A4F85C00B5F81274A4F86A3004F15F00A4F8687053F0E4FE5046B04767
:203A2000012602E05046B0474E460A48406880470849896816B9084B089A1A70884707989D
:203A40000078012802D00020FFF734FD30460BB0BDE8F08F8C1A0020EE1E0020CD1F002059
:203A600028190020F81E0020F71E0020C8130020581D002020004300F11F0000F61E002043
:203A800000004F8C4A360020200800202DE9F04FAF4C0746201DDFF8B48200688946ADF1A7
:203AA0003C0D4FF0000B017DADF80CB0252900F00781703005A904F0D5FB002818BFC0B24B
:203AC00040F0418101A804A90DF006F912F05AF800280CBF41F2081543F2C82504A901A893
:203AE0000DF0FAF898F82B0201993B684FF47A7A10FB0AF00AFB1100C01A8542C0F2DD80DB
:203B0000D8F80422521A0AFB02F1C91A8D4200F3D480854208DD002806DD95FBFAF04FF4DE
:203B2000916110FB013038609DF81F0000285DD042F204000DF136010FF0B0F811F076FC2F
:203B40000699441A42F206000DF135010FF0A6F89DF835009DF81D10FF2804BF0A208DF838
:203B60003500FF2908BF0A219DF835609DF81C507848B4FBF0F2701884B25646A8105443D1
:203B80007043A04298BF041C41F20810241805A811F049FA9DF81C103D68B0FBF1F24A4320
:203BA000821A11FB06F192B206FB02F3CA1AC91A521B491B8C4201D900290CD5614291426C
:203BC00016D2002A14D53968B4FBF6F24FF4916312FB031508E061003C684FF49163B1FB86
:203BE000F6F18AB203FB02453D6001E03D68584606460DF1120102A80DF06EF80298D8F8C8
:203C000004125C46B5FBFAF280180290814203D998F82B32834202D998F898712FBB9DF8E2
:203C20001C00B6180004B04298BF361A9DF81F00002808BF9DF8200024D09DF81C00B6FB4F
:203C4000F0F085B2BDF833000EF014FF9DF83120014628460FF008FB054611F0D1F9024659
:203C600008A928460EF0CEFF0CE0814204D8BDF81200401CADF81200BDF8120098F89B11F2
:203C80000DF084F989F80000314F88F8F5017868007D052812D1384690F8110470B999F8F1
:203CA000000003A9ADF80C0042F20C0004F00CFABDF80C00A8F8F00100E06524204642E02A
:203CC00011F060FF00280CBF41F2081443F2C824214800784FF47A7510FB05F13868091B49
:203CE000A1F5FA62824206D2A1F57A61B0FBF1F24A43801A386068460DF10E010CF0ECFFD6
:203D00003868009998F82B6205FB0102009216FB05F18A1A944211DCA1F5FA619142BCBF0B
:203D200000F5FA60386098F89B11B8F878010DF02DF90146584689F8001002E099F800101B
:203D4000652088F8F5110FB0BDE8F08F4011002020080020A08601006B1300202DE9F04FA2
:203D6000002898461446ADF12C0D00F0F38011F47C1F40F0EC8011F00F0F00F0EB800746A6
:203D80000591002006900A904FF0000A0990554608954FF0010BCDF810B0054650460790DB
:203DA000059805990BEA000021EA0B014FEA4B0B401E059100F0AB80401E70D0801E5DD0B5
:203DC000001F40F0BE8042F205000DF10E010EF065FF9DF80E00002800F0B3801CB1276666
:203DE00094F86B0006900720152607F8010B022301A907F8016B42F2010007F8013B0EF021
:203E00004DFF684603A90CF067FF06980EF020FF0146019A00983E4640180090824206D857
:203E2000801ABDF80C300090581CADF80C00009B50085146814609041804030C1943000459
:203E4000534610EB090041EB0A0103F00DF80090BDF80C309DF80C009DF800209DF8011019
:203E600006F8010B181206F8010B9DF8023006F8012B9DF803200935BF1D42E002201526C2
:203E800007F8010B042307F8016BB8F1000F07F8013B0CBF099898F800002D1D4EE01CB151
:203EA000E76594F86B00069005201526049B07F8010B0DF10F0107F8016B42F2040007F86F
:203EC000013B0EF0EBFE02A80FF076FC06980EF0BFFE02999DF80F609DF80F30069AED1D2E
:203EE0004018000200EB6600B0FBF3F03E4602903F1D06F8012B9DF808109DF809309DF8DD
:203F00000A2006F8011B06F8013B327018E00320152607F8010BB8F1000F07F8016B0346B4
:203F200007F8013B04BF0A9807F8010B05D098F8000007F8010B98F801006D1D07F8010B40
:203F4000ADB2059800287FF42BAF2E4661E011F00F0F01D000205DE080468A4602264FF4ED
:203F6000803908F1020509EA0A002AEA090A4FEA4909B0F580301AD0B0F5803014D0B0F5BC
:203F800000300ED0B0F5802009D0B0F5002004D0B0F580102AD1072404E0062402E00524E8
:203FA00000E00424002704E00224012701E001242746A81C214600F08FF947B104F00F048B
:203FC000C0F30A0141EAC42141F4004105E004F07F0400F0FF0141EA042105F8011B0912CD
:203FE000871929702D18B81C6D1C86B2BAF1000FB9D1022ED8BF00260BDDB01E4FF6FE770D
:2040000008F8010BF019C0F3022040F0A00088F8000030460BB0BDE8F08F70472DE9F04F05
:20402000AA4C07466068ADF1340D80470B900AA9822004F06DFEA64EBDF8280038BB002498
:204040004FF6FF75ADF8284017E0ADF80450BDF82800ADF80650FF210822ADF8000002A839
:2040600053F0DCFB8DF81840D420694603F0E6F9BDF82800401CADF82800301DBDF8281094
:2040800000888842E1DC82200AA903F0D7F9DFF844920020B246ADF828009DF82800002684
:2040A0008DF8000069468DF80160D02004F030FEB0460126F0B99DF80B30012B07D19DF8A5
:2040C0000A0020B90DF1020011F0E0FD90B97D7B002D0CBF0522092246469D420AD10DF150
:2040E000020007F10E0153F041FB002818BF4FF0010809D1002E40F0D780B8F1000F03D1D6
:20410000787F002800F0D080564600240CE06F490B98896888471A20D4E0BAF804006D1C4C
:20412000ADB24BE0641CA4B2B088A04242DD9DF82800ADF8224008A98DF82000D12004F0E7
:20414000E7FD0028EED19DF82400FF28EAD0ADF800006946D42004F0DBFD002837D102A80C
:20416000391D082253F002FB0028DBD038887D88ADF80400B8F1000FADF8065008D0387B00
:20418000BDF82810BD698DF818000DEB81010D61D420694603F052F9B8F1000F0AD0387F5D
:2041A0009DF82510884205D08DF8250008A9D12003F044F9B088A04276D10025A84270DD5D
:2041C000ADF80050D420694604F0A2FD28B13F490B9889688847192074E00DF1080B5846B4
:2041E00011F054FD002300B101233C1D181C06D158462146082253F0B9FA00288DD07B8864
:2042000038883A7BADF80630B8F1000FADF80400BDF828308DF818200DEB830101F11001A4
:204220000CBF0020B86908220860214602A853F0D9FA99F8FC0230B1D9F84C231AB1BDF889
:20424000001020469047002401E0641CA4B2B088A0427FF762AF9DF82800ADF8224008A920
:204260008DF82000D12004F053FDE82803D09DF82400FF28E9D19DF8000000228DF8240087
:204280003B7F8DF8262069468DF82530D42003F0D5F808A9D12003F0D1F8B088A0427FF76E
:2042A0003CAFA8423FF433AFBDF82800401C80B20228ADF82800FFF6F0AE04490B9889683E
:2042C000884700200DB0BDE8F08FC0468C1A0020081F002020080020F0B504460846ADF1D8
:2042E0006C0D401E70D0401E0DD0801E00F00981401E00F0EF80401E00F0E180401E00F09A
:20430000AD80002042E142F2010007A90EF0C6FC42F20B0008A90EF0C1FC42F206000DF1A5
:2043200065010EF0BBFC42F207000DF166010EF0B5FC42F2050019A90EF0B0FC04A80AF0C8
:20434000CBFA06460DF1670142F209000EF0A6FC9DF86700002808BF002503D0022010F004
:2043600086FB0546204607A9042253F03BFA241D08A90222204653F035FAA71C9DF8640013
:204380009DF865309DF866109DF8674007F8010B9DF8672007F8013B2B4607F8011B610756
:2043A00006F0070444EA916005F0030404AD40EA8410314607F8010B012400953846019423
:2043C00007F06EFA0A309AE042F206000DF165010EF064FC42F207000DF166010EF05EFCD6
:2043E00042F2040019A90EF059FC04A80AF074FA05460DF1670142F208000EF04FFC9DF891
:204400006700002808BF002303D0012010F02FFB03469DF864009DF8657004F8010B9DF8BC
:20442000666004F8017B9DF867209DF86770790704F8016B03F0030705F0070646EA9160AE
:2044400004AE40EA8710294604F8010B002700962046019707F024FA001D50E042F215000C
:2044600011A90EF01BFC13AF42F2160039460EF015FC15AD42F2170029460EF00FFC17AE89
:2044800042F2180031460EF009FC204611A9082253F0A8F9083408222046394653F0A2F9FF
:2044A00004F1080708223846294653F09BF9082207F10800314653F095F9202066E042F2DE
:2044C00014000DF122010EF0E9FBBDF8221002200A1258E009A80021202253F09FF942F245
:2044E000130009A90EF0DAFB09A853F099F9024609A9204653F076F909A853F091F980B2DC
:2045000044E042F20E0002A90EF0C8FB0DF10A0142F20F000EF0C2FB0DF10B0142F20A007A
:204520000EF0BCFB03A942F210000EF0B7FB0DF10D0142F211000EF0B1FB0DF10E0142F2EA
:2045400012000EF0ABFBBDF808009DF80B209DF80C709DF80D609DF80E509DF80A1004F877
:20456000010B02F00102001204F8010B07F0010042EA400206F0010042EA800205F0070019
:2045800042EA4012042004F8011B22701BB0F0BD2DE9FE43A44C80460F46B8F1450F08D11F
:2045A00004F50F753422284653F01CF9C4F8F05337E111F079F8FF2808BFF42000F0328134
:2045C00094F86B14022907D1B8F1E80F00F02981B8F1E70F00F02581944D05EB8005A878E8
:2045E00010B9E978002937D0E978814208BFFB2000F01881B8F1580F24D0B8F1600F1AD0CC
:20460000B8F1E00F0ED0B8F1E80F05D03A7890421FDC91421DDB1FE0387894F83B14884211
:204620001AD1FEE097F900000CF02AFA4FF6FF7181420ED010E038880A280ADBB0F5804F70
:2046400007DA09E038888F2803DB47F60251814202DCE820BDE8FE83774E706880478146B1
:2046600028786A783946201800F57A7053F0BAF8B168484688474046503800F0C680801ED5
:2046800000F0AD80401E00F0BD808D3800F0B580401E00F09B80401E00F0AC80801F1ED018
:2046A0000D3840F0BE800E2094F869748DF8020017B11B208DF8020094F92A149DF902003C
:2046C000884204D0E0200DF10201FFF761FF11F0F9F894F86904002800F0A38073E001214A
:2046E00003208DF8051030278DF8030000258DF808704FF4FA568DF8065094F83B14ADF80E
:204700000060052080298DF8040009DD842907DA8DF8030014278DF8087008208DF80400FD
:204720009DF8030094F80D14884204D04F200DF10301FFF72DFF9DF8040094F819148842E7
:2047400003D0572001A9FFF723FF94F83B04842808DB862806DAC0208DF808004FF4FA4774
:20476000ADF800709DF8080094F81D14884203D05A2002A9FFF70CFFBDF80000B4F81A1478
:20478000884203D058206946FFF702FF94F83B0478B902208DF805000B278DF8075024493B
:2047A0008DF806707D260E80E7200DF10701FFF7EFFEF7200DF10501FFF7EAFEE1200DF1E5
:2047C0000601FFF7E5FE0DF063FB2AE094F82B040EF0F0F9012824D01A20BDE8FE8394F8E9
:2047E000110418B902200FF011FB1AE0022011F081FC16E00FF0F4FC09E094F92A0411F082
:2048000057FB0EE010F0C0FB01E010F0A9FB94F86B04022805D107480078012801D00BF061
:20482000F5FB0020BDE8FE83200800208C7D0100101F0020181F00208C1A00202DE9FE4F21
:20484000DFF83892074609F1040000688047DFF8248200248346002F88F8034064D010F0AD
:20486000A1F908F26C402146AC22054652F0D6FFDFF804A20AF104000188C80000EB011098
:2048800080B253F01FF8C8F80C0560B105F18C070226BAF8040000EB400080B253F012F899
:2048A00047F8040F08B911F09CFD761EF1D1E81DFF21082252F0B2FFFF2105F11000082263
:2048C00088F87B1452F0AAFF022703234FF6FF7C012288F88C3405F19400A8F88EC40421CB
:2048E00000F8042F417083707F1EC170F8D105F1A0000526022700F8042F417086707F1EF9
:20490000C270F8D1BAF8047085F8A8304FB12146D8F80C057F1E084401F11801A0F802C08B
:20492000F6D1022088F8700498F8FC024D4618B1D8F8000300B180470DF058F998F92A0458
:2049400011F0B6FA0EF048FC10F00AFB10F01CFB0FF046FC4A4F072657F8040B00B180476B
:20496000761EF9D111F07AF9464606F14C00016809B10EF037FE4348006886F85640C0B1C8
:2049800012E0384652F042FE029002A80EF02AFE20E0384652F03AFE019001A80EF022FE73
:2049A00014E068460EF01EFE52F02EFD00280090F7D135480078012802D02046FEF77AFD8C
:2049C000324896F86B8406F178070470B06F0028DFD13F1DF06F0028D3D1B467F46786F884
:2049E000824086F88340B8F1020F86F8844004BF2748C6F890002748C6F88801264FC6F84F
:204A00008C71264BC6F89031B470254AC6F894212449C6F89811244FC6F89C71234BC6F865
:204A2000A031264B224AC6F8C0302249C6F8A421234A214FC6F8C420244BC6F8A81121495D
:204A4000C6F8AC71204FC6F8C8105846C6F8CC70A968C6F8D030884706F211415220FFF78E
:204A600097FD96F82B040EF0A5F80DF0BFF82046BDE8FE8F20080020081F00208C1A0020A9
:204A8000280900203C360020CD1F0020483600207B640100070A0100E9630100C14E01003A
:204AA0006D7D000021C700002D5501009D4401009DA70000A98B0000A9410100D7ED000098
:204AC000E9970000711301000DF20000C11A01002DE9FE4F0546287D012808D195F91700FC
:204AE0000BF0CEFF4FF6FF71814200F016819548EF7B017894481FB990F883208A4208DBA1
:204B0000012F03D190F882208A4202DBF120BDE8FE8F80462E6A95F83500B5F8289095F869
:204B20003470AC8B4FF0000A5FEA060B029017D098F8FC32002B2FD0D8F8141300292BD07B
:204B400006F0FF008847D8F8141306B20BF47F008847361830B2001D00B2C83086B200E086
:204B6000C8260CB1241DA4B298F82004012809D147B1764802993F1897F804A0405C80192C
:204B8000401D86B209EB040080195044801C80B252F0BAFD071C02D11A20BDE8FE8F09EB3E
:204BA0000A0033193881002C03EB070078600EBF0020B819801C00217822C7F8A40007F17D
:204BC0000C0052F02BFE09EB0600FF2110220019A7F84C0007F13C0052F020FE07F12C0056
:204BE0000F21102252F01AFE00243C707C707868696A2A8D52F0F6FD07F1840005F12C01FF
:204C00000B2252F0EFFD07F19000294610F0F4FE6889A7F89A00287B87F89C00687B05F18F
:204C20000E0687F89D00326869460A60706848609DF800102046012908BF01209DF801104E
:204C4000012908BF40F004009DF80210012908BF40F008009DF80310012908BF40F0100086
:204C60009DF80410012908BF40F020009DF80510012908BF40F040009DF80610012908BFA3
:204C800040F080009DF80710012908BF40F48070A7F89E00A87D87F8A000E87D87F8A1009D
:204CA00095F8380087F86C00AA8BA7F8A82022B1D7F8A400A96952F095FDA87F87F8AA002C
:204CC000286AC7F8AC00B7F8A800C0B1D7F8A400A8B17868401E7860F82101707868401E65
:204CE00078600470B7F8A810B7F8A8607868401A786038898019801C38817868B865B7F8DD
:204D00009E00410A16D395F83710042905DD00F0040100F00100084302D0E820BDE8FE8FA1
:204D200008F1880630460BF0C1FB95F83710304610F000FE98F80000394652F0DBFB2046EA
:204D4000BDE8FE8F081F002020080020687A01002DE9F04142F20400ADF1280D0DF123013B
:204D60000DF09CFF42F205000DF122010DF096FF42F2010069460DF091FF8C4C8C489DF8FD
:204D80002310C4F8A801642011FB00F1C4F8A0118849C4F8C4119DF8221011FB00F0C4F8AC
:204DA000BC018548854EC4F8E001B07888B342F203000DF106010DF071FF10F021F9054688
:204DC0000DF1060029460DF087FA2D1A9DF8220084F89B5170B1009860B104F5DC700DF070
:204DE000F9FD04F5BA700AF02DF9012084F8940184F8980142F202000DF106010DF04EFFAE
:204E00000DF1060010F0C2FA04F5CE700DF0E2FD11E042F202000DF106010DF03FFF0DF15A
:204E2000060010F0B3FA04F5CE700DF0D3FD04F5BA700CF0CFFF96F83B040FF049FBC07B83
:204E4000022804BF012084F8F40194F8F801002840F0A88004F128000021382252F0DEFC1A
:204E60000026A681E08900EB800080B2804652F029FD04F12805074627610FB911F0D1FA26
:204E800038463146424652F0C9FC4D484D4FE06305F1080067630DF09DFD42F21B0001A9C2
:204EA0000DF0FCFEBDF8040001A9A4F84C0042F21C000DF0F3FEBDF8040001A9A4F84E0025
:204EC00042F21D000DF0EAFEBDF8040009A920835D200EF055FA9DF8240000280CBF301CCC
:204EE000012084F85C00B4F84C0038B100EB401080B252F0E7FC0028606551D0B4F84E003E
:204F000040B1410001EB800188B252F0DBFC0028A06543D0208B38B1C00080B252F0D2FCC9
:204F2000606108B911F07DFA27490DF11A00082252F058FC01273546208BA84223DCB4F84C
:204F40004C50668355B1606D4FF6FF720146A0F81F206D1E8E7701F12100F7D1B4F84E5070
:204F60004DB1A06D4FF6FF71024681806D1ED67002F10600F8D1201D3146062252F04EFC2D
:204F800084F8F8710EE060690DF11A01082200EBC50052F027FC6D1CADB2CDE711F041FA45
:204FA00011F03FFA0AB0BDE8F081C04640110020252A010091BA00008F630100200800209A
:204FC0004DA50000002A7515C0810100F0B500215022ADF15C0D02A80BF0DCFCF22016A95C
:204FE00011F038F88F4DBDF8580016A9A5F87000F32011F02FF8BDF858000DF10901A5F8DE
:205000007200E22011F016F8688DADF81200410806D305F11401096805A80160BDF81200EE
:20502000810805D3291D098806A80180BDF81200C10807D305F1180109680DF11A000160A6
:20504000BDF81200010908D30DF11E0005F15401302209F05DFFBDF81200400903D3286B1D
:205060001590EF6A14977048007800280CBF01210021012052F032FDBDF8120041082CBF94
:205080000F240B24810824BFA41CA4B2C10824BF241DA4B2010924BF3034A4B2400924BF16
:2050A0000834A4B220460FF07FFE071C00F0B78005260DF1090100F8016B0A680260496816
:2050C0004160BDF81210083052F0D5FDBDF81210844648080BD3BDF81410604652F0CBFDB4
:2050E000BDF8161052F0C7FDBDF812108446880807D3BDF81810604652F0BDFDBDF812106E
:205100008446C8080BD3BDF81A10604652F0B3FDBDF81C1052F0AFFD8446BDF81210434AA3
:205120009388080961D3BDF81E10604652F0A3FDBDF8201052F09FFDBDF8221052F09BFD20
:20514000BDF8241052F097FDBDF8261052F093FDBDF8281052F08FFDBDF82A1052F08BFD5F
:20516000BDF82C1052F087FDBDF82E1052F083FDBDF8301052F07FFDBDF8321052F07BFD5F
:20518000BDF8341052F077FDBDF8361052F073FDBDF8381052F06FFDBDF83A1052F06BFD5F
:2051A000BDF83C1052F067FD194652F064FD117852F061FDBDF8421052F05DFDBDF8441071
:2051C00052F059FDBDF8461052F055FDBDF8481052F051FDBDF84A1052F04DFDBDF84C104F
:2051E00052F049FDBDF812108446480906D31499604652F0FBFC159952F0F8FC05F11C01D9
:20520000224630463B4604F075FD0820ADF80260074D01972968ADF800006846884717B034
:20522000F0BDC0465C180020021C002058170020B01A00202DE9F04F8146D9F800600C46D1
:205240005FEA0208ADF11C0D14BF00214FF0FF3106F14805284610F0DAFEAA46002818BF58
:205260000B2040F00B8188480025F460B8F1010F057007D0657002200FF0C4FA06200FF020
:20528000C1FA01E0012060702078012840F2AB80801E012868D9801E012832D9801E0128C2
:2052A00000F2DD8011F0C3F84FF080578346D7F8DC11A0784E6A0090217807F5EE77284680
:2052C000062908BF0120019001200290A068228A6368E168B0470646584611F097F9002E0B
:2052E00040F0BF80B8F1000F02D010F03FFC02E048460FF0A5FB002800F0A4803868806AA5
:205300002BE011F094F883464FF0805CDCF8DC0101270068009726786368A168A278AE46B9
:20532000042E0CF5EE7408BFBE46064618467346B0470646584611F069F9002E40F09180F7
:20534000B8F1000F02D010F011FC02E048460FF077FB002876D02068406880474949C1F825
:20536000B0510D6006467CE011F061F807464FF08053D3F8DC01E18A80690091E1680191F6
:20538000218B0291A1780391217D04910122059221782E4603F5EE75022908BF161CE1784F
:2053A0006268A36884463046E0470646384611F02DF9002E55D1B8F1000F02D010F0D6FB11
:2053C00002E048460FF03CFB00283BD02868006A8047061C45D12868A168E28A2369C5693C
:2053E000E078A847BEE711F022F883464FF08052D2F8DC01E18AC0680091E1680191218B7A
:205400000291A1780391217D04910121059127782E4602F5EE7507B90E46A368E1786268B2
:2054200007463046B8470646584611F0EFF8C6B9B8F1000F02D010F099FB02E048460FF0CC
:20544000FFFA08B9142019E0286840698047061C07D1286802692169E078904782E74FF00F
:20546000FF36B8F1010F05D002200EF095FF06200EF092FF504610F0EEFF304607B0BDE8AB
:20548000F08FC04650450240473600208E492DE9F04F06460822ADF16C0D15A852F0A2F9C0
:2054A0008A4C94F8F30106F1280A06F12807002800F007817078002840F00381FF20844BF5
:2054C0008DF818001D78F06C012105AA02F086FADFF80092DFF8008228B99DF8180008B9EA
:2054E0009DF81C5070BBB08900F00700022814BF04200520B073B08900F00700032807D1B4
:2055000073684046001D01681878042800F09C8096F83000022815D149468878012811D075
:2055200001F57A710D4606F12800022220310FF0C3FE38B905F116010DF13E0052F016FC55
:205540000DF13E07706E002800F0BB80012102AA0AF04BFC002840F0B4809DF80800B0737C
:20556000F06C40B1394612AA0DF14A03FBF7E4FE002840F0A6800DF14A000090706E3946D1
:2055800012AB06F0DBFC002840F09B804946891C0878012854D04FF4005013A90DF07EFB48
:2055A00013A815A908220FF087FE30B113A8394608220FF081FE002842D194F89901002878
:2055C0003ED0D4F88851B4F8846142F2010004A90DF064FB049A4FF000410020E5FB021019
:2055E000051CD4F8900110F0EEFC2D180498A84202D8761C2D1AB6B24746786880475FFAD0
:2056000080F8D4F88001A84205D1B4F87801B04208BF00260BD0C4F88051A4F87861002004
:2056200084F875010FF002FF0126C4F88C01B968404688470EB10BF071FC012084F8980135
:20564000002084F899013CE0CDF85CA08847AB46224D0A274FF00008CDF864A096F8309079
:20566000189014F809A0287A484505D11999524628460FF021FE20B17F1E05F10C05F2D1BA
:2056800000E0A8465FEA08070ED194F87001134A0C2110FB0127401C84F87001C0B20A285E
:2056A00004BF002084F87001179938460A2252F099F809491898896887F80AB088470420CE
:2056C000B0731BB0BDE8F08FC081010040110020171F0020200800208C1A00203812002037
:2056E0002DE9F043071CADF1240D00F01381F86B002800F00F81B7F84020002A00F00A812C
:20570000007817F130014FF0000603D097F83810052902D0002E00F0FD80DFF80482401E93
:2057200069D0801E55D07F4CC01E3DD0001F40F0F1807A4DA878002800F0EC8003A831466A
:2057400004220BF027F9B7F840002A78032840F0E180F86B401C52F094FA434603F17C072C
:205760003988012A01F10101398009D0D988421A022A05DBB3F87E108918491EA3F87E1084
:20578000D880E7782E70400808D2012F00F0C2800121E170304652F0A1F9BBE0002F00F0B1
:2057A000B980E6703146F5E7012A40F0B3800725E0788DF8205000280CBF0121311C304628
:2057C000E17052F08BF9E07802228DF8210028460CE0012A40F09E804346B3F85C0001220A
:2057E000401CA3F85C0004208DF82000394608AB04F080FA8EE0684631460C220BF0CAF86F
:20580000B7F840000B285ED1FC6B14F8010BC14689F82800204652F034FAA41C03462046C3
:2058200052F01EFA0546201D52F01AFA8046387A4C4689F82400022806D0396804F11C00CF
:2058400001607A68426001E03888A08303F00100190928BF40F00800590928BF40F01000E1
:205860006085834218BF0226B5F57A7FADF8020016D32D48A84213D3E56210F0A1FA81465E
:2058800010F09EFA00EB092910F09AFA00EB0920B0FBF5F16943401A0A300EF0E3FF00E01A
:2058A0000226E06AB8F57A7F019008D342F21070404504D3C4F8308010F096FA00E0022650
:2058C000206B029001E04446012602258DF8016068468DF800500DF037FC0DF111009DF8B5
:2058E00001108DF8105052F0C6F9BDF8021052F0C2F9019952F07AF9029952F077F93946D2
:205900000D2204AB284604F0F5F9B4F86200401CA4F8620009B0BDE8F083C046E019002001
:205920005C18002058170020407E05002DE9F84F86468448DFF820C2DFF80C92834F844EBA
:20594000DFF81082DFF814A2DFF814B20478012C64D04D4601242C7000244FF0E0453C704F
:2059600004EA020015EA0307347008BF002843D10820274610401F4008BF002833D04246C9
:20598000654692F90000B5F8A230401E107042F201429A4202D0121D9A4209D1504600686C
:2059A000826C70469047008842F6014181420CD1688FB0F5105F1BD16A480068594600F525
:2059C000C07008600EF0ECFD1DE0E12009F04EFF98F90000002800F0A98098F90000002879
:2059E00000F3AB80A0E0454695F90000401E28701D2009F03BFF06E0454695F90000401E2D
:205A0000287010F037F998F90000002800F08E8098F90000002800F3908085E04D4601242E
:205A20002C7000243C70504834700688022707EA020514EA030708BF002D15D120464FF088
:205A4000E04700EA020117EA030008BF002903D11D2009F00BFF50E0454695F90000401E83
:205A6000287010F007F948E0424692F9003065465B1E137043F20842B24208D0B5F86A70AA
:205A8000931CB34203D0BA4218BFBB4216D150460068826C70469047008843F603018142D7
:205AA0000AD007F021FD98F9000000283ED098F90000002838DD40E0B5F86A70B5F8C2103C
:205AC00043F60400884220D0B8421ED0B5F8862090421AD0B1F5505F05D0080B0BD31D2080
:205AE00009F0C4FE07E01F480068594600F5C07008600EF055FD10F081F898F90000A8B156
:205B000098F9000000280FDD17E018480078022810D003280ED007F0E7FC98F9000028B1BA
:205B200098F90000002808DC10F05BFC2046FDF7C1FC02E0204609F099FE89F80040BDE81C
:205B4000F88FC0468B0C0020CD1F0020F01E0020EF1E0020F61E0020C813002048190020EA
:205B6000401900200C0100214E1400200E1E00202DE9F04781498B4E0F7896F86BC4002F4D
:205B800040F0F7807E4C894601210128A070756889F8001040F29780DFF8E881DFF8ECA10F
:205BA000801E47D0401E35D0401E00F0A180401E1FD0401E40F09A8095F86D00608195F801
:205BC0006E00002806BFE170081CE0706E4A514609781278474612FB01F148438100396416
:205BE00007F14401087820F00F0040F0030008708BE0BCF1010F40F088800020E98A60715A
:205C0000C90934BF96F80D1496F83614617010F0A9FA56E0BCF1010F09D196F83B040EF02C
:205C200057FCC07B022802D1002009F023F90EF0D1FC46E056480568BCF1010F1DD09AF86C
:205C400000008700E86B8047DAF804103C23401AB0FBF7F1B1FBF3F25A43891A227812FBF9
:205C600003F0401A3C301FFA80FAE86B804707FB0A014046016444301DE09AF8000087003C
:205C8000E86B8047DAF804103C23401AB0FBF7F1B1FBF3F25A43891A227812FB03F0401AF3
:205CA0003C301FFA80FAE86B804707FB0A014046C0F8C810CC30017821F00F0141F00201DE
:205CC0000170756821E00021EF8A6171F90934BF96F80D1496F83614617088B996F8EB03FF
:205CE00070B10229C4BF0220607009E010F079FB95F86900607195F86A0060700027A771B9
:205D000000F0A0FD7568002D35D02248007868B9002D2ED06968087800F0200020718878C7
:205D2000E0710878800901D210F0B8FAA078032803D0022818BF06281DD1174D6868804756
:205D4000A17802290CD015490F7817B914490F7837B1022189F80010A9688847BDE8F087F2
:205D6000832189F80010A96888470AF093FDBDE8F08710F036FBBDE8F087C0464D36002072
:205D80000C1E0020C8130020151F0020301E002048190020453600208C1A0020493600207B
:205DA0004B3600202008002001282DE9FE4F40F0F480DFF820A2DAF8DC00012840F0EA80C0
:205DC0000220CAF8DC000FF02BF801200DF02CFC5FEA000805D00120CAF8DC000FF034F88B
:205DE000DDE010F03CFB704D6E49029000200860A86A0068014601208847012818BF002050
:205E000003D100200BF048FA0120684F00903868112010F01FFA00280CBF00240124102093
:205E200010F018FA08B144F002040F2010F012FA08B144F004040B2010F00CFA28B1286893
:205E40005B49006B0246088890470A2010F002FA28B128685749006B02460888904756489D
:205E60000126066028688069014644F0200088475248066010F0E8F900F00101DFF844B113
:205E80000191400816D2286A806801464C4888478146B9F1040FF6D0B9F1010F05D1286AB0
:205EA000406802464648032190475946086820F0030008604448006842F2107240F2AA2336
:205EC000B0FBF2F15143401A83422CBF40484FF040403E49086028683968806B80470198E4
:205EE00001280ED0B9F1010F05D1286A40680246334831469047DBF8000040F00300CBF8F7
:205F00000000286840690146204688470B2010F0A1F928B128682649C06A02460888904756
:205F20000A2010F097F928B128682249C06A0246088890472048032206602049CAF8DC20E0
:205F400000230B602868406B0146204688470128F8D1386804200DF067FB04461148009DA7
:205F600006603868012D02D130460BF095F910F05FF908200DF058FB07460298CAF8DC6066
:205F800010F040FB0EF060FF57EA040018BF4FF0FF3804E06FF0040801E06FF001084046B9
:205FA000BDE8FE8F0C400940B80100102C200940428701003E8701002820086080010443B4
:205FC00000400340242208401C1400501C00094008E7A4803C1500207B4A2DE9F84F81465E
:205FE000854C5068800806D2106804F15001000C40F0F0000870D2F808B0DFF8D081754FE8
:20600000641E5E46B00E11D2700E0FD3802084F820004FF6D801A4F861103D462074A5F145
:2060200070000068C0F304600AF032F8684D55F8180CBA46C0F3400018B96749002008602B
:2060400001E046F040666549F00EB70E80F001004FF0805300F00100086087F0010000F0CE
:2060600001008860D3F8F06103F5F87072680090594648469047DFF86891DAF80070594B97
:2060800039F83B2C07F0FF06101280F0C000B04211D002F0FF021968B04234BF01214FF08D
:2060A000FF3140180102864281F4404142EA010129F83B1CEFD13809C7F30331C7F384467E
:2060C0006FF4017200F0F000014304F80810F90CA65401F0F00040F47040A4F86300DAF81D
:2060E000046028681F4620F0100828F4F070286057F8080C5FEA9B6002D25FEA5B6017D2B3
:2061000055F8180C800834BF300AF00800F0F80040F47840A4F86100207800F07F002070F9
:20612000207840F080002070C6F3044009F0B0FF46F3050321783A6841F30500984211D072
:206140009842B4BF01224FF0FF3201F04001801800F03F020A4322702178834241F0800175
:206160002170E7D138683868C5F800801E4957F8080CDAF814004026C0F3053089F8A30F28
:2061800043F61803E675009A0B8010688168584688471649164A0AE0105C9378141D834247
:2061A00099BF204410F8010C20444078086008684B689842FCD10228EED1012048620D4FB0
:2061C0003860BDE8F88FC046AC4F0050FEFDFFFF28000940F813005094042A43000220437B
:2061E0006BA00C40342009406AB00C4000600C402889010094046042066208402DE9F043B4
:20620000002B08BF002A10D10029BCBF00204FF0004106DB50EA01071CBF6FF000006FF081
:2062200000410BF084FBBDE8F0835FEA530898EA610803D50026404266EB01015FF00009D1
:2062400013F0004E03D00026524266EB03031C461546002C08BF8D429CBF2C1C0025070CAF
:2062600047EA01470E0CB44208BFBD429EBF240444EA15442D04070A47EA01670E0AB442DA
:2062800008BFBD429EBF240244EA15642D02470847EAC1774E08B44208BFBD4200F2928011
:2062A000870847EA81778E08B44208BFBD427BD8C70847EA4177CE08B44208BFBD4265D8FA
:2062C000070947EA01770E09B44208BFBD424FD8470947EAC1674E09B44208BFBD4239D83E
:2062E000870947EA81678E09B44208BFBD4223D8C70947EA4167CE09B44208BFBD420DD886
:20630000E60146EA5566EF01B14208BFB84201D3C01BB14159EB09094EEB0E0EA60146EAE4
:206320009566AF01B14208BFB84201D3C01BB14159EB09094EEB0E0E660146EAD5666F0170
:20634000B14208BFB84201D3C01BB14159EB09094EEB0E0E260146EA15762F01B14208BF71
:20636000B84201D3C01BB14159EB09094EEB0E0EE60046EA5576EF00B14208BFB84201D37F
:20638000C01BB14159EB09094EEB0E0EA60046EA9576AF00B14208BFB84201D3C01BB141A0
:2063A00059EB09094EEB0E0E660046EAD5766F00B14208BFB84201D3C01BB14159EB090937
:2063C0004EEB0E0EA14208BFA84201D3401BA14159EB09094EEB0E0EA34208BFAA423EBF83
:2063E0002D0A45EA0465240A8AD373464A465FEA080803D50026404266EB01015FEA480835
:2064000003D50026524266EB03031E4617460B46024631463846BDE8F08370472DE9FE4F12
:206420000CAF9946934604467D680291294604F0F3FB061C00F0EE803888F082774F3475B5
:2064400097F8FC0218B1012C04BF1520307506F1840029460B2251F0C5F9012C04D00D2CCC
:206460001CBF7068401C00D170683062002597F8FC0235650028B5654ED0052C18BF012CF1
:2064800045D14FF0040A86F86BA0F08A86F86950C00934BF97F80D0497F8360459460A226F
:2064A00086F86A0006F1700051F09CF99BF8080003282CD1032097F8113402903BB3DFF8A6
:2064C000608108EB8408D8F8000010F47F0F0ED086F82CA0D8F8000006F12C01012200F4C7
:2064E0007F003063304602F0E1F9D8F8000010F0FF0F0CD02A2086F83C00D8F8000006F1C3
:206500003C0100F0FF003064304606F0EFFD97F8FC0208B10D2C13D0009502994B463046CA
:206520005A46FCF7FBF8071C75D1E41F012C03D8707E40F020007076304606F05DF96AE031
:206540000520374C86F86B0004F13400016811F0F70F18D02A2186F83C10BA78006806F183
:206560003C01012A00F0FF0030641CBF20F00800306497F8110418B9306C20F002003064F2
:20658000304606F0B3FD009502994B4630465A46FCF7C4F85FEA00083AD122480660348970
:2065A000756801A964200CF0EBFE1F4EA01C0DF1050187B206F1D0000780E9200CF0E0FE54
:2065C0009DF80500012806D13C46C4F30220022140F0180006E0241D0421A4B2C4F30220E0
:2065E00040F0080005F8010D671A05F8014DB9B2C6F8DC50AD1C284609F080FC9DF80400F2
:2066000000280CBF09480A48C6F81801C6F8D800474600E01A27F8B2BDE8FE8F20080020A5
:20662000447B0100BC1C0020C81300204E9055550E7A55552DE9F047044694F830900F46B5
:20664000984615468B20ADF1300D0DF10A0102F05FFB8A20694602F05BFB94F825000028AC
:206660003ED1B9F1000F19D1BDF80A104FF6FE70884205DCBDF80A1088422FD1694615E0FE
:20668000B4F844009DF80A608DF80C0000128DF80D00BDF80A008DF80E601BE0B9F1020F6E
:2066A00009D0B9F1030F19D104F1280103A851F05DFB092612E0207CC00934BFB4F8420092
:2066C000B4F844008DF80C0000128DF80D00208D8DF80E00001205268DF80F00002013E071
:2066E00002280CBF05260926012818BF04F11C0104D1892006A902F00BFB06A9324603A842
:2067000051F070F894F826000DEB0601C8723A4603A831460AF0A4FA002840F08F80B9F19A
:20672000000F19D1BDF80A104FF6FE70884205DCBDF80A1088422FD1694615E0B4F8440006
:206740009DF80A608DF8200000128DF82100BDF80A008DF822601BE0B9F1020F09D0B9F1DE
:20676000030F19D104F1280108A851F0FFFA082012E0207CC00934BFB4F84200B4F84400C5
:206780008DF8200000128DF82100208D8DF8220000128DF8230004203E6881460BA98220A7
:2067A00002F0B6FA9DF82C10307B8142D8BF9DF82C00002842D0074600244FF0180A722002
:2067C00029460EF005FBB0689DF82C100019C8F80000007881422DDD296810FB0A10286007
:2067E0000146D8F800004278012A1FD083782BBBB9F1040F06D0091D08A851F09FFA012861
:2068000016D017E008884B888DF82800042208A98DF82A3000128DF8290018128DF82B003B
:206820000AA850F0A3FF012802D003E0807828B9002004E07F1E04F10304C0D1F3200CB010
:20684000BDE8F0872DE9FE4FDFF8E0810025804C98F86B048DF80050667801900FF062FDEF
:206860004FF0010B0BFA06F2DFF8C891744E4FF6FF718918014098F8FC02618138B3D8F81C
:20688000342322B342F21A0069469047684867790378B3B1AFB99DF8003093B1D8F85803ED
:2068A00078B1804707464946701C097800783FB16389083010FB01F0B7FBF0F15818608193
:2068C00067799DF80010608907FB01006081A078002840F09280607898F86B14574C012930
:2068E00066D155480068C06B804782460BF0E2F9074604F1900299F8000011780223800039
:2069000063F3030107FB00AC11707178C4F88CC0083189B200FB01C204F17401087863F38B
:206920000300087004F1CC032267187865F30300187098F86B04012836D10FF02FF998B37B
